{
  "address": "0xEc547E5aEf5Ce2e888604B1B6EC98A69fFDeaF2B",
  "abi": [
    {
      "inputs": [
        {
          "internalType": "address",
          "name": "admin",
          "type": "address"
        },
        {
          "internalType": "address",
          "name": "priceSetter",
          "type": "address"
        },
        {
          "internalType": "address",
          "name": "_rwaOracle",
          "type": "address"
        }
      ],
      "stateMutability": "nonpayable",
      "type": "constructor"
    },
    {
      "inputs": [],
      "name": "InvalidPrice",
      "type": "error"
    },
    {
      "inputs": [],
      "name": "PriceChangeTooLarge",
      "type": "error"
    },
    {
      "inputs": [],
      "name": "PriceIdDoesNotExist",
      "type": "error"
    },
    {
      "inputs": [],
      "name": "StaleOraclePrice",
      "type": "error"
    },
    {
      "inputs": [],
      "name": "TimeStampInFuture",
      "type": "error"
    },
    {
      "inputs": [],
      "name": "TimeStampTooOld",
      "type": "error"
    },
    {
      "anonymous": false,
      "inputs": [
        {
          "indexed": false,
          "internalType": "uint256",
          "name": "olfdDiff",
          "type": "uint256"
        },
        {
          "indexed": false,
          "internalType": "uint256",
          "name": "newDiff",
          "type": "uint256"
        }
      ],
      "name": "MaxTimestampDiffSet",
      "type": "event"
    },
    {
      "anonymous": false,
      "inputs": [
        {
          "indexed": true,
          "internalType": "uint256",
          "name": "priceId",
          "type": "uint256"
        },
        {
          "indexed": false,
          "internalType": "uint256",
          "name": "price",
          "type": "uint256"
        },
        {
          "indexed": false,
          "internalType": "uint256",
          "name": "timestamp",
          "type": "uint256"
        }
      ],
      "name": "PriceAdded",
      "type": "event"
    },
    {
      "anonymous": false,
      "inputs": [
        {
          "indexed": true,
          "internalType": "uint256",
          "name": "priceId",
          "type": "uint256"
        },
        {
          "indexed": false,
          "internalType": "uint256",
          "name": "price",
          "type": "uint256"
        },
        {
          "indexed": false,
          "internalType": "uint256",
          "name": "timestamp",
          "type": "uint256"
        }
      ],
      "name": "PriceDeleted",
      "type": "event"
    },
    {
      "anonymous": false,
      "inputs": [
        {
          "indexed": true,
          "internalType": "uint256",
          "name": "priceId",
          "type": "uint256"
        },
        {
          "indexed": false,
          "internalType": "uint256",
          "name": "oldPrice",
          "type": "uint256"
        },
        {
          "indexed": false,
          "internalType": "uint256",
          "name": "newPrice",
          "type": "uint256"
        }
      ],
      "name": "PriceUpdated",
      "type": "event"
    },
    {
      "anonymous": false,
      "inputs": [
        {
          "indexed": true,
          "internalType": "bytes32",
          "name": "role",
          "type": "bytes32"
        },
        {
          "indexed": true,
          "internalType": "bytes32",
          "name": "previousAdminRole",
          "type": "bytes32"
        },
        {
          "indexed": true,
          "internalType": "bytes32",
          "name": "newAdminRole",
          "type": "bytes32"
        }
      ],
      "name": "RoleAdminChanged",
      "type": "event"
    },
    {
      "anonymous": false,
      "inputs": [
        {
          "indexed": true,
          "internalType": "bytes32",
          "name": "role",
          "type": "bytes32"
        },
        {
          "indexed": true,
          "internalType": "address",
          "name": "account",
          "type": "address"
        },
        {
          "indexed": true,
          "internalType": "address",
          "name": "sender",
          "type": "address"
        }
      ],
      "name": "RoleGranted",
      "type": "event"
    },
    {
      "anonymous": false,
      "inputs": [
        {
          "indexed": true,
          "internalType": "bytes32",
          "name": "role",
          "type": "bytes32"
        },
        {
          "indexed": true,
          "internalType": "address",
          "name": "account",
          "type": "address"
        },
        {
          "indexed": true,
          "internalType": "address",
          "name": "sender",
          "type": "address"
        }
      ],
      "name": "RoleRevoked",
      "type": "event"
    },
    {
      "inputs": [],
      "name": "ADD_PRICE_OPS_ROLE",
      "outputs": [
        {
          "internalType": "bytes32",
          "name": "",
          "type": "bytes32"
        }
      ],
      "stateMutability": "view",
      "type": "function"
    },
    {
      "inputs": [],
      "name": "BPS_DENOMINATOR",
      "outputs": [
        {
          "internalType": "int256",
          "name": "",
          "type": "int256"
        }
      ],
      "stateMutability": "view",
      "type": "function"
    },
    {
      "inputs": [],
      "name": "DEFAULT_ADMIN_ROLE",
      "outputs": [
        {
          "internalType": "bytes32",
          "name": "",
          "type": "bytes32"
        }
      ],
      "stateMutability": "view",
      "type": "function"
    },
    {
      "inputs": [],
      "name": "OPS_MAX_CHANGE_DIFF_BPS",
      "outputs": [
        {
          "internalType": "uint256",
          "name": "",
          "type": "uint256"
        }
      ],
      "stateMutability": "view",
      "type": "function"
    },
    {
      "inputs": [],
      "name": "PRICE_UPDATE_ROLE",
      "outputs": [
        {
          "internalType": "bytes32",
          "name": "",
          "type": "bytes32"
        }
      ],
      "stateMutability": "view",
      "type": "function"
    },
    {
      "inputs": [
        {
          "internalType": "int256",
          "name": "previousPrice",
          "type": "int256"
        },
        {
          "internalType": "int256",
          "name": "newPrice",
          "type": "int256"
        }
      ],
      "name": "_getPriceChangeBps",
      "outputs": [
        {
          "internalType": "uint256",
          "name": "",
          "type": "uint256"
        }
      ],
      "stateMutability": "pure",
      "type": "function"
    },
    {
      "inputs": [
        {
          "internalType": "uint256",
          "name": "price",
          "type": "uint256"
        },
        {
          "internalType": "uint256",
          "name": "timestamp",
          "type": "uint256"
        }
      ],
      "name": "addPrice",
      "outputs": [],
      "stateMutability": "nonpayable",
      "type": "function"
    },
    {
      "inputs": [
        {
          "internalType": "uint256",
          "name": "price",
          "type": "uint256"
        },
        {
          "internalType": "uint256",
          "name": "timestamp",
          "type": "uint256"
        }
      ],
      "name": "addPriceOps",
      "outputs": [],
      "stateMutability": "nonpayable",
      "type": "function"
    },
    {
      "inputs": [],
      "name": "currentPriceId",
      "outputs": [
        {
          "internalType": "uint256",
          "name": "",
          "type": "uint256"
        }
      ],
      "stateMutability": "view",
      "type": "function"
    },
    {
      "inputs": [
        {
          "internalType": "uint256",
          "name": "priceId",
          "type": "uint256"
        }
      ],
      "name": "deletePrice",
      "outputs": [],
      "stateMutability": "nonpayable",
      "type": "function"
    },
    {
      "inputs": [],
      "name": "getLatestPrice",
      "outputs": [
        {
          "internalType": "uint256",
          "name": "",
          "type": "uint256"
        }
      ],
      "stateMutability": "view",
      "type": "function"
    },
    {
      "inputs": [
        {
          "internalType": "uint256",
          "name": "priceId",
          "type": "uint256"
        }
      ],
      "name": "getPrice",
      "outputs": [
        {
          "internalType": "uint256",
          "name": "",
          "type": "uint256"
        }
      ],
      "stateMutability": "view",
      "type": "function"
    },
    {
      "inputs": [
        {
          "internalType": "bytes32",
          "name": "role",
          "type": "bytes32"
        }
      ],
      "name": "getRoleAdmin",
      "outputs": [
        {
          "internalType": "bytes32",
          "name": "",
          "type": "bytes32"
        }
      ],
      "stateMutability": "view",
      "type": "function"
    },
    {
      "inputs": [
        {
          "internalType": "bytes32",
          "name": "role",
          "type": "bytes32"
        },
        {
          "internalType": "uint256",
          "name": "index",
          "type": "uint256"
        }
      ],
      "name": "getRoleMember",
      "outputs": [
        {
          "internalType": "address",
          "name": "",
          "type": "address"
        }
      ],
      "stateMutability": "view",
      "type": "function"
    },
    {
      "inputs": [
        {
          "internalType": "bytes32",
          "name": "role",
          "type": "bytes32"
        }
      ],
      "name": "getRoleMemberCount",
      "outputs": [
        {
          "internalType": "uint256",
          "name": "",
          "type": "uint256"
        }
      ],
      "stateMutability": "view",
      "type": "function"
    },
    {
      "inputs": [
        {
          "internalType": "bytes32",
          "name": "role",
          "type": "bytes32"
        },
        {
          "internalType": "address",
          "name": "account",
          "type": "address"
        }
      ],
      "name": "grantRole",
      "outputs": [],
      "stateMutability": "nonpayable",
      "type": "function"
    },
    {
      "inputs": [
        {
          "internalType": "bytes32",
          "name": "role",
          "type": "bytes32"
        },
        {
          "internalType": "address",
          "name": "account",
          "type": "address"
        }
      ],
      "name": "hasRole",
      "outputs": [
        {
          "internalType": "bool",
          "name": "",
          "type": "bool"
        }
      ],
      "stateMutability": "view",
      "type": "function"
    },
    {
      "inputs": [
        {
          "internalType": "uint256[]",
          "name": "priceIds",
          "type": "uint256[]"
        }
      ],
      "name": "isValid",
      "outputs": [
        {
          "internalType": "bool",
          "name": "",
          "type": "bool"
        }
      ],
      "stateMutability": "view",
      "type": "function"
    },
    {
      "inputs": [],
      "name": "latestPriceId",
      "outputs": [
        {
          "internalType": "uint256",
          "name": "",
          "type": "uint256"
        }
      ],
      "stateMutability": "view",
      "type": "function"
    },
    {
      "inputs": [],
      "name": "maxTimestampDiff",
      "outputs": [
        {
          "internalType": "uint256",
          "name": "",
          "type": "uint256"
        }
      ],
      "stateMutability": "view",
      "type": "function"
    },
    {
      "inputs": [
        {
          "internalType": "uint256",
          "name": "",
          "type": "uint256"
        }
      ],
      "name": "priceIds",
      "outputs": [
        {
          "internalType": "uint256",
          "name": "",
          "type": "uint256"
        }
      ],
      "stateMutability": "view",
      "type": "function"
    },
    {
      "inputs": [
        {
          "internalType": "uint256",
          "name": "",
          "type": "uint256"
        }
      ],
      "name": "prices",
      "outputs": [
        {
          "internalType": "uint256",
          "name": "price",
          "type": "uint256"
        },
        {
          "internalType": "uint256",
          "name": "timestamp",
          "type": "uint256"
        }
      ],
      "stateMutability": "view",
      "type": "function"
    },
    {
      "inputs": [
        {
          "internalType": "bytes32",
          "name": "role",
          "type": "bytes32"
        },
        {
          "internalType": "address",
          "name": "account",
          "type": "address"
        }
      ],
      "name": "renounceRole",
      "outputs": [],
      "stateMutability": "nonpayable",
      "type": "function"
    },
    {
      "inputs": [
        {
          "internalType": "bytes32",
          "name": "role",
          "type": "bytes32"
        },
        {
          "internalType": "address",
          "name": "account",
          "type": "address"
        }
      ],
      "name": "revokeRole",
      "outputs": [],
      "stateMutability": "nonpayable",
      "type": "function"
    },
    {
      "inputs": [],
      "name": "rwaOracle",
      "outputs": [
        {
          "internalType": "contract IRWAOracleSetter",
          "name": "",
          "type": "address"
        }
      ],
      "stateMutability": "view",
      "type": "function"
    },
    {
      "inputs": [
        {
          "internalType": "uint256",
          "name": "diff",
          "type": "uint256"
        }
      ],
      "name": "setMaxTimestampDiff",
      "outputs": [],
      "stateMutability": "nonpayable",
      "type": "function"
    },
    {
      "inputs": [
        {
          "internalType": "bytes4",
          "name": "interfaceId",
          "type": "bytes4"
        }
      ],
      "name": "supportsInterface",
      "outputs": [
        {
          "internalType": "bool",
          "name": "",
          "type": "bool"
        }
      ],
      "stateMutability": "view",
      "type": "function"
    },
    {
      "inputs": [
        {
          "internalType": "uint256",
          "name": "priceId",
          "type": "uint256"
        },
        {
          "internalType": "uint256",
          "name": "price",
          "type": "uint256"
        }
      ],
      "name": "updatePrice",
      "outputs": [],
      "stateMutability": "nonpayable",
      "type": "function"
    }
  ],
  "transactionHash": "0x358d67042765d526d60d741abd37eccfeaee0df7c7a4965dbc8839d1c4b57d4c",
  "args": [
    "0xAEd4caF2E535D964165B4392342F71bac77e8367",
    "0x682d3d7cB33A9089C19b9B135a5DB3d2C5CF20C4",
    "0x0502c5ae08E7CD64fe1AEDA7D6e229413eCC6abe"
  ],
  "solcInputHash": "d2b804c8941ee1bce0ab840ffe24e5ec",
  "bytecode": "0x60a060405262278d006006553480156200001857600080fd5b50604051620017dc380380620017dc8339810160408190526200003b916200032b565b82826200004a600083620001b8565b620000767ff7650eb8b2f3fb3c9b995a8ee2fc3c04ed07f1c4efe01998177b109698c6751782620001b8565b50506001600160a01b038116608052600480546000919082906200009a9062000375565b91905081905590506000806080516001600160a01b031663a4a281686040518163ffffffff1660e01b81526004016040805180830381865afa158015620000e5573d6000803e3d6000fd5b505050506040513d601f19601f820116820180604052508101906200010b91906200039d565b604080518082018252838152602080820184815260008981526002835284812093518455905160019384015560038054938401815590527fc2575a0e9e593c00f959f8c92f12db2869c3395a3b0502d05e2516446f71f85b9091018790556005879055815184815290810183905292945090925084917fe1bc32bb3797b6327bbbe2391d39c062a5b4f0c68970d144a74d7f17d2e38aaa910160405180910390a2505050505050620003c2565b620001cf8282620001fb60201b620009c21760201c565b6000828152600160209081526040909120620001f691839062000a466200029c821b17901c565b505050565b6000828152602081815260408083206001600160a01b038516845290915290205460ff1662000298576000828152602081815260408083206001600160a01b03851684529091529020805460ff19166001179055620002573390565b6001600160a01b0316816001600160a01b0316837f2f8788117e7eff1d82e926ec794901d17c78024a50270940304540a733656f0d60405160405180910390a45b5050565b6000620002b3836001600160a01b038416620002bc565b90505b92915050565b60008181526001830160205260408120546200030557508154600181810184556000848152602080822090930184905584548482528286019093526040902091909155620002b6565b506000620002b6565b80516001600160a01b03811681146200032657600080fd5b919050565b6000806000606084860312156200034157600080fd5b6200034c846200030e565b92506200035c602085016200030e565b91506200036c604085016200030e565b90509250925092565b6000600182016200039657634e487b7160e01b600052601160045260246000fd5b5060010190565b60008060408385031215620003b157600080fd5b505080516020909101519092909150565b6080516113f7620003e5600039600081816102af01526107ef01526113f76000f3fe608060405234801561001057600080fd5b50600436106101845760003560e01c80638e15f473116100d9578063d40db51e11610087578063d40db51e14610392578063d547741f146103a5578063e1a45218146103b8578063e2d9e3f2146103c1578063e7572230146103d4578063f68d3bf2146103f4578063fb5620511461040757600080fd5b80638e15f473146102e95780639010d07c1461030057806391d1485414610313578063a217fddf14610326578063b8b6f0751461032e578063bc31c1c114610343578063ca15c8731461037f57600080fd5b8063433c3a2111610136578063433c3a211461022f5780634db260f314610256578063572793531461025e5780637e2b71fb1461027157806382367b2d14610284578063857ceeb2146102975780638aec6463146102aa57600080fd5b806301ffc9a714610189578063145de168146101b1578063248a9ca3146101c85780632a50fe2c146101eb5780632f2ff15d1461020057806336568abe1461021357806338ea58cf14610226575b600080fd5b61019c610197366004610fd7565b610410565b60405190151581526020015b60405180910390f35b6101ba60045481565b6040519081526020016101a8565b6101ba6101d6366004611001565b60009081526020819052604090206001015490565b6101fe6101f9366004611001565b61043b565b005b6101fe61020e36600461101a565b6104ed565b6101fe61022136600461101a565b610518565b6101ba60065481565b6101ba7fbd6b70d2cc04c8fe7526d15ccbf2ec0d7bf408a4a5dc6187c3d94020a05efebe81565b6101ba601481565b6101fe61026c366004611056565b61059b565b61019c61027f366004611078565b6105be565b6101fe610292366004611056565b610632565b6101ba6102a5366004611056565b610724565b6102d17f000000000000000000000000000000000000000000000000000000000000000081565b6040516001600160a01b0390911681526020016101a8565b6005546000908152600260205260409020546101ba565b6102d161030e366004611056565b610760565b61019c61032136600461101a565b61077f565b6101ba600081565b6101ba6000805160206113a283398151915281565b61036a610351366004611001565b6002602052600090815260409020805460019091015482565b604080519283526020830191909152016101a8565b6101ba61038d366004611001565b6107a8565b6101fe6103a0366004611056565b6107bf565b6101fe6103b336600461101a565b610929565b6101ba61271081565b6101ba6103cf366004611001565b61094f565b6101ba6103e2366004611001565b60009081526002602052604090205490565b6101fe610402366004611001565b610970565b6101ba60055481565b60006001600160e01b03198216635a05180f60e01b1480610435575061043582610a5b565b92915050565b60006104478133610a90565b60008281526002602052604081205490036104755760405163b75e419960e01b815260040160405180910390fd5b60008281526002602081815260408084208151808301835281548152600182018054828601908152898852958552918690559490558351925181519384529183019190915284917ff1260f72a8c533a73315dafc2e5bc34b2cb2bbbe974291daa6c13f86f92fa67c91015b60405180910390a2505050565b6000828152602081905260409020600101546105098133610a90565b6105138383610af4565b505050565b6001600160a01b038116331461058d5760405162461bcd60e51b815260206004820152602f60248201527f416363657373436f6e74726f6c3a2063616e206f6e6c792072656e6f756e636560448201526e103937b632b9903337b91039b2b63360891b60648201526084015b60405180910390fd5b6105978282610b16565b5050565b6000805160206113a28339815191526105b48133610a90565b6105138383610b38565b6000805b82811015610628576006546105d79042611103565b600260008686858181106105ed576105ed611116565b905060200201358152602001908152602001600020600101541015610616576000915050610435565b806106208161112c565b9150506105c2565b5060019392505050565b6000805160206113a283398151915261064b8133610a90565b8160000361066b5760405162bfc92160e01b815260040160405180910390fd5b60008381526002602052604081205490036106995760405163b75e419960e01b815260040160405180910390fd5b60008381526002602081815260408084208151808301835281548152600182018054828601908152845180860186528a81529051818701908152978b9052958552945190915593519092558251825190815290810185905285917f15819dd2fd9f6418b142e798d08a18d0bf06ea368f4480b7b0d3f75bd966bc48910160405180910390a250505050565b6000806107318484611145565b905060008461074261271084611165565b61074c91906111ea565b905061075781610c1c565b95945050505050565b60008281526001602052604081206107789083610c38565b9392505050565b6000918252602082815260408084206001600160a01b0393909316845291905290205460ff1690565b600081815260016020526040812061043590610c44565b7fbd6b70d2cc04c8fe7526d15ccbf2ec0d7bf408a4a5dc6187c3d94020a05efebe6107ea8133610a90565b6000807f00000000000000000000000000000000000000000000000000000000000000006001600160a01b031663a4a281686040518163ffffffff1660e01b81526004016040805180830381865afa15801561084a573d6000803e3d6000fd5b505050506040513d601f19601f8201168201806040525081019061086e9190611226565b91509150601461087e8684610724565b111561089d5760405163a8eb64ed60e01b815260040160405180910390fd5b428411156108be5760405163eb2ceadf60e01b815260040160405180910390fd5b6006546108cb9042611103565b8410156108eb57604051630c3cc56360e31b815260040160405180910390fd5b6006546108f89042611103565b81101561091857604051631510fe5b60e31b815260040160405180910390fd5b6109228585610b38565b5050505050565b6000828152602081905260409020600101546109458133610a90565b6105138383610b16565b6003818154811061095f57600080fd5b600091825260209091200154905081565b600061097c8133610a90565b600680549083905560408051828152602081018590527fb7a00f008cc126cdb6e20638fa92480dba1a34c65ce21f164a3d796bc45c3aac910160405180910390a1505050565b6109cc828261077f565b610597576000828152602081815260408083206001600160a01b03851684529091529020805460ff19166001179055610a023390565b6001600160a01b0316816001600160a01b0316837f2f8788117e7eff1d82e926ec794901d17c78024a50270940304540a733656f0d60405160405180910390a45050565b6000610778836001600160a01b038416610c4e565b60006001600160e01b03198216637965db0b60e01b148061043557506301ffc9a760e01b6001600160e01b0319831614610435565b610a9a828261077f565b61059757610ab2816001600160a01b03166014610c9d565b610abd836020610c9d565b604051602001610ace92919061126e565b60408051601f198184030181529082905262461bcd60e51b8252610584916004016112dd565b610afe82826109c2565b60008281526001602052604090206105139082610a46565b610b208282610e39565b60008281526001602052604090206105139082610e9e565b81600003610b585760405162bfc92160e01b815260040160405180910390fd5b6000600460008154610b699061112c565b91829055506040805180820182528581526020808201868152600085815260029092528382209251835551600192830155600380548084019091557fc2575a0e9e593c00f959f8c92f12db2869c3395a3b0502d05e2516446f71f85b018490556005548152919091200154909150821115610be45760058190555b604080518481526020810184905282917fe1bc32bb3797b6327bbbe2391d39c062a5b4f0c68970d144a74d7f17d2e38aaa91016104e0565b600080821215610c3457610c2f82611310565b610435565b5090565b60006107788383610eb3565b6000610435825490565b6000818152600183016020526040812054610c9557508154600181810184556000848152602080822090930184905584548482528286019093526040902091909155610435565b506000610435565b60606000610cac83600261132c565b610cb790600261134b565b67ffffffffffffffff811115610ccf57610ccf61135e565b6040519080825280601f01601f191660200182016040528015610cf9576020820181803683370190505b509050600360fc1b81600081518110610d1457610d14611116565b60200101906001600160f81b031916908160001a905350600f60fb1b81600181518110610d4357610d43611116565b60200101906001600160f81b031916908160001a9053506000610d6784600261132c565b610d7290600161134b565b90505b6001811115610dea576f181899199a1a9b1b9c1cb0b131b232b360811b85600f1660108110610da657610da6611116565b1a60f81b828281518110610dbc57610dbc611116565b60200101906001600160f81b031916908160001a90535060049490941c93610de381611374565b9050610d75565b5083156107785760405162461bcd60e51b815260206004820181905260248201527f537472696e67733a20686578206c656e67746820696e73756666696369656e746044820152606401610584565b610e43828261077f565b15610597576000828152602081815260408083206001600160a01b0385168085529252808320805460ff1916905551339285917ff6391f5c32d9c69d2a47ea670b442974b53935d1edc7fd64eb21e047a839171b9190a45050565b6000610778836001600160a01b038416610edd565b6000826000018281548110610eca57610eca611116565b9060005260206000200154905092915050565b60008181526001830160205260408120548015610fc6576000610f01600183611103565b8554909150600090610f1590600190611103565b9050818114610f7a576000866000018281548110610f3557610f35611116565b9060005260206000200154905080876000018481548110610f5857610f58611116565b6000918252602080832090910192909255918252600188019052604090208390555b8554869080610f8b57610f8b61138b565b600190038181906000526020600020016000905590558560010160008681526020019081526020016000206000905560019350505050610435565b6000915050610435565b5092915050565b600060208284031215610fe957600080fd5b81356001600160e01b03198116811461077857600080fd5b60006020828403121561101357600080fd5b5035919050565b6000806040838503121561102d57600080fd5b8235915060208301356001600160a01b038116811461104b57600080fd5b809150509250929050565b6000806040838503121561106957600080fd5b50508035926020909101359150565b6000806020838503121561108b57600080fd5b823567ffffffffffffffff808211156110a357600080fd5b818501915085601f8301126110b757600080fd5b8135818111156110c657600080fd5b8660208260051b85010111156110db57600080fd5b60209290920196919550909350505050565b634e487b7160e01b600052601160045260246000fd5b81810381811115610435576104356110ed565b634e487b7160e01b600052603260045260246000fd5b60006001820161113e5761113e6110ed565b5060010190565b8181036000831280158383131683831282161715610fd057610fd06110ed565b60006001600160ff1b038184138284138082168684048611161561118b5761118b6110ed565b600160ff1b60008712828116878305891216156111aa576111aa6110ed565b600087129250878205871284841616156111c6576111c66110ed565b878505871281841616156111dc576111dc6110ed565b505050929093029392505050565b60008261120757634e487b7160e01b600052601260045260246000fd5b600160ff1b821460001984141615611221576112216110ed565b500590565b6000806040838503121561123957600080fd5b505080516020909101519092909150565b60005b8381101561126557818101518382015260200161124d565b50506000910152565b76020b1b1b2b9b9a1b7b73a3937b61d1030b1b1b7bab73a1604d1b8152600083516112a081601785016020880161124a565b7001034b99036b4b9b9b4b733903937b6329607d1b60179184019182015283516112d181602884016020880161124a565b01602801949350505050565b60208152600082518060208401526112fc81604085016020870161124a565b601f01601f19169190910160400192915050565b6000600160ff1b8201611325576113256110ed565b5060000390565b6000816000190483118215151615611346576113466110ed565b500290565b80820180821115610435576104356110ed565b634e487b7160e01b600052604160045260246000fd5b600081611383576113836110ed565b506000190190565b634e487b7160e01b600052603160045260246000fdfef7650eb8b2f3fb3c9b995a8ee2fc3c04ed07f1c4efe01998177b109698c67517a2646970667358221220553a3621a859a24fd4121359848cf1b275f5c68994af016c77d22c4f783ddd3364736f6c63430008100033",
  "devdoc": {
    "kind": "dev",
    "methods": {
      "_getPriceChangeBps(int256,int256)": {
        "details": "The price change can be negative.",
        "params": {
          "newPrice": "New price",
          "previousPrice": "Previous price"
        }
      },
      "addPrice(uint256,uint256)": {
        "params": {
          "price": "The price to add",
          "timestamp": "The timestamp associated with the price"
        }
      },
      "addPriceOps(uint256,uint256)": {
        "details": "Adds a new price and timestamp to the price history, subject to certain conditions. Only callable by an account with the `ADD_PRICE_OPS_ROLE` role.",
        "params": {
          "price": "The new price to add.",
          "timestamp": "The timestamp at which the price was recorded. Emits a {PriceChangeTooLarge}, {TimeStampInFuture}, {TimeStampTooOld}, or {StaleOraclePrice} error if the conditions are not met."
        }
      },
      "deletePrice(uint256)": {
        "details": "Deletes a price from the contract.",
        "params": {
          "priceId": "The ID of the price to be deleted. Emits a {PriceDeleted} event. Requirements: - The caller must have the `DEFAULT_ADMIN_ROLE`. - The price ID must exist."
        }
      },
      "getLatestPrice()": {
        "returns": {
          "_0": "uint256 The latest price of the asset"
        }
      },
      "getPrice(uint256)": {
        "returns": {
          "_0": "uint256 The price of the asset"
        }
      },
      "getRoleAdmin(bytes32)": {
        "details": "Returns the admin role that controls `role`. See {grantRole} and {revokeRole}. To change a role's admin, use {_setRoleAdmin}."
      },
      "getRoleMember(bytes32,uint256)": {
        "details": "Returns one of the accounts that have `role`. `index` must be a value between 0 and {getRoleMemberCount}, non-inclusive. Role bearers are not sorted in any particular way, and their ordering may change at any point. WARNING: When using {getRoleMember} and {getRoleMemberCount}, make sure you perform all queries on the same block. See the following https://forum.openzeppelin.com/t/iterating-over-elements-on-enumerableset-in-openzeppelin-contracts/2296[forum post] for more information."
      },
      "getRoleMemberCount(bytes32)": {
        "details": "Returns the number of accounts that have `role`. Can be used together with {getRoleMember} to enumerate all bearers of a role."
      },
      "grantRole(bytes32,address)": {
        "details": "Grants `role` to `account`. If `account` had not been already granted `role`, emits a {RoleGranted} event. Requirements: - the caller must have ``role``'s admin role."
      },
      "hasRole(bytes32,address)": {
        "details": "Returns `true` if `account` has been granted `role`."
      },
      "isValid(uint256[])": {
        "details": "Checks if the given priceIds are valid by verifying that their corresponding prices were updated within the last `maxTimestampDiff` seconds.",
        "params": {
          "priceIds": "An array of priceIds to check validity for."
        },
        "returns": {
          "_0": "A boolean indicating whether all the given priceIds are valid or not."
        }
      },
      "renounceRole(bytes32,address)": {
        "details": "Revokes `role` from the calling account. Roles are often managed via {grantRole} and {revokeRole}: this function's purpose is to provide a mechanism for accounts to lose their privileges if they are compromised (such as when a trusted device is misplaced). If the calling account had been revoked `role`, emits a {RoleRevoked} event. Requirements: - the caller must be `account`."
      },
      "revokeRole(bytes32,address)": {
        "details": "Revokes `role` from `account`. If `account` had been granted `role`, emits a {RoleRevoked} event. Requirements: - the caller must have ``role``'s admin role."
      },
      "setMaxTimestampDiff(uint256)": {
        "params": {
          "diff": "The maximum timestamp difference allowed"
        }
      },
      "supportsInterface(bytes4)": {
        "details": "See {IERC165-supportsInterface}."
      },
      "updatePrice(uint256,uint256)": {
        "params": {
          "price": "The price to set",
          "priceId": "The priceId to update"
        }
      }
    },
    "stateVariables": {
      "OPS_MAX_CHANGE_DIFF_BPS": {
        "details": "OPS_MAX_CHANGE_DIFF_BPS is a constant that represents the maximum percentage change allowed in the price of an asset in a single oracle update. It is set to 20 basis points (0.2%)."
      },
      "maxTimestampDiff": {
        "details": "The maximum allowed difference between the current timestamp and the timestamp of the oracle price update."
      }
    },
    "version": 1
  },
  "userdoc": {
    "events": {
      "PriceAdded(uint256,uint256,uint256)": {
        "notice": "Emitted when a price is added"
      },
      "PriceUpdated(uint256,uint256,uint256)": {
        "notice": "Emitted when a price is updated"
      }
    },
    "kind": "user",
    "methods": {
      "_getPriceChangeBps(int256,int256)": {
        "notice": "Compute the price change in basis points"
      },
      "addPrice(uint256,uint256)": {
        "notice": "Adds a price to the pricer"
      },
      "getLatestPrice()": {
        "notice": "Gets the latest price of the asset"
      },
      "getPrice(uint256)": {
        "notice": "Gets the latest price of the asset"
      },
      "setMaxTimestampDiff(uint256)": {
        "notice": "Set the maximum timestamp difference allowed for adding a price"
      },
      "updatePrice(uint256,uint256)": {
        "notice": "Updates a price in the pricer"
      }
    },
    "version": 1
  },
  "storageLayout": {
    "storage": [
      {
        "astId": 10192,
        "contract": "contracts/PricerWithOracle.sol:PricerWithOracle",
        "label": "_roles",
        "offset": 0,
        "slot": "0",
        "type": "t_mapping(t_bytes32,t_struct(RoleData)10187_storage)"
      },
      {
        "astId": 10495,
        "contract": "contracts/PricerWithOracle.sol:PricerWithOracle",
        "label": "_roleMembers",
        "offset": 0,
        "slot": "1",
        "type": "t_mapping(t_bytes32,t_struct(AddressSet)13404_storage)"
      },
      {
        "astId": 244,
        "contract": "contracts/PricerWithOracle.sol:PricerWithOracle",
        "label": "prices",
        "offset": 0,
        "slot": "2",
        "type": "t_mapping(t_uint256,t_struct(PriceInfo)239_storage)"
      },
      {
        "astId": 248,
        "contract": "contracts/PricerWithOracle.sol:PricerWithOracle",
        "label": "priceIds",
        "offset": 0,
        "slot": "3",
        "type": "t_array(t_uint256)dyn_storage"
      },
      {
        "astId": 251,
        "contract": "contracts/PricerWithOracle.sol:PricerWithOracle",
        "label": "currentPriceId",
        "offset": 0,
        "slot": "4",
        "type": "t_uint256"
      },
      {
        "astId": 253,
        "contract": "contracts/PricerWithOracle.sol:PricerWithOracle",
        "label": "latestPriceId",
        "offset": 0,
        "slot": "5",
        "type": "t_uint256"
      },
      {
        "astId": 477,
        "contract": "contracts/PricerWithOracle.sol:PricerWithOracle",
        "label": "maxTimestampDiff",
        "offset": 0,
        "slot": "6",
        "type": "t_uint256"
      }
    ],
    "types": {
      "t_address": {
        "encoding": "inplace",
        "label": "address",
        "numberOfBytes": "20"
      },
      "t_array(t_bytes32)dyn_storage": {
        "base": "t_bytes32",
        "encoding": "dynamic_array",
        "label": "bytes32[]",
        "numberOfBytes": "32"
      },
      "t_array(t_uint256)dyn_storage": {
        "base": "t_uint256",
        "encoding": "dynamic_array",
        "label": "uint256[]",
        "numberOfBytes": "32"
      },
      "t_bool": {
        "encoding": "inplace",
        "label": "bool",
        "numberOfBytes": "1"
      },
      "t_bytes32": {
        "encoding": "inplace",
        "label": "bytes32",
        "numberOfBytes": "32"
      },
      "t_mapping(t_address,t_bool)": {
        "encoding": "mapping",
        "key": "t_address",
        "label": "mapping(address => bool)",
        "numberOfBytes": "32",
        "value": "t_bool"
      },
      "t_mapping(t_bytes32,t_struct(AddressSet)13404_storage)": {
        "encoding": "mapping",
        "key": "t_bytes32",
        "label": "mapping(bytes32 => struct EnumerableSet.AddressSet)",
        "numberOfBytes": "32",
        "value": "t_struct(AddressSet)13404_storage"
      },
      "t_mapping(t_bytes32,t_struct(RoleData)10187_storage)": {
        "encoding": "mapping",
        "key": "t_bytes32",
        "label": "mapping(bytes32 => struct AccessControl.RoleData)",
        "numberOfBytes": "32",
        "value": "t_struct(RoleData)10187_storage"
      },
      "t_mapping(t_bytes32,t_uint256)": {
        "encoding": "mapping",
        "key": "t_bytes32",
        "label": "mapping(bytes32 => uint256)",
        "numberOfBytes": "32",
        "value": "t_uint256"
      },
      "t_mapping(t_uint256,t_struct(PriceInfo)239_storage)": {
        "encoding": "mapping",
        "key": "t_uint256",
        "label": "mapping(uint256 => struct Pricer.PriceInfo)",
        "numberOfBytes": "32",
        "value": "t_struct(PriceInfo)239_storage"
      },
      "t_struct(AddressSet)13404_storage": {
        "encoding": "inplace",
        "label": "struct EnumerableSet.AddressSet",
        "members": [
          {
            "astId": 13403,
            "contract": "contracts/PricerWithOracle.sol:PricerWithOracle",
            "label": "_inner",
            "offset": 0,
            "slot": "0",
            "type": "t_struct(Set)13103_storage"
          }
        ],
        "numberOfBytes": "64"
      },
      "t_struct(PriceInfo)239_storage": {
        "encoding": "inplace",
        "label": "struct Pricer.PriceInfo",
        "members": [
          {
            "astId": 236,
            "contract": "contracts/PricerWithOracle.sol:PricerWithOracle",
            "label": "price",
            "offset": 0,
            "slot": "0",
            "type": "t_uint256"
          },
          {
            "astId": 238,
            "contract": "contracts/PricerWithOracle.sol:PricerWithOracle",
            "label": "timestamp",
            "offset": 0,
            "slot": "1",
            "type": "t_uint256"
          }
        ],
        "numberOfBytes": "64"
      },
      "t_struct(RoleData)10187_storage": {
        "encoding": "inplace",
        "label": "struct AccessControl.RoleData",
        "members": [
          {
            "astId": 10184,
            "contract": "contracts/PricerWithOracle.sol:PricerWithOracle",
            "label": "members",
            "offset": 0,
            "slot": "0",
            "type": "t_mapping(t_address,t_bool)"
          },
          {
            "astId": 10186,
            "contract": "contracts/PricerWithOracle.sol:PricerWithOracle",
            "label": "adminRole",
            "offset": 0,
            "slot": "1",
            "type": "t_bytes32"
          }
        ],
        "numberOfBytes": "64"
      },
      "t_struct(Set)13103_storage": {
        "encoding": "inplace",
        "label": "struct EnumerableSet.Set",
        "members": [
          {
            "astId": 13098,
            "contract": "contracts/PricerWithOracle.sol:PricerWithOracle",
            "label": "_values",
            "offset": 0,
            "slot": "0",
            "type": "t_array(t_bytes32)dyn_storage"
          },
          {
            "astId": 13102,
            "contract": "contracts/PricerWithOracle.sol:PricerWithOracle",
            "label": "_indexes",
            "offset": 0,
            "slot": "1",
            "type": "t_mapping(t_bytes32,t_uint256)"
          }
        ],
        "numberOfBytes": "64"
      },
      "t_uint256": {
        "encoding": "inplace",
        "label": "uint256",
        "numberOfBytes": "32"
      }
    }
  }
}