{
  "address": "0xdBd7a7d8807f0C98c9A58f7732f2799c8587e5c6",
  "abi": [
    {
      "inputs": [],
      "stateMutability": "nonpayable",
      "type": "constructor"
    },
    {
      "anonymous": false,
      "inputs": [
        {
          "indexed": false,
          "internalType": "address[]",
          "name": "accounts",
          "type": "address[]"
        }
      ],
      "name": "BlockedAddressesAdded",
      "type": "event"
    },
    {
      "anonymous": false,
      "inputs": [
        {
          "indexed": false,
          "internalType": "address[]",
          "name": "accounts",
          "type": "address[]"
        }
      ],
      "name": "BlockedAddressesRemoved",
      "type": "event"
    },
    {
      "anonymous": false,
      "inputs": [
        {
          "indexed": true,
          "internalType": "address",
          "name": "previousOwner",
          "type": "address"
        },
        {
          "indexed": true,
          "internalType": "address",
          "name": "newOwner",
          "type": "address"
        }
      ],
      "name": "OwnershipTransferStarted",
      "type": "event"
    },
    {
      "anonymous": false,
      "inputs": [
        {
          "indexed": true,
          "internalType": "address",
          "name": "previousOwner",
          "type": "address"
        },
        {
          "indexed": true,
          "internalType": "address",
          "name": "newOwner",
          "type": "address"
        }
      ],
      "name": "OwnershipTransferred",
      "type": "event"
    },
    {
      "inputs": [],
      "name": "acceptOwnership",
      "outputs": [],
      "stateMutability": "nonpayable",
      "type": "function"
    },
    {
      "inputs": [
        {
          "internalType": "address[]",
          "name": "accounts",
          "type": "address[]"
        }
      ],
      "name": "addToBlocklist",
      "outputs": [],
      "stateMutability": "nonpayable",
      "type": "function"
    },
    {
      "inputs": [
        {
          "internalType": "address",
          "name": "addr",
          "type": "address"
        }
      ],
      "name": "isBlocked",
      "outputs": [
        {
          "internalType": "bool",
          "name": "",
          "type": "bool"
        }
      ],
      "stateMutability": "view",
      "type": "function"
    },
    {
      "inputs": [],
      "name": "name",
      "outputs": [
        {
          "internalType": "string",
          "name": "",
          "type": "string"
        }
      ],
      "stateMutability": "pure",
      "type": "function"
    },
    {
      "inputs": [],
      "name": "owner",
      "outputs": [
        {
          "internalType": "address",
          "name": "",
          "type": "address"
        }
      ],
      "stateMutability": "view",
      "type": "function"
    },
    {
      "inputs": [],
      "name": "pendingOwner",
      "outputs": [
        {
          "internalType": "address",
          "name": "",
          "type": "address"
        }
      ],
      "stateMutability": "view",
      "type": "function"
    },
    {
      "inputs": [
        {
          "internalType": "address[]",
          "name": "accounts",
          "type": "address[]"
        }
      ],
      "name": "removeFromBlocklist",
      "outputs": [],
      "stateMutability": "nonpayable",
      "type": "function"
    },
    {
      "inputs": [],
      "name": "renounceOwnership",
      "outputs": [],
      "stateMutability": "nonpayable",
      "type": "function"
    },
    {
      "inputs": [
        {
          "internalType": "address",
          "name": "newOwner",
          "type": "address"
        }
      ],
      "name": "transferOwnership",
      "outputs": [],
      "stateMutability": "nonpayable",
      "type": "function"
    }
  ],
  "transactionHash": "0x413f6f70c0c33a747314aefbc47314ad1fcf01a58aee4c887531fd95de351691",
  "args": [],
  "solcInputHash": "87fb4451d5f2ede85be869f7e2f015d7",
  "bytecode": "0x608060405234801561001057600080fd5b5061001a3361001f565b610096565b600180546001600160a01b031916905561004381610046602090811b61049017901c565b50565b600080546001600160a01b038381166001600160a01b0319831681178455604051919092169283917f8be0079c531659141344cd1fd0a4f28419497f9722a3daafe3b4186f6b6457e09190a35050565b6106ee806100a56000396000f3fe608060405234801561001057600080fd5b50600436106100835760003560e01c806306fdde0314610088578063715018a6146100d057806379ba5097146100da5780638da5cb5b146100e2578063ab63e69c14610102578063e30c397814610115578063f2fde38b14610126578063f71a55f814610139578063fbac39511461014c575b600080fd5b604080518082018252601d81527f4f6e646f2046696e616e636520426c6f636b6c697374204f7261636c65000000602082015290516100c791906104f9565b60405180910390f35b6100d8610188565b005b6100d86101cc565b6100ea610246565b6040516001600160a01b0390911681526020016100c7565b6100d8610110366004610547565b610255565b6001546001600160a01b03166100ea565b6100d86101343660046105d8565b610332565b6100d8610147366004610547565b6103bf565b61017861015a3660046105d8565b6001600160a01b031660009081526002602052604090205460ff1690565b60405190151581526020016100c7565b33610191610246565b6001600160a01b0316146101c05760405162461bcd60e51b81526004016101b7906105fa565b60405180910390fd5b6101ca60006104e0565b565b60015433906001600160a01b0316811461023a5760405162461bcd60e51b815260206004820152602960248201527f4f776e61626c6532537465703a2063616c6c6572206973206e6f7420746865206044820152683732bb9037bbb732b960b91b60648201526084016101b7565b610243816104e0565b50565b6000546001600160a01b031690565b3361025e610246565b6001600160a01b0316146102845760405162461bcd60e51b81526004016101b7906105fa565b60005b818110156102f4576000600260008585858181106102a7576102a761062f565b90506020020160208101906102bc91906105d8565b6001600160a01b031681526020810191909152604001600020805460ff19169115159190911790556102ed81610645565b9050610287565b507f825ac0fb57c227a7d56aba274d9e0e69c9c6b837841a26298e3e0148c201ba28828260405161032692919061066c565b60405180910390a15050565b3361033b610246565b6001600160a01b0316146103615760405162461bcd60e51b81526004016101b7906105fa565b600180546001600160a01b0319166001600160a01b038316908117909155610387610246565b6001600160a01b03167f38d16b8cac22d99fc7c124b9cd0de2d3fa1faef420bfe791d8c362d765e2270060405160405180910390a350565b336103c8610246565b6001600160a01b0316146103ee5760405162461bcd60e51b81526004016101b7906105fa565b60005b8181101561045e576001600260008585858181106104115761041161062f565b905060200201602081019061042691906105d8565b6001600160a01b031681526020810191909152604001600020805460ff191691151591909117905561045781610645565b90506103f1565b507f3a615a701ac9b684212c0070be113e8c7847390b2cb8a03c9998684e2a86ae29828260405161032692919061066c565b600080546001600160a01b038381166001600160a01b0319831681178455604051919092169283917f8be0079c531659141344cd1fd0a4f28419497f9722a3daafe3b4186f6b6457e09190a35050565b600180546001600160a01b031916905561024381610490565b600060208083528351808285015260005b818110156105265785810183015185820160400152820161050a565b506000604082860101526040601f19601f8301168501019250505092915050565b6000806020838503121561055a57600080fd5b823567ffffffffffffffff8082111561057257600080fd5b818501915085601f83011261058657600080fd5b81358181111561059557600080fd5b8660208260051b85010111156105aa57600080fd5b60209290920196919550909350505050565b80356001600160a01b03811681146105d357600080fd5b919050565b6000602082840312156105ea57600080fd5b6105f3826105bc565b9392505050565b6020808252818101527f4f776e61626c653a2063616c6c6572206973206e6f7420746865206f776e6572604082015260600190565b634e487b7160e01b600052603260045260246000fd5b60006001820161066557634e487b7160e01b600052601160045260246000fd5b5060010190565b60208082528181018390526000908460408401835b868110156106ad576001600160a01b0361069a846105bc565b1682529183019190830190600101610681565b50969550505050505056fea264697066735822122040a2537dc86c4db549a94fd3124487f5744c7bcb705c13faad975202ec47317564736f6c63430008100033",
  "devdoc": {
    "author": "Ondo Finance",
    "kind": "dev",
    "methods": {
      "acceptOwnership()": {
        "details": "The new owner accepts the ownership transfer."
      },
      "addToBlocklist(address[])": {
        "params": {
          "accounts": "Array of addresses to block"
        }
      },
      "isBlocked(address)": {
        "params": {
          "addr": "Address to check"
        },
        "returns": {
          "_0": "True if account is blocked, false otherwise"
        }
      },
      "owner()": {
        "details": "Returns the address of the current owner."
      },
      "pendingOwner()": {
        "details": "Returns the address of the pending owner."
      },
      "removeFromBlocklist(address[])": {
        "params": {
          "accounts": "Array of addresses to unblock"
        }
      },
      "renounceOwnership()": {
        "details": "Leaves the contract without owner. It will not be possible to call `onlyOwner` functions anymore. Can only be called by the current owner. NOTE: Renouncing ownership will leave the contract without an owner, thereby removing any functionality that is only available to the owner."
      },
      "transferOwnership(address)": {
        "details": "Starts the ownership transfer of the contract to a new account. Replaces the pending transfer if there is one. Can only be called by the current owner."
      }
    },
    "title": "Blocklist",
    "version": 1
  },
  "userdoc": {
    "events": {
      "BlockedAddressesAdded(address[])": {
        "notice": "Event emitted when addresses are added to the blocklist"
      },
      "BlockedAddressesRemoved(address[])": {
        "notice": "Event emitted when addresses are removed from the blocklist"
      }
    },
    "kind": "user",
    "methods": {
      "addToBlocklist(address[])": {
        "notice": "Function to add a list of accounts to the blocklist"
      },
      "isBlocked(address)": {
        "notice": "Function to check if an account is blocked"
      },
      "name()": {
        "notice": "Returns name of contract"
      },
      "removeFromBlocklist(address[])": {
        "notice": "Function to remove a list of accounts from the blocklist"
      }
    },
    "notice": "This contract manages the blocklist status for accounts.",
    "version": 1
  },
  "storageLayout": {
    "storage": [
      {
        "astId": 10602,
        "contract": "contracts/usdy/blocklist/Blocklist.sol:Blocklist",
        "label": "_owner",
        "offset": 0,
        "slot": "0",
        "type": "t_address"
      },
      {
        "astId": 10707,
        "contract": "contracts/usdy/blocklist/Blocklist.sol:Blocklist",
        "label": "_pendingOwner",
        "offset": 0,
        "slot": "1",
        "type": "t_address"
      },
      {
        "astId": 23079,
        "contract": "contracts/usdy/blocklist/Blocklist.sol:Blocklist",
        "label": "blockedAddresses",
        "offset": 0,
        "slot": "2",
        "type": "t_mapping(t_address,t_bool)"
      }
    ],
    "types": {
      "t_address": {
        "encoding": "inplace",
        "label": "address",
        "numberOfBytes": "20"
      },
      "t_bool": {
        "encoding": "inplace",
        "label": "bool",
        "numberOfBytes": "1"
      },
      "t_mapping(t_address,t_bool)": {
        "encoding": "mapping",
        "key": "t_address",
        "label": "mapping(address => bool)",
        "numberOfBytes": "32",
        "value": "t_bool"
      }
    }
  }
}