{
  "address": "0x4109074822b86A6C41FdCe1a92030DC7298C64d1",
  "abi": [
    {
      "inputs": [
        {
          "internalType": "address",
          "name": "_guardian",
          "type": "address"
        }
      ],
      "stateMutability": "nonpayable",
      "type": "constructor"
    },
    {
      "anonymous": false,
      "inputs": [
        {
          "indexed": false,
          "internalType": "address",
          "name": "proxy",
          "type": "address"
        },
        {
          "indexed": false,
          "internalType": "address",
          "name": "proxyAdmin",
          "type": "address"
        },
        {
          "indexed": false,
          "internalType": "address",
          "name": "implementation",
          "type": "address"
        },
        {
          "indexed": false,
          "internalType": "string",
          "name": "name",
          "type": "string"
        },
        {
          "indexed": false,
          "internalType": "string",
          "name": "ticker",
          "type": "string"
        }
      ],
      "name": "rUSDYDeployed",
      "type": "event"
    },
    {
      "inputs": [],
      "name": "DEFAULT_ADMIN_ROLE",
      "outputs": [
        {
          "internalType": "bytes32",
          "name": "",
          "type": "bytes32"
        }
      ],
      "stateMutability": "view",
      "type": "function"
    },
    {
      "inputs": [
        {
          "internalType": "address",
          "name": "blocklist",
          "type": "address"
        },
        {
          "internalType": "address",
          "name": "usdy",
          "type": "address"
        },
        {
          "internalType": "address",
          "name": "oracle",
          "type": "address"
        }
      ],
      "name": "deployrUSDY",
      "outputs": [
        {
          "internalType": "address",
          "name": "",
          "type": "address"
        },
        {
          "internalType": "address",
          "name": "",
          "type": "address"
        },
        {
          "internalType": "address",
          "name": "",
          "type": "address"
        }
      ],
      "stateMutability": "nonpayable",
      "type": "function"
    },
    {
      "inputs": [
        {
          "components": [
            {
              "internalType": "address",
              "name": "target",
              "type": "address"
            },
            {
              "internalType": "bytes",
              "name": "data",
              "type": "bytes"
            },
            {
              "internalType": "uint256",
              "name": "value",
              "type": "uint256"
            }
          ],
          "internalType": "struct IMulticall.ExCallData[]",
          "name": "exCallData",
          "type": "tuple[]"
        }
      ],
      "name": "multiexcall",
      "outputs": [
        {
          "internalType": "bytes[]",
          "name": "results",
          "type": "bytes[]"
        }
      ],
      "stateMutability": "payable",
      "type": "function"
    },
    {
      "inputs": [],
      "name": "rUSDYImplementation",
      "outputs": [
        {
          "internalType": "contract rUSDYW",
          "name": "",
          "type": "address"
        }
      ],
      "stateMutability": "view",
      "type": "function"
    },
    {
      "inputs": [],
      "name": "rUSDYProxy",
      "outputs": [
        {
          "internalType": "contract TokenProxy",
          "name": "",
          "type": "address"
        }
      ],
      "stateMutability": "view",
      "type": "function"
    },
    {
      "inputs": [],
      "name": "rUSDYProxyAdmin",
      "outputs": [
        {
          "internalType": "contract ProxyAdmin",
          "name": "",
          "type": "address"
        }
      ],
      "stateMutability": "view",
      "type": "function"
    }
  ],
  "transactionHash": "0x1f347d9f8e2a3d5f9f29ba3e4f2021e12d5d437485eedf58beb52076ddb4737c",
  "args": [
    "0xC8A7870fFe41054612F7f3433E173D8b5bFcA8E3"
  ],
  "solcInputHash": "87fb4451d5f2ede85be869f7e2f015d7",
  "bytecode": "0x60a060405234801561001057600080fd5b50604051614d9c380380614d9c83398101604081905261002f91610040565b6001600160a01b0316608052610070565b60006020828403121561005257600080fd5b81516001600160a01b038116811461006957600080fd5b9392505050565b608051614cf56100a76000396000818161018d015281816103c401528181610531015281816105b701526106220152614cf56000f3fe6080604052600436106200005c5760003560e01c80634a57426e14620000615780638e6c02a814620000a0578063936bffd914620000c2578063a217fddf14620000e8578063db2ed60d146200010e578063f58498a0146200015e575b600080fd5b3480156200006e57600080fd5b5060015462000083906001600160a01b031681565b6040516001600160a01b0390911681526020015b60405180910390f35b348015620000ad57600080fd5b5060005462000083906001600160a01b031681565b620000d9620000d3366004620007c2565b62000180565b6040516200009791906200083c565b348015620000f557600080fd5b50620000ff600081565b60405190815260200162000097565b3480156200011b57600080fd5b50620001336200012d366004620008eb565b620003b5565b604080516001600160a01b039485168152928416602084015292169181019190915260600162000097565b3480156200016b57600080fd5b5060025462000083906001600160a01b031681565b6060336001600160a01b037f00000000000000000000000000000000000000000000000000000000000000001614620001d65760405162461bcd60e51b8152600401620001cd906200093d565b60405180910390fd5b8167ffffffffffffffff811115620001f257620001f262000983565b6040519080825280602002602001820160405280156200022757816020015b6060815260200190600190039081620002115790505b50905060005b82811015620003ae576000808585848181106200024e576200024e62000999565b9050602002810190620002629190620009af565b62000272906020810190620009d0565b6001600160a01b031686868581811062000290576200029062000999565b9050602002810190620002a49190620009af565b60400135878786818110620002bd57620002bd62000999565b9050602002810190620002d19190620009af565b620002e1906020810190620009f7565b604051620002f192919062000a48565b60006040518083038185875af1925050503d806000811462000330576040519150601f19603f3d011682016040523d82523d6000602084013e62000335565b606091505b509150915081620003775760405162461bcd60e51b815260206004820152600b60248201526a10d85b1b0811985a5b195960aa1b6044820152606401620001cd565b808484815181106200038d576200038d62000999565b6020026020010181905250505080620003a69062000a58565b90506200022d565b5092915050565b60008080336001600160a01b037f00000000000000000000000000000000000000000000000000000000000000001614620004045760405162461bcd60e51b8152600401620001cd906200093d565b604051620004129062000798565b604051809103906000f0801580156200042f573d6000803e3d6000fd5b50600080546001600160a01b0319166001600160a01b03929092169190911790556040516200045e90620007a6565b604051809103906000f0801580156200047b573d6000803e3d6000fd5b50600180546001600160a01b0319166001600160a01b03928316908117909155600054604051921691620004af90620007b4565b6001600160a01b03928316815291166020820152606060408201819052600090820152608001604051809103906000f080158015620004f2573d6000803e3d6000fd5b50600280546001600160a01b0319166001600160a01b03928316908117909155604051637c643b2f60e11b8152888316600482015287831660248201527f000000000000000000000000000000000000000000000000000000000000000083166044820152918616606483015290819063f8c8765e90608401600060405180830381600087803b1580156200058657600080fd5b505af11580156200059b573d6000803e3d6000fd5b505060015460405163f2fde38b60e01b81526001600160a01b037f000000000000000000000000000000000000000000000000000000000000000081166004830152909116925063f2fde38b9150602401600060405180830381600087803b1580156200060757600080fd5b505af11580156200061c573d6000803e3d6000fd5b505050507f00000000000000000000000000000000000000000000000000000000000000006001600160a01b0316600160009054906101000a90046001600160a01b03166001600160a01b0316638da5cb5b6040518163ffffffff1660e01b8152600401602060405180830381865afa1580156200069e573d6000803e3d6000fd5b505050506040513d601f19601f82011682018060405250810190620006c4919062000a80565b6001600160a01b031614620006dd57620006dd62000aa0565b600254600154600054604080516001600160a01b039485168152928416602084015292168183015260a060608201819052600a908201526913585b9d1b19481554d160b21b60c082015260e060808201819052600490820152631b5554d160e21b61010082015290517fc18d25c64e81e4f227ba341defaa68eb487b34a2226073e0cd70472eef63389a918190036101200190a150506002546001546000546001600160a01b03928316945090821692501693509350939050565b612b298062000ab783390190565b6107b780620035e083390190565b610f298062003d9783390190565b60008060208385031215620007d657600080fd5b823567ffffffffffffffff80821115620007ef57600080fd5b818501915085601f8301126200080457600080fd5b8135818111156200081457600080fd5b8660208260051b85010111156200082a57600080fd5b60209290920196919550909350505050565b6000602080830181845280855180835260408601915060408160051b87010192508387016000805b83811015620008c457888603603f1901855282518051808852835b818110156200089c578281018a01518982018b015289016200087f565b508781018901849052601f01601f191690960187019550938601939186019160010162000864565b509398975050505050505050565b6001600160a01b0381168114620008e857600080fd5b50565b6000806000606084860312156200090157600080fd5b83356200090e81620008d2565b925060208401356200092081620008d2565b915060408401356200093281620008d2565b809150509250925092565b60208082526026908201527f7255534459466163746f72793a20596f7520617265206e6f742074686520477560408201526530b93234b0b760d11b606082015260800190565b634e487b7160e01b600052604160045260246000fd5b634e487b7160e01b600052603260045260246000fd5b60008235605e19833603018112620009c657600080fd5b9190910192915050565b600060208284031215620009e357600080fd5b8135620009f081620008d2565b9392505050565b6000808335601e1984360301811262000a0f57600080fd5b83018035915067ffffffffffffffff82111562000a2b57600080fd5b60200191503681900382131562000a4157600080fd5b9250929050565b8183823760009101908152919050565b60006001820162000a7957634e487b7160e01b600052601160045260246000fd5b5060010190565b60006020828403121562000a9357600080fd5b8151620009f081620008d2565b634e487b7160e01b600052600160045260246000fdfe60806040523480156200001157600080fd5b506200001c62000022565b620000e4565b600054610100900460ff16156200008f5760405162461bcd60e51b815260206004820152602760248201527f496e697469616c697a61626c653a20636f6e747261637420697320696e697469604482015266616c697a696e6760c81b606482015260840160405180910390fd5b60005460ff9081161015620000e2576000805460ff191660ff9081179091556040519081527f7f26b83ff96e1f2b6a682f133852f6798a09c465da95921460cefb38474024989060200160405180910390a15b565b612a3580620000f46000396000f3fe608060405234801561001057600080fd5b506004361061027f5760003560e01c806395d89b411161015c578063d5002f2e116100ce578063de0e9a3e11610087578063de0e9a3e146105ca578063e1a45218146105dd578063e63ab1e9146105e6578063ea598cb0146105fb578063f5eb42dc1461060e578063f8c8765e1461062157600080fd5b8063d5002f2e14610532578063d53913931461053b578063d547741f14610562578063d64e539614610575578063db69210914610588578063dd62ed3e1461059057600080fd5b8063a9059cbb11610120578063a9059cbb146104be578063aef18ae7146104d1578063b15f291e146104e4578063bc0ca915146104f7578063bf1d5b8f1461050a578063ca15c8731461051f57600080fd5b806395d89b411461045c57806398d506e91461047c5780639dc29fac14610490578063a217fddf146104a3578063a457c2d7146104ab57600080fd5b80633f4ba83a116101f55780637dc0d1d0116101b95780637dc0d1d0146103e55780638456cb59146104065780638a91376a1461040e5780638fcb4e5b146104235780639010d07c1461043657806391d148541461044957600080fd5b80633f4ba83a14610399578063517d0555146103a15780635c975abb146103b457806370a08231146103bf5780637adbf973146103d257600080fd5b8063248a9ca311610247578063248a9ca314610317578063282c51f31461033a5780632f2ff15d1461034f578063313ce5671461036457806336568abe14610373578063395093511461038657600080fd5b806301ffc9a71461028457806306fdde03146102ac578063095ea7b3146102db57806318160ddd146102ee57806323b872dd14610304575b600080fd5b6102976102923660046122fc565b610634565b60405190151581526020015b60405180910390f35b60408051808201909152600a81526913585b9d1b19481554d160b21b60208201525b6040516102a39190612376565b6102976102e93660046123a5565b61065f565b6102f6610675565b6040519081526020016102a3565b6102976103123660046123cf565b610720565b6102f661032536600461240b565b60009081526097602052604090206001015490565b6102f66000805160206129e083398151915281565b61036261035d366004612424565b6107ce565b005b604051601281526020016102a3565b610362610381366004612424565b6107f8565b6102976103943660046123a5565b610876565b6103626108ae565b6103626103af366004612450565b6108d1565b60335460ff16610297565b6102f66103cd3660046124c2565b6109cd565b6103626103e03660046124c2565b610a8a565b610131546103f9906001600160a01b031681565b6040516102a391906124dd565b610362610ac6565b6102f66000805160206129c083398151915281565b6102f66104313660046123a5565b610ae6565b6103f96104443660046124f1565b610b70565b610297610457366004612424565b610b8f565b6040805180820190915260048152631b5554d160e21b60208201526102ce565b610132546103f9906001600160a01b031681565b61036261049e3660046123a5565b610bba565b6102f6600081565b6102976104b93660046123a5565b610cc2565b6102976104cc3660046123a5565b610d50565b6103626104df3660046124c2565b610d5d565b6102f66104f236600461240b565b610d7e565b6102f661050536600461240b565b610e02565b6102f66000805160206129a083398151915281565b6102f661052d36600461240b565b610e9a565b610130546102f6565b6102f67f9f2df0fed2c77648de5860a4cc508cd0818c85b8b8a1ab4ceeef8d981c8956a681565b610362610570366004612424565b610eb1565b60fb546103f9906001600160a01b031681565b6102ce610ed6565b6102f661059e366004612513565b6001600160a01b03918216600090815261012f6020908152604080832093909416825291909152205490565b6103626105d836600461240b565b610f65565b6102f661271081565b6102f660008051602061296083398151915281565b61036261060936600461240b565b6110f4565b6102f661061c3660046124c2565b611245565b61036261062f36600461253d565b611264565b60006001600160e01b03198216635a05180f60e01b148061065957506106598261137d565b92915050565b600061066c3384846113b2565b50600192915050565b600061068b612710670de0b6b3a76400006125a7565b61013160009054906101000a90046001600160a01b03166001600160a01b03166398d5fdca6040518163ffffffff1660e01b8152600401602060405180830381865afa1580156106df573d6000803e3d6000fd5b505050506040513d601f19601f8201168201806040525081019061070391906125c6565b6101305461071191906125a7565b61071b91906125df565b905090565b6001600160a01b038316600090815261012f60209081526040808320338452909152812054828110156107a45760405162461bcd60e51b815260206004820152602160248201527f5452414e534645525f414d4f554e545f455843454544535f414c4c4f57414e436044820152604560f81b60648201526084015b60405180910390fd5b6107af8585856114be565b6107c385336107be8685612601565b6113b2565b506001949350505050565b6000828152609760205260409020600101546107e981611552565b6107f3838361155c565b505050565b6001600160a01b03811633146108685760405162461bcd60e51b815260206004820152602f60248201527f416363657373436f6e74726f6c3a2063616e206f6e6c792072656e6f756e636560448201526e103937b632b9903337b91039b2b63360891b606482015260840161079b565b610872828261157e565b5050565b33600081815261012f602090815260408083206001600160a01b0387168452909152812054909161066c9185906107be908690612614565b6000805160206129c08339815191526108c681611552565b6108ce6115a0565b50565b6000805160206129a08339815191526108e981611552565b600061013380546108f990612627565b80601f016020809104026020016040519081016040528092919081815260200182805461092590612627565b80156109725780601f1061094757610100808354040283529160200191610972565b820191906000526020600020905b81548152906001019060200180831161095557829003601f168201915b505050505090508383610133918261098b9291906126c5565b507fc77a3128026827daf72c80bef8fb174442ecf2e8f96a463f405a6f5163894ad3816101336040516109bf929190612785565b60405180910390a150505050565b60006109e3612710670de0b6b3a76400006125a7565b61013160009054906101000a90046001600160a01b03166001600160a01b03166398d5fdca6040518163ffffffff1660e01b8152600401602060405180830381865afa158015610a37573d6000803e3d6000fd5b505050506040513d601f19601f82011682018060405250810190610a5b91906125c6565b6001600160a01b038416600090815261012e60205260409020545b610a8091906125a7565b61065991906125df565b6000805160206129c0833981519152610aa281611552565b5061013180546001600160a01b0319166001600160a01b0392909216919091179055565b600080516020612960833981519152610ade81611552565b6108ce6115ec565b6000610af3338484611629565b6040518281526001600160a01b0384169033906000805160206129408339815191529060200160405180910390a36000610b2c83610e02565b9050836001600160a01b0316336001600160a01b031660008051602061298083398151915283604051610b6191815260200190565b60405180910390a39392505050565b600082815260c960205260408120610b8890836117b0565b9392505050565b60009182526097602090815260408084206001600160a01b0393909316845291905290205460ff1690565b6000805160206129e0833981519152610bd281611552565b6000610bdd83610d7e565b9050610be984826117bc565b50610132546001600160a01b031663a9059cbb33610c09612710856125df565b6040516001600160e01b031960e085901b1681526001600160a01b03909216600483015260248201526044016020604051808303816000875af1158015610c54573d6000803e3d6000fd5b505050506040513d601f19601f82011682018060405250810190610c789190612820565b50836001600160a01b03167f22d306e0cdbeeb823d6327362b35337dc3125a6aa905b6a014da1b08a5389ba484604051610cb491815260200190565b60405180910390a250505050565b33600090815261012f602090815260408083206001600160a01b038616845290915281205482811015610d375760405162461bcd60e51b815260206004820152601e60248201527f4445435245415345445f414c4c4f57414e43455f42454c4f575f5a45524f0000604482015260640161079b565b610d4633856107be8685612601565b5060019392505050565b600061066c3384846114be565b6000805160206129a0833981519152610d7581611552565b61087282611945565b6101315460408051634c6afee560e11b815290516000926001600160a01b0316916398d5fdca9160048083019260209291908290030181865afa158015610dc9573d6000803e3d6000fd5b505050506040513d601f19601f82011682018060405250810190610ded91906125c6565b612710610a7684670de0b6b3a76400006125a7565b6000610e18612710670de0b6b3a76400006125a7565b61013160009054906101000a90046001600160a01b03166001600160a01b03166398d5fdca6040518163ffffffff1660e01b8152600401602060405180830381865afa158015610e6c573d6000803e3d6000fd5b505050506040513d601f19601f82011682018060405250810190610e9091906125c6565b610a8090846125a7565b600081815260c960205260408120610659906119cd565b600082815260976020526040902060010154610ecc81611552565b6107f3838361157e565b6101338054610ee490612627565b80601f0160208091040260200160405190810160405280929190818152602001828054610f1090612627565b8015610f5d5780601f10610f3257610100808354040283529160200191610f5d565b820191906000526020600020905b815481529060010190602001808311610f4057829003601f168201915b505050505081565b610f6d6119d7565b60008111610fcb5760405162461bcd60e51b815260206004820152602560248201527f72555344593a2063616e277420756e77726170207a65726f20725553445920746044820152646f6b656e7360d81b606482015260840161079b565b6000610fd682610d7e565b9050612710811015610ffb5760405163f11d255d60e01b815260040160405180910390fd5b61100533826117bc565b50610132546001600160a01b031663a9059cbb33611025612710856125df565b6040516001600160e01b031960e085901b1681526001600160a01b03909216600483015260248201526044016020604051808303816000875af1158015611070573d6000803e3d6000fd5b505050506040513d601f19601f820116820180604052508101906110949190612820565b5060405182815260009033906000805160206129808339815191529060200160405180910390a360405182815233907f22d306e0cdbeeb823d6327362b35337dc3125a6aa905b6a014da1b08a5389ba49060200160405180910390a25050565b6110fc6119d7565b600081116111575760405162461bcd60e51b815260206004820152602260248201527f72555344593a2063616e27742077726170207a65726f205553445920746f6b656044820152616e7360f01b606482015260840161079b565b6000611165612710836125a7565b90506111713382611a1f565b50610132546040516323b872dd60e01b8152336004820152306024820152604481018490526001600160a01b03909116906323b872dd906064016020604051808303816000875af11580156111ca573d6000803e3d6000fd5b505050506040513d601f19601f820116820180604052508101906111ee9190612820565b5033600060008051602061298083398151915261120a84610e02565b60405190815260200160405180910390a360405181815233906000906000805160206129408339815191529060200160405180910390a35050565b6001600160a01b038116600090815261012e6020526040812054610659565b600054610100900460ff16158080156112845750600054600160ff909116105b8061129e5750303b15801561129e575060005460ff166001145b6113015760405162461bcd60e51b815260206004820152602e60248201527f496e697469616c697a61626c653a20636f6e747261637420697320616c72656160448201526d191e481a5b9a5d1a585b1a5e995960921b606482015260840161079b565b6000805460ff191660011790558015611324576000805461ff0019166101001790555b61133085858585611ae8565b8015611376576000805461ff0019169055604051600181527f7f26b83ff96e1f2b6a682f133852f6798a09c465da95921460cefb38474024989060200160405180910390a15b5050505050565b60006001600160e01b03198216637965db0b60e01b148061065957506301ffc9a760e01b6001600160e01b0319831614610659565b6113ba6119d7565b6001600160a01b03831661140c5760405162461bcd60e51b8152602060048201526019602482015278415050524f56455f46524f4d5f5a45524f5f4144445245535360381b604482015260640161079b565b6001600160a01b03821661145c5760405162461bcd60e51b8152602060048201526017602482015276415050524f56455f544f5f5a45524f5f4144445245535360481b604482015260640161079b565b6001600160a01b03838116600081815261012f602090815260408083209487168084529482529182902085905590518481527f8c5be1e5ebec7d5bd14f71427d1e84f3dd0314c0f7b2291e5b200ac8c7c3b925910160405180910390a3505050565b60006114c982610d7e565b90506114d6848483611629565b826001600160a01b0316846001600160a01b03166000805160206129808339815191528460405161150991815260200190565b60405180910390a3826001600160a01b0316846001600160a01b03166000805160206129408339815191528360405161154491815260200190565b60405180910390a350505050565b6108ce8133611b29565b6115668282611b8d565b600082815260c9602052604090206107f39082611c13565b6115888282611c28565b600082815260c9602052604090206107f39082611c8f565b6115a8611ca4565b6033805460ff191690557f5db9ee0a495bf2e6ff9c91a7834c1ba4fdd244a5e8aa4e537bd38aeae4b073aa335b6040516115e291906124dd565b60405180910390a1565b6115f46119d7565b6033805460ff191660011790557f62e78cea01bee320cd4e420270b5ea74000d11b0c9f74754ebdbfc544b05a2586115d53390565b6116316119d7565b6001600160a01b0383166116875760405162461bcd60e51b815260206004820152601e60248201527f5452414e534645525f46524f4d5f5448455f5a45524f5f414444524553530000604482015260640161079b565b6001600160a01b0382166116dd5760405162461bcd60e51b815260206004820152601c60248201527f5452414e534645525f544f5f5448455f5a45524f5f4144445245535300000000604482015260640161079b565b6116e8838383611ced565b6001600160a01b038316600090815261012e6020526040902054808211156117525760405162461bcd60e51b815260206004820152601f60248201527f5452414e534645525f414d4f554e545f455843454544535f42414c414e434500604482015260640161079b565b61175c8282612601565b6001600160a01b03808616600090815261012e6020526040808220939093559085168152205461178d908390612614565b6001600160a01b03909316600090815261012e6020526040902092909255505050565b6000610b888383611e34565b60006117c66119d7565b6001600160a01b03831661181c5760405162461bcd60e51b815260206004820152601a60248201527f4255524e5f46524f4d5f5448455f5a45524f5f41444452455353000000000000604482015260640161079b565b61182883600084611ced565b6001600160a01b038316600090815261012e6020526040902054808311156118925760405162461bcd60e51b815260206004820152601b60248201527f4255524e5f414d4f554e545f455843454544535f42414c414e43450000000000604482015260640161079b565b600061189d84610e02565b90508361013060008282546118b29190612601565b909155506118c290508483612601565b6001600160a01b038616600090815261012e60205260408120919091556118e885610e02565b60408051848152602081018390529081018790529091506001600160a01b038716907f8b2a1e1ad5e0578c3dd82494156e985dade827a87c573b5c1c7716a32162ad649060600160405180910390a2505061013054949350505050565b6001600160a01b03811661196c57604051637e33865360e01b815260040160405180910390fd5b60fb80546001600160a01b038381166001600160a01b031983168117909355604080519190921680825260208201939093527f7e053cdc9069fe4f629b6b3fa2a01bb53a9a8305ec11830b259d95e9e75b7304910160405180910390a15050565b6000610659825490565b60335460ff1615611a1d5760405162461bcd60e51b815260206004820152601060248201526f14185d5cd8589b194e881c185d5cd95960821b604482015260640161079b565b565b6000611a296119d7565b6001600160a01b038316611a7a5760405162461bcd60e51b81526020600482015260186024820152774d494e545f544f5f5448455f5a45524f5f4144445245535360401b604482015260640161079b565b611a8660008484611ced565b816101306000828254611a999190612614565b90915550506001600160a01b038316600090815261012e6020526040902054611ac3908390612614565b6001600160a01b038416600090815261012e6020526040902055506101305492915050565b600054610100900460ff16611b0f5760405162461bcd60e51b815260040161079b90612842565b611b1884611e5e565b611b23838383611e8e565b50505050565b611b338282610b8f565b61087257611b4b816001600160a01b03166014611f7c565b611b56836020611f7c565b604051602001611b6792919061288d565b60408051601f198184030181529082905262461bcd60e51b825261079b91600401612376565b611b978282610b8f565b6108725760008281526097602090815260408083206001600160a01b03851684529091529020805460ff19166001179055611bcf3390565b6001600160a01b0316816001600160a01b0316837f2f8788117e7eff1d82e926ec794901d17c78024a50270940304540a733656f0d60405160405180910390a45050565b6000610b88836001600160a01b038416612118565b611c328282610b8f565b156108725760008281526097602090815260408083206001600160a01b0385168085529252808320805460ff1916905551339285917ff6391f5c32d9c69d2a47ea670b442974b53935d1edc7fd64eb21e047a839171b9190a45050565b6000610b88836001600160a01b038416612167565b60335460ff16611a1d5760405162461bcd60e51b815260206004820152601460248201527314185d5cd8589b194e881b9bdd081c185d5cd95960621b604482015260640161079b565b6001600160a01b0383163314801590611d0f57506001600160a01b0382163314155b15611d6a57611d1d3361225a565b15611d6a5760405162461bcd60e51b815260206004820152601f60248201527f72555344593a202773656e64657227206164647265737320626c6f636b656400604482015260640161079b565b6001600160a01b03831615611dcf57611d828361225a565b15611dcf5760405162461bcd60e51b815260206004820152601d60248201527f72555344593a202766726f6d27206164647265737320626c6f636b6564000000604482015260640161079b565b6001600160a01b038216156107f357611de78261225a565b156107f35760405162461bcd60e51b815260206004820152601b60248201527f72555344593a2027746f27206164647265737320626c6f636b65640000000000604482015260640161079b565b6000826000018281548110611e4b57611e4b6128fc565b9060005260206000200154905092915050565b600054610100900460ff16611e855760405162461bcd60e51b815260040161079b90612842565b6108ce816122cc565b600054610100900460ff16611eb55760405162461bcd60e51b815260040161079b90612842565b61013280546001600160a01b038086166001600160a01b031992831617909255610131805492841692909116919091179055611ef260008361155c565b611f0a6000805160206129c08339815191528361155c565b611f226000805160206129608339815191528361155c565b611f4c7f9f2df0fed2c77648de5860a4cc508cd0818c85b8b8a1ab4ceeef8d981c8956a68361155c565b611f646000805160206129e08339815191528361155c565b6107f36000805160206129a08339815191528361155c565b60606000611f8b8360026125a7565b611f96906002612614565b67ffffffffffffffff811115611fae57611fae612661565b6040519080825280601f01601f191660200182016040528015611fd8576020820181803683370190505b509050600360fc1b81600081518110611ff357611ff36128fc565b60200101906001600160f81b031916908160001a905350600f60fb1b81600181518110612022576120226128fc565b60200101906001600160f81b031916908160001a90535060006120468460026125a7565b612051906001612614565b90505b60018111156120c9576f181899199a1a9b1b9c1cb0b131b232b360811b85600f1660108110612085576120856128fc565b1a60f81b82828151811061209b5761209b6128fc565b60200101906001600160f81b031916908160001a90535060049490941c936120c281612912565b9050612054565b508315610b885760405162461bcd60e51b815260206004820181905260248201527f537472696e67733a20686578206c656e67746820696e73756666696369656e74604482015260640161079b565b600081815260018301602052604081205461215f57508154600181810184556000848152602080822090930184905584548482528286019093526040902091909155610659565b506000610659565b6000818152600183016020526040812054801561225057600061218b600183612601565b855490915060009061219f90600190612601565b90508181146122045760008660000182815481106121bf576121bf6128fc565b90600052602060002001549050808760000184815481106121e2576121e26128fc565b6000918252602080832090910192909255918252600188019052604090208390555b855486908061221557612215612929565b600190038181906000526020600020016000905590558560010160008681526020019081526020016000206000905560019350505050610659565b6000915050610659565b60fb5460405163fbac395160e01b81526000916001600160a01b03169063fbac39519061228b9085906004016124dd565b602060405180830381865afa1580156122a8573d6000803e3d6000fd5b505050506040513d601f19601f820116820180604052508101906106599190612820565b600054610100900460ff166122f35760405162461bcd60e51b815260040161079b90612842565b6108ce81611945565b60006020828403121561230e57600080fd5b81356001600160e01b031981168114610b8857600080fd5b60005b83811015612341578181015183820152602001612329565b50506000910152565b60008151808452612362816020860160208601612326565b601f01601f19169290920160200192915050565b602081526000610b88602083018461234a565b80356001600160a01b03811681146123a057600080fd5b919050565b600080604083850312156123b857600080fd5b6123c183612389565b946020939093013593505050565b6000806000606084860312156123e457600080fd5b6123ed84612389565b92506123fb60208501612389565b9150604084013590509250925092565b60006020828403121561241d57600080fd5b5035919050565b6000806040838503121561243757600080fd5b8235915061244760208401612389565b90509250929050565b6000806020838503121561246357600080fd5b823567ffffffffffffffff8082111561247b57600080fd5b818501915085601f83011261248f57600080fd5b81358181111561249e57600080fd5b8660208285010111156124b057600080fd5b60209290920196919550909350505050565b6000602082840312156124d457600080fd5b610b8882612389565b6001600160a01b0391909116815260200190565b6000806040838503121561250457600080fd5b50508035926020909101359150565b6000806040838503121561252657600080fd5b61252f83612389565b915061244760208401612389565b6000806000806080858703121561255357600080fd5b61255c85612389565b935061256a60208601612389565b925061257860408601612389565b915061258660608601612389565b905092959194509250565b634e487b7160e01b600052601160045260246000fd5b60008160001904831182151516156125c1576125c1612591565b500290565b6000602082840312156125d857600080fd5b5051919050565b6000826125fc57634e487b7160e01b600052601260045260246000fd5b500490565b8181038181111561065957610659612591565b8082018082111561065957610659612591565b600181811c9082168061263b57607f821691505b60208210810361265b57634e487b7160e01b600052602260045260246000fd5b50919050565b634e487b7160e01b600052604160045260246000fd5b601f8211156107f357600081815260208120601f850160051c8101602086101561269e5750805b601f850160051c820191505b818110156126bd578281556001016126aa565b505050505050565b67ffffffffffffffff8311156126dd576126dd612661565b6126f1836126eb8354612627565b83612677565b6000601f841160018114612725576000851561270d5750838201355b600019600387901b1c1916600186901b178355611376565b600083815260209020601f19861690835b828110156127565786850135825560209485019460019092019101612736565b50868210156127735760001960f88860031b161c19848701351681555b505060018560011b0183555050505050565b604081526000612798604083018561234a565b602083820381850152600085546127ae81612627565b808552600182811680156127c957600181146127e357612811565b60ff1984168787015282151560051b870186019450612811565b896000528560002060005b848110156128095781548982018901529083019087016127ee565b880187019550505b50929998505050505050505050565b60006020828403121561283257600080fd5b81518015158114610b8857600080fd5b6020808252602b908201527f496e697469616c697a61626c653a20636f6e7472616374206973206e6f74206960408201526a6e697469616c697a696e6760a81b606082015260800190565b76020b1b1b2b9b9a1b7b73a3937b61d1030b1b1b7bab73a1604d1b8152600083516128bf816017850160208801612326565b7001034b99036b4b9b9b4b733903937b6329607d1b60179184019182015283516128f0816028840160208801612326565b01602801949350505050565b634e487b7160e01b600052603260045260246000fd5b60008161292157612921612591565b506000190190565b634e487b7160e01b600052603160045260246000fdfe9d9c909296d9c674451c0c24f02cb64981eb3b727f99865939192f880a755dcb65d7a28e3265b37a6474929f336521b332c1681b933f6cb9f3376673440d862addf252ad1be2c89b69c2b068fc378daa952ba7f163c4a11628f55a4df523b3efa74faf88a584437bd0449f37007060732f2e252b1607e7286651c9b6c1a74cbaa49807205ce4d355092ef5a8a18f56e8913cf4a201fbe287825b095693c21775e97b137254058bd94f28d2f3eb79e2d34074ffb488d042e3bc958e0a57d2fa22a2646970667358221220c2964d57d7a73f96bd1708d4e63101b26eb8db6698bd531005072a90271ff06c64736f6c63430008100033608060405234801561001057600080fd5b5061001a3361001f565b61006f565b600080546001600160a01b038381166001600160a01b0319831681178455604051919092169283917f8be0079c531659141344cd1fd0a4f28419497f9722a3daafe3b4186f6b6457e09190a35050565b6107398061007e6000396000f3fe60806040526004361061006b5760003560e01c8063204e1c7a14610070578063715018a6146100a65780637eff275e146100bd5780638da5cb5b146100dd5780639623609d146100f257806399a88ec414610105578063f2fde38b14610125578063f3b7dead14610145575b600080fd5b34801561007c57600080fd5b5061009061008b3660046104f6565b610165565b60405161009d919061051a565b60405180910390f35b3480156100b257600080fd5b506100bb6101f6565b005b3480156100c957600080fd5b506100bb6100d836600461052e565b61023a565b3480156100e957600080fd5b506100906102cb565b6100bb61010036600461057d565b6102da565b34801561011157600080fd5b506100bb61012036600461052e565b610370565b34801561013157600080fd5b506100bb6101403660046104f6565b6103cb565b34801561015157600080fd5b506100906101603660046104f6565b61046b565b6000806000836001600160a01b031660405161018b90635c60da1b60e01b815260040190565b600060405180830381855afa9150503d80600081146101c6576040519150601f19603f3d011682016040523d82523d6000602084013e6101cb565b606091505b5091509150816101da57600080fd5b808060200190518101906101ee9190610653565b949350505050565b336101ff6102cb565b6001600160a01b03161461022e5760405162461bcd60e51b815260040161022590610670565b60405180910390fd5b6102386000610491565b565b336102436102cb565b6001600160a01b0316146102695760405162461bcd60e51b815260040161022590610670565b6040516308f2839760e41b81526001600160a01b03831690638f2839709061029590849060040161051a565b600060405180830381600087803b1580156102af57600080fd5b505af11580156102c3573d6000803e3d6000fd5b505050505050565b6000546001600160a01b031690565b336102e36102cb565b6001600160a01b0316146103095760405162461bcd60e51b815260040161022590610670565b60405163278f794360e11b81526001600160a01b03841690634f1ef28690349061033990869086906004016106a5565b6000604051808303818588803b15801561035257600080fd5b505af1158015610366573d6000803e3d6000fd5b5050505050505050565b336103796102cb565b6001600160a01b03161461039f5760405162461bcd60e51b815260040161022590610670565b604051631b2ce7f360e11b81526001600160a01b03831690633659cfe69061029590849060040161051a565b336103d46102cb565b6001600160a01b0316146103fa5760405162461bcd60e51b815260040161022590610670565b6001600160a01b03811661045f5760405162461bcd60e51b815260206004820152602660248201527f4f776e61626c653a206e6577206f776e657220697320746865207a65726f206160448201526564647265737360d01b6064820152608401610225565b61046881610491565b50565b6000806000836001600160a01b031660405161018b906303e1469160e61b815260040190565b600080546001600160a01b038381166001600160a01b0319831681178455604051919092169283917f8be0079c531659141344cd1fd0a4f28419497f9722a3daafe3b4186f6b6457e09190a35050565b6001600160a01b038116811461046857600080fd5b60006020828403121561050857600080fd5b8135610513816104e1565b9392505050565b6001600160a01b0391909116815260200190565b6000806040838503121561054157600080fd5b823561054c816104e1565b9150602083013561055c816104e1565b809150509250929050565b634e487b7160e01b600052604160045260246000fd5b60008060006060848603121561059257600080fd5b833561059d816104e1565b925060208401356105ad816104e1565b9150604084013567ffffffffffffffff808211156105ca57600080fd5b818601915086601f8301126105de57600080fd5b8135818111156105f0576105f0610567565b604051601f8201601f19908116603f0116810190838211818310171561061857610618610567565b8160405282815289602084870101111561063157600080fd5b8260208601602083013760006020848301015280955050505050509250925092565b60006020828403121561066557600080fd5b8151610513816104e1565b6020808252818101527f4f776e61626c653a2063616c6c6572206973206e6f7420746865206f776e6572604082015260600190565b60018060a01b038316815260006020604081840152835180604085015260005b818110156106e1578581018301518582016060015282016106c5565b506000606082860101526060601f19601f83011685010192505050939250505056fea2646970667358221220e4431c0c42c818f97f8582430738c79e6584ed94b888442b706f43993cb3ee9464736f6c6343000810003360806040523480156200001157600080fd5b5060405162000f2938038062000f29833981016040819052620000349162000528565b82828282816200006660017f360894a13ba1a3210667c828492db98dca3e2076cc3735a920a3ca505d382bbd62000608565b60008051602062000ee2833981519152146200008657620000866200062a565b6200009482826000620000fb565b50620000c4905060017fb53127684a568b3173ae13b9f8a6016e243e63b6e8ee1178d6a717850b5d610462000608565b60008051602062000ec283398151915214620000e457620000e46200062a565b620000ef8262000138565b50505050505062000693565b620001068362000193565b600082511180620001145750805b156200013357620001318383620001d560201b6200022e1760201c565b505b505050565b7f7e644d79422f17c01e4894b5f4f588d331ebfa28653d42ae832dc59e38c9798f6200016362000206565b604080516001600160a01b03928316815291841660208301520160405180910390a162000190816200023f565b50565b6200019e81620002f4565b6040516001600160a01b038216907fbc7cd75a20ee27fd9adebab32041f755214dbc6bffa90cc0225b39da2e5c2d3b90600090a250565b6060620001fd838360405180606001604052806027815260200162000f026027913962000397565b90505b92915050565b60006200023060008051602062000ec283398151915260001b6200047f60201b620001ea1760201c565b546001600160a01b0316919050565b6001600160a01b038116620002aa5760405162461bcd60e51b815260206004820152602660248201527f455243313936373a206e65772061646d696e20697320746865207a65726f206160448201526564647265737360d01b60648201526084015b60405180910390fd5b80620002d360008051602062000ec283398151915260001b6200047f60201b620001ea1760201c565b80546001600160a01b0319166001600160a01b039290921691909117905550565b6200030a816200048260201b6200025a1760201c565b6200036e5760405162461bcd60e51b815260206004820152602d60248201527f455243313936373a206e657720696d706c656d656e746174696f6e206973206e60448201526c1bdd08184818dbdb9d1c9858dd609a1b6064820152608401620002a1565b80620002d360008051602062000ee283398151915260001b6200047f60201b620001ea1760201c565b60606001600160a01b0384163b620004015760405162461bcd60e51b815260206004820152602660248201527f416464726573733a2064656c65676174652063616c6c20746f206e6f6e2d636f6044820152651b9d1c9858dd60d21b6064820152608401620002a1565b600080856001600160a01b0316856040516200041e919062000640565b600060405180830381855af49150503d80600081146200045b576040519150601f19603f3d011682016040523d82523d6000602084013e62000460565b606091505b5090925090506200047382828662000491565b925050505b9392505050565b90565b6001600160a01b03163b151590565b60608315620004a257508162000478565b825115620004b35782518084602001fd5b8160405162461bcd60e51b8152600401620002a191906200065e565b80516001600160a01b0381168114620004e757600080fd5b919050565b634e487b7160e01b600052604160045260246000fd5b60005b838110156200051f57818101518382015260200162000505565b50506000910152565b6000806000606084860312156200053e57600080fd5b6200054984620004cf565b92506200055960208501620004cf565b60408501519092506001600160401b03808211156200057757600080fd5b818601915086601f8301126200058c57600080fd5b815181811115620005a157620005a1620004ec565b604051601f8201601f19908116603f01168101908382118183101715620005cc57620005cc620004ec565b81604052828152896020848701011115620005e657600080fd5b620005f983602083016020880162000502565b80955050505050509250925092565b818103818111156200020057634e487b7160e01b600052601160045260246000fd5b634e487b7160e01b600052600160045260246000fd5b600082516200065481846020870162000502565b9190910192915050565b60208152600082518060208401526200067f81604085016020870162000502565b601f01601f19169190910160400192915050565b61081f80620006a36000396000f3fe60806040526004361061004e5760003560e01c80633659cfe6146100655780634f1ef286146100855780635c60da1b146100985780638f283970146100c9578063f851a440146100e95761005d565b3661005d5761005b6100fe565b005b61005b6100fe565b34801561007157600080fd5b5061005b6100803660046106b1565b610118565b61005b6100933660046106cc565b610155565b3480156100a457600080fd5b506100ad6101bc565b6040516001600160a01b03909116815260200160405180910390f35b3480156100d557600080fd5b5061005b6100e43660046106b1565b6101ed565b3480156100f557600080fd5b506100ad61020d565b610106610269565b6101166101116102fe565b610308565b565b61012061032c565b6001600160a01b0316330361014d5761014a8160405180602001604052806000815250600061035f565b50565b61014a6100fe565b61015d61032c565b6001600160a01b031633036101b4576101af8383838080601f0160208091040260200160405190810160405280939291908181526020018383808284376000920191909152506001925061035f915050565b505050565b6101af6100fe565b60006101c661032c565b6001600160a01b031633036101e2576101dd6102fe565b905090565b6101ea6100fe565b90565b6101f561032c565b6001600160a01b0316330361014d5761014a8161038a565b600061021761032c565b6001600160a01b031633036101e2576101dd61032c565b606061025383836040518060600160405280602781526020016107c3602791396103de565b9392505050565b6001600160a01b03163b151590565b61027161032c565b6001600160a01b031633036101165760405162461bcd60e51b815260206004820152604260248201527f5472616e73706172656e745570677261646561626c6550726f78793a2061646d60448201527f696e2063616e6e6f742066616c6c6261636b20746f2070726f78792074617267606482015261195d60f21b608482015260a4015b60405180910390fd5b60006101dd6104b9565b3660008037600080366000845af43d6000803e808015610327573d6000f35b3d6000fd5b60007fb53127684a568b3173ae13b9f8a6016e243e63b6e8ee1178d6a717850b5d61035b546001600160a01b0316919050565b610368836104e1565b6000825111806103755750805b156101af57610384838361022e565b50505050565b7f7e644d79422f17c01e4894b5f4f588d331ebfa28653d42ae832dc59e38c9798f6103b361032c565b604080516001600160a01b03928316815291841660208301520160405180910390a161014a81610521565b60606103e98461025a565b6104445760405162461bcd60e51b815260206004820152602660248201527f416464726573733a2064656c65676174652063616c6c20746f206e6f6e2d636f6044820152651b9d1c9858dd60d21b60648201526084016102f5565b600080856001600160a01b03168560405161045f9190610773565b600060405180830381855af49150503d806000811461049a576040519150601f19603f3d011682016040523d82523d6000602084013e61049f565b606091505b50915091506104af8282866105ca565b9695505050505050565b60007f360894a13ba1a3210667c828492db98dca3e2076cc3735a920a3ca505d382bbc610350565b6104ea81610603565b6040516001600160a01b038216907fbc7cd75a20ee27fd9adebab32041f755214dbc6bffa90cc0225b39da2e5c2d3b90600090a250565b6001600160a01b0381166105865760405162461bcd60e51b815260206004820152602660248201527f455243313936373a206e65772061646d696e20697320746865207a65726f206160448201526564647265737360d01b60648201526084016102f5565b807fb53127684a568b3173ae13b9f8a6016e243e63b6e8ee1178d6a717850b5d61035b80546001600160a01b0319166001600160a01b039290921691909117905550565b606083156105d9575081610253565b8251156105e95782518084602001fd5b8160405162461bcd60e51b81526004016102f5919061078f565b61060c8161025a565b61066e5760405162461bcd60e51b815260206004820152602d60248201527f455243313936373a206e657720696d706c656d656e746174696f6e206973206e60448201526c1bdd08184818dbdb9d1c9858dd609a1b60648201526084016102f5565b807f360894a13ba1a3210667c828492db98dca3e2076cc3735a920a3ca505d382bbc6105a9565b80356001600160a01b03811681146106ac57600080fd5b919050565b6000602082840312156106c357600080fd5b61025382610695565b6000806000604084860312156106e157600080fd5b6106ea84610695565b9250602084013567ffffffffffffffff8082111561070757600080fd5b818601915086601f83011261071b57600080fd5b81358181111561072a57600080fd5b87602082850101111561073c57600080fd5b6020830194508093505050509250925092565b60005b8381101561076a578181015183820152602001610752565b50506000910152565b6000825161078581846020870161074f565b9190910192915050565b60208152600082518060208401526107ae81604085016020870161074f565b601f01601f1916919091016040019291505056fe416464726573733a206c6f772d6c6576656c2064656c65676174652063616c6c206661696c6564a2646970667358221220bc79656da5dcf6854b9cca378a0453db2ed924a45d43ec97b50dc22b6ebe7bbb64736f6c63430008100033b53127684a568b3173ae13b9f8a6016e243e63b6e8ee1178d6a717850b5d6103360894a13ba1a3210667c828492db98dca3e2076cc3735a920a3ca505d382bbc416464726573733a206c6f772d6c6576656c2064656c65676174652063616c6c206661696c6564a26469706673582212209500850bb60f6c4089b962c42386dcf61c25b4384bc757d97cab7a5967a18df364736f6c63430008100033",
  "devdoc": {
    "author": "Ondo Finance",
    "events": {
      "rUSDYDeployed(address,address,address,string,string)": {
        "details": "Event emitted when upgradable rUSDY is deployed",
        "params": {
          "implementation": "The address for the implementation contract",
          "proxy": "The address for the proxy contract",
          "proxyAdmin": "The address for the proxy admin contract"
        }
      }
    },
    "kind": "dev",
    "methods": {
      "deployrUSDY(address,address,address)": {
        "details": "This function will deploy an upgradable instance of rUSDY",
        "params": {
          "blocklist": "The address of the blocklist",
          "usdy": "The address of USDY"
        },
        "returns": {
          "_0": "address The address of the proxy contract.",
          "_1": "address The address of the proxyAdmin contract.",
          "_2": "address The address of the implementation contract."
        }
      },
      "multiexcall((address,bytes,uint256)[])": {
        "details": "All external calls made through this function will      msg.sender == contract address",
        "params": {
          "exCallData": "Struct consisting of       1) target - contract to call       2) data - data to call target with       3) value - eth value to call target with"
        }
      }
    },
    "title": "rUSDYFactory",
    "version": 1
  },
  "userdoc": {
    "kind": "user",
    "methods": {
      "deployrUSDY(address,address,address)": {
        "notice": "1) Will automatically revoke all deployer roles granted to            address(this).         2) Will grant DEFAULT_ADMIN & PAUSER_ROLE(S) to `guardian`            address specified in constructor.         3) Will transfer ownership of the proxyAdmin to guardian            address."
      },
      "multiexcall((address,bytes,uint256)[])": {
        "notice": "Allows for arbitrary batched calls"
      }
    },
    "notice": "This contract serves as a Factory for the upgradable rUSDY token contract.         Upon calling `deployrUSDY` the `guardian` address (set in constructor) will         deploy the following:         1) rUSDY - The implementation contract, ERC20 contract with the initializer disabled         2) ProxyAdmin - OZ ProxyAdmin contract, used to upgrade the proxy instance.Owner is set to `guardian` address.         3) TransparentUpgradeableProxy - OZ, proxy contract. Admin is set to `address(proxyAdmin)`.                                          `_logic' is set to `address(rUSDY)`.`guardian` address in constructor is a msig.",
    "version": 1
  },
  "storageLayout": {
    "storage": [
      {
        "astId": 25981,
        "contract": "contracts/usdy/rusdyw/rUSDYWFactory.sol:rUSDYW_Factory",
        "label": "rUSDYImplementation",
        "offset": 0,
        "slot": "0",
        "type": "t_contract(rUSDYW)25961"
      },
      {
        "astId": 25984,
        "contract": "contracts/usdy/rusdyw/rUSDYWFactory.sol:rUSDYW_Factory",
        "label": "rUSDYProxyAdmin",
        "offset": 0,
        "slot": "1",
        "type": "t_contract(ProxyAdmin)11351"
      },
      {
        "astId": 25987,
        "contract": "contracts/usdy/rusdyw/rUSDYWFactory.sol:rUSDYW_Factory",
        "label": "rUSDYProxy",
        "offset": 0,
        "slot": "2",
        "type": "t_contract(TokenProxy)709"
      }
    ],
    "types": {
      "t_contract(ProxyAdmin)11351": {
        "encoding": "inplace",
        "label": "contract ProxyAdmin",
        "numberOfBytes": "20"
      },
      "t_contract(TokenProxy)709": {
        "encoding": "inplace",
        "label": "contract TokenProxy",
        "numberOfBytes": "20"
      },
      "t_contract(rUSDYW)25961": {
        "encoding": "inplace",
        "label": "contract rUSDYW",
        "numberOfBytes": "20"
      }
    }
  }
}