{
  "address": "0x36BD938202ED388ECE7F9857Cc526519eD7330C1",
  "abi": [
    {
      "inputs": [
        {
          "internalType": "address",
          "name": "_guardian",
          "type": "address"
        }
      ],
      "stateMutability": "nonpayable",
      "type": "constructor"
    },
    {
      "anonymous": false,
      "inputs": [
        {
          "indexed": false,
          "internalType": "address",
          "name": "proxy",
          "type": "address"
        },
        {
          "indexed": false,
          "internalType": "address",
          "name": "proxyAdmin",
          "type": "address"
        },
        {
          "indexed": false,
          "internalType": "address",
          "name": "implementation",
          "type": "address"
        },
        {
          "indexed": false,
          "internalType": "string",
          "name": "name",
          "type": "string"
        },
        {
          "indexed": false,
          "internalType": "string",
          "name": "ticker",
          "type": "string"
        },
        {
          "indexed": false,
          "internalType": "address",
          "name": "blocklist",
          "type": "address"
        }
      ],
      "name": "USDYAllowAllDeployed",
      "type": "event"
    },
    {
      "inputs": [],
      "name": "DEFAULT_ADMIN_ROLE",
      "outputs": [
        {
          "internalType": "bytes32",
          "name": "",
          "type": "bytes32"
        }
      ],
      "stateMutability": "view",
      "type": "function"
    },
    {
      "inputs": [],
      "name": "MINTER_ROLE",
      "outputs": [
        {
          "internalType": "bytes32",
          "name": "",
          "type": "bytes32"
        }
      ],
      "stateMutability": "view",
      "type": "function"
    },
    {
      "inputs": [],
      "name": "PAUSER_ROLE",
      "outputs": [
        {
          "internalType": "bytes32",
          "name": "",
          "type": "bytes32"
        }
      ],
      "stateMutability": "view",
      "type": "function"
    },
    {
      "inputs": [
        {
          "internalType": "string",
          "name": "name",
          "type": "string"
        },
        {
          "internalType": "string",
          "name": "ticker",
          "type": "string"
        },
        {
          "internalType": "address",
          "name": "blocklist",
          "type": "address"
        }
      ],
      "name": "deployUSDY",
      "outputs": [
        {
          "internalType": "address",
          "name": "",
          "type": "address"
        },
        {
          "internalType": "address",
          "name": "",
          "type": "address"
        },
        {
          "internalType": "address",
          "name": "",
          "type": "address"
        }
      ],
      "stateMutability": "nonpayable",
      "type": "function"
    },
    {
      "inputs": [
        {
          "components": [
            {
              "internalType": "address",
              "name": "target",
              "type": "address"
            },
            {
              "internalType": "bytes",
              "name": "data",
              "type": "bytes"
            },
            {
              "internalType": "uint256",
              "name": "value",
              "type": "uint256"
            }
          ],
          "internalType": "struct IMulticall.ExCallData[]",
          "name": "exCallData",
          "type": "tuple[]"
        }
      ],
      "name": "multiexcall",
      "outputs": [
        {
          "internalType": "bytes[]",
          "name": "results",
          "type": "bytes[]"
        }
      ],
      "stateMutability": "payable",
      "type": "function"
    },
    {
      "inputs": [],
      "name": "usdyImplementation",
      "outputs": [
        {
          "internalType": "contract USDYW",
          "name": "",
          "type": "address"
        }
      ],
      "stateMutability": "view",
      "type": "function"
    },
    {
      "inputs": [],
      "name": "usdyProxy",
      "outputs": [
        {
          "internalType": "contract TokenProxy",
          "name": "",
          "type": "address"
        }
      ],
      "stateMutability": "view",
      "type": "function"
    },
    {
      "inputs": [],
      "name": "usdyProxyAdmin",
      "outputs": [
        {
          "internalType": "contract ProxyAdmin",
          "name": "",
          "type": "address"
        }
      ],
      "stateMutability": "view",
      "type": "function"
    }
  ],
  "transactionHash": "0x4cab7e280e3e916fb2786198840185406517bb92a7fe9489a6189032adc228fc",
  "args": [
    "0xC8A7870fFe41054612F7f3433E173D8b5bFcA8E3"
  ],
  "solcInputHash": "87fb4451d5f2ede85be869f7e2f015d7",
  "bytecode": "0x60a060405234801561001057600080fd5b50604051614d6e380380614d6e83398101604081905261002f91610040565b6001600160a01b0316608052610070565b60006020828403121561005257600080fd5b81516001600160a01b038116811461006957600080fd5b9392505050565b608051614cc06100ae60003960008181610202015281816103e20152818161047501528181610646015281816106b101526107f50152614cc06000f3fe608060405260043610620000745760003560e01c80630792c02f14620000795780631ee9af4314620000b857806329d0e9c914620000da578063636b745e14620000fc578063936bffd9146200014c578063a217fddf1462000172578063d53913931462000198578063e63ab1e914620001ce575b600080fd5b3480156200008657600080fd5b506002546200009b906001600160a01b031681565b6040516001600160a01b0390911681526020015b60405180910390f35b348015620000c557600080fd5b506001546200009b906001600160a01b031681565b348015620000e757600080fd5b506000546200009b906001600160a01b031681565b3480156200010957600080fd5b50620001216200011b36600462000aa3565b620001f3565b604080516001600160a01b0394851681529284166020840152921691810191909152606001620000af565b620001636200015d36600462000b30565b620007e8565b604051620000af919062000baa565b3480156200017f57600080fd5b5062000189600081565b604051908152602001620000af565b348015620001a557600080fd5b50620001897f9f2df0fed2c77648de5860a4cc508cd0818c85b8b8a1ab4ceeef8d981c8956a681565b348015620001db57600080fd5b506200018960008051602062004c6b83398151915281565b60008080336001600160a01b037f000000000000000000000000000000000000000000000000000000000000000016146200024b5760405162461bcd60e51b8152600401620002429062000c40565b60405180910390fd5b604051620002599062000a14565b604051809103906000f08015801562000276573d6000803e3d6000fd5b50600080546001600160a01b0319166001600160a01b0392909216919091179055604051620002a59062000a22565b604051809103906000f080158015620002c2573d6000803e3d6000fd5b50600180546001600160a01b0319166001600160a01b03928316908117909155600054604051921691620002f69062000a30565b6001600160a01b03928316815291166020820152606060408201819052600090820152608001604051809103906000f08015801562000339573d6000803e3d6000fd5b50600280546001600160a01b0319166001600160a01b039290921691821790556040516303bf912560e11b8152819063077f224a9062000386908c908c908c908c908c9060040162000cae565b600060405180830381600087803b158015620003a157600080fd5b505af1158015620003b6573d6000803e3d6000fd5b5050604051632f2ff15d60e01b81526001600160a01b0384169250632f2ff15d91506200040b906000907f00000000000000000000000000000000000000000000000000000000000000009060040162000cf4565b600060405180830381600087803b1580156200042657600080fd5b505af11580156200043b573d6000803e3d6000fd5b5050604051632f2ff15d60e01b81526001600160a01b0384169250632f2ff15d91506200049e9060008051602062004c6b833981519152907f00000000000000000000000000000000000000000000000000000000000000009060040162000cf4565b600060405180830381600087803b158015620004b957600080fd5b505af1158015620004ce573d6000803e3d6000fd5b505060405163d547741f60e01b81526001600160a01b038416925063d547741f915062000522907f9f2df0fed2c77648de5860a4cc508cd0818c85b8b8a1ab4ceeef8d981c8956a690309060040162000cf4565b600060405180830381600087803b1580156200053d57600080fd5b505af115801562000552573d6000803e3d6000fd5b505060405163d547741f60e01b81526001600160a01b038416925063d547741f9150620005959060008051602062004c6b83398151915290309060040162000cf4565b600060405180830381600087803b158015620005b057600080fd5b505af1158015620005c5573d6000803e3d6000fd5b505060405163d547741f60e01b81526001600160a01b038416925063d547741f9150620005fa90600090309060040162000cf4565b600060405180830381600087803b1580156200061557600080fd5b505af11580156200062a573d6000803e3d6000fd5b505060015460405163f2fde38b60e01b81526001600160a01b037f000000000000000000000000000000000000000000000000000000000000000081166004830152909116925063f2fde38b9150602401600060405180830381600087803b1580156200069657600080fd5b505af1158015620006ab573d6000803e3d6000fd5b505050507f00000000000000000000000000000000000000000000000000000000000000006001600160a01b0316600160009054906101000a90046001600160a01b03166001600160a01b0316638da5cb5b6040518163ffffffff1660e01b8152600401602060405180830381865afa1580156200072d573d6000803e3d6000fd5b505050506040513d601f19601f8201168201806040525081019062000753919062000d0b565b6001600160a01b0316146200076c576200076c62000d32565b6001546000546040517fa688ac968b2ddc06f1cf2674cc8d395478f785c07a9b087409def843312061c792620007be9285926001600160a01b0392831692909116908e908e908e908e908e9062000d48565b60405180910390a1600154600054919a6001600160a01b039182169a509116975095505050505050565b6060336001600160a01b037f00000000000000000000000000000000000000000000000000000000000000001614620008355760405162461bcd60e51b8152600401620002429062000c40565b8167ffffffffffffffff81111562000851576200085162000dab565b6040519080825280602002602001820160405280156200088657816020015b6060815260200190600190039081620008705790505b50905060005b8281101562000a0d57600080858584818110620008ad57620008ad62000dc1565b9050602002810190620008c1919062000dd7565b620008d190602081019062000df8565b6001600160a01b0316868685818110620008ef57620008ef62000dc1565b905060200281019062000903919062000dd7565b604001358787868181106200091c576200091c62000dc1565b905060200281019062000930919062000dd7565b6200094090602081019062000e18565b6040516200095092919062000e62565b60006040518083038185875af1925050503d80600081146200098f576040519150601f19603f3d011682016040523d82523d6000602084013e62000994565b606091505b509150915081620009d65760405162461bcd60e51b815260206004820152600b60248201526a10d85b1b0811985a5b195960aa1b604482015260640162000242565b80848481518110620009ec57620009ec62000dc1565b602002602001018190525050508062000a059062000e72565b90506200088c565b5092915050565b6126f08062000e9b83390190565b6107b7806200358b83390190565b610f298062003d4283390190565b60008083601f84011262000a5157600080fd5b50813567ffffffffffffffff81111562000a6a57600080fd5b60208301915083602082850101111562000a8357600080fd5b9250929050565b6001600160a01b038116811462000aa057600080fd5b50565b60008060008060006060868803121562000abc57600080fd5b853567ffffffffffffffff8082111562000ad557600080fd5b62000ae389838a0162000a3e565b9097509550602088013591508082111562000afd57600080fd5b5062000b0c8882890162000a3e565b909450925050604086013562000b228162000a8a565b809150509295509295909350565b6000806020838503121562000b4457600080fd5b823567ffffffffffffffff8082111562000b5d57600080fd5b818501915085601f83011262000b7257600080fd5b81358181111562000b8257600080fd5b8660208260051b850101111562000b9857600080fd5b60209290920196919550909350505050565b6000602080830181845280855180835260408601915060408160051b87010192508387016000805b8381101562000c3257888603603f1901855282518051808852835b8181101562000c0a578281018a01518982018b0152890162000bed565b508781018901849052601f01601f191690960187019550938601939186019160010162000bd2565b509398975050505050505050565b60208082526025908201527f55534459466163746f72793a20596f7520617265206e6f742074686520477561604082015264393234b0b760d91b606082015260800190565b81835281816020850137506000828201602090810191909152601f909101601f19169091010190565b60608152600062000cc460608301878962000c85565b828103602084015262000cd981868862000c85565b91505060018060a01b03831660408301529695505050505050565b9182526001600160a01b0316602082015260400190565b60006020828403121562000d1e57600080fd5b815162000d2b8162000a8a565b9392505050565b634e487b7160e01b600052600160045260246000fd5b600060018060a01b03808b168352808a166020840152808916604084015260c0606084015262000d7d60c08401888a62000c85565b838103608085015262000d9281878962000c85565b92505080841660a0840152509998505050505050505050565b634e487b7160e01b600052604160045260246000fd5b634e487b7160e01b600052603260045260246000fd5b60008235605e1983360301811262000dee57600080fd5b9190910192915050565b60006020828403121562000e0b57600080fd5b813562000d2b8162000a8a565b6000808335601e1984360301811262000e3057600080fd5b83018035915067ffffffffffffffff82111562000e4c57600080fd5b60200191503681900382131562000a8357600080fd5b8183823760009101908152919050565b60006001820162000e9357634e487b7160e01b600052601160045260246000fd5b506001019056fe60806040523480156200001157600080fd5b506200001c62000022565b620000e4565b600054610100900460ff16156200008f5760405162461bcd60e51b815260206004820152602760248201527f496e697469616c697a61626c653a20636f6e747261637420697320696e697469604482015266616c697a696e6760c81b606482015260840160405180910390fd5b60005460ff9081161015620000e2576000805460ff191660ff9081179091556040519081527f7f26b83ff96e1f2b6a682f133852f6798a09c465da95921460cefb38474024989060200160405180910390a15b565b6125fc80620000f46000396000f3fe608060405234801561001057600080fd5b50600436106101f75760003560e01c806370a0823111610120578063a9059cbb116100b8578063d547741f1161007c578063d547741f14610488578063d64e53961461049b578063db692109146104af578063dd62ed3e146104b7578063e63ab1e9146104ca57600080fd5b8063a9059cbb14610425578063aef18ae714610438578063bf1d5b8f1461044b578063ca15c87314610460578063d53913931461047357600080fd5b806370a082311461037857806379cc6790146103a15780638456cb59146103b45780639010d07c146103bc57806391d14854146103dc57806395d89b41146103ef5780639dc29fac146103f7578063a217fddf1461040a578063a457c2d71461041257600080fd5b8063313ce56711610193578063313ce567146102e357806336568abe146102f257806339509351146103055780633f4ba83a1461031857806340c10f191461032057806342966c68146103335780634cd88b7614610346578063517d0555146103595780635c975abb1461036c57600080fd5b806301ffc9a7146101fc57806306fdde0314610224578063077f224a14610239578063095ea7b31461024e57806318160ddd1461026157806323b872dd14610273578063248a9ca314610286578063282c51f3146102a95780632f2ff15d146102d0575b600080fd5b61020f61020a366004611cfb565b6104df565b60405190151581526020015b60405180910390f35b61022c61050a565b60405161021b9190611d75565b61024c610247366004611e46565b61059c565b005b61020f61025c366004611eb9565b61067e565b60cb545b60405190815260200161021b565b61020f610281366004611ee3565b610696565b610265610294366004611f1f565b60009081526065602052604090206001015490565b6102657f3c11d16cbaffd01df69ce1c404f6340ee057498f5f00246190ea54220576a84881565b61024c6102de366004611f38565b6106ba565b6040516012815260200161021b565b61024c610300366004611f38565b6106e4565b61020f610313366004611eb9565b610762565b61024c610784565b61024c61032e366004611eb9565b610802565b61024c610341366004611f1f565b61087d565b61024c610354366004611f64565b61088a565b61024c610367366004611fc7565b610957565b61012d5460ff1661020f565b610265610386366004612038565b6001600160a01b0316600090815260c9602052604090205490565b61024c6103af366004611eb9565b610a45565b61024c610a5a565b6103cf6103ca366004612053565b610ad4565b60405161021b9190612075565b61020f6103ea366004611f38565b610af3565b61022c610b1e565b61024c610405366004611eb9565b610b2d565b610265600081565b61020f610420366004611eb9565b610b61565b61020f610433366004611eb9565b610bdc565b61024c610446366004612038565b610bea565b6102656000805160206125a783398151915281565b61026561046e366004611f1f565b610c0b565b61026560008051602061256783398151915281565b61024c610496366004611f38565b610c22565b6101c3546103cf906001600160a01b031681565b61022c610c47565b6102656104c5366004612089565b610cd6565b61026560008051602061254783398151915281565b60006001600160e01b03198216635a05180f60e01b1480610504575061050482610d01565b92915050565b606060cc8054610519906120b3565b80601f0160208091040260200160405190810160405280929190818152602001828054610545906120b3565b80156105925780601f1061056757610100808354040283529160200191610592565b820191906000526020600020905b81548152906001019060200180831161057557829003601f168201915b5050505050905090565b600054610100900460ff16158080156105bc5750600054600160ff909116105b806105d65750303b1580156105d6575060005460ff166001145b6105fb5760405162461bcd60e51b81526004016105f2906120ed565b60405180910390fd5b6000805460ff19166001179055801561061e576000805461ff0019166101001790555b6106288484610d36565b61063182610d79565b8015610678576000805461ff0019169055604051600181527f7f26b83ff96e1f2b6a682f133852f6798a09c465da95921460cefb3847402498906020015b60405180910390a15b50505050565b60003361068c818585610da9565b5060019392505050565b6000336106a4858285610ecd565b6106af858585610f41565b506001949350505050565b6000828152606560205260409020600101546106d581611108565b6106df8383611112565b505050565b6001600160a01b03811633146107545760405162461bcd60e51b815260206004820152602f60248201527f416363657373436f6e74726f6c3a2063616e206f6e6c792072656e6f756e636560448201526e103937b632b9903337b91039b2b63360891b60648201526084016105f2565b61075e8282611134565b5050565b60003361068c8185856107758383610cd6565b61077f9190612151565b610da9565b61079c60008051602061254783398151915233610af3565b6107f85760405162461bcd60e51b8152602060048201526039602482015260008051602061252783398151915260448201527876652070617573657220726f6c6520746f20756e706175736560381b60648201526084016105f2565b610800611156565b565b61081a60008051602061256783398151915233610af3565b6108735760405162461bcd60e51b815260206004820152603660248201526000805160206125278339815191526044820152751d99481b5a5b9d195c881c9bdb19481d1bc81b5a5b9d60521b60648201526084016105f2565b61075e82826111a3565b610887338261127c565b50565b600054610100900460ff16158080156108aa5750600054600160ff909116105b806108c45750303b1580156108c4575060005460ff166001145b6108e05760405162461bcd60e51b81526004016105f2906120ed565b6000805460ff191660011790558015610903576000805461ff0019166101001790555b61090d8383610d36565b80156106df576000805461ff0019169055604051600181527f7f26b83ff96e1f2b6a682f133852f6798a09c465da95921460cefb38474024989060200160405180910390a1505050565b6000805160206125a783398151915261096f81611108565b60006101f6805461097f906120b3565b80601f01602080910402602001604051908101604052809291908181526020018280546109ab906120b3565b80156109f85780601f106109cd576101008083540402835291602001916109f8565b820191906000526020600020905b8154815290600101906020018083116109db57829003601f168201915b5050505050905083836101f69182610a119291906121c7565b507fc77a3128026827daf72c80bef8fb174442ecf2e8f96a463f405a6f5163894ad3816101f660405161066f929190612281565b610a50823383610ecd565b61075e828261127c565b610a7260008051602061254783398151915233610af3565b610acc5760405162461bcd60e51b8152602060048201526037602482015260008051602061252783398151915260448201527676652070617573657220726f6c6520746f20706175736560481b60648201526084016105f2565b6108006113c4565b6000828152609760205260408120610aec9083611402565b9392505050565b60009182526065602090815260408084206001600160a01b0393909316845291905290205460ff1690565b606060cd8054610519906120b3565b7f3c11d16cbaffd01df69ce1c404f6340ee057498f5f00246190ea54220576a848610b5781611108565b6106df838361127c565b60003381610b6f8286610cd6565b905083811015610bcf5760405162461bcd60e51b815260206004820152602560248201527f45524332303a2064656372656173656420616c6c6f77616e63652062656c6f77604482015264207a65726f60d81b60648201526084016105f2565b6106af8286868403610da9565b60003361068c818585610f41565b6000805160206125a7833981519152610c0281611108565b61075e8261140e565b600081815260976020526040812061050490611497565b600082815260656020526040902060010154610c3d81611108565b6106df8383611134565b6101f68054610c55906120b3565b80601f0160208091040260200160405190810160405280929190818152602001828054610c81906120b3565b8015610cce5780601f10610ca357610100808354040283529160200191610cce565b820191906000526020600020905b815481529060010190602001808311610cb157829003601f168201915b505050505081565b6001600160a01b03918216600090815260ca6020908152604080832093909416825291909152205490565b60006001600160e01b03198216637965db0b60e01b148061050457506301ffc9a760e01b6001600160e01b0319831614610504565b600054610100900460ff16610d5d5760405162461bcd60e51b81526004016105f29061231c565b610d6782826114a1565b610d6f6114e1565b61075e8282611515565b600054610100900460ff16610da05760405162461bcd60e51b81526004016105f29061231c565b61088781611577565b6001600160a01b038316610e0b5760405162461bcd60e51b8152602060048201526024808201527f45524332303a20617070726f76652066726f6d20746865207a65726f206164646044820152637265737360e01b60648201526084016105f2565b6001600160a01b038216610e6c5760405162461bcd60e51b815260206004820152602260248201527f45524332303a20617070726f766520746f20746865207a65726f206164647265604482015261737360f01b60648201526084016105f2565b6001600160a01b03838116600081815260ca602090815260408083209487168084529482529182902085905590518481527f8c5be1e5ebec7d5bd14f71427d1e84f3dd0314c0f7b2291e5b200ac8c7c3b925910160405180910390a3505050565b6000610ed98484610cd6565b905060001981146106785781811015610f345760405162461bcd60e51b815260206004820152601d60248201527f45524332303a20696e73756666696369656e7420616c6c6f77616e636500000060448201526064016105f2565b6106788484848403610da9565b6001600160a01b038316610fa55760405162461bcd60e51b815260206004820152602560248201527f45524332303a207472616e736665722066726f6d20746865207a65726f206164604482015264647265737360d81b60648201526084016105f2565b6001600160a01b0382166110075760405162461bcd60e51b815260206004820152602360248201527f45524332303a207472616e7366657220746f20746865207a65726f206164647260448201526265737360e81b60648201526084016105f2565b6110128383836115a7565b6001600160a01b038316600090815260c960205260409020548181101561108a5760405162461bcd60e51b815260206004820152602660248201527f45524332303a207472616e7366657220616d6f756e7420657863656564732062604482015265616c616e636560d01b60648201526084016105f2565b6001600160a01b03808516600090815260c960205260408082208585039055918516815290812080548492906110c1908490612151565b92505081905550826001600160a01b0316846001600160a01b0316600080516020612587833981519152846040516110fb91815260200190565b60405180910390a3610678565b61088781336116f9565b61111c828261175d565b60008281526097602052604090206106df90826117e3565b61113e82826117f8565b60008281526097602052604090206106df908261185f565b61115e611874565b61012d805460ff191690557f5db9ee0a495bf2e6ff9c91a7834c1ba4fdd244a5e8aa4e537bd38aeae4b073aa335b6040516111999190612075565b60405180910390a1565b6001600160a01b0382166111f95760405162461bcd60e51b815260206004820152601f60248201527f45524332303a206d696e7420746f20746865207a65726f20616464726573730060448201526064016105f2565b611205600083836115a7565b8060cb60008282546112179190612151565b90915550506001600160a01b038216600090815260c9602052604081208054839290611244908490612151565b90915550506040518181526001600160a01b038316906000906000805160206125878339815191529060200160405180910390a35050565b6001600160a01b0382166112dc5760405162461bcd60e51b815260206004820152602160248201527f45524332303a206275726e2066726f6d20746865207a65726f206164647265736044820152607360f81b60648201526084016105f2565b6112e8826000836115a7565b6001600160a01b038216600090815260c960205260409020548181101561135c5760405162461bcd60e51b815260206004820152602260248201527f45524332303a206275726e20616d6f756e7420657863656564732062616c616e604482015261636560f01b60648201526084016105f2565b6001600160a01b038316600090815260c960205260408120838303905560cb805484929061138b908490612367565b90915550506040518281526000906001600160a01b038516906000805160206125878339815191529060200160405180910390a3505050565b6113cc6118be565b61012d805460ff191660011790557f62e78cea01bee320cd4e420270b5ea74000d11b0c9f74754ebdbfc544b05a25861118c3390565b6000610aec8383611905565b6001600160a01b03811661143557604051637e33865360e01b815260040160405180910390fd5b6101c380546001600160a01b038381166001600160a01b031983168117909355604080519190921680825260208201939093527f7e053cdc9069fe4f629b6b3fa2a01bb53a9a8305ec11830b259d95e9e75b7304910160405180910390a15050565b6000610504825490565b600054610100900460ff166114c85760405162461bcd60e51b81526004016105f29061231c565b60cc6114d4838261237a565b5060cd6106df828261237a565b600054610100900460ff166115085760405162461bcd60e51b81526004016105f29061231c565b61012d805460ff19169055565b600054610100900460ff1661153c5760405162461bcd60e51b81526004016105f29061231c565b61154760003361192f565b61155f6000805160206125678339815191523361192f565b61075e6000805160206125478339815191523361192f565b600054610100900460ff1661159e5760405162461bcd60e51b81526004016105f29061231c565b6108878161140e565b6115b2838383611939565b6001600160a01b03831633148015906115d457506001600160a01b0382163314155b1561162f576115e233611944565b1561162f5760405162461bcd60e51b815260206004820152601e60248201527f555344593a202773656e64657227206164647265737320626c6f636b6564000060448201526064016105f2565b6001600160a01b038316156116945761164783611944565b156116945760405162461bcd60e51b815260206004820152601c60248201527f555344593a202766726f6d27206164647265737320626c6f636b65640000000060448201526064016105f2565b6001600160a01b038216156106df576116ac82611944565b156106df5760405162461bcd60e51b815260206004820152601a60248201527f555344593a2027746f27206164647265737320626c6f636b656400000000000060448201526064016105f2565b6117038282610af3565b61075e5761171b816001600160a01b031660146119b7565b6117268360206119b7565b604051602001611737929190612433565b60408051601f198184030181529082905262461bcd60e51b82526105f291600401611d75565b6117678282610af3565b61075e5760008281526065602090815260408083206001600160a01b03851684529091529020805460ff1916600117905561179f3390565b6001600160a01b0316816001600160a01b0316837f2f8788117e7eff1d82e926ec794901d17c78024a50270940304540a733656f0d60405160405180910390a45050565b6000610aec836001600160a01b038416611b52565b6118028282610af3565b1561075e5760008281526065602090815260408083206001600160a01b0385168085529252808320805460ff1916905551339285917ff6391f5c32d9c69d2a47ea670b442974b53935d1edc7fd64eb21e047a839171b9190a45050565b6000610aec836001600160a01b038416611ba1565b61012d5460ff166108005760405162461bcd60e51b815260206004820152601460248201527314185d5cd8589b194e881b9bdd081c185d5cd95960621b60448201526064016105f2565b61012d5460ff16156108005760405162461bcd60e51b815260206004820152601060248201526f14185d5cd8589b194e881c185d5cd95960821b60448201526064016105f2565b600082600001828154811061191c5761191c6124a2565b9060005260206000200154905092915050565b61075e8282611112565b6106df838383611c94565b6101c35460405163fbac395160e01b81526000916001600160a01b03169063fbac395190611976908590600401612075565b602060405180830381865afa158015611993573d6000803e3d6000fd5b505050506040513d601f19601f8201168201806040525081019061050491906124b8565b606060006119c68360026124da565b6119d1906002612151565b6001600160401b038111156119e8576119e8611d88565b6040519080825280601f01601f191660200182016040528015611a12576020820181803683370190505b509050600360fc1b81600081518110611a2d57611a2d6124a2565b60200101906001600160f81b031916908160001a905350600f60fb1b81600181518110611a5c57611a5c6124a2565b60200101906001600160f81b031916908160001a9053506000611a808460026124da565b611a8b906001612151565b90505b6001811115611b03576f181899199a1a9b1b9c1cb0b131b232b360811b85600f1660108110611abf57611abf6124a2565b1a60f81b828281518110611ad557611ad56124a2565b60200101906001600160f81b031916908160001a90535060049490941c93611afc816124f9565b9050611a8e565b508315610aec5760405162461bcd60e51b815260206004820181905260248201527f537472696e67733a20686578206c656e67746820696e73756666696369656e7460448201526064016105f2565b6000818152600183016020526040812054611b9957508154600181810184556000848152602080822090930184905584548482528286019093526040902091909155610504565b506000610504565b60008181526001830160205260408120548015611c8a576000611bc5600183612367565b8554909150600090611bd990600190612367565b9050818114611c3e576000866000018281548110611bf957611bf96124a2565b9060005260206000200154905080876000018481548110611c1c57611c1c6124a2565b6000918252602080832090910192909255918252600188019052604090208390555b8554869080611c4f57611c4f612510565b600190038181906000526020600020016000905590558560010160008681526020019081526020016000206000905560019350505050610504565b6000915050610504565b61012d5460ff16156106df5760405162461bcd60e51b815260206004820152602a60248201527f45524332305061757361626c653a20746f6b656e207472616e736665722077686044820152691a5b19481c185d5cd95960b21b60648201526084016105f2565b600060208284031215611d0d57600080fd5b81356001600160e01b031981168114610aec57600080fd5b60005b83811015611d40578181015183820152602001611d28565b50506000910152565b60008151808452611d61816020860160208601611d25565b601f01601f19169290920160200192915050565b602081526000610aec6020830184611d49565b634e487b7160e01b600052604160045260246000fd5b600082601f830112611daf57600080fd5b81356001600160401b0380821115611dc957611dc9611d88565b604051601f8301601f19908116603f01168101908282118183101715611df157611df1611d88565b81604052838152866020858801011115611e0a57600080fd5b836020870160208301376000602085830101528094505050505092915050565b80356001600160a01b0381168114611e4157600080fd5b919050565b600080600060608486031215611e5b57600080fd5b83356001600160401b0380821115611e7257600080fd5b611e7e87838801611d9e565b94506020860135915080821115611e9457600080fd5b50611ea186828701611d9e565b925050611eb060408501611e2a565b90509250925092565b60008060408385031215611ecc57600080fd5b611ed583611e2a565b946020939093013593505050565b600080600060608486031215611ef857600080fd5b611f0184611e2a565b9250611f0f60208501611e2a565b9150604084013590509250925092565b600060208284031215611f3157600080fd5b5035919050565b60008060408385031215611f4b57600080fd5b82359150611f5b60208401611e2a565b90509250929050565b60008060408385031215611f7757600080fd5b82356001600160401b0380821115611f8e57600080fd5b611f9a86838701611d9e565b93506020850135915080821115611fb057600080fd5b50611fbd85828601611d9e565b9150509250929050565b60008060208385031215611fda57600080fd5b82356001600160401b0380821115611ff157600080fd5b818501915085601f83011261200557600080fd5b81358181111561201457600080fd5b86602082850101111561202657600080fd5b60209290920196919550909350505050565b60006020828403121561204a57600080fd5b610aec82611e2a565b6000806040838503121561206657600080fd5b50508035926020909101359150565b6001600160a01b0391909116815260200190565b6000806040838503121561209c57600080fd5b6120a583611e2a565b9150611f5b60208401611e2a565b600181811c908216806120c757607f821691505b6020821081036120e757634e487b7160e01b600052602260045260246000fd5b50919050565b6020808252602e908201527f496e697469616c697a61626c653a20636f6e747261637420697320616c72656160408201526d191e481a5b9a5d1a585b1a5e995960921b606082015260800190565b634e487b7160e01b600052601160045260246000fd5b808201808211156105045761050461213b565b601f8211156106df57600081815260208120601f850160051c8101602086101561218b5750805b601f850160051c820191505b818110156121aa57828155600101612197565b505050505050565b600019600383901b1c191660019190911b1790565b6001600160401b038311156121de576121de611d88565b6121f2836121ec83546120b3565b83612164565b6000601f841160018114612220576000851561220e5750838201355b61221886826121b2565b84555061227a565b600083815260209020601f19861690835b828110156122515786850135825560209485019460019092019101612231565b508682101561226e5760001960f88860031b161c19848701351681555b505060018560011b0183555b5050505050565b6040815260006122946040830185611d49565b602083820381850152600085546122aa816120b3565b808552600182811680156122c557600181146122df5761230d565b60ff1984168787015282151560051b87018601945061230d565b896000528560002060005b848110156123055781548982018901529083019087016122ea565b880187019550505b50929998505050505050505050565b6020808252602b908201527f496e697469616c697a61626c653a20636f6e7472616374206973206e6f74206960408201526a6e697469616c697a696e6760a81b606082015260800190565b818103818111156105045761050461213b565b81516001600160401b0381111561239357612393611d88565b6123a7816123a184546120b3565b84612164565b602080601f8311600181146123d657600084156123c45750858301515b6123ce85826121b2565b8655506121aa565b600085815260208120601f198616915b82811015612405578886015182559484019460019091019084016123e6565b50858210156124235787850151600019600388901b60f8161c191681555b5050505050600190811b01905550565b76020b1b1b2b9b9a1b7b73a3937b61d1030b1b1b7bab73a1604d1b815260008351612465816017850160208801611d25565b7001034b99036b4b9b9b4b733903937b6329607d1b6017918401918201528351612496816028840160208801611d25565b01602801949350505050565b634e487b7160e01b600052603260045260246000fd5b6000602082840312156124ca57600080fd5b81518015158114610aec57600080fd5b60008160001904831182151516156124f4576124f461213b565b500290565b6000816125085761250861213b565b506000190190565b634e487b7160e01b600052603160045260246000fdfe45524332305072657365744d696e7465725061757365723a206d75737420686165d7a28e3265b37a6474929f336521b332c1681b933f6cb9f3376673440d862a9f2df0fed2c77648de5860a4cc508cd0818c85b8b8a1ab4ceeef8d981c8956a6ddf252ad1be2c89b69c2b068fc378daa952ba7f163c4a11628f55a4df523b3efa74faf88a584437bd0449f37007060732f2e252b1607e7286651c9b6c1a74cbaa2646970667358221220ff11d199c0aadcbefc0a72a2c4ed94a1877a600a1923b66b7195e663c551b5a564736f6c63430008100033608060405234801561001057600080fd5b5061001a3361001f565b61006f565b600080546001600160a01b038381166001600160a01b0319831681178455604051919092169283917f8be0079c531659141344cd1fd0a4f28419497f9722a3daafe3b4186f6b6457e09190a35050565b6107398061007e6000396000f3fe60806040526004361061006b5760003560e01c8063204e1c7a14610070578063715018a6146100a65780637eff275e146100bd5780638da5cb5b146100dd5780639623609d146100f257806399a88ec414610105578063f2fde38b14610125578063f3b7dead14610145575b600080fd5b34801561007c57600080fd5b5061009061008b3660046104f6565b610165565b60405161009d919061051a565b60405180910390f35b3480156100b257600080fd5b506100bb6101f6565b005b3480156100c957600080fd5b506100bb6100d836600461052e565b61023a565b3480156100e957600080fd5b506100906102cb565b6100bb61010036600461057d565b6102da565b34801561011157600080fd5b506100bb61012036600461052e565b610370565b34801561013157600080fd5b506100bb6101403660046104f6565b6103cb565b34801561015157600080fd5b506100906101603660046104f6565b61046b565b6000806000836001600160a01b031660405161018b90635c60da1b60e01b815260040190565b600060405180830381855afa9150503d80600081146101c6576040519150601f19603f3d011682016040523d82523d6000602084013e6101cb565b606091505b5091509150816101da57600080fd5b808060200190518101906101ee9190610653565b949350505050565b336101ff6102cb565b6001600160a01b03161461022e5760405162461bcd60e51b815260040161022590610670565b60405180910390fd5b6102386000610491565b565b336102436102cb565b6001600160a01b0316146102695760405162461bcd60e51b815260040161022590610670565b6040516308f2839760e41b81526001600160a01b03831690638f2839709061029590849060040161051a565b600060405180830381600087803b1580156102af57600080fd5b505af11580156102c3573d6000803e3d6000fd5b505050505050565b6000546001600160a01b031690565b336102e36102cb565b6001600160a01b0316146103095760405162461bcd60e51b815260040161022590610670565b60405163278f794360e11b81526001600160a01b03841690634f1ef28690349061033990869086906004016106a5565b6000604051808303818588803b15801561035257600080fd5b505af1158015610366573d6000803e3d6000fd5b5050505050505050565b336103796102cb565b6001600160a01b03161461039f5760405162461bcd60e51b815260040161022590610670565b604051631b2ce7f360e11b81526001600160a01b03831690633659cfe69061029590849060040161051a565b336103d46102cb565b6001600160a01b0316146103fa5760405162461bcd60e51b815260040161022590610670565b6001600160a01b03811661045f5760405162461bcd60e51b815260206004820152602660248201527f4f776e61626c653a206e6577206f776e657220697320746865207a65726f206160448201526564647265737360d01b6064820152608401610225565b61046881610491565b50565b6000806000836001600160a01b031660405161018b906303e1469160e61b815260040190565b600080546001600160a01b038381166001600160a01b0319831681178455604051919092169283917f8be0079c531659141344cd1fd0a4f28419497f9722a3daafe3b4186f6b6457e09190a35050565b6001600160a01b038116811461046857600080fd5b60006020828403121561050857600080fd5b8135610513816104e1565b9392505050565b6001600160a01b0391909116815260200190565b6000806040838503121561054157600080fd5b823561054c816104e1565b9150602083013561055c816104e1565b809150509250929050565b634e487b7160e01b600052604160045260246000fd5b60008060006060848603121561059257600080fd5b833561059d816104e1565b925060208401356105ad816104e1565b9150604084013567ffffffffffffffff808211156105ca57600080fd5b818601915086601f8301126105de57600080fd5b8135818111156105f0576105f0610567565b604051601f8201601f19908116603f0116810190838211818310171561061857610618610567565b8160405282815289602084870101111561063157600080fd5b8260208601602083013760006020848301015280955050505050509250925092565b60006020828403121561066557600080fd5b8151610513816104e1565b6020808252818101527f4f776e61626c653a2063616c6c6572206973206e6f7420746865206f776e6572604082015260600190565b60018060a01b038316815260006020604081840152835180604085015260005b818110156106e1578581018301518582016060015282016106c5565b506000606082860101526060601f19601f83011685010192505050939250505056fea2646970667358221220e4431c0c42c818f97f8582430738c79e6584ed94b888442b706f43993cb3ee9464736f6c6343000810003360806040523480156200001157600080fd5b5060405162000f2938038062000f29833981016040819052620000349162000528565b82828282816200006660017f360894a13ba1a3210667c828492db98dca3e2076cc3735a920a3ca505d382bbd62000608565b60008051602062000ee2833981519152146200008657620000866200062a565b6200009482826000620000fb565b50620000c4905060017fb53127684a568b3173ae13b9f8a6016e243e63b6e8ee1178d6a717850b5d610462000608565b60008051602062000ec283398151915214620000e457620000e46200062a565b620000ef8262000138565b50505050505062000693565b620001068362000193565b600082511180620001145750805b156200013357620001318383620001d560201b6200022e1760201c565b505b505050565b7f7e644d79422f17c01e4894b5f4f588d331ebfa28653d42ae832dc59e38c9798f6200016362000206565b604080516001600160a01b03928316815291841660208301520160405180910390a162000190816200023f565b50565b6200019e81620002f4565b6040516001600160a01b038216907fbc7cd75a20ee27fd9adebab32041f755214dbc6bffa90cc0225b39da2e5c2d3b90600090a250565b6060620001fd838360405180606001604052806027815260200162000f026027913962000397565b90505b92915050565b60006200023060008051602062000ec283398151915260001b6200047f60201b620001ea1760201c565b546001600160a01b0316919050565b6001600160a01b038116620002aa5760405162461bcd60e51b815260206004820152602660248201527f455243313936373a206e65772061646d696e20697320746865207a65726f206160448201526564647265737360d01b60648201526084015b60405180910390fd5b80620002d360008051602062000ec283398151915260001b6200047f60201b620001ea1760201c565b80546001600160a01b0319166001600160a01b039290921691909117905550565b6200030a816200048260201b6200025a1760201c565b6200036e5760405162461bcd60e51b815260206004820152602d60248201527f455243313936373a206e657720696d706c656d656e746174696f6e206973206e60448201526c1bdd08184818dbdb9d1c9858dd609a1b6064820152608401620002a1565b80620002d360008051602062000ee283398151915260001b6200047f60201b620001ea1760201c565b60606001600160a01b0384163b620004015760405162461bcd60e51b815260206004820152602660248201527f416464726573733a2064656c65676174652063616c6c20746f206e6f6e2d636f6044820152651b9d1c9858dd60d21b6064820152608401620002a1565b600080856001600160a01b0316856040516200041e919062000640565b600060405180830381855af49150503d80600081146200045b576040519150601f19603f3d011682016040523d82523d6000602084013e62000460565b606091505b5090925090506200047382828662000491565b925050505b9392505050565b90565b6001600160a01b03163b151590565b60608315620004a257508162000478565b825115620004b35782518084602001fd5b8160405162461bcd60e51b8152600401620002a191906200065e565b80516001600160a01b0381168114620004e757600080fd5b919050565b634e487b7160e01b600052604160045260246000fd5b60005b838110156200051f57818101518382015260200162000505565b50506000910152565b6000806000606084860312156200053e57600080fd5b6200054984620004cf565b92506200055960208501620004cf565b60408501519092506001600160401b03808211156200057757600080fd5b818601915086601f8301126200058c57600080fd5b815181811115620005a157620005a1620004ec565b604051601f8201601f19908116603f01168101908382118183101715620005cc57620005cc620004ec565b81604052828152896020848701011115620005e657600080fd5b620005f983602083016020880162000502565b80955050505050509250925092565b818103818111156200020057634e487b7160e01b600052601160045260246000fd5b634e487b7160e01b600052600160045260246000fd5b600082516200065481846020870162000502565b9190910192915050565b60208152600082518060208401526200067f81604085016020870162000502565b601f01601f19169190910160400192915050565b61081f80620006a36000396000f3fe60806040526004361061004e5760003560e01c80633659cfe6146100655780634f1ef286146100855780635c60da1b146100985780638f283970146100c9578063f851a440146100e95761005d565b3661005d5761005b6100fe565b005b61005b6100fe565b34801561007157600080fd5b5061005b6100803660046106b1565b610118565b61005b6100933660046106cc565b610155565b3480156100a457600080fd5b506100ad6101bc565b6040516001600160a01b03909116815260200160405180910390f35b3480156100d557600080fd5b5061005b6100e43660046106b1565b6101ed565b3480156100f557600080fd5b506100ad61020d565b610106610269565b6101166101116102fe565b610308565b565b61012061032c565b6001600160a01b0316330361014d5761014a8160405180602001604052806000815250600061035f565b50565b61014a6100fe565b61015d61032c565b6001600160a01b031633036101b4576101af8383838080601f0160208091040260200160405190810160405280939291908181526020018383808284376000920191909152506001925061035f915050565b505050565b6101af6100fe565b60006101c661032c565b6001600160a01b031633036101e2576101dd6102fe565b905090565b6101ea6100fe565b90565b6101f561032c565b6001600160a01b0316330361014d5761014a8161038a565b600061021761032c565b6001600160a01b031633036101e2576101dd61032c565b606061025383836040518060600160405280602781526020016107c3602791396103de565b9392505050565b6001600160a01b03163b151590565b61027161032c565b6001600160a01b031633036101165760405162461bcd60e51b815260206004820152604260248201527f5472616e73706172656e745570677261646561626c6550726f78793a2061646d60448201527f696e2063616e6e6f742066616c6c6261636b20746f2070726f78792074617267606482015261195d60f21b608482015260a4015b60405180910390fd5b60006101dd6104b9565b3660008037600080366000845af43d6000803e808015610327573d6000f35b3d6000fd5b60007fb53127684a568b3173ae13b9f8a6016e243e63b6e8ee1178d6a717850b5d61035b546001600160a01b0316919050565b610368836104e1565b6000825111806103755750805b156101af57610384838361022e565b50505050565b7f7e644d79422f17c01e4894b5f4f588d331ebfa28653d42ae832dc59e38c9798f6103b361032c565b604080516001600160a01b03928316815291841660208301520160405180910390a161014a81610521565b60606103e98461025a565b6104445760405162461bcd60e51b815260206004820152602660248201527f416464726573733a2064656c65676174652063616c6c20746f206e6f6e2d636f6044820152651b9d1c9858dd60d21b60648201526084016102f5565b600080856001600160a01b03168560405161045f9190610773565b600060405180830381855af49150503d806000811461049a576040519150601f19603f3d011682016040523d82523d6000602084013e61049f565b606091505b50915091506104af8282866105ca565b9695505050505050565b60007f360894a13ba1a3210667c828492db98dca3e2076cc3735a920a3ca505d382bbc610350565b6104ea81610603565b6040516001600160a01b038216907fbc7cd75a20ee27fd9adebab32041f755214dbc6bffa90cc0225b39da2e5c2d3b90600090a250565b6001600160a01b0381166105865760405162461bcd60e51b815260206004820152602660248201527f455243313936373a206e65772061646d696e20697320746865207a65726f206160448201526564647265737360d01b60648201526084016102f5565b807fb53127684a568b3173ae13b9f8a6016e243e63b6e8ee1178d6a717850b5d61035b80546001600160a01b0319166001600160a01b039290921691909117905550565b606083156105d9575081610253565b8251156105e95782518084602001fd5b8160405162461bcd60e51b81526004016102f5919061078f565b61060c8161025a565b61066e5760405162461bcd60e51b815260206004820152602d60248201527f455243313936373a206e657720696d706c656d656e746174696f6e206973206e60448201526c1bdd08184818dbdb9d1c9858dd609a1b60648201526084016102f5565b807f360894a13ba1a3210667c828492db98dca3e2076cc3735a920a3ca505d382bbc6105a9565b80356001600160a01b03811681146106ac57600080fd5b919050565b6000602082840312156106c357600080fd5b61025382610695565b6000806000604084860312156106e157600080fd5b6106ea84610695565b9250602084013567ffffffffffffffff8082111561070757600080fd5b818601915086601f83011261071b57600080fd5b81358181111561072a57600080fd5b87602082850101111561073c57600080fd5b6020830194508093505050509250925092565b60005b8381101561076a578181015183820152602001610752565b50506000910152565b6000825161078581846020870161074f565b9190910192915050565b60208152600082518060208401526107ae81604085016020870161074f565b601f01601f1916919091016040019291505056fe416464726573733a206c6f772d6c6576656c2064656c65676174652063616c6c206661696c6564a2646970667358221220bc79656da5dcf6854b9cca378a0453db2ed924a45d43ec97b50dc22b6ebe7bbb64736f6c63430008100033b53127684a568b3173ae13b9f8a6016e243e63b6e8ee1178d6a717850b5d6103360894a13ba1a3210667c828492db98dca3e2076cc3735a920a3ca505d382bbc416464726573733a206c6f772d6c6576656c2064656c65676174652063616c6c206661696c656465d7a28e3265b37a6474929f336521b332c1681b933f6cb9f3376673440d862aa26469706673582212205de2311f8be4a23832a248451af3c61941a5d213f27da8576b42d7f7637bd0aa64736f6c63430008100033",
  "devdoc": {
    "author": "Ondo Finance",
    "events": {
      "USDYAllowAllDeployed(address,address,address,string,string,address)": {
        "details": "Event emitted when upgradable USDY is deployed",
        "params": {
          "implementation": "The address for the implementation contract",
          "proxy": "The address for the proxy contract",
          "proxyAdmin": "The address for the proxy admin contract"
        }
      }
    },
    "kind": "dev",
    "methods": {
      "deployUSDY(string,string,address)": {
        "details": "This function will deploy an upgradable instance of USDY",
        "params": {
          "name": "The name of the token we want to deploy.",
          "ticker": "The ticker for the token we want to deploy."
        },
        "returns": {
          "_0": "address The address of the proxy contract.",
          "_1": "address The address of the proxyAdmin contract.",
          "_2": "address The address of the implementation contract."
        }
      },
      "multiexcall((address,bytes,uint256)[])": {
        "details": "All external calls made through this function will      msg.sender == contract address",
        "params": {
          "exCallData": "Struct consisting of       1) target - contract to call       2) data - data to call target with       3) value - eth value to call target with"
        }
      }
    },
    "title": "USDYFactory",
    "version": 1
  },
  "userdoc": {
    "kind": "user",
    "methods": {
      "deployUSDY(string,string,address)": {
        "notice": "1) Will automatically revoke all deployer roles granted to            address(this).         2) Will grant DEFAULT_ADMIN & PAUSER_ROLE(S) to `guardian`            address specified in constructor.         3) Will transfer ownership of the proxyAdmin to guardian            address."
      },
      "multiexcall((address,bytes,uint256)[])": {
        "notice": "Allows for arbitrary batched calls"
      }
    },
    "notice": "This contract serves as a Factory for the upgradable USDY token contract.         Upon calling `deployUSDY` the `guardian` address (set in constructor) will         deploy the following:         1) USDY - The implementation contract, ERC20 contract with the initializer disabled         2) ProxyAdmin - OZ ProxyAdmin contract, used to upgrade the proxy instance.Owner is set to `guardian` address.         3) TransparentUpgradeableProxy - OZ, proxy contract. Admin is set to `address(proxyAdmin)`.                                          `_logic' is set to `address(cash)`.         Following the above mentioned deployment, the address of the CashFactory contract will:         i) Grant the `DEFAULT_ADMIN_ROLE` & PAUSER_ROLE to the `guardian` address         ii) Revoke the `MINTER_ROLE`, `PAUSER_ROLE` & `DEFAULT_ADMIN_ROLE` from address(this).         iii) Transfer ownership of the ProxyAdmin to that of the `guardian` address.`guardian` address in constructor is a msig.",
    "version": 1
  },
  "storageLayout": {
    "storage": [
      {
        "astId": 26988,
        "contract": "contracts/usdy/usdyw/USDYWFactory.sol:USDYW_Factory",
        "label": "usdyImplementation",
        "offset": 0,
        "slot": "0",
        "type": "t_contract(USDYW)26951"
      },
      {
        "astId": 26991,
        "contract": "contracts/usdy/usdyw/USDYWFactory.sol:USDYW_Factory",
        "label": "usdyProxyAdmin",
        "offset": 0,
        "slot": "1",
        "type": "t_contract(ProxyAdmin)11351"
      },
      {
        "astId": 26994,
        "contract": "contracts/usdy/usdyw/USDYWFactory.sol:USDYW_Factory",
        "label": "usdyProxy",
        "offset": 0,
        "slot": "2",
        "type": "t_contract(TokenProxy)709"
      }
    ],
    "types": {
      "t_contract(ProxyAdmin)11351": {
        "encoding": "inplace",
        "label": "contract ProxyAdmin",
        "numberOfBytes": "20"
      },
      "t_contract(TokenProxy)709": {
        "encoding": "inplace",
        "label": "contract TokenProxy",
        "numberOfBytes": "20"
      },
      "t_contract(USDYW)26951": {
        "encoding": "inplace",
        "label": "contract USDYW",
        "numberOfBytes": "20"
      }
    }
  }
}