{
  "address": "0xf29fAB65f4E6123e85D11D542Cc4933EaA543615",
  "abi": [
    {
      "inputs": [
        {
          "internalType": "address",
          "name": "_collateral",
          "type": "address"
        },
        {
          "internalType": "address",
          "name": "_rwa",
          "type": "address"
        },
        {
          "internalType": "address",
          "name": "managerAdmin",
          "type": "address"
        },
        {
          "internalType": "address",
          "name": "pauser",
          "type": "address"
        },
        {
          "internalType": "address",
          "name": "_assetSender",
          "type": "address"
        },
        {
          "internalType": "address",
          "name": "_feeRecipient",
          "type": "address"
        },
        {
          "internalType": "uint256",
          "name": "_minimumDepositAmount",
          "type": "uint256"
        },
        {
          "internalType": "uint256",
          "name": "_minimumRedemptionAmount",
          "type": "uint256"
        },
        {
          "internalType": "address",
          "name": "_kycRegistry",
          "type": "address"
        },
        {
          "internalType": "uint256",
          "name": "_kycRequirementGroup",
          "type": "uint256"
        }
      ],
      "stateMutability": "nonpayable",
      "type": "constructor"
    },
    {
      "inputs": [],
      "name": "AmountTooSmall",
      "type": "error"
    },
    {
      "inputs": [],
      "name": "ArraySizeMismatch",
      "type": "error"
    },
    {
      "inputs": [],
      "name": "AssetSenderCannotBeZero",
      "type": "error"
    },
    {
      "inputs": [],
      "name": "CollateralCannotBeZero",
      "type": "error"
    },
    {
      "inputs": [],
      "name": "DepositProofAlreadyExists",
      "type": "error"
    },
    {
      "inputs": [],
      "name": "DepositTooSmall",
      "type": "error"
    },
    {
      "inputs": [],
      "name": "DepositorNull",
      "type": "error"
    },
    {
      "inputs": [],
      "name": "FeaturePaused",
      "type": "error"
    },
    {
      "inputs": [],
      "name": "FeeRecipientCannotBeZero",
      "type": "error"
    },
    {
      "inputs": [],
      "name": "FeeTooLarge",
      "type": "error"
    },
    {
      "inputs": [],
      "name": "InvalidPriceId",
      "type": "error"
    },
    {
      "inputs": [],
      "name": "KYCCheckFailed",
      "type": "error"
    },
    {
      "inputs": [],
      "name": "PriceIdAlreadySet",
      "type": "error"
    },
    {
      "inputs": [],
      "name": "PriceIdNotSet",
      "type": "error"
    },
    {
      "inputs": [],
      "name": "RWACannotBeZero",
      "type": "error"
    },
    {
      "inputs": [],
      "name": "RedeemerNull",
      "type": "error"
    },
    {
      "inputs": [],
      "name": "RedemptionProofAlreadyExists",
      "type": "error"
    },
    {
      "inputs": [],
      "name": "RedemptionTooSmall",
      "type": "error"
    },
    {
      "inputs": [],
      "name": "RegistryZeroAddress",
      "type": "error"
    },
    {
      "inputs": [],
      "name": "TxnAlreadyValidated",
      "type": "error"
    },
    {
      "anonymous": false,
      "inputs": [
        {
          "indexed": false,
          "internalType": "address",
          "name": "oldAssetSender",
          "type": "address"
        },
        {
          "indexed": false,
          "internalType": "address",
          "name": "newAssetSender",
          "type": "address"
        }
      ],
      "name": "AssetSenderSet",
      "type": "event"
    },
    {
      "anonymous": false,
      "inputs": [
        {
          "indexed": true,
          "internalType": "bytes32",
          "name": "txHash",
          "type": "bytes32"
        },
        {
          "indexed": true,
          "internalType": "address",
          "name": "user",
          "type": "address"
        },
        {
          "indexed": false,
          "internalType": "uint256",
          "name": "depositAmountAfterFee",
          "type": "uint256"
        },
        {
          "indexed": false,
          "internalType": "uint256",
          "name": "feeAmount",
          "type": "uint256"
        },
        {
          "indexed": false,
          "internalType": "uint256",
          "name": "timestamp",
          "type": "uint256"
        }
      ],
      "name": "DepositProofAdded",
      "type": "event"
    },
    {
      "anonymous": false,
      "inputs": [
        {
          "indexed": true,
          "internalType": "bytes32",
          "name": "depositId",
          "type": "bytes32"
        },
        {
          "indexed": false,
          "internalType": "address",
          "name": "oldDepositor",
          "type": "address"
        },
        {
          "indexed": false,
          "internalType": "address",
          "name": "newDepositor",
          "type": "address"
        },
        {
          "indexed": false,
          "internalType": "uint256",
          "name": "oldPriceId",
          "type": "uint256"
        },
        {
          "indexed": false,
          "internalType": "uint256",
          "name": "newPriceId",
          "type": "uint256"
        },
        {
          "indexed": false,
          "internalType": "uint256",
          "name": "oldDepositAmount",
          "type": "uint256"
        },
        {
          "indexed": false,
          "internalType": "uint256",
          "name": "newDepositAmount",
          "type": "uint256"
        }
      ],
      "name": "DepositorOverwritten",
      "type": "event"
    },
    {
      "anonymous": false,
      "inputs": [
        {
          "indexed": false,
          "internalType": "address",
          "name": "oldFeeRecipient",
          "type": "address"
        },
        {
          "indexed": false,
          "internalType": "address",
          "name": "newFeeRecipient",
          "type": "address"
        }
      ],
      "name": "FeeRecipientSet",
      "type": "event"
    },
    {
      "anonymous": false,
      "inputs": [
        {
          "indexed": false,
          "internalType": "address",
          "name": "oldRegistry",
          "type": "address"
        },
        {
          "indexed": false,
          "internalType": "address",
          "name": "newRegistry",
          "type": "address"
        }
      ],
      "name": "KYCRegistrySet",
      "type": "event"
    },
    {
      "anonymous": false,
      "inputs": [
        {
          "indexed": false,
          "internalType": "uint256",
          "name": "oldRequirementGroup",
          "type": "uint256"
        },
        {
          "indexed": false,
          "internalType": "uint256",
          "name": "newRequirementGroup",
          "type": "uint256"
        }
      ],
      "name": "KYCRequirementGroupSet",
      "type": "event"
    },
    {
      "anonymous": false,
      "inputs": [
        {
          "indexed": false,
          "internalType": "uint256",
          "name": "oldMinimum",
          "type": "uint256"
        },
        {
          "indexed": false,
          "internalType": "uint256",
          "name": "newMinimum",
          "type": "uint256"
        }
      ],
      "name": "MinimumDepositAmountSet",
      "type": "event"
    },
    {
      "anonymous": false,
      "inputs": [
        {
          "indexed": false,
          "internalType": "uint256",
          "name": "oldRedemptionMin",
          "type": "uint256"
        },
        {
          "indexed": false,
          "internalType": "uint256",
          "name": "newRedemptionMin",
          "type": "uint256"
        }
      ],
      "name": "MinimumRedemptionAmountSet",
      "type": "event"
    },
    {
      "anonymous": false,
      "inputs": [
        {
          "indexed": true,
          "internalType": "address",
          "name": "user",
          "type": "address"
        },
        {
          "indexed": true,
          "internalType": "bytes32",
          "name": "depositId",
          "type": "bytes32"
        },
        {
          "indexed": false,
          "internalType": "uint256",
          "name": "rwaAmountOut",
          "type": "uint256"
        },
        {
          "indexed": false,
          "internalType": "uint256",
          "name": "collateralAmountDeposited",
          "type": "uint256"
        },
        {
          "indexed": false,
          "internalType": "uint256",
          "name": "price",
          "type": "uint256"
        },
        {
          "indexed": false,
          "internalType": "uint256",
          "name": "priceId",
          "type": "uint256"
        }
      ],
      "name": "MintCompleted",
      "type": "event"
    },
    {
      "anonymous": false,
      "inputs": [
        {
          "indexed": false,
          "internalType": "uint256",
          "name": "oldFee",
          "type": "uint256"
        },
        {
          "indexed": false,
          "internalType": "uint256",
          "name": "newFee",
          "type": "uint256"
        }
      ],
      "name": "MintFeeSet",
      "type": "event"
    },
    {
      "anonymous": false,
      "inputs": [
        {
          "indexed": true,
          "internalType": "address",
          "name": "user",
          "type": "address"
        },
        {
          "indexed": true,
          "internalType": "bytes32",
          "name": "depositId",
          "type": "bytes32"
        },
        {
          "indexed": false,
          "internalType": "uint256",
          "name": "collateralAmountDeposited",
          "type": "uint256"
        },
        {
          "indexed": false,
          "internalType": "uint256",
          "name": "depositAmountAfterFee",
          "type": "uint256"
        },
        {
          "indexed": false,
          "internalType": "uint256",
          "name": "feeAmount",
          "type": "uint256"
        }
      ],
      "name": "MintRequested",
      "type": "event"
    },
    {
      "anonymous": false,
      "inputs": [
        {
          "indexed": false,
          "internalType": "address",
          "name": "oldPricer",
          "type": "address"
        },
        {
          "indexed": false,
          "internalType": "address",
          "name": "newPricer",
          "type": "address"
        }
      ],
      "name": "NewPricerSet",
      "type": "event"
    },
    {
      "anonymous": false,
      "inputs": [
        {
          "indexed": false,
          "internalType": "uint256",
          "name": "oldMinimum",
          "type": "uint256"
        },
        {
          "indexed": false,
          "internalType": "uint256",
          "name": "newMinimum",
          "type": "uint256"
        }
      ],
      "name": "OffChainRedemptionMinimumSet",
      "type": "event"
    },
    {
      "anonymous": false,
      "inputs": [
        {
          "indexed": false,
          "internalType": "address",
          "name": "caller",
          "type": "address"
        }
      ],
      "name": "OffChainRedemptionPaused",
      "type": "event"
    },
    {
      "anonymous": false,
      "inputs": [
        {
          "indexed": false,
          "internalType": "address",
          "name": "caller",
          "type": "address"
        }
      ],
      "name": "OffChainRedemptionUnpaused",
      "type": "event"
    },
    {
      "anonymous": false,
      "inputs": [
        {
          "indexed": true,
          "internalType": "bytes32",
          "name": "depositIdSet",
          "type": "bytes32"
        },
        {
          "indexed": true,
          "internalType": "uint256",
          "name": "priceIdSet",
          "type": "uint256"
        }
      ],
      "name": "PriceIdSetForDeposit",
      "type": "event"
    },
    {
      "anonymous": false,
      "inputs": [
        {
          "indexed": true,
          "internalType": "bytes32",
          "name": "redemptionIdSet",
          "type": "bytes32"
        },
        {
          "indexed": true,
          "internalType": "uint256",
          "name": "priceIdSet",
          "type": "uint256"
        }
      ],
      "name": "PriceIdSetForRedemption",
      "type": "event"
    },
    {
      "anonymous": false,
      "inputs": [
        {
          "indexed": true,
          "internalType": "bytes32",
          "name": "redemptionId",
          "type": "bytes32"
        },
        {
          "indexed": false,
          "internalType": "address",
          "name": "oldRedeemer",
          "type": "address"
        },
        {
          "indexed": false,
          "internalType": "address",
          "name": "newRedeemer",
          "type": "address"
        },
        {
          "indexed": false,
          "internalType": "uint256",
          "name": "oldPriceId",
          "type": "uint256"
        },
        {
          "indexed": false,
          "internalType": "uint256",
          "name": "newPriceId",
          "type": "uint256"
        },
        {
          "indexed": false,
          "internalType": "uint256",
          "name": "oldRWATokenAmountBurned",
          "type": "uint256"
        },
        {
          "indexed": false,
          "internalType": "uint256",
          "name": "newRWATokenAmountBurned",
          "type": "uint256"
        }
      ],
      "name": "RedeemerOverwritten",
      "type": "event"
    },
    {
      "anonymous": false,
      "inputs": [
        {
          "indexed": true,
          "internalType": "address",
          "name": "user",
          "type": "address"
        },
        {
          "indexed": true,
          "internalType": "bytes32",
          "name": "redemptionId",
          "type": "bytes32"
        },
        {
          "indexed": false,
          "internalType": "uint256",
          "name": "rwaAmountRequested",
          "type": "uint256"
        },
        {
          "indexed": false,
          "internalType": "uint256",
          "name": "collateralAmountReturned",
          "type": "uint256"
        },
        {
          "indexed": false,
          "internalType": "uint256",
          "name": "feeAmount",
          "type": "uint256"
        },
        {
          "indexed": false,
          "internalType": "uint256",
          "name": "price",
          "type": "uint256"
        },
        {
          "indexed": false,
          "internalType": "uint256",
          "name": "priceId",
          "type": "uint256"
        }
      ],
      "name": "RedemptionCompleted",
      "type": "event"
    },
    {
      "anonymous": false,
      "inputs": [
        {
          "indexed": false,
          "internalType": "uint256",
          "name": "oldFee",
          "type": "uint256"
        },
        {
          "indexed": false,
          "internalType": "uint256",
          "name": "newFee",
          "type": "uint256"
        }
      ],
      "name": "RedemptionFeeSet",
      "type": "event"
    },
    {
      "anonymous": false,
      "inputs": [
        {
          "indexed": false,
          "internalType": "address",
          "name": "caller",
          "type": "address"
        }
      ],
      "name": "RedemptionPaused",
      "type": "event"
    },
    {
      "anonymous": false,
      "inputs": [
        {
          "indexed": true,
          "internalType": "bytes32",
          "name": "txHash",
          "type": "bytes32"
        },
        {
          "indexed": true,
          "internalType": "address",
          "name": "user",
          "type": "address"
        },
        {
          "indexed": false,
          "internalType": "uint256",
          "name": "rwaAmountBurned",
          "type": "uint256"
        },
        {
          "indexed": false,
          "internalType": "uint256",
          "name": "timestamp",
          "type": "uint256"
        }
      ],
      "name": "RedemptionProofAdded",
      "type": "event"
    },
    {
      "anonymous": false,
      "inputs": [
        {
          "indexed": true,
          "internalType": "address",
          "name": "user",
          "type": "address"
        },
        {
          "indexed": true,
          "internalType": "bytes32",
          "name": "redemptionId",
          "type": "bytes32"
        },
        {
          "indexed": false,
          "internalType": "uint256",
          "name": "rwaAmountIn",
          "type": "uint256"
        }
      ],
      "name": "RedemptionRequested",
      "type": "event"
    },
    {
      "anonymous": false,
      "inputs": [
        {
          "indexed": true,
          "internalType": "address",
          "name": "user",
          "type": "address"
        },
        {
          "indexed": true,
          "internalType": "bytes32",
          "name": "redemptionId",
          "type": "bytes32"
        },
        {
          "indexed": false,
          "internalType": "uint256",
          "name": "rwaTokenAmountIn",
          "type": "uint256"
        },
        {
          "indexed": false,
          "internalType": "bytes32",
          "name": "offChainDestination",
          "type": "bytes32"
        }
      ],
      "name": "RedemptionRequestedServicedOffChain",
      "type": "event"
    },
    {
      "anonymous": false,
      "inputs": [
        {
          "indexed": false,
          "internalType": "address",
          "name": "caller",
          "type": "address"
        }
      ],
      "name": "RedemptionUnpaused",
      "type": "event"
    },
    {
      "anonymous": false,
      "inputs": [
        {
          "indexed": true,
          "internalType": "bytes32",
          "name": "role",
          "type": "bytes32"
        },
        {
          "indexed": true,
          "internalType": "bytes32",
          "name": "previousAdminRole",
          "type": "bytes32"
        },
        {
          "indexed": true,
          "internalType": "bytes32",
          "name": "newAdminRole",
          "type": "bytes32"
        }
      ],
      "name": "RoleAdminChanged",
      "type": "event"
    },
    {
      "anonymous": false,
      "inputs": [
        {
          "indexed": true,
          "internalType": "bytes32",
          "name": "role",
          "type": "bytes32"
        },
        {
          "indexed": true,
          "internalType": "address",
          "name": "account",
          "type": "address"
        },
        {
          "indexed": true,
          "internalType": "address",
          "name": "sender",
          "type": "address"
        }
      ],
      "name": "RoleGranted",
      "type": "event"
    },
    {
      "anonymous": false,
      "inputs": [
        {
          "indexed": true,
          "internalType": "bytes32",
          "name": "role",
          "type": "bytes32"
        },
        {
          "indexed": true,
          "internalType": "address",
          "name": "account",
          "type": "address"
        },
        {
          "indexed": true,
          "internalType": "address",
          "name": "sender",
          "type": "address"
        }
      ],
      "name": "RoleRevoked",
      "type": "event"
    },
    {
      "anonymous": false,
      "inputs": [
        {
          "indexed": false,
          "internalType": "address",
          "name": "caller",
          "type": "address"
        }
      ],
      "name": "SubscriptionPaused",
      "type": "event"
    },
    {
      "anonymous": false,
      "inputs": [
        {
          "indexed": false,
          "internalType": "address",
          "name": "caller",
          "type": "address"
        }
      ],
      "name": "SubscriptionUnpaused",
      "type": "event"
    },
    {
      "inputs": [],
      "name": "BPS_DENOMINATOR",
      "outputs": [
        {
          "internalType": "uint256",
          "name": "",
          "type": "uint256"
        }
      ],
      "stateMutability": "view",
      "type": "function"
    },
    {
      "inputs": [],
      "name": "DEFAULT_ADMIN_ROLE",
      "outputs": [
        {
          "internalType": "bytes32",
          "name": "",
          "type": "bytes32"
        }
      ],
      "stateMutability": "view",
      "type": "function"
    },
    {
      "inputs": [],
      "name": "MANAGER_ADMIN",
      "outputs": [
        {
          "internalType": "bytes32",
          "name": "",
          "type": "bytes32"
        }
      ],
      "stateMutability": "view",
      "type": "function"
    },
    {
      "inputs": [],
      "name": "PAUSER_ADMIN",
      "outputs": [
        {
          "internalType": "bytes32",
          "name": "",
          "type": "bytes32"
        }
      ],
      "stateMutability": "view",
      "type": "function"
    },
    {
      "inputs": [],
      "name": "PRICE_ID_SETTER_ROLE",
      "outputs": [
        {
          "internalType": "bytes32",
          "name": "",
          "type": "bytes32"
        }
      ],
      "stateMutability": "view",
      "type": "function"
    },
    {
      "inputs": [],
      "name": "REDEMPTION_PROVER_ROLE",
      "outputs": [
        {
          "internalType": "bytes32",
          "name": "",
          "type": "bytes32"
        }
      ],
      "stateMutability": "view",
      "type": "function"
    },
    {
      "inputs": [],
      "name": "RELAYER_ROLE",
      "outputs": [
        {
          "internalType": "bytes32",
          "name": "",
          "type": "bytes32"
        }
      ],
      "stateMutability": "view",
      "type": "function"
    },
    {
      "inputs": [
        {
          "internalType": "bytes32",
          "name": "txHash",
          "type": "bytes32"
        },
        {
          "internalType": "address",
          "name": "user",
          "type": "address"
        },
        {
          "internalType": "uint256",
          "name": "depositAmountAfterFee",
          "type": "uint256"
        },
        {
          "internalType": "uint256",
          "name": "feeAmount",
          "type": "uint256"
        },
        {
          "internalType": "uint256",
          "name": "timestamp",
          "type": "uint256"
        }
      ],
      "name": "addProof",
      "outputs": [],
      "stateMutability": "nonpayable",
      "type": "function"
    },
    {
      "inputs": [
        {
          "internalType": "bytes32",
          "name": "txHash",
          "type": "bytes32"
        },
        {
          "internalType": "address",
          "name": "user",
          "type": "address"
        },
        {
          "internalType": "uint256",
          "name": "rwaAmountToBurn",
          "type": "uint256"
        },
        {
          "internalType": "uint256",
          "name": "timestamp",
          "type": "uint256"
        }
      ],
      "name": "addRedemptionProof",
      "outputs": [],
      "stateMutability": "nonpayable",
      "type": "function"
    },
    {
      "inputs": [],
      "name": "assetRecipient",
      "outputs": [
        {
          "internalType": "address",
          "name": "",
          "type": "address"
        }
      ],
      "stateMutability": "view",
      "type": "function"
    },
    {
      "inputs": [],
      "name": "assetSender",
      "outputs": [
        {
          "internalType": "address",
          "name": "",
          "type": "address"
        }
      ],
      "stateMutability": "view",
      "type": "function"
    },
    {
      "inputs": [
        {
          "internalType": "bytes32[]",
          "name": "depositIds",
          "type": "bytes32[]"
        }
      ],
      "name": "claimMint",
      "outputs": [],
      "stateMutability": "nonpayable",
      "type": "function"
    },
    {
      "inputs": [
        {
          "internalType": "bytes32[]",
          "name": "redemptionIds",
          "type": "bytes32[]"
        }
      ],
      "name": "claimRedemption",
      "outputs": [],
      "stateMutability": "nonpayable",
      "type": "function"
    },
    {
      "inputs": [],
      "name": "collateral",
      "outputs": [
        {
          "internalType": "contract IERC20",
          "name": "",
          "type": "address"
        }
      ],
      "stateMutability": "view",
      "type": "function"
    },
    {
      "inputs": [],
      "name": "decimalsMultiplier",
      "outputs": [
        {
          "internalType": "uint256",
          "name": "",
          "type": "uint256"
        }
      ],
      "stateMutability": "view",
      "type": "function"
    },
    {
      "inputs": [
        {
          "internalType": "bytes32",
          "name": "",
          "type": "bytes32"
        }
      ],
      "name": "depositIdToDepositor",
      "outputs": [
        {
          "internalType": "address",
          "name": "user",
          "type": "address"
        },
        {
          "internalType": "uint256",
          "name": "amountDepositedMinusFees",
          "type": "uint256"
        },
        {
          "internalType": "uint256",
          "name": "priceId",
          "type": "uint256"
        }
      ],
      "stateMutability": "view",
      "type": "function"
    },
    {
      "inputs": [],
      "name": "feeRecipient",
      "outputs": [
        {
          "internalType": "address",
          "name": "",
          "type": "address"
        }
      ],
      "stateMutability": "view",
      "type": "function"
    },
    {
      "inputs": [
        {
          "internalType": "bytes32",
          "name": "role",
          "type": "bytes32"
        }
      ],
      "name": "getRoleAdmin",
      "outputs": [
        {
          "internalType": "bytes32",
          "name": "",
          "type": "bytes32"
        }
      ],
      "stateMutability": "view",
      "type": "function"
    },
    {
      "inputs": [
        {
          "internalType": "bytes32",
          "name": "role",
          "type": "bytes32"
        },
        {
          "internalType": "uint256",
          "name": "index",
          "type": "uint256"
        }
      ],
      "name": "getRoleMember",
      "outputs": [
        {
          "internalType": "address",
          "name": "",
          "type": "address"
        }
      ],
      "stateMutability": "view",
      "type": "function"
    },
    {
      "inputs": [
        {
          "internalType": "bytes32",
          "name": "role",
          "type": "bytes32"
        }
      ],
      "name": "getRoleMemberCount",
      "outputs": [
        {
          "internalType": "uint256",
          "name": "",
          "type": "uint256"
        }
      ],
      "stateMutability": "view",
      "type": "function"
    },
    {
      "inputs": [
        {
          "internalType": "bytes32",
          "name": "role",
          "type": "bytes32"
        },
        {
          "internalType": "address",
          "name": "account",
          "type": "address"
        }
      ],
      "name": "grantRole",
      "outputs": [],
      "stateMutability": "nonpayable",
      "type": "function"
    },
    {
      "inputs": [
        {
          "internalType": "bytes32",
          "name": "role",
          "type": "bytes32"
        },
        {
          "internalType": "address",
          "name": "account",
          "type": "address"
        }
      ],
      "name": "hasRole",
      "outputs": [
        {
          "internalType": "bool",
          "name": "",
          "type": "bool"
        }
      ],
      "stateMutability": "view",
      "type": "function"
    },
    {
      "inputs": [],
      "name": "kycRegistry",
      "outputs": [
        {
          "internalType": "contract IKYCRegistry",
          "name": "",
          "type": "address"
        }
      ],
      "stateMutability": "view",
      "type": "function"
    },
    {
      "inputs": [],
      "name": "kycRequirementGroup",
      "outputs": [
        {
          "internalType": "uint256",
          "name": "",
          "type": "uint256"
        }
      ],
      "stateMutability": "view",
      "type": "function"
    },
    {
      "inputs": [],
      "name": "minimumDepositAmount",
      "outputs": [
        {
          "internalType": "uint256",
          "name": "",
          "type": "uint256"
        }
      ],
      "stateMutability": "view",
      "type": "function"
    },
    {
      "inputs": [],
      "name": "minimumOffChainRedemptionAmount",
      "outputs": [
        {
          "internalType": "uint256",
          "name": "",
          "type": "uint256"
        }
      ],
      "stateMutability": "view",
      "type": "function"
    },
    {
      "inputs": [],
      "name": "minimumRedemptionAmount",
      "outputs": [
        {
          "internalType": "uint256",
          "name": "",
          "type": "uint256"
        }
      ],
      "stateMutability": "view",
      "type": "function"
    },
    {
      "inputs": [],
      "name": "mintFee",
      "outputs": [
        {
          "internalType": "uint256",
          "name": "",
          "type": "uint256"
        }
      ],
      "stateMutability": "view",
      "type": "function"
    },
    {
      "inputs": [],
      "name": "offChainRedemptionPaused",
      "outputs": [
        {
          "internalType": "bool",
          "name": "",
          "type": "bool"
        }
      ],
      "stateMutability": "view",
      "type": "function"
    },
    {
      "inputs": [
        {
          "internalType": "bytes32",
          "name": "depositIdToOverwrite",
          "type": "bytes32"
        },
        {
          "internalType": "address",
          "name": "user",
          "type": "address"
        },
        {
          "internalType": "uint256",
          "name": "depositAmountAfterFee",
          "type": "uint256"
        },
        {
          "internalType": "uint256",
          "name": "priceId",
          "type": "uint256"
        }
      ],
      "name": "overwriteDepositor",
      "outputs": [],
      "stateMutability": "nonpayable",
      "type": "function"
    },
    {
      "inputs": [
        {
          "internalType": "bytes32",
          "name": "redemptionIdToOverwrite",
          "type": "bytes32"
        },
        {
          "internalType": "address",
          "name": "user",
          "type": "address"
        },
        {
          "internalType": "uint256",
          "name": "rwaTokenAmountBurned",
          "type": "uint256"
        },
        {
          "internalType": "uint256",
          "name": "priceId",
          "type": "uint256"
        }
      ],
      "name": "overwriteRedeemer",
      "outputs": [],
      "stateMutability": "nonpayable",
      "type": "function"
    },
    {
      "inputs": [],
      "name": "pauseOffChainRedemption",
      "outputs": [],
      "stateMutability": "nonpayable",
      "type": "function"
    },
    {
      "inputs": [],
      "name": "pauseRedemption",
      "outputs": [],
      "stateMutability": "nonpayable",
      "type": "function"
    },
    {
      "inputs": [],
      "name": "pauseSubscription",
      "outputs": [],
      "stateMutability": "nonpayable",
      "type": "function"
    },
    {
      "inputs": [],
      "name": "pricer",
      "outputs": [
        {
          "internalType": "contract IPricerReader",
          "name": "",
          "type": "address"
        }
      ],
      "stateMutability": "view",
      "type": "function"
    },
    {
      "inputs": [],
      "name": "redemptionFee",
      "outputs": [
        {
          "internalType": "uint256",
          "name": "",
          "type": "uint256"
        }
      ],
      "stateMutability": "view",
      "type": "function"
    },
    {
      "inputs": [
        {
          "internalType": "bytes32",
          "name": "",
          "type": "bytes32"
        }
      ],
      "name": "redemptionIdToRedeemer",
      "outputs": [
        {
          "internalType": "address",
          "name": "user",
          "type": "address"
        },
        {
          "internalType": "uint256",
          "name": "amountRwaTokenBurned",
          "type": "uint256"
        },
        {
          "internalType": "uint256",
          "name": "priceId",
          "type": "uint256"
        }
      ],
      "stateMutability": "view",
      "type": "function"
    },
    {
      "inputs": [],
      "name": "redemptionPaused",
      "outputs": [
        {
          "internalType": "bool",
          "name": "",
          "type": "bool"
        }
      ],
      "stateMutability": "view",
      "type": "function"
    },
    {
      "inputs": [],
      "name": "redemptionRequestCounter",
      "outputs": [
        {
          "internalType": "uint256",
          "name": "",
          "type": "uint256"
        }
      ],
      "stateMutability": "view",
      "type": "function"
    },
    {
      "inputs": [
        {
          "internalType": "bytes32",
          "name": "role",
          "type": "bytes32"
        },
        {
          "internalType": "address",
          "name": "account",
          "type": "address"
        }
      ],
      "name": "renounceRole",
      "outputs": [],
      "stateMutability": "nonpayable",
      "type": "function"
    },
    {
      "inputs": [
        {
          "internalType": "uint256",
          "name": "amount",
          "type": "uint256"
        }
      ],
      "name": "requestRedemption",
      "outputs": [],
      "stateMutability": "nonpayable",
      "type": "function"
    },
    {
      "inputs": [
        {
          "internalType": "uint256",
          "name": "amountRWATokenToRedeem",
          "type": "uint256"
        },
        {
          "internalType": "bytes32",
          "name": "offChainDestination",
          "type": "bytes32"
        }
      ],
      "name": "requestRedemptionServicedOffchain",
      "outputs": [],
      "stateMutability": "nonpayable",
      "type": "function"
    },
    {
      "inputs": [
        {
          "internalType": "uint256",
          "name": "amount",
          "type": "uint256"
        }
      ],
      "name": "requestSubscription",
      "outputs": [],
      "stateMutability": "nonpayable",
      "type": "function"
    },
    {
      "inputs": [
        {
          "internalType": "bytes32",
          "name": "role",
          "type": "bytes32"
        },
        {
          "internalType": "address",
          "name": "account",
          "type": "address"
        }
      ],
      "name": "revokeRole",
      "outputs": [],
      "stateMutability": "nonpayable",
      "type": "function"
    },
    {
      "inputs": [],
      "name": "rwa",
      "outputs": [
        {
          "internalType": "contract IRWALike",
          "name": "",
          "type": "address"
        }
      ],
      "stateMutability": "view",
      "type": "function"
    },
    {
      "inputs": [
        {
          "internalType": "address",
          "name": "newAssetSender",
          "type": "address"
        }
      ],
      "name": "setAssetSender",
      "outputs": [],
      "stateMutability": "nonpayable",
      "type": "function"
    },
    {
      "inputs": [
        {
          "internalType": "address",
          "name": "newFeeRecipient",
          "type": "address"
        }
      ],
      "name": "setFeeRecipient",
      "outputs": [],
      "stateMutability": "nonpayable",
      "type": "function"
    },
    {
      "inputs": [
        {
          "internalType": "address",
          "name": "_kycRegistry",
          "type": "address"
        }
      ],
      "name": "setKYCRegistry",
      "outputs": [],
      "stateMutability": "nonpayable",
      "type": "function"
    },
    {
      "inputs": [
        {
          "internalType": "uint256",
          "name": "_kycRequirementGroup",
          "type": "uint256"
        }
      ],
      "name": "setKYCRequirementGroup",
      "outputs": [],
      "stateMutability": "nonpayable",
      "type": "function"
    },
    {
      "inputs": [
        {
          "internalType": "uint256",
          "name": "minDepositAmount",
          "type": "uint256"
        }
      ],
      "name": "setMinimumDepositAmount",
      "outputs": [],
      "stateMutability": "nonpayable",
      "type": "function"
    },
    {
      "inputs": [
        {
          "internalType": "uint256",
          "name": "_minimumRedemptionAmount",
          "type": "uint256"
        }
      ],
      "name": "setMinimumRedemptionAmount",
      "outputs": [],
      "stateMutability": "nonpayable",
      "type": "function"
    },
    {
      "inputs": [
        {
          "internalType": "uint256",
          "name": "_mintFee",
          "type": "uint256"
        }
      ],
      "name": "setMintFee",
      "outputs": [],
      "stateMutability": "nonpayable",
      "type": "function"
    },
    {
      "inputs": [
        {
          "internalType": "uint256",
          "name": "_minimumOffChainRedemptionAmount",
          "type": "uint256"
        }
      ],
      "name": "setOffChainRedemptionMinimum",
      "outputs": [],
      "stateMutability": "nonpayable",
      "type": "function"
    },
    {
      "inputs": [
        {
          "internalType": "bytes32[]",
          "name": "depositIds",
          "type": "bytes32[]"
        },
        {
          "internalType": "uint256[]",
          "name": "priceIds",
          "type": "uint256[]"
        }
      ],
      "name": "setPriceIdForDeposits",
      "outputs": [],
      "stateMutability": "nonpayable",
      "type": "function"
    },
    {
      "inputs": [
        {
          "internalType": "bytes32[]",
          "name": "redemptionIds",
          "type": "bytes32[]"
        },
        {
          "internalType": "uint256[]",
          "name": "priceIds",
          "type": "uint256[]"
        }
      ],
      "name": "setPriceIdForRedemptions",
      "outputs": [],
      "stateMutability": "nonpayable",
      "type": "function"
    },
    {
      "inputs": [
        {
          "internalType": "address",
          "name": "newPricer",
          "type": "address"
        }
      ],
      "name": "setPricer",
      "outputs": [],
      "stateMutability": "nonpayable",
      "type": "function"
    },
    {
      "inputs": [
        {
          "internalType": "uint256",
          "name": "_redemptionFee",
          "type": "uint256"
        }
      ],
      "name": "setRedemptionFee",
      "outputs": [],
      "stateMutability": "nonpayable",
      "type": "function"
    },
    {
      "inputs": [],
      "name": "subscriptionPaused",
      "outputs": [
        {
          "internalType": "bool",
          "name": "",
          "type": "bool"
        }
      ],
      "stateMutability": "view",
      "type": "function"
    },
    {
      "inputs": [],
      "name": "subscriptionRequestCounter",
      "outputs": [
        {
          "internalType": "uint256",
          "name": "",
          "type": "uint256"
        }
      ],
      "stateMutability": "view",
      "type": "function"
    },
    {
      "inputs": [
        {
          "internalType": "bytes4",
          "name": "interfaceId",
          "type": "bytes4"
        }
      ],
      "name": "supportsInterface",
      "outputs": [
        {
          "internalType": "bool",
          "name": "",
          "type": "bool"
        }
      ],
      "stateMutability": "view",
      "type": "function"
    },
    {
      "inputs": [],
      "name": "unpauseOffChainRedemption",
      "outputs": [],
      "stateMutability": "nonpayable",
      "type": "function"
    },
    {
      "inputs": [],
      "name": "unpauseRedemption",
      "outputs": [],
      "stateMutability": "nonpayable",
      "type": "function"
    },
    {
      "inputs": [],
      "name": "unpauseSubscription",
      "outputs": [],
      "stateMutability": "nonpayable",
      "type": "function"
    }
  ],
  "transactionHash": "0x9771b7be0091c5941cfbf6e92381e247f2d10d6c68f37af30c2275a0b2ea225b",
  "args": [
    "0x2791Bca1f2de4661ED88A30C99A7a9449Aa84174",
    "0xe25D3fd9dcd38450D8A155441801801046b662a1",
    "0x3d7a5eDFCDCA0f9FDD066Fb94D306f2b4Cc7DB17",
    "0x3d7a5eDFCDCA0f9FDD066Fb94D306f2b4Cc7DB17",
    "0x3d7a5eDFCDCA0f9FDD066Fb94D306f2b4Cc7DB17",
    "0x3d7a5eDFCDCA0f9FDD066Fb94D306f2b4Cc7DB17",
    "1000000",
    "1000000000000000000",
    "0xAbfB6C4a338f3780b35FdEEE11e6bB445F13BDc4",
    1
  ],
  "solcInputHash": "30ffbd4cf1654f46dfb7ab44eb0c50a8",
  "bytecode": "0x60e06040526000600a556000600b556001600c556001600d553480156200002557600080fd5b5060405162003c4238038062003c428339810160408190526200004891620005b7565b6001600055898989898989898987878787878787876001600160a01b038816620000855760405163a1aeceb760e01b815260040160405180910390fd5b6001600160a01b038716620000ad5760405163071aeb1d60e01b815260040160405180910390fd5b6001600160a01b038416620000d557604051633b2b1d5560e01b815260040160405180910390fd5b6001600160a01b038316620000fd57604051634fdcfc5560e11b815260040160405180910390fd5b6200010a60008762000346565b6200012560008051602062003c228339815191528762000346565b6200014060008051602062003c028339815191528662000346565b6200016a60008051602062003c0283398151915260008051602062003c2283398151915262000389565b620001a57f830a9081649e91840eb0274e99b47626a896cfa0f4dd591cb31cd5060e566c0d60008051602062003c2283398151915262000389565b620001e07fe2b7fb3b832174769106daebcfd6d1970523240dda11281102db9363b83b0dc460008051602062003c2283398151915262000389565b6001600160a01b0388811660a0819052888216608052600580546001600160a01b03199081168785161790915560048054909116928716929092178255600884905560098390556040805163313ce56760e01b81529051919263313ce5679282820192602092908290030181865afa15801562000261573d6000803e3d6000fd5b505050506040513d601f19601f820116820180604052508101906200028791906200066b565b876001600160a01b031663313ce5676040518163ffffffff1660e01b8152600401602060405180830381865afa158015620002c6573d6000803e3d6000fd5b505050506040513d601f19601f82011682018060405250810190620002ec91906200066b565b620002f89190620006ad565b6200030590600a620007c6565b60c052505050600f95909555506200032b9a508c995050620003d6975050505050505050565b620003368162000460565b50505050505050505050620007d7565b6200035d82826200049f60201b62001f0d1760201c565b60008281526002602090815260409091206200038491839062001f7862000528821b17901c565b505050565b6000828152600160208190526040808320909101805490849055905190918391839186917fbd79b86ffe0ab8e8776151514217cd7cacd52c909f66475c3af44e129f0b00ff9190a4505050565b6001600160a01b038116620003fe57604051636ca1fdd760e01b815260040160405180910390fd5b601080546001600160a01b038381166001600160a01b031983168117909355604080519190921680825260208201939093527f7d25fe3c08dd306579e1d2a5002c9c44f52c27fc3754b43c75ef1e080d454c8a91015b60405180910390a15050565b601180549082905560408051828152602081018490527fdaffa4de8807a37aaf10d8a67851ece24bdb59211b326eb514393692ddc95832910162000454565b60008281526001602090815260408083206001600160a01b038516845290915290205460ff16620005245760008281526001602081815260408084206001600160a01b0386168086529252808420805460ff19169093179092559051339285917f2f8788117e7eff1d82e926ec794901d17c78024a50270940304540a733656f0d9190a45b5050565b60006200053f836001600160a01b03841662000548565b90505b92915050565b6000818152600183016020526040812054620005915750815460018181018455600084815260208082209093018490558454848252828601909352604090209190915562000542565b50600062000542565b80516001600160a01b0381168114620005b257600080fd5b919050565b6000806000806000806000806000806101408b8d031215620005d857600080fd5b620005e38b6200059a565b9950620005f360208c016200059a565b98506200060360408c016200059a565b97506200061360608c016200059a565b96506200062360808c016200059a565b95506200063360a08c016200059a565b945060c08b0151935060e08b01519250620006526101008c016200059a565b91506101208b015190509295989b9194979a5092959850565b6000602082840312156200067e57600080fd5b815160ff811681146200069057600080fd5b9392505050565b634e487b7160e01b600052601160045260246000fd5b60ff828116828216039081111562000542576200054262000697565b600181815b808511156200070a578160001904821115620006ee57620006ee62000697565b80851615620006fc57918102915b93841c9390800290620006ce565b509250929050565b600082620007235750600162000542565b81620007325750600062000542565b81600181146200074b5760028114620007565762000776565b600191505062000542565b60ff8411156200076a576200076a62000697565b50506001821b62000542565b5060208310610133831016604e8410600b84101617156200079b575081810a62000542565b620007a78383620006c9565b8060001904821115620007be57620007be62000697565b029392505050565b60006200053f60ff84168362000712565b60805160a05160c0516133b56200084d60003960008181610709015281816129840152612c5401526000818161079001528181610afe01528181610bd70152818161170a01526117420152600081816106a101528181611aa501528181611d1001528181611e5c01526122a701526133b56000f3fe608060405234801561001057600080fd5b50600436106103455760003560e01c80637dbc1df0116101bf578063ca15c873116100fa578063e1a452181161009d578063e1a45218146107e1578063e4107c97146107ea578063e74b981b146107fd578063e7be73fd14610810578063eddd0d9c14610823578063ee75d7d414610836578063eeb3c91014610849578063f80a36d61461085c57600080fd5b8063ca15c87314610740578063cd4d0bcf14610753578063d547741f14610765578063d592d81514610778578063d8dfeb451461078b578063dd45eef6146107b2578063de6afa82146107c5578063e0f486ef146107d857600080fd5b806392bccb801161016257806392bccb801461069457806395e4b2511461069c578063a217fddf146106c3578063a6138ed9146106cb578063aa85c1df146106de578063aab483d6146106f1578063bb13245f14610704578063bcc702831461072b57600080fd5b80637dbc1df0146105fc578063837018fa1461060f57806385c4e79e1461061757806387e2d06e1461062c5780638d044c061461063f5780639010d07c1461064757806391d148541461065a578063926d7d7f1461066d57600080fd5b806336568abe1161028f5780634c99a0af116102325780634c99a0af146105455780634dfe7af21461056c5780634ef1ccd114610574578063510b751b14610587578063525decd6146105905780635d591d68146105a3578063600d2dbc146105dc57806373a95ddd146105ef57600080fd5b806336568abe1461046257806338fed708146104755780633bfa67fe146104d35780634565e9ff146104fb578063458f58151461050e578063469048401461051757806349cbbf2a1461052a5780634b155b971461053257600080fd5b8063244f5acf116102f7578063244f5acf146103c3578063248a9ca3146103d657806324f09e9c146103fa578063258492cd1461040d57806329390370146104205780632b5eceff146104335780632f2ff15d14610446578063354181f31461045957600080fd5b806301ffc9a71461034a578063078a6be81461037257806307bda1bb14610395578063080c279a1461039e57806312589fb5146103a757806313966db5146103b05780632056aa12146103b9575b600080fd5b61035d610358366004612de3565b61086f565b60405190151581526020015b60405180910390f35b61038760008051602061336083398151915281565b604051908152602001610369565b610387600c5481565b61038760085481565b610387600f5481565b610387600a5481565b6103c161089a565b005b6103c16103d1366004612e59565b6108fd565b6103876103e4366004612e9b565b6000908152600160208190526040909120015490565b6103c1610408366004612e9b565b610c10565b6103c161041b366004612ed0565b610c36565b6103c161042e366004612f0b565b610d90565b6103c1610441366004612f26565b610e09565b6103c1610454366004612f6c565b610f18565b610387600d5481565b6103c1610470366004612f6c565b610f44565b6104ae610483366004612e9b565b6007602052600090815260409020805460018201546002909201546001600160a01b03909116919083565b604080516001600160a01b039094168452602084019290925290820152606001610369565b6104ee733d7a5edfcdca0f9fdd066fb94d306f2b4cc7db1781565b6040516103699190612f98565b6103c1610509366004612e59565b610fbe565b610387600b5481565b6005546104ee906001600160a01b031681565b6103c161104c565b6010546104ee906001600160a01b031681565b6103877f6d1bd15a3098a6dad77d962815b9ece90c7c3fedff3027331df16fc4e184940881565b6103c16110a6565b6103c1610582366004612e9b565b6110fb565b61038760115481565b6103c161059e366004612f0b565b611175565b6104ae6105b1366004612e9b565b6006602052600090815260409020805460018201546002909201546001600160a01b03909116919083565b6103c16105ea366004612f0b565b6111e1565b600e5461035d9060ff1681565b6103c161060a366004612e9b565b611203565b6103c161127d565b61038760008051602061332083398151915281565b6103c161063a366004612fac565b6112d1565b6103c161138d565b6104ee610655366004613018565b6113e0565b61035d610668366004612f6c565b6113ff565b6103877fe2b7fb3b832174769106daebcfd6d1970523240dda11281102db9363b83b0dc481565b6103c161142a565b6104ee7f000000000000000000000000000000000000000000000000000000000000000081565b610387600081565b6003546104ee906001600160a01b031681565b6103c16106ec366004612fac565b611480565b6103c16106ff366004612e9b565b611535565b6103877f000000000000000000000000000000000000000000000000000000000000000081565b61038760008051602061334083398151915281565b61038761074e366004612e9b565b6115af565b600e5461035d90610100900460ff1681565b6103c1610773366004612f6c565b6115c6565b6103c1610786366004612e9b565b6115ed565b6104ee7f000000000000000000000000000000000000000000000000000000000000000081565b600e5461035d9062010000900460ff1681565b6103c16107d3366004612ed0565b6117d0565b61038760095481565b61038761271081565b6103c16107f8366004612e9b565b611919565b6103c161080b366004612f0b565b611970565b6103c161081e366004612ed0565b6119db565b6103c1610831366004612e9b565b611baa565b6004546104ee906001600160a01b031681565b6103c1610857366004612e9b565b611c24565b6103c161086a366004613018565b611db8565b60006001600160e01b03198216635a05180f60e01b1480610894575061089482611f8d565b92915050565b6000805160206133208339815191526108b38133611fc2565b600e805461ff0019166101001790556040517fcd71257f2998474633e94cfffa045014068f6218ffdca256b6f4aa9d5f15fb89906108f2903390612f98565b60405180910390a150565b6002600054036109285760405162461bcd60e51b815260040161091f9061303a565b60405180910390fd5b6002600055600e5460ff1680156109525760405163aadfaddd60e01b815260040160405180910390fd5b600082815b81811015610bbc5760006007600088888581811061097757610977613071565b60209081029290920135835250818101929092526040908101600020815160608101835281546001600160a01b03168082526001830154948201949094526002909101549181019190915291506109cd90612026565b80604001516000036109f257604051638718c77160e01b815260040160405180910390fd5b6003546040828101519051630e75722360e41b815260048101919091526000916001600160a01b03169063e757223090602401602060405180830381865afa158015610a42573d6000803e3d6000fd5b505050506040513d601f19601f82011682018060405250810190610a669190613087565b90506000610a7883602001518361204f565b90506000610a8582612080565b90506000610a9382846130b6565b9050610a9f82896130c9565b9750600760008c8c89818110610ab757610ab7613071565b60209081029290920135835250810191909152604001600090812080546001600160a01b031916815560018101829055600201556004548551610b29916001600160a01b037f00000000000000000000000000000000000000000000000000000000000000008116929116908461209d565b8a8a87818110610b3b57610b3b613071565b87516020898101516040808c01518151928352828401899052908201899052606082018b9052608082015292029390930135926001600160a01b031691507f9fcb6040dd03e5eea5db44708f190f5ddebd9ecbbdca948c6abe029f9a2796e49060a00160405180910390a3505050505080610bb5906130dc565b9050610957565b508115610c0457600454600554610c04916001600160a01b037f000000000000000000000000000000000000000000000000000000000000000081169291811691168561209d565b50506001600055505050565b600080516020613360833981519152610c298133611fc2565b610c32826120fd565b5050565b600080516020613360833981519152610c4f8133611fc2565b83610c5981612026565b6000600760008881526020019081526020016000206040518060600160405290816000820160009054906101000a90046001600160a01b03166001600160a01b03166001600160a01b031681526020016001820154815260200160028201548152505090506040518060600160405280876001600160a01b03168152602001868152602001858152506007600089815260200190815260200160002060008201518160000160006101000a8154816001600160a01b0302191690836001600160a01b031602179055506020820151816001015560408201518160020155905050867f5a0c55c421ae3aac2379811eca16aaee32b6e64411322b624118d4219b9350a082600001518884604001518886602001518b604051610d7f969594939291906130f5565b60405180910390a250505050505050565b600080516020613360833981519152610da98133611fc2565b600380546001600160a01b038481166001600160a01b03198316179092556040519116907f801352e72ef9b80b3992ccbedf07ab0e133e7da7aaccf0024abf23f4f32eb99a90610dfc908390869061312b565b60405180910390a1505050565b7fe2b7fb3b832174769106daebcfd6d1970523240dda11281102db9363b83b0dc4610e348133611fc2565b84610e3e81612026565b6000878152600660205260409020546001600160a01b031615610e7457604051631aeecebf60e21b815260040160405180910390fd5b60408051606080820183526001600160a01b0389811680845260208085018b815260008688018181528f82526006845290889020965187546001600160a01b031916951694909417865551600186015591516002909401939093558351898152908101889052928301869052909189917fc985471d1cb1bb75da0d54fa5ab10f7171e952cefcc0bf4fc7c2546c19d1811f910160405180910390a350505050505050565b60008281526001602081905260409091200154610f358133611fc2565b610f3f8383612143565b505050565b6001600160a01b0381163314610fb45760405162461bcd60e51b815260206004820152602f60248201527f416363657373436f6e74726f6c3a2063616e206f6e6c792072656e6f756e636560448201526e103937b632b9903337b91039b2b63360891b606482015260840161091f565b610c328282612165565b600260005403610fe05760405162461bcd60e51b815260040161091f9061303a565b6002600055600e54610100900460ff16801561100f5760405163aadfaddd60e01b815260040160405180910390fd5b8160005b81811015610c045761103c85858381811061103057611030613071565b90506020020135612187565b611045816130dc565b9050611013565b6000805160206133208339815191526110658133611fc2565b600e805462ff00001916620100001790556040517fdc41a92196ccc1ab8149c01bc68c2f506b10a7bb5cd2693c9516d176f5381ff4906108f2903390612f98565b6000805160206133608339815191526110bf8133611fc2565b600e805462ff0000191690556040517f53a8c40fc17c78d38e2c06aa8d2c550c1acbf7b30d087dbda289ab3dd41c235c906108f2903390612f98565b6000805160206133608339815191526111148133611fc2565b6127108210156111375760405163617ab12d60e11b815260040160405180910390fd5b600980549083905560408051828152602081018590527ffdaf6ed728cef208e62328a008209556f8281f3062b14dd08aaaa90fa15942119101610dfc565b60008051602061336083398151915261118e8133611fc2565b600480546001600160a01b038481166001600160a01b03198316179092556040519116907fb09f298b2812193d5ada18beaadd6cb8f12b3640926d99de46e2a65394df829d90610dfc908390869061312b565b6000805160206133608339815191526111fa8133611fc2565b610c328261237b565b60008051602061336083398151915261121c8133611fc2565b61271082111561123f57604051637e2df70960e11b815260040160405180910390fd5b600b80549083905560408051828152602081018590527f2956acfe8584fb02384e06c675ee215bf10d55c3de1e6ff9b2f621e8a40c64709101610dfc565b6000805160206133608339815191526112968133611fc2565b600e805461ff00191690556040517f94482ee2b195c365dbbc2d689fd5a088d2b219abe44360ba8895525c9471d66f906108f2903390612f98565b6000805160206133408339815191526112ea8133611fc2565b600354604051637e2b71fb60e01b81526001600160a01b0390911690637e2b71fb9061131c9086908690600401613145565b602060405180830381865afa158015611339573d6000803e3d6000fd5b505050506040513d601f19601f8201168201806040525081019061135d919061317e565b61137a576040516373d7250f60e01b815260040160405180910390fd5b611386858585856123f5565b5050505050565b6000805160206133608339815191526113a68133611fc2565b600e805460ff191690556040517fc641b9c4afa539cedcbe2e5f3e47d9f092175b5d0b8ae72dffa634a3eb3e47e4906108f2903390612f98565b60008281526002602052604081206113f890836125a3565b9392505050565b60009182526001602090815260408084206001600160a01b0393909316845291905290205460ff1690565b6000805160206133208339815191526114438133611fc2565b600e805460ff191660011790556040517f71e0406677c0570b2a66b1a4feeccf5c1cba2d6729435461e27a312b15410d04906108f2903390612f98565b6000805160206133408339815191526114998133611fc2565b600354604051637e2b71fb60e01b81526001600160a01b0390911690637e2b71fb906114cb9086908690600401613145565b602060405180830381865afa1580156114e8573d6000803e3d6000fd5b505050506040513d601f19601f8201168201806040525081019061150c919061317e565b611529576040516373d7250f60e01b815260040160405180910390fd5b611386858585856125af565b60008051602061336083398151915261154e8133611fc2565b6127108210156115715760405163617ab12d60e11b815260040160405180910390fd5b600880549083905560408051828152602081018590527fe6e25add7363f8f8a40cbea9810d3115a33703b10972ef759104219b006574369101610dfc565b6000818152600260205260408120610894906126fb565b600082815260016020819052604090912001546115e38133611fc2565b610f3f8383612165565b60026000540361160f5760405162461bcd60e51b815260040161091f9061303a565b6002600055600e54610100900460ff16801561163e5760405163aadfaddd60e01b815260040160405180910390fd5b3361164881612026565b60085483101561166b57604051636ba4a1c760e01b815260040160405180910390fd5b600061167684612705565b9050600061168482866130b6565b600c80549192506000919082611699836130dc565b909155506040805160608101825233815260208082018681526000838501818152868252600690935293909320915182546001600160a01b0319166001600160a01b039091161782559151600182015590516002909101559050821561173557600554611735906001600160a01b037f00000000000000000000000000000000000000000000000000000000000000008116913391168661209d565b61177e6001600160a01b037f00000000000000000000000000000000000000000000000000000000000000001633733d7a5edfcdca0f9fdd066fb94d306f2b4cc7db178561209d565b6040805187815260208101849052908101849052819033907f7cbce37c7b11d322316420484f40c29ce672ad3fa16752551a3dbe6ccfa04e149060600160405180910390a35050600160005550505050565b6000805160206133608339815191526117e98133611fc2565b836117f381612026565b6000600660008881526020019081526020016000206040518060600160405290816000820160009054906101000a90046001600160a01b03166001600160a01b03166001600160a01b031681526020016001820154815260200160028201548152505090506040518060600160405280876001600160a01b03168152602001868152602001858152506006600089815260200190815260200160002060008201518160000160006101000a8154816001600160a01b0302191690836001600160a01b031602179055506020820151816001015560408201518160020155905050867f7e506b1f11218d4c947d5a59a97fd996c42afc2b024b6aeaec050930eb2b339982600001518884604001518886602001518b604051610d7f969594939291906130f5565b6000805160206133608339815191526119328133611fc2565b600f80549083905560408051828152602081018590527f1071422bad736c3651d3d3b7a4eda70e84e9c85a08f21c955d79ded03bbf06bb9101610dfc565b6000805160206133608339815191526119898133611fc2565b600580546001600160a01b038481166001600160a01b0319831681179093556040519116917f15d80a013f22151bc7246e3bc132e12828cde19de98870475e3fa7084015272191610dfc91849161312b565b7f6d1bd15a3098a6dad77d962815b9ece90c7c3fedff3027331df16fc4e1849408611a068133611fc2565b83611a1081612026565b6000868152600760205260409020546001600160a01b031615611a4657604051636e27aecf60e01b815260040160405180910390fd5b83600003611a675760405163595bd39f60e11b815260040160405180910390fd5b6001600160a01b038516611a8e576040516325cf4ebb60e21b815260040160405180910390fd5b60405163079cc67960e41b81526001600160a01b037f000000000000000000000000000000000000000000000000000000000000000016906379cc679090611adc90339088906004016131a0565b600060405180830381600087803b158015611af657600080fd5b505af1158015611b0a573d6000803e3d6000fd5b5050604080516060810182526001600160a01b0389811680835260208084018b815260008587018181528f82526007845290879020955186546001600160a01b0319169516949094178555516001850155915160029093019290925582518981529081018890529093508992507ffd54f2267d4171d61087dba82ecc7cba341846cdc41eb7c3f6d7c4d822680d89910160405180910390a3505050505050565b600080516020613360833981519152611bc38133611fc2565b612710821115611be657604051637e2df70960e11b815260040160405180910390fd5b600a80549083905560408051828152602081018590527f387269377ae17304805d5f88cea4252e5ca47346783c279aeb9e8627335a49ac9101610dfc565b600260005403611c465760405162461bcd60e51b815260040161091f9061303a565b6002600055600e5460ff168015611c705760405163aadfaddd60e01b815260040160405180910390fd5b600954821015611c935760405163595bd39f60e11b815260040160405180910390fd5b600d805460009182611ca4836130dc565b909155506040805160608101825233808252602080830188815260008486018181528782526007909352859020935184546001600160a01b0319166001600160a01b03918216178555905160018501559051600290930192909255915163079cc67960e41b81529293507f000000000000000000000000000000000000000000000000000000000000000016916379cc679091611d459187906004016131a0565b600060405180830381600087803b158015611d5f57600080fd5b505af1158015611d73573d6000803e3d6000fd5b50506040518581528392503391507f80ebb30e7c30052bf403a20da869bdd033841684e93930d97c4af74238529b4f9060200160405180910390a35050600160005550565b600260005403611dda5760405162461bcd60e51b815260040161091f9061303a565b6002600055600e5462010000900460ff168015611e0a5760405163aadfaddd60e01b815260040160405180910390fd5b600f54831015611e2d5760405163595bd39f60e11b815260040160405180910390fd5b600d805460009182611e3e836130dc565b9091555060405163079cc67960e41b81529091506001600160a01b037f000000000000000000000000000000000000000000000000000000000000000016906379cc679090611e9390339088906004016131a0565b600060405180830381600087803b158015611ead57600080fd5b505af1158015611ec1573d6000803e3d6000fd5b505060408051878152602081018790528493503392507fad2102c6abc98f954bd5d61e6c0d19764db331f63019296309309a34f70e66a6910160405180910390a3505060016000555050565b611f1782826113ff565b610c325760008281526001602081815260408084206001600160a01b0386168086529252808420805460ff19169093179092559051339285917f2f8788117e7eff1d82e926ec794901d17c78024a50270940304540a733656f0d9190a45050565b60006113f8836001600160a01b038416612718565b60006001600160e01b03198216637965db0b60e01b148061089457506301ffc9a760e01b6001600160e01b0319831614610894565b611fcc82826113ff565b610c3257611fe4816001600160a01b03166014612767565b611fef836020612767565b6040516020016120009291906131dd565b60408051601f198184030181529082905262461bcd60e51b825261091f9160040161324c565b61202f81612903565b61204c57604051634555d55360e11b815260040160405180910390fd5b50565b60008061205c838561327f565b9050612078612073670de0b6b3a76400008361329e565b61297d565b949350505050565b6000612710600b5483612093919061327f565b610894919061329e565b604080516001600160a01b0385811660248301528416604482015260648082018490528251808303909101815260849091019091526020810180516001600160e01b03166323b872dd60e01b1790526120f79085906129a9565b50505050565b601180549082905560408051828152602081018490527fdaffa4de8807a37aaf10d8a67851ece24bdb59211b326eb514393692ddc9583291015b60405180910390a15050565b61214d8282611f0d565b6000828152600260205260409020610f3f9082611f78565b61216f8282612a7b565b6000828152600260205260409020610f3f9082612ae2565b6000818152600660209081526040808320815160608101835281546001600160a01b03168152600182015493810193909352600201549082018190529091036121e357604051638718c77160e01b815260040160405180910390fd5b6003546040828101519051630e75722360e41b815260048101919091526000916001600160a01b03169063e757223090602401602060405180830381865afa158015612233573d6000803e3d6000fd5b505050506040513d601f19601f820116820180604052508101906122579190613087565b90506000612269836020015183612af7565b60008581526006602052604080822080546001600160a01b03191681556001810183905560020191909155845190516340c10f1960e01b81529192507f00000000000000000000000000000000000000000000000000000000000000006001600160a01b0316916340c10f19916122e49185906004016131a0565b600060405180830381600087803b1580156122fe57600080fd5b505af1158015612312573d6000803e3d6000fd5b50508451602080870151604080890151815188815293840192909252820187905260608201528793506001600160a01b0390911691507fdd602cc9cb236502fb74f091872b4025184011dd96eee41099caa260842f20249060800160405180910390a350505050565b6001600160a01b0381166123a257604051636ca1fdd760e01b815260040160405180910390fd5b601080546001600160a01b038381166001600160a01b03198316179092556040519116907f7d25fe3c08dd306579e1d2a5002c9c44f52c27fc3754b43c75ef1e080d454c8a90612137908390859061312b565b60008051602061334083398151915261240e8133611fc2565b8382811461242f5760405163cc6e40b360e01b815260040160405180910390fd5b60005b8181101561259a57600060068189898581811061245157612451613071565b60209081029290920135835250810191909152604001600020546001600160a01b031603612492576040516305a8a45b60e41b815260040160405180910390fd5b600660008888848181106124a8576124a8613071565b905060200201358152602001908152602001600020600201546000146124e157604051631139f30960e31b815260040160405180910390fd5b8484828181106124f3576124f3613071565b905060200201356006600089898581811061251057612510613071565b9050602002013581526020019081526020016000206002018190555084848281811061253e5761253e613071565b9050602002013587878381811061255757612557613071565b905060200201357fc2055184bbc2d10b90bf7df17a84f8bdda6b52377a976e41e0c1610fffafc0d760405160405180910390a3612593816130dc565b9050612432565b50505050505050565b60006113f88383612b21565b6000805160206133408339815191526125c88133611fc2565b838281146125e95760405163cc6e40b360e01b815260040160405180910390fd5b60005b8181101561259a576007600088888481811061260a5761260a613071565b9050602002013581526020019081526020016000206002015460001461264357604051631139f30960e31b815260040160405180910390fd5b84848281811061265557612655613071565b905060200201356007600089898581811061267257612672613071565b905060200201358152602001908152602001600020600201819055508484828181106126a0576126a0613071565b905060200201358787838181106126b9576126b9613071565b905060200201357e05e86a70f400d1820ab5a0573a2be911d831ab28fe2e9448b34daab223b09c60405160405180910390a36126f4816130dc565b90506125ec565b6000610894825490565b6000612710600a5483612093919061327f565b600081815260018301602052604081205461275f57508154600181810184556000848152602080822090930184905584548482528286019093526040902091909155610894565b506000610894565b6060600061277683600261327f565b6127819060026130c9565b67ffffffffffffffff811115612799576127996132c0565b6040519080825280601f01601f1916602001820160405280156127c3576020820181803683370190505b509050600360fc1b816000815181106127de576127de613071565b60200101906001600160f81b031916908160001a905350600f60fb1b8160018151811061280d5761280d613071565b60200101906001600160f81b031916908160001a905350600061283184600261327f565b61283c9060016130c9565b90505b60018111156128b4576f181899199a1a9b1b9c1cb0b131b232b360811b85600f166010811061287057612870613071565b1a60f81b82828151811061288657612886613071565b60200101906001600160f81b031916908160001a90535060049490941c936128ad816132d6565b905061283f565b5083156113f85760405162461bcd60e51b815260206004820181905260248201527f537472696e67733a20686578206c656e67746820696e73756666696369656e74604482015260640161091f565b60105460115460405163609f4d6d60e11b815260048101919091526001600160a01b038381166024830152600092169063c13e9ada90604401602060405180830381865afa158015612959573d6000803e3d6000fd5b505050506040513d601f19601f82011682018060405250810190610894919061317e565b60006108947f00000000000000000000000000000000000000000000000000000000000000008361329e565b60006129fe826040518060400160405280602081526020017f5361666545524332303a206c6f772d6c6576656c2063616c6c206661696c6564815250856001600160a01b0316612b4b9092919063ffffffff16565b805190915015610f3f5780806020019051810190612a1c919061317e565b610f3f5760405162461bcd60e51b815260206004820152602a60248201527f5361666545524332303a204552433230206f7065726174696f6e20646964206e6044820152691bdd081cdd58d8d9595960b21b606482015260840161091f565b612a8582826113ff565b15610c325760008281526001602090815260408083206001600160a01b0385168085529252808320805460ff1916905551339285917ff6391f5c32d9c69d2a47ea670b442974b53935d1edc7fd64eb21e047a839171b9190a45050565b60006113f8836001600160a01b038416612b5a565b600080612b0384612c4d565b612b1590670de0b6b3a764000061327f565b9050612078838261329e565b6000826000018281548110612b3857612b38613071565b9060005260206000200154905092915050565b60606120788484600085612c79565b60008181526001830160205260408120548015612c43576000612b7e6001836130b6565b8554909150600090612b92906001906130b6565b9050818114612bf7576000866000018281548110612bb257612bb2613071565b9060005260206000200154905080876000018481548110612bd557612bd5613071565b6000918252602080832090910192909255918252600188019052604090208390555b8554869080612c0857612c086132ed565b600190038181906000526020600020016000905590558560010160008681526020019081526020016000206000905560019350505050610894565b6000915050610894565b60006108947f00000000000000000000000000000000000000000000000000000000000000008361327f565b606082471015612cda5760405162461bcd60e51b815260206004820152602660248201527f416464726573733a20696e73756666696369656e742062616c616e636520666f6044820152651c8818d85b1b60d21b606482015260840161091f565b6001600160a01b0385163b612d315760405162461bcd60e51b815260206004820152601d60248201527f416464726573733a2063616c6c20746f206e6f6e2d636f6e7472616374000000604482015260640161091f565b600080866001600160a01b03168587604051612d4d9190613303565b60006040518083038185875af1925050503d8060008114612d8a576040519150601f19603f3d011682016040523d82523d6000602084013e612d8f565b606091505b5091509150612d9f828286612daa565b979650505050505050565b60608315612db95750816113f8565b825115612dc95782518084602001fd5b8160405162461bcd60e51b815260040161091f919061324c565b600060208284031215612df557600080fd5b81356001600160e01b0319811681146113f857600080fd5b60008083601f840112612e1f57600080fd5b50813567ffffffffffffffff811115612e3757600080fd5b6020830191508360208260051b8501011115612e5257600080fd5b9250929050565b60008060208385031215612e6c57600080fd5b823567ffffffffffffffff811115612e8357600080fd5b612e8f85828601612e0d565b90969095509350505050565b600060208284031215612ead57600080fd5b5035919050565b80356001600160a01b0381168114612ecb57600080fd5b919050565b60008060008060808587031215612ee657600080fd5b84359350612ef660208601612eb4565b93969395505050506040820135916060013590565b600060208284031215612f1d57600080fd5b6113f882612eb4565b600080600080600060a08688031215612f3e57600080fd5b85359450612f4e60208701612eb4565b94979496505050506040830135926060810135926080909101359150565b60008060408385031215612f7f57600080fd5b82359150612f8f60208401612eb4565b90509250929050565b6001600160a01b0391909116815260200190565b60008060008060408587031215612fc257600080fd5b843567ffffffffffffffff80821115612fda57600080fd5b612fe688838901612e0d565b90965094506020870135915080821115612fff57600080fd5b5061300c87828801612e0d565b95989497509550505050565b6000806040838503121561302b57600080fd5b50508035926020909101359150565b6020808252601f908201527f5265656e7472616e637947756172643a207265656e7472616e742063616c6c00604082015260600190565b634e487b7160e01b600052603260045260246000fd5b60006020828403121561309957600080fd5b5051919050565b634e487b7160e01b600052601160045260246000fd5b81810381811115610894576108946130a0565b80820180821115610894576108946130a0565b6000600182016130ee576130ee6130a0565b5060010190565b6001600160a01b03968716815294909516602085015260408401929092526060830152608082015260a081019190915260c00190565b6001600160a01b0392831681529116602082015260400190565b6020808252810182905260006001600160fb1b0383111561316557600080fd5b8260051b80856040850137919091016040019392505050565b60006020828403121561319057600080fd5b815180151581146113f857600080fd5b6001600160a01b03929092168252602082015260400190565b60005b838110156131d45781810151838201526020016131bc565b50506000910152565b76020b1b1b2b9b9a1b7b73a3937b61d1030b1b1b7bab73a1604d1b81526000835161320f8160178501602088016131b9565b7001034b99036b4b9b9b4b733903937b6329607d1b60179184019182015283516132408160288401602088016131b9565b01602801949350505050565b602081526000825180602084015261326b8160408501602087016131b9565b601f01601f19169190910160400192915050565b6000816000190483118215151615613299576132996130a0565b500290565b6000826132bb57634e487b7160e01b600052601260045260246000fd5b500490565b634e487b7160e01b600052604160045260246000fd5b6000816132e5576132e56130a0565b506000190190565b634e487b7160e01b600052603160045260246000fd5b600082516133158184602087016131b9565b919091019291505056fe9ac2c43e905fe4f0c030a0b0e4b805a284e79da32a5c9c71be1c68dd79bbb89d830a9081649e91840eb0274e99b47626a896cfa0f4dd591cb31cd5060e566c0d8c6dd8af24db306eb580672d47cf7dd23b8394bf74074f8ac14b948512ecdb03a2646970667358221220fc6a8bf2c6dbb2613fec6451ff6b4cecdfa415d702a4d36ae18273f9707d86d864736f6c634300081000339ac2c43e905fe4f0c030a0b0e4b805a284e79da32a5c9c71be1c68dd79bbb89d8c6dd8af24db306eb580672d47cf7dd23b8394bf74074f8ac14b948512ecdb03",
  "devdoc": {
    "events": {
      "RedemptionProofAdded(bytes32,address,uint256,uint256)": {
        "params": {
          "rwaAmountBurned": "Amount of OMMF burned",
          "timestamp": "Timestamp of the redemption",
          "txHash": "Tx hash (redemption id) of the redemption transfer",
          "user": "Address of the user who made the redemption"
        }
      }
    },
    "kind": "dev",
    "methods": {
      "addProof(bytes32,address,uint256,uint256,uint256)": {
        "details": "txHash is used as the depositId in storageAll amounts are in decimals of `collateral`",
        "params": {
          "depositAmountAfterFee": "The amount of the deposit after fees",
          "feeAmount": "The amount of the fees taken",
          "timestamp": "The timestamp of the deposit",
          "txHash": "The transaction hash of the deposit",
          "user": "The address of the user who made the deposit"
        }
      },
      "addRedemptionProof(bytes32,address,uint256,uint256)": {
        "params": {
          "rwaAmountToBurn": "The amount of OMMF burned",
          "timestamp": "The timestamp of the redemption request",
          "txHash": "The tx hash (redemption Id) of the redemption",
          "user": "The address of the user who made the redemption"
        }
      },
      "claimMint(bytes32[])": {
        "details": "Implicitly does all transfer checks present in underlying `rwa`The priceId corresponding to a given depositId must be set prior to      claiming a mint",
        "params": {
          "depositIds": "An array containing the deposit Ids one wishes to claim"
        }
      },
      "claimRedemption(bytes32[])": {
        "details": "Implicitly does all checks present in underlying `rwa`The price Id corresponding to a redemptionId must be set prior to      claiming a redemption",
        "params": {
          "redemptionIds": "an Array of redemption Id's which ought to fulfilled"
        }
      },
      "getRoleAdmin(bytes32)": {
        "details": "Returns the admin role that controls `role`. See {grantRole} and {revokeRole}. To change a role's admin, use {_setRoleAdmin}."
      },
      "getRoleMember(bytes32,uint256)": {
        "details": "Returns one of the accounts that have `role`. `index` must be a value between 0 and {getRoleMemberCount}, non-inclusive. Role bearers are not sorted in any particular way, and their ordering may change at any point. WARNING: When using {getRoleMember} and {getRoleMemberCount}, make sure you perform all queries on the same block. See the following https://forum.openzeppelin.com/t/iterating-over-elements-on-enumerableset-in-openzeppelin-contracts/2296[forum post] for more information."
      },
      "getRoleMemberCount(bytes32)": {
        "details": "Returns the number of accounts that have `role`. Can be used together with {getRoleMember} to enumerate all bearers of a role."
      },
      "grantRole(bytes32,address)": {
        "details": "Grants `role` to `account`. If `account` had not been already granted `role`, emits a {RoleGranted} event. Requirements: - the caller must have ``role``'s admin role."
      },
      "hasRole(bytes32,address)": {
        "details": "Returns `true` if `account` has been granted `role`."
      },
      "overwriteDepositor(bytes32,address,uint256,uint256)": {
        "params": {
          "depositAmountAfterFee": "The deposit value for the new entry",
          "depositIdToOverwrite": "The depositId of the entry we wish to                              overwrite",
          "priceId": "The priceId to be associated with the new                              entry",
          "user": "The user for the new entry"
        }
      },
      "overwriteRedeemer(bytes32,address,uint256,uint256)": {
        "params": {
          "priceId": "The priceID to be associated with the new                                entry",
          "redemptionIdToOverwrite": "The redemptionId of the entry we wish to                                overwrite",
          "rwaTokenAmountBurned": "The burn amount for the new entry",
          "user": "The user for the new entry"
        }
      },
      "renounceRole(bytes32,address)": {
        "details": "Revokes `role` from the calling account. Roles are often managed via {grantRole} and {revokeRole}: this function's purpose is to provide a mechanism for accounts to lose their privileges if they are compromised (such as when a trusted device is misplaced). If the calling account had been revoked `role`, emits a {RoleRevoked} event. Requirements: - the caller must be `account`."
      },
      "requestRedemption(uint256)": {
        "params": {
          "amount": "The amount (in units of `rwa`) that a user wishes to redeem               from the fund"
        }
      },
      "requestRedemptionServicedOffchain(uint256,bytes32)": {
        "params": {
          "amountRWATokenToRedeem": "The requested redemption amount",
          "offChainDestination": "A hash of the destination to which                               the request should be serviced to."
        }
      },
      "requestSubscription(uint256)": {
        "params": {
          "amount": "The amount of collateral one wished to deposit"
        }
      },
      "revokeRole(bytes32,address)": {
        "details": "Revokes `role` from `account`. If `account` had been granted `role`, emits a {RoleRevoked} event. Requirements: - the caller must have ``role``'s admin role."
      },
      "setAssetSender(address)": {
        "params": {
          "newAssetSender": "The address of the new `assetSender`"
        }
      },
      "setFeeRecipient(address)": {
        "params": {
          "newFeeRecipient": "The address of the new `feeRecipient`"
        }
      },
      "setKYCRegistry(address)": {
        "params": {
          "_kycRegistry": "The new KYC registry address"
        }
      },
      "setKYCRequirementGroup(uint256)": {
        "params": {
          "_kycRequirementGroup": "The new KYC requirement group"
        }
      },
      "setMinimumDepositAmount(uint256)": {
        "params": {
          "minDepositAmount": "The minimum amount required to submit a deposit                         request"
        }
      },
      "setMinimumRedemptionAmount(uint256)": {
        "params": {
          "_minimumRedemptionAmount": "The minimum amount required to submit a                                 redemption request"
        }
      },
      "setMintFee(uint256)": {
        "details": "The maximum fee that can be set is 10_000 bps, or 100%",
        "params": {
          "_mintFee": "The new mint fee specified in basis points"
        }
      },
      "setOffChainRedemptionMinimum(uint256)": {
        "params": {
          "_minimumOffChainRedemptionAmount": "The new minimum off chain                                         redemption amount"
        }
      },
      "setPriceIdForDeposits(bytes32[],uint256[])": {
        "details": "Array size must match",
        "params": {
          "depositIds": "an Array of deposit Ids to be associated",
          "priceIds": "an Array of price Ids to be associated"
        }
      },
      "setPriceIdForRedemptions(bytes32[],uint256[])": {
        "params": {
          "priceIds": "an Array of priceIds to associate",
          "redemptionIds": "an Array of redemptionIds to associate"
        }
      },
      "setPricer(address)": {
        "params": {
          "newPricer": "The address of the new pricer contract"
        }
      },
      "setRedemptionFee(uint256)": {
        "details": "The maximum fee that can be set is 10_000 bps, or 100%",
        "params": {
          "_redemptionFee": "The new redeem fee specified in basis points"
        }
      },
      "supportsInterface(bytes4)": {
        "details": "See {IERC165-supportsInterface}."
      }
    },
    "version": 1
  },
  "userdoc": {
    "errors": {
      "PriceIdNotSet()": [
        {
          "notice": "ERRORS ///"
        }
      ],
      "RegistryZeroAddress()": [
        {
          "notice": "Error for when caller attempts to set the KYC registry refernce         to the zero address."
        }
      ]
    },
    "events": {
      "AssetSenderSet(address,address)": {
        "notice": "Event emitted when the assetSender is changed"
      },
      "DepositProofAdded(bytes32,address,uint256,uint256,uint256)": {
        "notice": "Event emitted when deposit proof has been added"
      },
      "FeeRecipientSet(address,address)": {
        "notice": "Event emitted when fee recipient is set"
      },
      "MinimumDepositAmountSet(uint256,uint256)": {
        "notice": "Event emitted when minimum deposit amount is set"
      },
      "MinimumRedemptionAmountSet(uint256,uint256)": {
        "notice": "Event emitted when a new redeem minimum is set.         All units are in 1e18"
      },
      "MintCompleted(address,bytes32,uint256,uint256,uint256,uint256)": {
        "notice": "Event emitted when a Mint request is completed"
      },
      "MintFeeSet(uint256,uint256)": {
        "notice": "Event emitted when mint fee is set"
      },
      "MintRequested(address,bytes32,uint256,uint256,uint256)": {
        "notice": "Event emitted when a mint request is submitted"
      },
      "NewPricerSet(address,address)": {
        "notice": "Event emitted when a new Pricer contract is set"
      },
      "OffChainRedemptionMinimumSet(uint256,uint256)": {
        "notice": "Event emitted when the off chain redemption minimum is         updated"
      },
      "OffChainRedemptionPaused(address)": {
        "notice": "Event emitted when the off chain redemption feature is         paused"
      },
      "OffChainRedemptionUnpaused(address)": {
        "notice": "Event emitted when the off chain redemption feature is         unpaused"
      },
      "PriceIdSetForDeposit(bytes32,uint256)": {
        "notice": "Event emitted when a deposit has its corresponding priceId set"
      },
      "PriceIdSetForRedemption(bytes32,uint256)": {
        "notice": "Event Emitted when a redemption has its corresponding priceId set"
      },
      "RedemptionCompleted(address,bytes32,uint256,uint256,uint256,uint256,uint256)": {
        "notice": "Event emitted when a redemption request is completed"
      },
      "RedemptionFeeSet(uint256,uint256)": {
        "notice": "Event emitted when redeem fee is set"
      },
      "RedemptionPaused(address)": {
        "notice": "Event emitted when redemptions are paused"
      },
      "RedemptionProofAdded(bytes32,address,uint256,uint256)": {
        "notice": "Event emitted when redemption proof has been added"
      },
      "RedemptionRequested(address,bytes32,uint256)": {
        "notice": "Event emitted when redemption request is submitted"
      },
      "RedemptionRequestedServicedOffChain(address,bytes32,uint256,bytes32)": {
        "notice": "Event emitted when redemption request is submitted"
      },
      "RedemptionUnpaused(address)": {
        "notice": "Event emitted when redemptions are unpaused"
      },
      "SubscriptionPaused(address)": {
        "notice": "Event emitted when subscriptions are paused"
      },
      "SubscriptionUnpaused(address)": {
        "notice": "Event emitted when subscriptions are unpaused"
      }
    },
    "kind": "user",
    "methods": {
      "addProof(bytes32,address,uint256,uint256,uint256)": {
        "notice": "Adds a deposit proof to the contract"
      },
      "addRedemptionProof(bytes32,address,uint256,uint256)": {
        "notice": "Function to add a redemption proof to the contract"
      },
      "claimMint(bytes32[])": {
        "notice": "Function used to claim tokens corresponding to a deposit request"
      },
      "claimRedemption(bytes32[])": {
        "notice": "Function to claim collateral corresponding to a redemption request"
      },
      "kycRegistry()": {
        "notice": "Returns reference to the KYC registry that this client queries"
      },
      "kycRequirementGroup()": {
        "notice": "Returns what KYC group this client checks accounts for"
      },
      "overwriteDepositor(bytes32,address,uint256,uint256)": {
        "notice": "Admin function to overwrite entries in the depoitIdToDepositor         mapping"
      },
      "overwriteRedeemer(bytes32,address,uint256,uint256)": {
        "notice": "Admin function to overwrite entries in the redemptionIdToRedeemer         mapping"
      },
      "pauseOffChainRedemption()": {
        "notice": "Function to pause off chain redemptoins"
      },
      "pauseRedemption()": {
        "notice": "Function to pause redemptions to RWAHub"
      },
      "pauseSubscription()": {
        "notice": "Function to pause subscription to RWAHub"
      },
      "requestRedemption(uint256)": {
        "notice": "Function used by users to request a redemption from the fund"
      },
      "requestRedemptionServicedOffchain(uint256,bytes32)": {
        "notice": "Request a redemption to be serviced off chain."
      },
      "requestSubscription(uint256)": {
        "notice": "Function used by users to request subscription to the fund"
      },
      "setAssetSender(address)": {
        "notice": "Admin function to set the address of `assetSender`"
      },
      "setFeeRecipient(address)": {
        "notice": "Admin function to set the address of `feeRecipient`"
      },
      "setKYCRegistry(address)": {
        "notice": "Update KYC registry address"
      },
      "setKYCRequirementGroup(uint256)": {
        "notice": "Update KYC group of the contract for which         accounts are checked against"
      },
      "setMinimumDepositAmount(uint256)": {
        "notice": "Admin function to set the minimum amount required for a deposit"
      },
      "setMinimumRedemptionAmount(uint256)": {
        "notice": "Admin function to set the minimum amount to redeem"
      },
      "setMintFee(uint256)": {
        "notice": "Admin function to set the mint fee"
      },
      "setOffChainRedemptionMinimum(uint256)": {
        "notice": "Admin Function to set the minimum off chain redemption amount"
      },
      "setPriceIdForDeposits(bytes32[],uint256[])": {
        "notice": "Admin function to associate a depositId with a given Price Id"
      },
      "setPriceIdForRedemptions(bytes32[],uint256[])": {
        "notice": "Admin function to associate redemptionId with a given priceId"
      },
      "setPricer(address)": {
        "notice": "Admin function to set the address of the Pricer contract"
      },
      "setRedemptionFee(uint256)": {
        "notice": "Admin function to set the redeem fee"
      },
      "unpauseOffChainRedemption()": {
        "notice": "Function to unpause off chain redemptoins"
      },
      "unpauseRedemption()": {
        "notice": "Function to unpause redemptions to RWAHub"
      },
      "unpauseSubscription()": {
        "notice": "Function to unpause subscriptions to RWAHub"
      }
    },
    "version": 1
  },
  "storageLayout": {
    "storage": [
      {
        "astId": 3395,
        "contract": "contracts/ousg/ousgManager.sol:OUSGManager",
        "label": "_status",
        "offset": 0,
        "slot": "0",
        "type": "t_uint256"
      },
      {
        "astId": 2877,
        "contract": "contracts/ousg/ousgManager.sol:OUSGManager",
        "label": "_roles",
        "offset": 0,
        "slot": "1",
        "type": "t_mapping(t_bytes32,t_struct(RoleData)2872_storage)"
      },
      {
        "astId": 3180,
        "contract": "contracts/ousg/ousgManager.sol:OUSGManager",
        "label": "_roleMembers",
        "offset": 0,
        "slot": "2",
        "type": "t_mapping(t_bytes32,t_struct(AddressSet)4404_storage)"
      },
      {
        "astId": 252,
        "contract": "contracts/ousg/ousgManager.sol:OUSGManager",
        "label": "pricer",
        "offset": 0,
        "slot": "3",
        "type": "t_contract(IPricerReader)5021"
      },
      {
        "astId": 257,
        "contract": "contracts/ousg/ousgManager.sol:OUSGManager",
        "label": "assetSender",
        "offset": 0,
        "slot": "4",
        "type": "t_address"
      },
      {
        "astId": 259,
        "contract": "contracts/ousg/ousgManager.sol:OUSGManager",
        "label": "feeRecipient",
        "offset": 0,
        "slot": "5",
        "type": "t_address"
      },
      {
        "astId": 264,
        "contract": "contracts/ousg/ousgManager.sol:OUSGManager",
        "label": "depositIdToDepositor",
        "offset": 0,
        "slot": "6",
        "type": "t_mapping(t_bytes32,t_struct(Depositor)5059_storage)"
      },
      {
        "astId": 269,
        "contract": "contracts/ousg/ousgManager.sol:OUSGManager",
        "label": "redemptionIdToRedeemer",
        "offset": 0,
        "slot": "7",
        "type": "t_mapping(t_bytes32,t_struct(Redeemer)5066_storage)"
      },
      {
        "astId": 272,
        "contract": "contracts/ousg/ousgManager.sol:OUSGManager",
        "label": "minimumDepositAmount",
        "offset": 0,
        "slot": "8",
        "type": "t_uint256"
      },
      {
        "astId": 274,
        "contract": "contracts/ousg/ousgManager.sol:OUSGManager",
        "label": "minimumRedemptionAmount",
        "offset": 0,
        "slot": "9",
        "type": "t_uint256"
      },
      {
        "astId": 277,
        "contract": "contracts/ousg/ousgManager.sol:OUSGManager",
        "label": "mintFee",
        "offset": 0,
        "slot": "10",
        "type": "t_uint256"
      },
      {
        "astId": 280,
        "contract": "contracts/ousg/ousgManager.sol:OUSGManager",
        "label": "redemptionFee",
        "offset": 0,
        "slot": "11",
        "type": "t_uint256"
      },
      {
        "astId": 288,
        "contract": "contracts/ousg/ousgManager.sol:OUSGManager",
        "label": "subscriptionRequestCounter",
        "offset": 0,
        "slot": "12",
        "type": "t_uint256"
      },
      {
        "astId": 291,
        "contract": "contracts/ousg/ousgManager.sol:OUSGManager",
        "label": "redemptionRequestCounter",
        "offset": 0,
        "slot": "13",
        "type": "t_uint256"
      },
      {
        "astId": 296,
        "contract": "contracts/ousg/ousgManager.sol:OUSGManager",
        "label": "redemptionPaused",
        "offset": 0,
        "slot": "14",
        "type": "t_bool"
      },
      {
        "astId": 298,
        "contract": "contracts/ousg/ousgManager.sol:OUSGManager",
        "label": "subscriptionPaused",
        "offset": 1,
        "slot": "14",
        "type": "t_bool"
      },
      {
        "astId": 2702,
        "contract": "contracts/ousg/ousgManager.sol:OUSGManager",
        "label": "offChainRedemptionPaused",
        "offset": 2,
        "slot": "14",
        "type": "t_bool"
      },
      {
        "astId": 2704,
        "contract": "contracts/ousg/ousgManager.sol:OUSGManager",
        "label": "minimumOffChainRedemptionAmount",
        "offset": 0,
        "slot": "15",
        "type": "t_uint256"
      },
      {
        "astId": 5811,
        "contract": "contracts/ousg/ousgManager.sol:OUSGManager",
        "label": "kycRegistry",
        "offset": 0,
        "slot": "16",
        "type": "t_contract(IKYCRegistry)5753"
      },
      {
        "astId": 5814,
        "contract": "contracts/ousg/ousgManager.sol:OUSGManager",
        "label": "kycRequirementGroup",
        "offset": 0,
        "slot": "17",
        "type": "t_uint256"
      }
    ],
    "types": {
      "t_address": {
        "encoding": "inplace",
        "label": "address",
        "numberOfBytes": "20"
      },
      "t_array(t_bytes32)dyn_storage": {
        "base": "t_bytes32",
        "encoding": "dynamic_array",
        "label": "bytes32[]",
        "numberOfBytes": "32"
      },
      "t_bool": {
        "encoding": "inplace",
        "label": "bool",
        "numberOfBytes": "1"
      },
      "t_bytes32": {
        "encoding": "inplace",
        "label": "bytes32",
        "numberOfBytes": "32"
      },
      "t_contract(IKYCRegistry)5753": {
        "encoding": "inplace",
        "label": "contract IKYCRegistry",
        "numberOfBytes": "20"
      },
      "t_contract(IPricerReader)5021": {
        "encoding": "inplace",
        "label": "contract IPricerReader",
        "numberOfBytes": "20"
      },
      "t_mapping(t_address,t_bool)": {
        "encoding": "mapping",
        "key": "t_address",
        "label": "mapping(address => bool)",
        "numberOfBytes": "32",
        "value": "t_bool"
      },
      "t_mapping(t_bytes32,t_struct(AddressSet)4404_storage)": {
        "encoding": "mapping",
        "key": "t_bytes32",
        "label": "mapping(bytes32 => struct EnumerableSet.AddressSet)",
        "numberOfBytes": "32",
        "value": "t_struct(AddressSet)4404_storage"
      },
      "t_mapping(t_bytes32,t_struct(Depositor)5059_storage)": {
        "encoding": "mapping",
        "key": "t_bytes32",
        "label": "mapping(bytes32 => struct IRWAHub.Depositor)",
        "numberOfBytes": "32",
        "value": "t_struct(Depositor)5059_storage"
      },
      "t_mapping(t_bytes32,t_struct(Redeemer)5066_storage)": {
        "encoding": "mapping",
        "key": "t_bytes32",
        "label": "mapping(bytes32 => struct IRWAHub.Redeemer)",
        "numberOfBytes": "32",
        "value": "t_struct(Redeemer)5066_storage"
      },
      "t_mapping(t_bytes32,t_struct(RoleData)2872_storage)": {
        "encoding": "mapping",
        "key": "t_bytes32",
        "label": "mapping(bytes32 => struct AccessControl.RoleData)",
        "numberOfBytes": "32",
        "value": "t_struct(RoleData)2872_storage"
      },
      "t_mapping(t_bytes32,t_uint256)": {
        "encoding": "mapping",
        "key": "t_bytes32",
        "label": "mapping(bytes32 => uint256)",
        "numberOfBytes": "32",
        "value": "t_uint256"
      },
      "t_struct(AddressSet)4404_storage": {
        "encoding": "inplace",
        "label": "struct EnumerableSet.AddressSet",
        "members": [
          {
            "astId": 4403,
            "contract": "contracts/ousg/ousgManager.sol:OUSGManager",
            "label": "_inner",
            "offset": 0,
            "slot": "0",
            "type": "t_struct(Set)4103_storage"
          }
        ],
        "numberOfBytes": "64"
      },
      "t_struct(Depositor)5059_storage": {
        "encoding": "inplace",
        "label": "struct IRWAHub.Depositor",
        "members": [
          {
            "astId": 5054,
            "contract": "contracts/ousg/ousgManager.sol:OUSGManager",
            "label": "user",
            "offset": 0,
            "slot": "0",
            "type": "t_address"
          },
          {
            "astId": 5056,
            "contract": "contracts/ousg/ousgManager.sol:OUSGManager",
            "label": "amountDepositedMinusFees",
            "offset": 0,
            "slot": "1",
            "type": "t_uint256"
          },
          {
            "astId": 5058,
            "contract": "contracts/ousg/ousgManager.sol:OUSGManager",
            "label": "priceId",
            "offset": 0,
            "slot": "2",
            "type": "t_uint256"
          }
        ],
        "numberOfBytes": "96"
      },
      "t_struct(Redeemer)5066_storage": {
        "encoding": "inplace",
        "label": "struct IRWAHub.Redeemer",
        "members": [
          {
            "astId": 5061,
            "contract": "contracts/ousg/ousgManager.sol:OUSGManager",
            "label": "user",
            "offset": 0,
            "slot": "0",
            "type": "t_address"
          },
          {
            "astId": 5063,
            "contract": "contracts/ousg/ousgManager.sol:OUSGManager",
            "label": "amountRwaTokenBurned",
            "offset": 0,
            "slot": "1",
            "type": "t_uint256"
          },
          {
            "astId": 5065,
            "contract": "contracts/ousg/ousgManager.sol:OUSGManager",
            "label": "priceId",
            "offset": 0,
            "slot": "2",
            "type": "t_uint256"
          }
        ],
        "numberOfBytes": "96"
      },
      "t_struct(RoleData)2872_storage": {
        "encoding": "inplace",
        "label": "struct AccessControl.RoleData",
        "members": [
          {
            "astId": 2869,
            "contract": "contracts/ousg/ousgManager.sol:OUSGManager",
            "label": "members",
            "offset": 0,
            "slot": "0",
            "type": "t_mapping(t_address,t_bool)"
          },
          {
            "astId": 2871,
            "contract": "contracts/ousg/ousgManager.sol:OUSGManager",
            "label": "adminRole",
            "offset": 0,
            "slot": "1",
            "type": "t_bytes32"
          }
        ],
        "numberOfBytes": "64"
      },
      "t_struct(Set)4103_storage": {
        "encoding": "inplace",
        "label": "struct EnumerableSet.Set",
        "members": [
          {
            "astId": 4098,
            "contract": "contracts/ousg/ousgManager.sol:OUSGManager",
            "label": "_values",
            "offset": 0,
            "slot": "0",
            "type": "t_array(t_bytes32)dyn_storage"
          },
          {
            "astId": 4102,
            "contract": "contracts/ousg/ousgManager.sol:OUSGManager",
            "label": "_indexes",
            "offset": 0,
            "slot": "1",
            "type": "t_mapping(t_bytes32,t_uint256)"
          }
        ],
        "numberOfBytes": "64"
      },
      "t_uint256": {
        "encoding": "inplace",
        "label": "uint256",
        "numberOfBytes": "32"
      }
    }
  }
}