{
  "address": "0x37Cd0ba94F6F1803226463C21f12AAAC032e8352",
  "abi": [
    {
      "inputs": [
        {
          "internalType": "address",
          "name": "owner",
          "type": "address"
        },
        {
          "internalType": "uint256",
          "name": "_startingPrice",
          "type": "uint256"
        }
      ],
      "stateMutability": "nonpayable",
      "type": "constructor"
    },
    {
      "anonymous": false,
      "inputs": [
        {
          "indexed": true,
          "internalType": "address",
          "name": "previousOwner",
          "type": "address"
        },
        {
          "indexed": true,
          "internalType": "address",
          "name": "newOwner",
          "type": "address"
        }
      ],
      "name": "OwnershipTransferred",
      "type": "event"
    },
    {
      "anonymous": false,
      "inputs": [
        {
          "indexed": false,
          "internalType": "int256",
          "name": "oldChainlinkPrice",
          "type": "int256"
        },
        {
          "indexed": true,
          "internalType": "uint80",
          "name": "oldRoundId",
          "type": "uint80"
        },
        {
          "indexed": false,
          "internalType": "int256",
          "name": "newChainlinkPrice",
          "type": "int256"
        },
        {
          "indexed": true,
          "internalType": "uint80",
          "name": "newRoundId",
          "type": "uint80"
        },
        {
          "indexed": false,
          "internalType": "int256",
          "name": "oldRWAPrice",
          "type": "int256"
        },
        {
          "indexed": false,
          "internalType": "int256",
          "name": "newRWAPrice",
          "type": "int256"
        }
      ],
      "name": "RWAExternalComparisonCheckPriceSet",
      "type": "event"
    },
    {
      "inputs": [],
      "name": "getPriceData",
      "outputs": [
        {
          "internalType": "uint256",
          "name": "",
          "type": "uint256"
        },
        {
          "internalType": "uint256",
          "name": "",
          "type": "uint256"
        }
      ],
      "stateMutability": "view",
      "type": "function"
    },
    {
      "inputs": [],
      "name": "owner",
      "outputs": [
        {
          "internalType": "address",
          "name": "",
          "type": "address"
        }
      ],
      "stateMutability": "view",
      "type": "function"
    },
    {
      "inputs": [],
      "name": "price",
      "outputs": [
        {
          "internalType": "uint256",
          "name": "",
          "type": "uint256"
        }
      ],
      "stateMutability": "view",
      "type": "function"
    },
    {
      "inputs": [],
      "name": "renounceOwnership",
      "outputs": [],
      "stateMutability": "nonpayable",
      "type": "function"
    },
    {
      "inputs": [
        {
          "internalType": "uint256",
          "name": "_price",
          "type": "uint256"
        }
      ],
      "name": "setPrice",
      "outputs": [],
      "stateMutability": "nonpayable",
      "type": "function"
    },
    {
      "inputs": [],
      "name": "timestamp",
      "outputs": [
        {
          "internalType": "uint256",
          "name": "",
          "type": "uint256"
        }
      ],
      "stateMutability": "view",
      "type": "function"
    },
    {
      "inputs": [
        {
          "internalType": "address",
          "name": "newOwner",
          "type": "address"
        }
      ],
      "name": "transferOwnership",
      "outputs": [],
      "stateMutability": "nonpayable",
      "type": "function"
    }
  ],
  "transactionHash": "0xc1cf7f05e9d0b48833832da3c5f7ce1830bcfff630440a3b8ed262794cbe10b9",
  "args": [
    "0x3d7a5eDFCDCA0f9FDD066Fb94D306f2b4Cc7DB17",
    "100000000000000000000"
  ],
  "solcInputHash": "55edd8790aa902fc29817753615244cc",
  "bytecode": "0x608060405234801561001057600080fd5b5060405161056538038061056583398101604081905261002f916101bd565b6100383361009d565b610041826100ed565b600181905542600255604080516000808252602082018190529181018290526060810183905281907f3cc2938e8035ab592372e28987d89549a1f8bb703601bc3dbd894f18f5c20a069060800160405180910390a350506101f7565b600080546001600160a01b038381166001600160a01b0319831681178455604051919092169283917f8be0079c531659141344cd1fd0a4f28419497f9722a3daafe3b4186f6b6457e09190a35050565b6000546001600160a01b0316331461014c5760405162461bcd60e51b815260206004820181905260248201527f4f776e61626c653a2063616c6c6572206973206e6f7420746865206f776e657260448201526064015b60405180910390fd5b6001600160a01b0381166101b15760405162461bcd60e51b815260206004820152602660248201527f4f776e61626c653a206e6577206f776e657220697320746865207a65726f206160448201526564647265737360d01b6064820152608401610143565b6101ba8161009d565b50565b600080604083850312156101d057600080fd5b82516001600160a01b03811681146101e757600080fd5b6020939093015192949293505050565b61035f806102066000396000f3fe608060405234801561001057600080fd5b506004361061006d5760003560e01c8063715018a6146100725780638da5cb5b1461007c57806391b7f5ed1461009c578063a035b1fe146100af578063a4a28168146100c6578063b80777ea146100e1578063f2fde38b146100ea575b600080fd5b61007a6100fd565b005b6000546040516001600160a01b0390911681526020015b60405180910390f35b61007a6100aa3660046102ab565b61013c565b6100b860015481565b604051908152602001610093565b60015460025460408051928352602083019190915201610093565b6100b860025481565b61007a6100f83660046102c4565b6101c0565b6000546001600160a01b031633146101305760405162461bcd60e51b8152600401610127906102f4565b60405180910390fd5b61013a600061025b565b565b6000546001600160a01b031633146101665760405162461bcd60e51b8152600401610127906102f4565b6001546040805160008082526020820181905291810192909252606082018390529081907f3cc2938e8035ab592372e28987d89549a1f8bb703601bc3dbd894f18f5c20a069060800160405180910390a360015542600255565b6000546001600160a01b031633146101ea5760405162461bcd60e51b8152600401610127906102f4565b6001600160a01b03811661024f5760405162461bcd60e51b815260206004820152602660248201527f4f776e61626c653a206e6577206f776e657220697320746865207a65726f206160448201526564647265737360d01b6064820152608401610127565b6102588161025b565b50565b600080546001600160a01b038381166001600160a01b0319831681178455604051919092169283917f8be0079c531659141344cd1fd0a4f28419497f9722a3daafe3b4186f6b6457e09190a35050565b6000602082840312156102bd57600080fd5b5035919050565b6000602082840312156102d657600080fd5b81356001600160a01b03811681146102ed57600080fd5b9392505050565b6020808252818101527f4f776e61626c653a2063616c6c6572206973206e6f7420746865206f776e657260408201526060019056fea26469706673582212209a9687ff3a0853eb9413929a38d78119c99708dd0b1a5dd195a3e239217ba52864736f6c63430008100033",
  "devdoc": {
    "kind": "dev",
    "methods": {
      "owner()": {
        "details": "Returns the address of the current owner."
      },
      "renounceOwnership()": {
        "details": "Leaves the contract without owner. It will not be possible to call `onlyOwner` functions anymore. Can only be called by the current owner. NOTE: Renouncing ownership will leave the contract without an owner, thereby removing any functionality that is only available to the owner."
      },
      "transferOwnership(address)": {
        "details": "Transfers ownership of the contract to a new account (`newOwner`). Can only be called by the current owner."
      }
    },
    "version": 1
  },
  "userdoc": {
    "kind": "user",
    "methods": {
      "getPriceData()": {
        "notice": "Retrieve RWA price data"
      }
    },
    "version": 1
  },
  "storageLayout": {
    "storage": [
      {
        "astId": 10707,
        "contract": "contracts/test/RWAOracleTestOnly.sol:RWAOracleTestOnly",
        "label": "_owner",
        "offset": 0,
        "slot": "0",
        "type": "t_address"
      },
      {
        "astId": 21151,
        "contract": "contracts/test/RWAOracleTestOnly.sol:RWAOracleTestOnly",
        "label": "price",
        "offset": 0,
        "slot": "1",
        "type": "t_uint256"
      },
      {
        "astId": 21153,
        "contract": "contracts/test/RWAOracleTestOnly.sol:RWAOracleTestOnly",
        "label": "timestamp",
        "offset": 0,
        "slot": "2",
        "type": "t_uint256"
      }
    ],
    "types": {
      "t_address": {
        "encoding": "inplace",
        "label": "address",
        "numberOfBytes": "20"
      },
      "t_uint256": {
        "encoding": "inplace",
        "label": "uint256",
        "numberOfBytes": "32"
      }
    }
  }
}