{
  "address": "0xF5aEa8EA768D0a0203f3B54c5aA77d74e4C75f9f",
  "abi": [
    {
      "inputs": [
        {
          "internalType": "address",
          "name": "_guardian",
          "type": "address"
        }
      ],
      "stateMutability": "nonpayable",
      "type": "constructor"
    },
    {
      "anonymous": false,
      "inputs": [
        {
          "indexed": false,
          "internalType": "address",
          "name": "proxy",
          "type": "address"
        },
        {
          "indexed": false,
          "internalType": "address",
          "name": "proxyAdmin",
          "type": "address"
        },
        {
          "indexed": false,
          "internalType": "address",
          "name": "implementation",
          "type": "address"
        }
      ],
      "name": "AllowlistDeployed",
      "type": "event"
    },
    {
      "inputs": [],
      "name": "DEFAULT_ADMIN_ROLE",
      "outputs": [
        {
          "internalType": "bytes32",
          "name": "",
          "type": "bytes32"
        }
      ],
      "stateMutability": "view",
      "type": "function"
    },
    {
      "inputs": [],
      "name": "allowlistImplementation",
      "outputs": [
        {
          "internalType": "contract AllowlistUpgradeable",
          "name": "",
          "type": "address"
        }
      ],
      "stateMutability": "view",
      "type": "function"
    },
    {
      "inputs": [],
      "name": "allowlistProxy",
      "outputs": [
        {
          "internalType": "contract AllowlistProxy",
          "name": "",
          "type": "address"
        }
      ],
      "stateMutability": "view",
      "type": "function"
    },
    {
      "inputs": [],
      "name": "allowlistProxyAdmin",
      "outputs": [
        {
          "internalType": "contract ProxyAdmin",
          "name": "",
          "type": "address"
        }
      ],
      "stateMutability": "view",
      "type": "function"
    },
    {
      "inputs": [
        {
          "internalType": "address",
          "name": "admin",
          "type": "address"
        },
        {
          "internalType": "address",
          "name": "setter",
          "type": "address"
        }
      ],
      "name": "deployAllowlist",
      "outputs": [
        {
          "internalType": "address",
          "name": "",
          "type": "address"
        },
        {
          "internalType": "address",
          "name": "",
          "type": "address"
        },
        {
          "internalType": "address",
          "name": "",
          "type": "address"
        }
      ],
      "stateMutability": "nonpayable",
      "type": "function"
    },
    {
      "inputs": [
        {
          "components": [
            {
              "internalType": "address",
              "name": "target",
              "type": "address"
            },
            {
              "internalType": "bytes",
              "name": "data",
              "type": "bytes"
            },
            {
              "internalType": "uint256",
              "name": "value",
              "type": "uint256"
            }
          ],
          "internalType": "struct IMulticall.ExCallData[]",
          "name": "exCallData",
          "type": "tuple[]"
        }
      ],
      "name": "multiexcall",
      "outputs": [
        {
          "internalType": "bytes[]",
          "name": "results",
          "type": "bytes[]"
        }
      ],
      "stateMutability": "payable",
      "type": "function"
    }
  ],
  "transactionHash": "0x3ed00f33eeeb2b092c6bd747bfcc39eb9b92dcb17daf85c31dba34e8030f9008",
  "args": [
    "0x1a694A09494E214a3Be3652e4B343B7B81A73ad7"
  ],
  "solcInputHash": "2bf7682020e60daa8b926519f6d5921d",
  "bytecode": "0x60a060405234801561001057600080fd5b5060405161414938038061414983398101604081905261002f91610040565b6001600160a01b0316608052610070565b60006020828403121561005257600080fd5b81516001600160a01b038116811461006957600080fd5b9392505050565b6080516140a96100a06000396000818161017a01528181610346015281816103b101526104e801526140a96000f3fe6080604052600436106200005c5760003560e01c80631de0f8c8146200006157806369a92bbe14620000a0578063936bffd914620000db5780639b9bc8c81462000101578063a217fddf1462000123578063ffac29311462000149575b600080fd5b3480156200006e57600080fd5b5062000086620000803660046200074a565b6200016b565b604051620000979392919062000788565b60405180910390f35b348015620000ad57600080fd5b50600154620000c2906001600160a01b031681565b6040516001600160a01b03909116815260200162000097565b620000f2620000ec366004620007ab565b620004db565b60405162000097919062000825565b3480156200010e57600080fd5b50600254620000c2906001600160a01b031681565b3480156200013057600080fd5b506200013a600081565b60405190815260200162000097565b3480156200015657600080fd5b50600054620000c2906001600160a01b031681565b60008080336001600160a01b037f00000000000000000000000000000000000000000000000000000000000000001614620001c35760405162461bcd60e51b8152600401620001ba90620008bb565b60405180910390fd5b604051620001d19062000707565b604051809103906000f080158015620001ee573d6000803e3d6000fd5b50600080546001600160a01b0319166001600160a01b03929092169190911790556040516200021d9062000715565b604051809103906000f0801580156200023a573d6000803e3d6000fd5b50600180546001600160a01b0319166001600160a01b039283169081179091556000546040519216916200026e9062000723565b6001600160a01b03928316815291166020820152606060408201819052600090820152608001604051809103906000f080158015620002b1573d6000803e3d6000fd5b50600280546001600160a01b0319166001600160a01b0392831690811790915560405163485cc95560e01b81528783166004820152918616602483015290819063485cc95590604401600060405180830381600087803b1580156200031557600080fd5b505af11580156200032a573d6000803e3d6000fd5b505060015460405163f2fde38b60e01b81526001600160a01b037f000000000000000000000000000000000000000000000000000000000000000081166004830152909116925063f2fde38b9150602401600060405180830381600087803b1580156200039657600080fd5b505af1158015620003ab573d6000803e3d6000fd5b505050507f00000000000000000000000000000000000000000000000000000000000000006001600160a01b0316600160009054906101000a90046001600160a01b03166001600160a01b0316638da5cb5b6040518163ffffffff1660e01b8152600401602060405180830381865afa1580156200042d573d6000803e3d6000fd5b505050506040513d601f19601f8201168201806040525081019062000453919062000905565b6001600160a01b0316146200046c576200046c6200092c565b6001546000546040517f58d435f303c154910a21d0fb12517d4d1cfb25d7e93bca0f784242b9e77ae28092620004b49285926001600160a01b03928316929091169062000788565b60405180910390a160015460005491976001600160a01b0391821697509116945092505050565b6060336001600160a01b037f00000000000000000000000000000000000000000000000000000000000000001614620005285760405162461bcd60e51b8152600401620001ba90620008bb565b8167ffffffffffffffff81111562000544576200054462000942565b6040519080825280602002602001820160405280156200057957816020015b6060815260200190600190039081620005635790505b50905060005b828110156200070057600080858584818110620005a057620005a062000958565b9050602002810190620005b491906200096e565b620005c49060208101906200098f565b6001600160a01b0316868685818110620005e257620005e262000958565b9050602002810190620005f691906200096e565b604001358787868181106200060f576200060f62000958565b90506020028101906200062391906200096e565b62000633906020810190620009af565b6040516200064392919062000a00565b60006040518083038185875af1925050503d806000811462000682576040519150601f19603f3d011682016040523d82523d6000602084013e62000687565b606091505b509150915081620006c95760405162461bcd60e51b815260206004820152600b60248201526a10d85b1b0811985a5b195960aa1b6044820152606401620001ba565b80848481518110620006df57620006df62000958565b6020026020010181905250505080620006f89062000a10565b90506200057f565b5092915050565b611f5b8062000a3983390190565b6107b7806200299483390190565b610f29806200314b83390190565b6001600160a01b03811681146200074757600080fd5b50565b600080604083850312156200075e57600080fd5b82356200076b8162000731565b915060208301356200077d8162000731565b809150509250929050565b6001600160a01b0393841681529183166020830152909116604082015260600190565b60008060208385031215620007bf57600080fd5b823567ffffffffffffffff80821115620007d857600080fd5b818501915085601f830112620007ed57600080fd5b813581811115620007fd57600080fd5b8660208260051b85010111156200081357600080fd5b60209290920196919550909350505050565b6000602080830181845280855180835260408601915060408160051b87010192508387016000805b83811015620008ad57888603603f1901855282518051808852835b8181101562000885578281018a01518982018b0152890162000868565b508781018901849052601f01601f19169096018701955093860193918601916001016200084d565b509398975050505050505050565b6020808252602a908201527f416c6c6f776c697374466163746f72793a20596f7520617265206e6f74207468604082015269329023bab0b93234b0b760b11b606082015260800190565b6000602082840312156200091857600080fd5b8151620009258162000731565b9392505050565b634e487b7160e01b600052600160045260246000fd5b634e487b7160e01b600052604160045260246000fd5b634e487b7160e01b600052603260045260246000fd5b60008235605e198336030181126200098557600080fd5b9190910192915050565b600060208284031215620009a257600080fd5b8135620009258162000731565b6000808335601e19843603018112620009c757600080fd5b83018035915067ffffffffffffffff821115620009e357600080fd5b602001915036819003821315620009f957600080fd5b9250929050565b8183823760009101908152919050565b60006001820162000a3157634e487b7160e01b600052601160045260246000fd5b506001019056fe6080604052600060cb5534801561001557600080fd5b5061001e610023565b6100e3565b600054610100900460ff161561008f5760405162461bcd60e51b815260206004820152602760248201527f496e697469616c697a61626c653a20636f6e747261637420697320696e697469604482015266616c697a696e6760c81b606482015260840160405180910390fd5b60005460ff90811610156100e1576000805460ff191660ff9081179091556040519081527f7f26b83ff96e1f2b6a682f133852f6798a09c465da95921460cefb38474024989060200160405180910390a15b565b611e69806100f26000396000f3fe608060405234801561001057600080fd5b50600436106101635760003560e01c806366e4b702116100ce578063a217fddf11610087578063a217fddf14610324578063babcc5391461032c578063c0aa0e8a1461033f578063ca15c87314610352578063d469d0c214610365578063d499ca5b14610378578063d547741f1461038b57600080fd5b806366e4b702146102a057806387a20680146102b55780639010d07c146102be57806390d63fa3146102e957806391d14854146102fc57806392ecf5771461030f57600080fd5b8063283762031161012057806328376203146102115780632c5783b1146102245780632f2ff15d1461023957806336568abe1461024c57806346db089d1461025f578063485cc9551461028d57600080fd5b806301ffc9a71461016857806302ffc7641461019057806308f419f4146101a5578063209b9833146101b8578063248a9ca3146101cd578063251e831b146101fe575b600080fd5b61017b610176366004611734565b61039e565b60405190151581526020015b60405180910390f35b6101a361019e36600461177a565b6103c9565b005b6101a36101b33660046117bf565b610438565b6101c06104b9565b6040516101879190611813565b6101f06101db3660046117bf565b60009081526065602052604090206001015490565b604051908152602001610187565b6101f061020c3660046117bf565b610511565b6101a361021f366004611826565b610532565b6101f0600080516020611df483398151915281565b6101a361024736600461187c565b610707565b6101a361025a36600461187c565b610731565b61017b61026d3660046118a8565b60c960209081526000928352604080842090915290825290205460ff1681565b6101a361029b3660046118d2565b6107b4565b6101f0600080516020611e1483398151915281565b6101f060cb5481565b6102d16102cc3660046118fc565b6108f1565b6040516001600160a01b039091168152602001610187565b6101a36102f73660046117bf565b610910565b61017b61030a36600461187c565b610988565b6103176109b3565b6040516101879190611942565b6101f0600081565b61017b61033a366004611975565b610a59565b61031761034d3660046117bf565b610af8565b6101f06103603660046117bf565b610ba4565b6101a3610373366004611990565b610bbb565b6101a3610386366004611a05565b610cd1565b6101a361039936600461187c565b610d98565b60006001600160e01b03198216635a05180f60e01b14806103c357506103c382610dbd565b92915050565b600080516020611e148339815191526103e181610df2565b6103ec848484610dff565b82846001600160a01b03167f8790cc6238d5595e48c16f8ab0f7bb594de43f92c9cededbc73f1043a5a195378460405161042a911515815260200190565b60405180910390a350505050565b600080516020611df483398151915261045081610df2565b60ca54821061047257604051636c8c0e7160e11b815260040160405180910390fd5b60cb80549083905560408051828152602081018590527f5e8daff369d4fc100bb21041db28b9959d722325e8e96d67f62cacf7430fcaa591015b60405180910390a1505050565b606060cc80548060200260200160405190810160405280929190818152602001828054801561050757602002820191906000526020600020905b8154815260200190600101908083116104f3575b5050505050905090565b60cc818154811061052157600080fd5b600091825260209091200154905081565b6001600160a01b038416600090815260c96020908152604080832088845290915290205460ff161561057757604051630231faf760e31b815260040160405180910390fd5b8260ff16601b1415801561058f57508260ff16601c14155b156105ad57604051632aea050d60e21b815260040160405180910390fd5b600061065d60ca87815481106105c5576105c5611a65565b9060005260206000200180546105da90611a7b565b80601f016020809104026020016040519081016040528092919081815260200182805461060690611a7b565b80156106535780601f1061062857610100808354040283529160200191610653565b820191906000526020600020905b81548152906001019060200180831161063657829003601f168201915b5050505050610e8c565b9050600061066d82868686610ec7565b9050856001600160a01b0316816001600160a01b0316146106a157604051632057875960e21b815260040160405180910390fd5b6106ad86886001610dff565b6040805160ff871681526020810186905290810184905287906001600160a01b038816907ff9e85d67fd10c2dd0202c1221003448f346b28afbeb3bcbcc4544ed032c049179060600160405180910390a350505050505050565b60008281526065602052604090206001015461072281610df2565b61072c8383610eef565b505050565b6001600160a01b03811633146107a65760405162461bcd60e51b815260206004820152602f60248201527f416363657373436f6e74726f6c3a2063616e206f6e6c792072656e6f756e636560448201526e103937b632b9903337b91039b2b63360891b60648201526084015b60405180910390fd5b6107b08282610f11565b5050565b600054610100900460ff16158080156107d45750600054600160ff909116105b806107ee5750303b1580156107ee575060005460ff166001145b6108515760405162461bcd60e51b815260206004820152602e60248201527f496e697469616c697a61626c653a20636f6e747261637420697320616c72656160448201526d191e481a5b9a5d1a585b1a5e995960921b606482015260840161079d565b6000805460ff191660011790558015610874576000805461ff0019166101001790555b61087f600084610eef565b610897600080516020611df483398151915284610eef565b6108af600080516020611e1483398151915283610eef565b801561072c576000805461ff0019169055604051600181527f7f26b83ff96e1f2b6a682f133852f6798a09c465da95921460cefb3847402498906020016104ac565b60008281526097602052604081206109099083610f33565b9392505050565b33600090815260c96020908152604080832084845290915290205460ff161561094c57604051630231faf760e31b815260040160405180910390fd5b61095833826001610dff565b604051819033907f79abfa347949186dd2aab9e10622b23704ef7646387bfe22bf6a43b1de16fb3990600090a350565b60009182526065602090815260408084206001600160a01b0393909316845291905290205460ff1690565b606060ca60cb54815481106109ca576109ca611a65565b9060005260206000200180546109df90611a7b565b80601f0160208091040260200160405190810160405280929190818152602001828054610a0b90611a7b565b80156105075780601f10610a2d57610100808354040283529160200191610507565b820191906000526020600020905b815481529060010190602001808311610a3b57509395945050505050565b60006001600160a01b0382163b15610a7357506001919050565b60cc5460005b81811015610aee576001600160a01b038416600090815260c96020526040812060cc805491929184908110610ab057610ab0611a65565b6000918252602080832090910154835282019290925260400190205460ff1615610ade575060019392505050565b610ae781611acb565b9050610a79565b5060009392505050565b60ca8181548110610b0857600080fd5b906000526020600020016000915090508054610b2390611a7b565b80601f0160208091040260200160405190810160405280929190818152602001828054610b4f90611a7b565b8015610b9c5780601f10610b7157610100808354040283529160200191610b9c565b820191906000526020600020905b815481529060010190602001808311610b7f57829003601f168201915b505050505081565b60008181526097602052604081206103c390610f3f565b600080516020611df4833981519152610bd381610df2565b60005b82811015610c285760ca54848483818110610bf357610bf3611a65565b9050602002013510610c1857604051636c8c0e7160e11b815260040160405180910390fd5b610c2181611acb565b9050610bd6565b50600060cc805480602002602001604051908101604052809291908181526020018280548015610c7757602002820191906000526020600020905b815481526020019060010190808311610c63575b50505050509050838360cc9190610c8f9291906116d4565b507f7a08cd4d8076e08d23c6543b0d17e2be01826237b85801f5217e43142d67b40b818585604051610cc393929190611ae4565b60405180910390a150505050565b600080516020611df4833981519152610ce981610df2565b60ca80546001810182556000919091527f42d72674974f694b5f5159593243114d38a5c39c89d6b62fee061ff523240ee101610d26838583611b92565b5060ca54610d3a906101b390600190611c53565b7fc51edb2a65671d8f55ac76a92007ffc21abbc32897ddc88fa4a3a4c4ed9607338383604051610d6b929190611c66565b60405190819003902060ca54610d8390600190611c53565b604080519283526020830191909152016104ac565b600082815260656020526040902060010154610db381610df2565b61072c8383610f11565b60006001600160e01b03198216637965db0b60e01b14806103c357506301ffc9a760e01b6001600160e01b03198316146103c3565b610dfc8133610f49565b50565b60ca548210610e2157604051636c8c0e7160e11b815260040160405180910390fd5b6001600160a01b038316600081815260c960209081526040808320868452825291829020805460ff191685151590811790915591519182528492917f66760e9ee1f8138c12bebf3adf6fae271560cf0f4e42ce31350bb4a5b7a8b462910160405180910390a3505050565b6000610e988251610fad565b82604051602001610eaa929190611c76565b604051602081830303815290604052805190602001209050919050565b6000806000610ed8878787876110b6565b91509150610ee581611170565b5095945050505050565b610ef982826112b5565b600082815260976020526040902061072c908261133b565b610f1b8282611350565b600082815260976020526040902061072c90826113b7565b600061090983836113cc565b60006103c3825490565b610f538282610988565b6107b057610f6b816001600160a01b031660146113f6565b610f768360206113f6565b604051602001610f87929190611cd1565b60408051601f198184030181529082905262461bcd60e51b825261079d91600401611942565b606081600003610fd45750506040805180820190915260018152600360fc1b602082015290565b8160005b8115610ffe5780610fe881611acb565b9150610ff79050600a83611d56565b9150610fd8565b60008167ffffffffffffffff81111561101957611019611b2e565b6040519080825280601f01601f191660200182016040528015611043576020820181803683370190505b5090505b84156110ae57611058600183611c53565b9150611065600a86611d6a565b611070906030611d7e565b60f81b81838151811061108557611085611a65565b60200101906001600160f81b031916908160001a9053506110a7600a86611d56565b9450611047565b949350505050565b6000806fa2a8918ca85bafe22016d0b997e4df60600160ff1b038311156110e35750600090506003611167565b6040805160008082526020820180845289905260ff881692820192909252606081018690526080810185905260019060a0016020604051602081039080840390855afa158015611137573d6000803e3d6000fd5b5050604051601f1901519150506001600160a01b03811661116057600060019250925050611167565b9150600090505b94509492505050565b600081600481111561118457611184611d91565b0361118c5750565b60018160048111156111a0576111a0611d91565b036111e85760405162461bcd60e51b815260206004820152601860248201527745434453413a20696e76616c6964207369676e617475726560401b604482015260640161079d565b60028160048111156111fc576111fc611d91565b036112495760405162461bcd60e51b815260206004820152601f60248201527f45434453413a20696e76616c6964207369676e6174757265206c656e67746800604482015260640161079d565b600381600481111561125d5761125d611d91565b03610dfc5760405162461bcd60e51b815260206004820152602260248201527f45434453413a20696e76616c6964207369676e6174757265202773272076616c604482015261756560f01b606482015260840161079d565b6112bf8282610988565b6107b05760008281526065602090815260408083206001600160a01b03851684529091529020805460ff191660011790556112f73390565b6001600160a01b0316816001600160a01b0316837f2f8788117e7eff1d82e926ec794901d17c78024a50270940304540a733656f0d60405160405180910390a45050565b6000610909836001600160a01b038416611592565b61135a8282610988565b156107b05760008281526065602090815260408083206001600160a01b0385168085529252808320805460ff1916905551339285917ff6391f5c32d9c69d2a47ea670b442974b53935d1edc7fd64eb21e047a839171b9190a45050565b6000610909836001600160a01b0384166115e1565b60008260000182815481106113e3576113e3611a65565b9060005260206000200154905092915050565b60606000611405836002611da7565b611410906002611d7e565b67ffffffffffffffff81111561142857611428611b2e565b6040519080825280601f01601f191660200182016040528015611452576020820181803683370190505b509050600360fc1b8160008151811061146d5761146d611a65565b60200101906001600160f81b031916908160001a905350600f60fb1b8160018151811061149c5761149c611a65565b60200101906001600160f81b031916908160001a90535060006114c0846002611da7565b6114cb906001611d7e565b90505b6001811115611543576f181899199a1a9b1b9c1cb0b131b232b360811b85600f16601081106114ff576114ff611a65565b1a60f81b82828151811061151557611515611a65565b60200101906001600160f81b031916908160001a90535060049490941c9361153c81611dc6565b90506114ce565b5083156109095760405162461bcd60e51b815260206004820181905260248201527f537472696e67733a20686578206c656e67746820696e73756666696369656e74604482015260640161079d565b60008181526001830160205260408120546115d9575081546001818101845560008481526020808220909301849055845484825282860190935260409020919091556103c3565b5060006103c3565b600081815260018301602052604081205480156116ca576000611605600183611c53565b855490915060009061161990600190611c53565b905081811461167e57600086600001828154811061163957611639611a65565b906000526020600020015490508087600001848154811061165c5761165c611a65565b6000918252602080832090910192909255918252600188019052604090208390555b855486908061168f5761168f611ddd565b6001900381819060005260206000200160009055905585600101600086815260200190815260200160002060009055600193505050506103c3565b60009150506103c3565b82805482825590600052602060002090810192821561170f579160200282015b8281111561170f5782358255916020019190600101906116f4565b5061171b92915061171f565b5090565b5b8082111561171b5760008155600101611720565b60006020828403121561174657600080fd5b81356001600160e01b03198116811461090957600080fd5b80356001600160a01b038116811461177557600080fd5b919050565b60008060006060848603121561178f57600080fd5b6117988461175e565b925060208401359150604084013580151581146117b457600080fd5b809150509250925092565b6000602082840312156117d157600080fd5b5035919050565b600081518084526020808501945080840160005b83811015611808578151875295820195908201906001016117ec565b509495945050505050565b60208152600061090960208301846117d8565b600080600080600060a0868803121561183e57600080fd5b8535945061184e6020870161175e565b9350604086013560ff8116811461186457600080fd5b94979396509394606081013594506080013592915050565b6000806040838503121561188f57600080fd5b8235915061189f6020840161175e565b90509250929050565b600080604083850312156118bb57600080fd5b6118c48361175e565b946020939093013593505050565b600080604083850312156118e557600080fd5b6118ee8361175e565b915061189f6020840161175e565b6000806040838503121561190f57600080fd5b50508035926020909101359150565b60005b83811015611939578181015183820152602001611921565b50506000910152565b602081526000825180602084015261196181604085016020870161191e565b601f01601f19169190910160400192915050565b60006020828403121561198757600080fd5b6109098261175e565b600080602083850312156119a357600080fd5b823567ffffffffffffffff808211156119bb57600080fd5b818501915085601f8301126119cf57600080fd5b8135818111156119de57600080fd5b8660208260051b85010111156119f357600080fd5b60209290920196919550909350505050565b60008060208385031215611a1857600080fd5b823567ffffffffffffffff80821115611a3057600080fd5b818501915085601f830112611a4457600080fd5b813581811115611a5357600080fd5b8660208285010111156119f357600080fd5b634e487b7160e01b600052603260045260246000fd5b600181811c90821680611a8f57607f821691505b602082108103611aaf57634e487b7160e01b600052602260045260246000fd5b50919050565b634e487b7160e01b600052601160045260246000fd5b600060018201611add57611add611ab5565b5060010190565b604081526000611af760408301866117d8565b82810360208401528381526001600160fb1b03841115611b1657600080fd5b8360051b808660208401370160200195945050505050565b634e487b7160e01b600052604160045260246000fd5b601f82111561072c57600081815260208120601f850160051c81016020861015611b6b5750805b601f850160051c820191505b81811015611b8a57828155600101611b77565b505050505050565b67ffffffffffffffff831115611baa57611baa611b2e565b611bbe83611bb88354611a7b565b83611b44565b6000601f841160018114611bf25760008515611bda5750838201355b600019600387901b1c1916600186901b178355611c4c565b600083815260209020601f19861690835b82811015611c235786850135825560209485019460019092019101611c03565b5086821015611c405760001960f88860031b161c19848701351681555b505060018560011b0183555b5050505050565b818103818111156103c3576103c3611ab5565b8183823760009101908152919050565b7f19457468657265756d205369676e6564204d6573736167653a0a000000000000815260008351611cae81601a85016020880161191e565b835190830190611cc581601a84016020880161191e565b01601a01949350505050565b76020b1b1b2b9b9a1b7b73a3937b61d1030b1b1b7bab73a1604d1b815260008351611d0381601785016020880161191e565b7001034b99036b4b9b9b4b733903937b6329607d1b6017918401918201528351611d3481602884016020880161191e565b01602801949350505050565b634e487b7160e01b600052601260045260246000fd5b600082611d6557611d65611d40565b500490565b600082611d7957611d79611d40565b500690565b808201808211156103c3576103c3611ab5565b634e487b7160e01b600052602160045260246000fd5b6000816000190483118215151615611dc157611dc1611ab5565b500290565b600081611dd557611dd5611ab5565b506000190190565b634e487b7160e01b600052603160045260246000fdfe0d5ac11ce98a7539557343d2c66c127dd8d0e8fb181c5ec16cb674ddf827d1090c24059e922be4fa5a047081cbfa54efdf798eaf1522ed3f9b731a560ea8e28aa26469706673582212208f13422f32bf577b142f3fc4a3ac35c92d7745725ab6f2c5377795fbd8cf4a2f64736f6c63430008100033608060405234801561001057600080fd5b5061001a3361001f565b61006f565b600080546001600160a01b038381166001600160a01b0319831681178455604051919092169283917f8be0079c531659141344cd1fd0a4f28419497f9722a3daafe3b4186f6b6457e09190a35050565b6107398061007e6000396000f3fe60806040526004361061006b5760003560e01c8063204e1c7a14610070578063715018a6146100a65780637eff275e146100bd5780638da5cb5b146100dd5780639623609d146100f257806399a88ec414610105578063f2fde38b14610125578063f3b7dead14610145575b600080fd5b34801561007c57600080fd5b5061009061008b3660046104f6565b610165565b60405161009d919061051a565b60405180910390f35b3480156100b257600080fd5b506100bb6101f6565b005b3480156100c957600080fd5b506100bb6100d836600461052e565b61023a565b3480156100e957600080fd5b506100906102cb565b6100bb61010036600461057d565b6102da565b34801561011157600080fd5b506100bb61012036600461052e565b610370565b34801561013157600080fd5b506100bb6101403660046104f6565b6103cb565b34801561015157600080fd5b506100906101603660046104f6565b61046b565b6000806000836001600160a01b031660405161018b90635c60da1b60e01b815260040190565b600060405180830381855afa9150503d80600081146101c6576040519150601f19603f3d011682016040523d82523d6000602084013e6101cb565b606091505b5091509150816101da57600080fd5b808060200190518101906101ee9190610653565b949350505050565b336101ff6102cb565b6001600160a01b03161461022e5760405162461bcd60e51b815260040161022590610670565b60405180910390fd5b6102386000610491565b565b336102436102cb565b6001600160a01b0316146102695760405162461bcd60e51b815260040161022590610670565b6040516308f2839760e41b81526001600160a01b03831690638f2839709061029590849060040161051a565b600060405180830381600087803b1580156102af57600080fd5b505af11580156102c3573d6000803e3d6000fd5b505050505050565b6000546001600160a01b031690565b336102e36102cb565b6001600160a01b0316146103095760405162461bcd60e51b815260040161022590610670565b60405163278f794360e11b81526001600160a01b03841690634f1ef28690349061033990869086906004016106a5565b6000604051808303818588803b15801561035257600080fd5b505af1158015610366573d6000803e3d6000fd5b5050505050505050565b336103796102cb565b6001600160a01b03161461039f5760405162461bcd60e51b815260040161022590610670565b604051631b2ce7f360e11b81526001600160a01b03831690633659cfe69061029590849060040161051a565b336103d46102cb565b6001600160a01b0316146103fa5760405162461bcd60e51b815260040161022590610670565b6001600160a01b03811661045f5760405162461bcd60e51b815260206004820152602660248201527f4f776e61626c653a206e6577206f776e657220697320746865207a65726f206160448201526564647265737360d01b6064820152608401610225565b61046881610491565b50565b6000806000836001600160a01b031660405161018b906303e1469160e61b815260040190565b600080546001600160a01b038381166001600160a01b0319831681178455604051919092169283917f8be0079c531659141344cd1fd0a4f28419497f9722a3daafe3b4186f6b6457e09190a35050565b6001600160a01b038116811461046857600080fd5b60006020828403121561050857600080fd5b8135610513816104e1565b9392505050565b6001600160a01b0391909116815260200190565b6000806040838503121561054157600080fd5b823561054c816104e1565b9150602083013561055c816104e1565b809150509250929050565b634e487b7160e01b600052604160045260246000fd5b60008060006060848603121561059257600080fd5b833561059d816104e1565b925060208401356105ad816104e1565b9150604084013567ffffffffffffffff808211156105ca57600080fd5b818601915086601f8301126105de57600080fd5b8135818111156105f0576105f0610567565b604051601f8201601f19908116603f0116810190838211818310171561061857610618610567565b8160405282815289602084870101111561063157600080fd5b8260208601602083013760006020848301015280955050505050509250925092565b60006020828403121561066557600080fd5b8151610513816104e1565b6020808252818101527f4f776e61626c653a2063616c6c6572206973206e6f7420746865206f776e6572604082015260600190565b60018060a01b038316815260006020604081840152835180604085015260005b818110156106e1578581018301518582016060015282016106c5565b506000606082860101526060601f19601f83011685010192505050939250505056fea2646970667358221220e4431c0c42c818f97f8582430738c79e6584ed94b888442b706f43993cb3ee9464736f6c6343000810003360806040523480156200001157600080fd5b5060405162000f2938038062000f29833981016040819052620000349162000528565b82828282816200006660017f360894a13ba1a3210667c828492db98dca3e2076cc3735a920a3ca505d382bbd62000608565b60008051602062000ee2833981519152146200008657620000866200062a565b6200009482826000620000fb565b50620000c4905060017fb53127684a568b3173ae13b9f8a6016e243e63b6e8ee1178d6a717850b5d610462000608565b60008051602062000ec283398151915214620000e457620000e46200062a565b620000ef8262000138565b50505050505062000693565b620001068362000193565b600082511180620001145750805b156200013357620001318383620001d560201b6200022e1760201c565b505b505050565b7f7e644d79422f17c01e4894b5f4f588d331ebfa28653d42ae832dc59e38c9798f6200016362000206565b604080516001600160a01b03928316815291841660208301520160405180910390a162000190816200023f565b50565b6200019e81620002f4565b6040516001600160a01b038216907fbc7cd75a20ee27fd9adebab32041f755214dbc6bffa90cc0225b39da2e5c2d3b90600090a250565b6060620001fd838360405180606001604052806027815260200162000f026027913962000397565b90505b92915050565b60006200023060008051602062000ec283398151915260001b6200047f60201b620001ea1760201c565b546001600160a01b0316919050565b6001600160a01b038116620002aa5760405162461bcd60e51b815260206004820152602660248201527f455243313936373a206e65772061646d696e20697320746865207a65726f206160448201526564647265737360d01b60648201526084015b60405180910390fd5b80620002d360008051602062000ec283398151915260001b6200047f60201b620001ea1760201c565b80546001600160a01b0319166001600160a01b039290921691909117905550565b6200030a816200048260201b6200025a1760201c565b6200036e5760405162461bcd60e51b815260206004820152602d60248201527f455243313936373a206e657720696d706c656d656e746174696f6e206973206e60448201526c1bdd08184818dbdb9d1c9858dd609a1b6064820152608401620002a1565b80620002d360008051602062000ee283398151915260001b6200047f60201b620001ea1760201c565b60606001600160a01b0384163b620004015760405162461bcd60e51b815260206004820152602660248201527f416464726573733a2064656c65676174652063616c6c20746f206e6f6e2d636f6044820152651b9d1c9858dd60d21b6064820152608401620002a1565b600080856001600160a01b0316856040516200041e919062000640565b600060405180830381855af49150503d80600081146200045b576040519150601f19603f3d011682016040523d82523d6000602084013e62000460565b606091505b5090925090506200047382828662000491565b925050505b9392505050565b90565b6001600160a01b03163b151590565b60608315620004a257508162000478565b825115620004b35782518084602001fd5b8160405162461bcd60e51b8152600401620002a191906200065e565b80516001600160a01b0381168114620004e757600080fd5b919050565b634e487b7160e01b600052604160045260246000fd5b60005b838110156200051f57818101518382015260200162000505565b50506000910152565b6000806000606084860312156200053e57600080fd5b6200054984620004cf565b92506200055960208501620004cf565b60408501519092506001600160401b03808211156200057757600080fd5b818601915086601f8301126200058c57600080fd5b815181811115620005a157620005a1620004ec565b604051601f8201601f19908116603f01168101908382118183101715620005cc57620005cc620004ec565b81604052828152896020848701011115620005e657600080fd5b620005f983602083016020880162000502565b80955050505050509250925092565b818103818111156200020057634e487b7160e01b600052601160045260246000fd5b634e487b7160e01b600052600160045260246000fd5b600082516200065481846020870162000502565b9190910192915050565b60208152600082518060208401526200067f81604085016020870162000502565b601f01601f19169190910160400192915050565b61081f80620006a36000396000f3fe60806040526004361061004e5760003560e01c80633659cfe6146100655780634f1ef286146100855780635c60da1b146100985780638f283970146100c9578063f851a440146100e95761005d565b3661005d5761005b6100fe565b005b61005b6100fe565b34801561007157600080fd5b5061005b6100803660046106b1565b610118565b61005b6100933660046106cc565b610155565b3480156100a457600080fd5b506100ad6101bc565b6040516001600160a01b03909116815260200160405180910390f35b3480156100d557600080fd5b5061005b6100e43660046106b1565b6101ed565b3480156100f557600080fd5b506100ad61020d565b610106610269565b6101166101116102fe565b610308565b565b61012061032c565b6001600160a01b0316330361014d5761014a8160405180602001604052806000815250600061035f565b50565b61014a6100fe565b61015d61032c565b6001600160a01b031633036101b4576101af8383838080601f0160208091040260200160405190810160405280939291908181526020018383808284376000920191909152506001925061035f915050565b505050565b6101af6100fe565b60006101c661032c565b6001600160a01b031633036101e2576101dd6102fe565b905090565b6101ea6100fe565b90565b6101f561032c565b6001600160a01b0316330361014d5761014a8161038a565b600061021761032c565b6001600160a01b031633036101e2576101dd61032c565b606061025383836040518060600160405280602781526020016107c3602791396103de565b9392505050565b6001600160a01b03163b151590565b61027161032c565b6001600160a01b031633036101165760405162461bcd60e51b815260206004820152604260248201527f5472616e73706172656e745570677261646561626c6550726f78793a2061646d60448201527f696e2063616e6e6f742066616c6c6261636b20746f2070726f78792074617267606482015261195d60f21b608482015260a4015b60405180910390fd5b60006101dd6104b9565b3660008037600080366000845af43d6000803e808015610327573d6000f35b3d6000fd5b60007fb53127684a568b3173ae13b9f8a6016e243e63b6e8ee1178d6a717850b5d61035b546001600160a01b0316919050565b610368836104e1565b6000825111806103755750805b156101af57610384838361022e565b50505050565b7f7e644d79422f17c01e4894b5f4f588d331ebfa28653d42ae832dc59e38c9798f6103b361032c565b604080516001600160a01b03928316815291841660208301520160405180910390a161014a81610521565b60606103e98461025a565b6104445760405162461bcd60e51b815260206004820152602660248201527f416464726573733a2064656c65676174652063616c6c20746f206e6f6e2d636f6044820152651b9d1c9858dd60d21b60648201526084016102f5565b600080856001600160a01b03168560405161045f9190610773565b600060405180830381855af49150503d806000811461049a576040519150601f19603f3d011682016040523d82523d6000602084013e61049f565b606091505b50915091506104af8282866105ca565b9695505050505050565b60007f360894a13ba1a3210667c828492db98dca3e2076cc3735a920a3ca505d382bbc610350565b6104ea81610603565b6040516001600160a01b038216907fbc7cd75a20ee27fd9adebab32041f755214dbc6bffa90cc0225b39da2e5c2d3b90600090a250565b6001600160a01b0381166105865760405162461bcd60e51b815260206004820152602660248201527f455243313936373a206e65772061646d696e20697320746865207a65726f206160448201526564647265737360d01b60648201526084016102f5565b807fb53127684a568b3173ae13b9f8a6016e243e63b6e8ee1178d6a717850b5d61035b80546001600160a01b0319166001600160a01b039290921691909117905550565b606083156105d9575081610253565b8251156105e95782518084602001fd5b8160405162461bcd60e51b81526004016102f5919061078f565b61060c8161025a565b61066e5760405162461bcd60e51b815260206004820152602d60248201527f455243313936373a206e657720696d706c656d656e746174696f6e206973206e60448201526c1bdd08184818dbdb9d1c9858dd609a1b60648201526084016102f5565b807f360894a13ba1a3210667c828492db98dca3e2076cc3735a920a3ca505d382bbc6105a9565b80356001600160a01b03811681146106ac57600080fd5b919050565b6000602082840312156106c357600080fd5b61025382610695565b6000806000604084860312156106e157600080fd5b6106ea84610695565b9250602084013567ffffffffffffffff8082111561070757600080fd5b818601915086601f83011261071b57600080fd5b81358181111561072a57600080fd5b87602082850101111561073c57600080fd5b6020830194508093505050509250925092565b60005b8381101561076a578181015183820152602001610752565b50506000910152565b6000825161078581846020870161074f565b9190910192915050565b60208152600082518060208401526107ae81604085016020870161074f565b601f01601f1916919091016040019291505056fe416464726573733a206c6f772d6c6576656c2064656c65676174652063616c6c206661696c6564a2646970667358221220028b41dfee3a10dca5108455098960931c2a1cde288d107fea17b6ed00d9d81b64736f6c63430008100033b53127684a568b3173ae13b9f8a6016e243e63b6e8ee1178d6a717850b5d6103360894a13ba1a3210667c828492db98dca3e2076cc3735a920a3ca505d382bbc416464726573733a206c6f772d6c6576656c2064656c65676174652063616c6c206661696c6564a264697066735822122050874092692eaca7e78095af7fc2efaef8a0f9ed3ba9617085f4fe38e376f4e264736f6c63430008100033",
  "devdoc": {
    "author": "Ondo Finance",
    "events": {
      "AllowlistDeployed(address,address,address)": {
        "details": "Event emitted when upgradable AllowlistUpgradeable is deployed",
        "params": {
          "implementation": "The address for the implementation contract",
          "proxy": "The address for the proxy contract",
          "proxyAdmin": "The address for the proxy admin contract"
        }
      }
    },
    "kind": "dev",
    "methods": {
      "deployAllowlist(address,address)": {
        "details": "This function will deploy an upgradable instance of AllowlistUpgradeable",
        "params": {
          "admin": "The admin account for the AllowlistUpgradeable contract.",
          "setter": "The setter account for the AllowlistUpgradeable contract."
        },
        "returns": {
          "_0": "address The address of the proxy contract.",
          "_1": "address The address of the proxyAdmin contract.",
          "_2": "address The address of the implementation contract."
        }
      },
      "multiexcall((address,bytes,uint256)[])": {
        "details": "All external calls made through this function will      msg.sender == contract address",
        "params": {
          "exCallData": "Struct consisting of       1) target - contract to call       2) data - data to call target with       3) value - eth value to call target with"
        }
      }
    },
    "title": "AllowlistFactory",
    "version": 1
  },
  "userdoc": {
    "kind": "user",
    "methods": {
      "multiexcall((address,bytes,uint256)[])": {
        "notice": "Allows for arbitrary batched calls"
      }
    },
    "notice": "This contract serves as a Factory for the upgradable AllowlistUpgradeable contract.         Upon calling `deployAllowlist` the `guardian` address (set in constructor) will         deploy the following:         1) AllowlistUpgradeable - The implementation contract.         2) ProxyAdmin - OZ ProxyAdmin contract, used to upgrade the proxy instance.Owner is set to `guardian` address.         3) TransparentUpgradeableProxy - OZ, proxy contract. Admin is set to `address(proxyAdmin)`.                                          `_logic' is set to `address(cash)`.`guardian` address in constructor is a msig.",
    "version": 1
  },
  "storageLayout": {
    "storage": [
      {
        "astId": 19189,
        "contract": "contracts/usdy/allowlist/AllowlistFactory.sol:AllowlistFactory",
        "label": "allowlistImplementation",
        "offset": 0,
        "slot": "0",
        "type": "t_contract(AllowlistUpgradeable)19867"
      },
      {
        "astId": 19192,
        "contract": "contracts/usdy/allowlist/AllowlistFactory.sol:AllowlistFactory",
        "label": "allowlistProxyAdmin",
        "offset": 0,
        "slot": "1",
        "type": "t_contract(ProxyAdmin)9575"
      },
      {
        "astId": 19195,
        "contract": "contracts/usdy/allowlist/AllowlistFactory.sol:AllowlistFactory",
        "label": "allowlistProxy",
        "offset": 0,
        "slot": "2",
        "type": "t_contract(AllowlistProxy)19426"
      }
    ],
    "types": {
      "t_contract(AllowlistProxy)19426": {
        "encoding": "inplace",
        "label": "contract AllowlistProxy",
        "numberOfBytes": "20"
      },
      "t_contract(AllowlistUpgradeable)19867": {
        "encoding": "inplace",
        "label": "contract AllowlistUpgradeable",
        "numberOfBytes": "20"
      },
      "t_contract(ProxyAdmin)9575": {
        "encoding": "inplace",
        "label": "contract ProxyAdmin",
        "numberOfBytes": "20"
      }
    }
  }
}