{
  "address": "0x13300511f43768a30bb2bf10b63B6d502D1F7FE5",
  "abi": [
    {
      "inputs": [],
      "stateMutability": "nonpayable",
      "type": "constructor"
    },
    {
      "inputs": [],
      "name": "AlreadyVerified",
      "type": "error"
    },
    {
      "inputs": [],
      "name": "InvalidSigner",
      "type": "error"
    },
    {
      "inputs": [],
      "name": "InvalidTermIndex",
      "type": "error"
    },
    {
      "inputs": [],
      "name": "InvalidVSignature",
      "type": "error"
    },
    {
      "anonymous": false,
      "inputs": [
        {
          "indexed": true,
          "internalType": "address",
          "name": "account",
          "type": "address"
        },
        {
          "indexed": true,
          "internalType": "uint256",
          "name": "termIndex",
          "type": "uint256"
        },
        {
          "indexed": false,
          "internalType": "uint8",
          "name": "v",
          "type": "uint8"
        },
        {
          "indexed": false,
          "internalType": "bytes32",
          "name": "r",
          "type": "bytes32"
        },
        {
          "indexed": false,
          "internalType": "bytes32",
          "name": "s",
          "type": "bytes32"
        }
      ],
      "name": "AccountAddedFromSignature",
      "type": "event"
    },
    {
      "anonymous": false,
      "inputs": [
        {
          "indexed": true,
          "internalType": "address",
          "name": "account",
          "type": "address"
        },
        {
          "indexed": true,
          "internalType": "uint256",
          "name": "termIndex",
          "type": "uint256"
        }
      ],
      "name": "AccountAddedSelf",
      "type": "event"
    },
    {
      "anonymous": false,
      "inputs": [
        {
          "indexed": true,
          "internalType": "address",
          "name": "account",
          "type": "address"
        },
        {
          "indexed": true,
          "internalType": "uint256",
          "name": "termIndex",
          "type": "uint256"
        },
        {
          "indexed": false,
          "internalType": "bool",
          "name": "status",
          "type": "bool"
        }
      ],
      "name": "AccountStatusSet",
      "type": "event"
    },
    {
      "anonymous": false,
      "inputs": [
        {
          "indexed": true,
          "internalType": "address",
          "name": "account",
          "type": "address"
        },
        {
          "indexed": true,
          "internalType": "uint256",
          "name": "termIndex",
          "type": "uint256"
        },
        {
          "indexed": false,
          "internalType": "bool",
          "name": "status",
          "type": "bool"
        }
      ],
      "name": "AccountStatusSetByAdmin",
      "type": "event"
    },
    {
      "anonymous": false,
      "inputs": [
        {
          "indexed": false,
          "internalType": "uint256",
          "name": "oldIndex",
          "type": "uint256"
        },
        {
          "indexed": false,
          "internalType": "uint256",
          "name": "newIndex",
          "type": "uint256"
        }
      ],
      "name": "CurrentTermIndexSet",
      "type": "event"
    },
    {
      "anonymous": false,
      "inputs": [
        {
          "indexed": false,
          "internalType": "uint8",
          "name": "version",
          "type": "uint8"
        }
      ],
      "name": "Initialized",
      "type": "event"
    },
    {
      "anonymous": false,
      "inputs": [
        {
          "indexed": true,
          "internalType": "bytes32",
          "name": "role",
          "type": "bytes32"
        },
        {
          "indexed": true,
          "internalType": "bytes32",
          "name": "previousAdminRole",
          "type": "bytes32"
        },
        {
          "indexed": true,
          "internalType": "bytes32",
          "name": "newAdminRole",
          "type": "bytes32"
        }
      ],
      "name": "RoleAdminChanged",
      "type": "event"
    },
    {
      "anonymous": false,
      "inputs": [
        {
          "indexed": true,
          "internalType": "bytes32",
          "name": "role",
          "type": "bytes32"
        },
        {
          "indexed": true,
          "internalType": "address",
          "name": "account",
          "type": "address"
        },
        {
          "indexed": true,
          "internalType": "address",
          "name": "sender",
          "type": "address"
        }
      ],
      "name": "RoleGranted",
      "type": "event"
    },
    {
      "anonymous": false,
      "inputs": [
        {
          "indexed": true,
          "internalType": "bytes32",
          "name": "role",
          "type": "bytes32"
        },
        {
          "indexed": true,
          "internalType": "address",
          "name": "account",
          "type": "address"
        },
        {
          "indexed": true,
          "internalType": "address",
          "name": "sender",
          "type": "address"
        }
      ],
      "name": "RoleRevoked",
      "type": "event"
    },
    {
      "anonymous": false,
      "inputs": [
        {
          "indexed": false,
          "internalType": "bytes32",
          "name": "hashedMessage",
          "type": "bytes32"
        },
        {
          "indexed": false,
          "internalType": "uint256",
          "name": "termIndex",
          "type": "uint256"
        }
      ],
      "name": "TermAdded",
      "type": "event"
    },
    {
      "anonymous": false,
      "inputs": [
        {
          "indexed": false,
          "internalType": "uint256[]",
          "name": "oldIndexes",
          "type": "uint256[]"
        },
        {
          "indexed": false,
          "internalType": "uint256[]",
          "name": "newIndexes",
          "type": "uint256[]"
        }
      ],
      "name": "ValidTermIndexesSet",
      "type": "event"
    },
    {
      "inputs": [],
      "name": "ALLOWLIST_ADMIN",
      "outputs": [
        {
          "internalType": "bytes32",
          "name": "",
          "type": "bytes32"
        }
      ],
      "stateMutability": "view",
      "type": "function"
    },
    {
      "inputs": [],
      "name": "ALLOWLIST_SETTER",
      "outputs": [
        {
          "internalType": "bytes32",
          "name": "",
          "type": "bytes32"
        }
      ],
      "stateMutability": "view",
      "type": "function"
    },
    {
      "inputs": [],
      "name": "DEFAULT_ADMIN_ROLE",
      "outputs": [
        {
          "internalType": "bytes32",
          "name": "",
          "type": "bytes32"
        }
      ],
      "stateMutability": "view",
      "type": "function"
    },
    {
      "inputs": [
        {
          "internalType": "uint256",
          "name": "termIndex",
          "type": "uint256"
        },
        {
          "internalType": "address",
          "name": "account",
          "type": "address"
        },
        {
          "internalType": "uint8",
          "name": "v",
          "type": "uint8"
        },
        {
          "internalType": "bytes32",
          "name": "r",
          "type": "bytes32"
        },
        {
          "internalType": "bytes32",
          "name": "s",
          "type": "bytes32"
        }
      ],
      "name": "addAccountToAllowlist",
      "outputs": [],
      "stateMutability": "nonpayable",
      "type": "function"
    },
    {
      "inputs": [
        {
          "internalType": "uint256",
          "name": "termIndex",
          "type": "uint256"
        }
      ],
      "name": "addSelfToAllowlist",
      "outputs": [],
      "stateMutability": "nonpayable",
      "type": "function"
    },
    {
      "inputs": [
        {
          "internalType": "string",
          "name": "term",
          "type": "string"
        }
      ],
      "name": "addTerm",
      "outputs": [],
      "stateMutability": "nonpayable",
      "type": "function"
    },
    {
      "inputs": [],
      "name": "currentTermIndex",
      "outputs": [
        {
          "internalType": "uint256",
          "name": "",
          "type": "uint256"
        }
      ],
      "stateMutability": "view",
      "type": "function"
    },
    {
      "inputs": [],
      "name": "getCurrentTerm",
      "outputs": [
        {
          "internalType": "string",
          "name": "",
          "type": "string"
        }
      ],
      "stateMutability": "view",
      "type": "function"
    },
    {
      "inputs": [
        {
          "internalType": "bytes32",
          "name": "role",
          "type": "bytes32"
        }
      ],
      "name": "getRoleAdmin",
      "outputs": [
        {
          "internalType": "bytes32",
          "name": "",
          "type": "bytes32"
        }
      ],
      "stateMutability": "view",
      "type": "function"
    },
    {
      "inputs": [
        {
          "internalType": "bytes32",
          "name": "role",
          "type": "bytes32"
        },
        {
          "internalType": "uint256",
          "name": "index",
          "type": "uint256"
        }
      ],
      "name": "getRoleMember",
      "outputs": [
        {
          "internalType": "address",
          "name": "",
          "type": "address"
        }
      ],
      "stateMutability": "view",
      "type": "function"
    },
    {
      "inputs": [
        {
          "internalType": "bytes32",
          "name": "role",
          "type": "bytes32"
        }
      ],
      "name": "getRoleMemberCount",
      "outputs": [
        {
          "internalType": "uint256",
          "name": "",
          "type": "uint256"
        }
      ],
      "stateMutability": "view",
      "type": "function"
    },
    {
      "inputs": [],
      "name": "getValidTermIndexes",
      "outputs": [
        {
          "internalType": "uint256[]",
          "name": "",
          "type": "uint256[]"
        }
      ],
      "stateMutability": "view",
      "type": "function"
    },
    {
      "inputs": [
        {
          "internalType": "bytes32",
          "name": "role",
          "type": "bytes32"
        },
        {
          "internalType": "address",
          "name": "account",
          "type": "address"
        }
      ],
      "name": "grantRole",
      "outputs": [],
      "stateMutability": "nonpayable",
      "type": "function"
    },
    {
      "inputs": [
        {
          "internalType": "bytes32",
          "name": "role",
          "type": "bytes32"
        },
        {
          "internalType": "address",
          "name": "account",
          "type": "address"
        }
      ],
      "name": "hasRole",
      "outputs": [
        {
          "internalType": "bool",
          "name": "",
          "type": "bool"
        }
      ],
      "stateMutability": "view",
      "type": "function"
    },
    {
      "inputs": [
        {
          "internalType": "address",
          "name": "admin",
          "type": "address"
        },
        {
          "internalType": "address",
          "name": "setter",
          "type": "address"
        }
      ],
      "name": "initialize",
      "outputs": [],
      "stateMutability": "nonpayable",
      "type": "function"
    },
    {
      "inputs": [
        {
          "internalType": "address",
          "name": "account",
          "type": "address"
        }
      ],
      "name": "isAllowed",
      "outputs": [
        {
          "internalType": "bool",
          "name": "",
          "type": "bool"
        }
      ],
      "stateMutability": "view",
      "type": "function"
    },
    {
      "inputs": [
        {
          "internalType": "bytes32",
          "name": "role",
          "type": "bytes32"
        },
        {
          "internalType": "address",
          "name": "account",
          "type": "address"
        }
      ],
      "name": "renounceRole",
      "outputs": [],
      "stateMutability": "nonpayable",
      "type": "function"
    },
    {
      "inputs": [
        {
          "internalType": "bytes32",
          "name": "role",
          "type": "bytes32"
        },
        {
          "internalType": "address",
          "name": "account",
          "type": "address"
        }
      ],
      "name": "revokeRole",
      "outputs": [],
      "stateMutability": "nonpayable",
      "type": "function"
    },
    {
      "inputs": [
        {
          "internalType": "address",
          "name": "account",
          "type": "address"
        },
        {
          "internalType": "uint256",
          "name": "termIndex",
          "type": "uint256"
        },
        {
          "internalType": "bool",
          "name": "status",
          "type": "bool"
        }
      ],
      "name": "setAccountStatus",
      "outputs": [],
      "stateMutability": "nonpayable",
      "type": "function"
    },
    {
      "inputs": [
        {
          "internalType": "uint256",
          "name": "_currentTermIndex",
          "type": "uint256"
        }
      ],
      "name": "setCurrentTermIndex",
      "outputs": [],
      "stateMutability": "nonpayable",
      "type": "function"
    },
    {
      "inputs": [
        {
          "internalType": "uint256[]",
          "name": "_validIndexes",
          "type": "uint256[]"
        }
      ],
      "name": "setValidTermIndexes",
      "outputs": [],
      "stateMutability": "nonpayable",
      "type": "function"
    },
    {
      "inputs": [
        {
          "internalType": "bytes4",
          "name": "interfaceId",
          "type": "bytes4"
        }
      ],
      "name": "supportsInterface",
      "outputs": [
        {
          "internalType": "bool",
          "name": "",
          "type": "bool"
        }
      ],
      "stateMutability": "view",
      "type": "function"
    },
    {
      "inputs": [
        {
          "internalType": "uint256",
          "name": "",
          "type": "uint256"
        }
      ],
      "name": "terms",
      "outputs": [
        {
          "internalType": "string",
          "name": "",
          "type": "string"
        }
      ],
      "stateMutability": "view",
      "type": "function"
    },
    {
      "inputs": [
        {
          "internalType": "uint256",
          "name": "",
          "type": "uint256"
        }
      ],
      "name": "validIndexes",
      "outputs": [
        {
          "internalType": "uint256",
          "name": "",
          "type": "uint256"
        }
      ],
      "stateMutability": "view",
      "type": "function"
    },
    {
      "inputs": [
        {
          "internalType": "address",
          "name": "",
          "type": "address"
        },
        {
          "internalType": "uint256",
          "name": "",
          "type": "uint256"
        }
      ],
      "name": "verifications",
      "outputs": [
        {
          "internalType": "bool",
          "name": "",
          "type": "bool"
        }
      ],
      "stateMutability": "view",
      "type": "function"
    }
  ],
  "solcInputHash": "2bf7682020e60daa8b926519f6d5921d",
  "bytecode": "0x6080604052600060cb5534801561001557600080fd5b5061001e610023565b6100e3565b600054610100900460ff161561008f5760405162461bcd60e51b815260206004820152602760248201527f496e697469616c697a61626c653a20636f6e747261637420697320696e697469604482015266616c697a696e6760c81b606482015260840160405180910390fd5b60005460ff90811610156100e1576000805460ff191660ff9081179091556040519081527f7f26b83ff96e1f2b6a682f133852f6798a09c465da95921460cefb38474024989060200160405180910390a15b565b611e69806100f26000396000f3fe608060405234801561001057600080fd5b50600436106101635760003560e01c806366e4b702116100ce578063a217fddf11610087578063a217fddf14610324578063babcc5391461032c578063c0aa0e8a1461033f578063ca15c87314610352578063d469d0c214610365578063d499ca5b14610378578063d547741f1461038b57600080fd5b806366e4b702146102a057806387a20680146102b55780639010d07c146102be57806390d63fa3146102e957806391d14854146102fc57806392ecf5771461030f57600080fd5b8063283762031161012057806328376203146102115780632c5783b1146102245780632f2ff15d1461023957806336568abe1461024c57806346db089d1461025f578063485cc9551461028d57600080fd5b806301ffc9a71461016857806302ffc7641461019057806308f419f4146101a5578063209b9833146101b8578063248a9ca3146101cd578063251e831b146101fe575b600080fd5b61017b610176366004611734565b61039e565b60405190151581526020015b60405180910390f35b6101a361019e36600461177a565b6103c9565b005b6101a36101b33660046117bf565b610438565b6101c06104b9565b6040516101879190611813565b6101f06101db3660046117bf565b60009081526065602052604090206001015490565b604051908152602001610187565b6101f061020c3660046117bf565b610511565b6101a361021f366004611826565b610532565b6101f0600080516020611df483398151915281565b6101a361024736600461187c565b610707565b6101a361025a36600461187c565b610731565b61017b61026d3660046118a8565b60c960209081526000928352604080842090915290825290205460ff1681565b6101a361029b3660046118d2565b6107b4565b6101f0600080516020611e1483398151915281565b6101f060cb5481565b6102d16102cc3660046118fc565b6108f1565b6040516001600160a01b039091168152602001610187565b6101a36102f73660046117bf565b610910565b61017b61030a36600461187c565b610988565b6103176109b3565b6040516101879190611942565b6101f0600081565b61017b61033a366004611975565b610a59565b61031761034d3660046117bf565b610af8565b6101f06103603660046117bf565b610ba4565b6101a3610373366004611990565b610bbb565b6101a3610386366004611a05565b610cd1565b6101a361039936600461187c565b610d98565b60006001600160e01b03198216635a05180f60e01b14806103c357506103c382610dbd565b92915050565b600080516020611e148339815191526103e181610df2565b6103ec848484610dff565b82846001600160a01b03167f8790cc6238d5595e48c16f8ab0f7bb594de43f92c9cededbc73f1043a5a195378460405161042a911515815260200190565b60405180910390a350505050565b600080516020611df483398151915261045081610df2565b60ca54821061047257604051636c8c0e7160e11b815260040160405180910390fd5b60cb80549083905560408051828152602081018590527f5e8daff369d4fc100bb21041db28b9959d722325e8e96d67f62cacf7430fcaa591015b60405180910390a1505050565b606060cc80548060200260200160405190810160405280929190818152602001828054801561050757602002820191906000526020600020905b8154815260200190600101908083116104f3575b5050505050905090565b60cc818154811061052157600080fd5b600091825260209091200154905081565b6001600160a01b038416600090815260c96020908152604080832088845290915290205460ff161561057757604051630231faf760e31b815260040160405180910390fd5b8260ff16601b1415801561058f57508260ff16601c14155b156105ad57604051632aea050d60e21b815260040160405180910390fd5b600061065d60ca87815481106105c5576105c5611a65565b9060005260206000200180546105da90611a7b565b80601f016020809104026020016040519081016040528092919081815260200182805461060690611a7b565b80156106535780601f1061062857610100808354040283529160200191610653565b820191906000526020600020905b81548152906001019060200180831161063657829003601f168201915b5050505050610e8c565b9050600061066d82868686610ec7565b9050856001600160a01b0316816001600160a01b0316146106a157604051632057875960e21b815260040160405180910390fd5b6106ad86886001610dff565b6040805160ff871681526020810186905290810184905287906001600160a01b038816907ff9e85d67fd10c2dd0202c1221003448f346b28afbeb3bcbcc4544ed032c049179060600160405180910390a350505050505050565b60008281526065602052604090206001015461072281610df2565b61072c8383610eef565b505050565b6001600160a01b03811633146107a65760405162461bcd60e51b815260206004820152602f60248201527f416363657373436f6e74726f6c3a2063616e206f6e6c792072656e6f756e636560448201526e103937b632b9903337b91039b2b63360891b60648201526084015b60405180910390fd5b6107b08282610f11565b5050565b600054610100900460ff16158080156107d45750600054600160ff909116105b806107ee5750303b1580156107ee575060005460ff166001145b6108515760405162461bcd60e51b815260206004820152602e60248201527f496e697469616c697a61626c653a20636f6e747261637420697320616c72656160448201526d191e481a5b9a5d1a585b1a5e995960921b606482015260840161079d565b6000805460ff191660011790558015610874576000805461ff0019166101001790555b61087f600084610eef565b610897600080516020611df483398151915284610eef565b6108af600080516020611e1483398151915283610eef565b801561072c576000805461ff0019169055604051600181527f7f26b83ff96e1f2b6a682f133852f6798a09c465da95921460cefb3847402498906020016104ac565b60008281526097602052604081206109099083610f33565b9392505050565b33600090815260c96020908152604080832084845290915290205460ff161561094c57604051630231faf760e31b815260040160405180910390fd5b61095833826001610dff565b604051819033907f79abfa347949186dd2aab9e10622b23704ef7646387bfe22bf6a43b1de16fb3990600090a350565b60009182526065602090815260408084206001600160a01b0393909316845291905290205460ff1690565b606060ca60cb54815481106109ca576109ca611a65565b9060005260206000200180546109df90611a7b565b80601f0160208091040260200160405190810160405280929190818152602001828054610a0b90611a7b565b80156105075780601f10610a2d57610100808354040283529160200191610507565b820191906000526020600020905b815481529060010190602001808311610a3b57509395945050505050565b60006001600160a01b0382163b15610a7357506001919050565b60cc5460005b81811015610aee576001600160a01b038416600090815260c96020526040812060cc805491929184908110610ab057610ab0611a65565b6000918252602080832090910154835282019290925260400190205460ff1615610ade575060019392505050565b610ae781611acb565b9050610a79565b5060009392505050565b60ca8181548110610b0857600080fd5b906000526020600020016000915090508054610b2390611a7b565b80601f0160208091040260200160405190810160405280929190818152602001828054610b4f90611a7b565b8015610b9c5780601f10610b7157610100808354040283529160200191610b9c565b820191906000526020600020905b815481529060010190602001808311610b7f57829003601f168201915b505050505081565b60008181526097602052604081206103c390610f3f565b600080516020611df4833981519152610bd381610df2565b60005b82811015610c285760ca54848483818110610bf357610bf3611a65565b9050602002013510610c1857604051636c8c0e7160e11b815260040160405180910390fd5b610c2181611acb565b9050610bd6565b50600060cc805480602002602001604051908101604052809291908181526020018280548015610c7757602002820191906000526020600020905b815481526020019060010190808311610c63575b50505050509050838360cc9190610c8f9291906116d4565b507f7a08cd4d8076e08d23c6543b0d17e2be01826237b85801f5217e43142d67b40b818585604051610cc393929190611ae4565b60405180910390a150505050565b600080516020611df4833981519152610ce981610df2565b60ca80546001810182556000919091527f42d72674974f694b5f5159593243114d38a5c39c89d6b62fee061ff523240ee101610d26838583611b92565b5060ca54610d3a906101b390600190611c53565b7fc51edb2a65671d8f55ac76a92007ffc21abbc32897ddc88fa4a3a4c4ed9607338383604051610d6b929190611c66565b60405190819003902060ca54610d8390600190611c53565b604080519283526020830191909152016104ac565b600082815260656020526040902060010154610db381610df2565b61072c8383610f11565b60006001600160e01b03198216637965db0b60e01b14806103c357506301ffc9a760e01b6001600160e01b03198316146103c3565b610dfc8133610f49565b50565b60ca548210610e2157604051636c8c0e7160e11b815260040160405180910390fd5b6001600160a01b038316600081815260c960209081526040808320868452825291829020805460ff191685151590811790915591519182528492917f66760e9ee1f8138c12bebf3adf6fae271560cf0f4e42ce31350bb4a5b7a8b462910160405180910390a3505050565b6000610e988251610fad565b82604051602001610eaa929190611c76565b604051602081830303815290604052805190602001209050919050565b6000806000610ed8878787876110b6565b91509150610ee581611170565b5095945050505050565b610ef982826112b5565b600082815260976020526040902061072c908261133b565b610f1b8282611350565b600082815260976020526040902061072c90826113b7565b600061090983836113cc565b60006103c3825490565b610f538282610988565b6107b057610f6b816001600160a01b031660146113f6565b610f768360206113f6565b604051602001610f87929190611cd1565b60408051601f198184030181529082905262461bcd60e51b825261079d91600401611942565b606081600003610fd45750506040805180820190915260018152600360fc1b602082015290565b8160005b8115610ffe5780610fe881611acb565b9150610ff79050600a83611d56565b9150610fd8565b60008167ffffffffffffffff81111561101957611019611b2e565b6040519080825280601f01601f191660200182016040528015611043576020820181803683370190505b5090505b84156110ae57611058600183611c53565b9150611065600a86611d6a565b611070906030611d7e565b60f81b81838151811061108557611085611a65565b60200101906001600160f81b031916908160001a9053506110a7600a86611d56565b9450611047565b949350505050565b6000806fa2a8918ca85bafe22016d0b997e4df60600160ff1b038311156110e35750600090506003611167565b6040805160008082526020820180845289905260ff881692820192909252606081018690526080810185905260019060a0016020604051602081039080840390855afa158015611137573d6000803e3d6000fd5b5050604051601f1901519150506001600160a01b03811661116057600060019250925050611167565b9150600090505b94509492505050565b600081600481111561118457611184611d91565b0361118c5750565b60018160048111156111a0576111a0611d91565b036111e85760405162461bcd60e51b815260206004820152601860248201527745434453413a20696e76616c6964207369676e617475726560401b604482015260640161079d565b60028160048111156111fc576111fc611d91565b036112495760405162461bcd60e51b815260206004820152601f60248201527f45434453413a20696e76616c6964207369676e6174757265206c656e67746800604482015260640161079d565b600381600481111561125d5761125d611d91565b03610dfc5760405162461bcd60e51b815260206004820152602260248201527f45434453413a20696e76616c6964207369676e6174757265202773272076616c604482015261756560f01b606482015260840161079d565b6112bf8282610988565b6107b05760008281526065602090815260408083206001600160a01b03851684529091529020805460ff191660011790556112f73390565b6001600160a01b0316816001600160a01b0316837f2f8788117e7eff1d82e926ec794901d17c78024a50270940304540a733656f0d60405160405180910390a45050565b6000610909836001600160a01b038416611592565b61135a8282610988565b156107b05760008281526065602090815260408083206001600160a01b0385168085529252808320805460ff1916905551339285917ff6391f5c32d9c69d2a47ea670b442974b53935d1edc7fd64eb21e047a839171b9190a45050565b6000610909836001600160a01b0384166115e1565b60008260000182815481106113e3576113e3611a65565b9060005260206000200154905092915050565b60606000611405836002611da7565b611410906002611d7e565b67ffffffffffffffff81111561142857611428611b2e565b6040519080825280601f01601f191660200182016040528015611452576020820181803683370190505b509050600360fc1b8160008151811061146d5761146d611a65565b60200101906001600160f81b031916908160001a905350600f60fb1b8160018151811061149c5761149c611a65565b60200101906001600160f81b031916908160001a90535060006114c0846002611da7565b6114cb906001611d7e565b90505b6001811115611543576f181899199a1a9b1b9c1cb0b131b232b360811b85600f16601081106114ff576114ff611a65565b1a60f81b82828151811061151557611515611a65565b60200101906001600160f81b031916908160001a90535060049490941c9361153c81611dc6565b90506114ce565b5083156109095760405162461bcd60e51b815260206004820181905260248201527f537472696e67733a20686578206c656e67746820696e73756666696369656e74604482015260640161079d565b60008181526001830160205260408120546115d9575081546001818101845560008481526020808220909301849055845484825282860190935260409020919091556103c3565b5060006103c3565b600081815260018301602052604081205480156116ca576000611605600183611c53565b855490915060009061161990600190611c53565b905081811461167e57600086600001828154811061163957611639611a65565b906000526020600020015490508087600001848154811061165c5761165c611a65565b6000918252602080832090910192909255918252600188019052604090208390555b855486908061168f5761168f611ddd565b6001900381819060005260206000200160009055905585600101600086815260200190815260200160002060009055600193505050506103c3565b60009150506103c3565b82805482825590600052602060002090810192821561170f579160200282015b8281111561170f5782358255916020019190600101906116f4565b5061171b92915061171f565b5090565b5b8082111561171b5760008155600101611720565b60006020828403121561174657600080fd5b81356001600160e01b03198116811461090957600080fd5b80356001600160a01b038116811461177557600080fd5b919050565b60008060006060848603121561178f57600080fd5b6117988461175e565b925060208401359150604084013580151581146117b457600080fd5b809150509250925092565b6000602082840312156117d157600080fd5b5035919050565b600081518084526020808501945080840160005b83811015611808578151875295820195908201906001016117ec565b509495945050505050565b60208152600061090960208301846117d8565b600080600080600060a0868803121561183e57600080fd5b8535945061184e6020870161175e565b9350604086013560ff8116811461186457600080fd5b94979396509394606081013594506080013592915050565b6000806040838503121561188f57600080fd5b8235915061189f6020840161175e565b90509250929050565b600080604083850312156118bb57600080fd5b6118c48361175e565b946020939093013593505050565b600080604083850312156118e557600080fd5b6118ee8361175e565b915061189f6020840161175e565b6000806040838503121561190f57600080fd5b50508035926020909101359150565b60005b83811015611939578181015183820152602001611921565b50506000910152565b602081526000825180602084015261196181604085016020870161191e565b601f01601f19169190910160400192915050565b60006020828403121561198757600080fd5b6109098261175e565b600080602083850312156119a357600080fd5b823567ffffffffffffffff808211156119bb57600080fd5b818501915085601f8301126119cf57600080fd5b8135818111156119de57600080fd5b8660208260051b85010111156119f357600080fd5b60209290920196919550909350505050565b60008060208385031215611a1857600080fd5b823567ffffffffffffffff80821115611a3057600080fd5b818501915085601f830112611a4457600080fd5b813581811115611a5357600080fd5b8660208285010111156119f357600080fd5b634e487b7160e01b600052603260045260246000fd5b600181811c90821680611a8f57607f821691505b602082108103611aaf57634e487b7160e01b600052602260045260246000fd5b50919050565b634e487b7160e01b600052601160045260246000fd5b600060018201611add57611add611ab5565b5060010190565b604081526000611af760408301866117d8565b82810360208401528381526001600160fb1b03841115611b1657600080fd5b8360051b808660208401370160200195945050505050565b634e487b7160e01b600052604160045260246000fd5b601f82111561072c57600081815260208120601f850160051c81016020861015611b6b5750805b601f850160051c820191505b81811015611b8a57828155600101611b77565b505050505050565b67ffffffffffffffff831115611baa57611baa611b2e565b611bbe83611bb88354611a7b565b83611b44565b6000601f841160018114611bf25760008515611bda5750838201355b600019600387901b1c1916600186901b178355611c4c565b600083815260209020601f19861690835b82811015611c235786850135825560209485019460019092019101611c03565b5086821015611c405760001960f88860031b161c19848701351681555b505060018560011b0183555b5050505050565b818103818111156103c3576103c3611ab5565b8183823760009101908152919050565b7f19457468657265756d205369676e6564204d6573736167653a0a000000000000815260008351611cae81601a85016020880161191e565b835190830190611cc581601a84016020880161191e565b01601a01949350505050565b76020b1b1b2b9b9a1b7b73a3937b61d1030b1b1b7bab73a1604d1b815260008351611d0381601785016020880161191e565b7001034b99036b4b9b9b4b733903937b6329607d1b6017918401918201528351611d3481602884016020880161191e565b01602801949350505050565b634e487b7160e01b600052601260045260246000fd5b600082611d6557611d65611d40565b500490565b600082611d7957611d79611d40565b500690565b808201808211156103c3576103c3611ab5565b634e487b7160e01b600052602160045260246000fd5b6000816000190483118215151615611dc157611dc1611ab5565b500290565b600081611dd557611dd5611ab5565b506000190190565b634e487b7160e01b600052603160045260246000fdfe0d5ac11ce98a7539557343d2c66c127dd8d0e8fb181c5ec16cb674ddf827d1090c24059e922be4fa5a047081cbfa54efdf798eaf1522ed3f9b731a560ea8e28aa26469706673582212208f13422f32bf577b142f3fc4a3ac35c92d7745725ab6f2c5377795fbd8cf4a2f64736f6c63430008100033",
  "devdoc": {
    "author": "Ondo Finance",
    "kind": "dev",
    "methods": {
      "addAccountToAllowlist(uint256,address,uint8,bytes32,bytes32)": {
        "params": {
          "account": "Address of the account to add to the allowlist",
          "r": "r component of the signature",
          "s": "s component of the signature",
          "termIndex": "Term index for which the user is adding themselves to the                  allowlist",
          "v": "v component of the signature"
        }
      },
      "addSelfToAllowlist(uint256)": {
        "params": {
          "termIndex": "Term index for which the user is adding themselves to the                  allowlist"
        }
      },
      "addTerm(string)": {
        "details": "This function sets the current term index as the added termThe added term is not valid until it's added to validIndexes",
        "params": {
          "term": "Term to add"
        }
      },
      "constructor": {
        "custom:oz-upgrades-unsafe-allow": "constructor"
      },
      "getRoleAdmin(bytes32)": {
        "details": "Returns the admin role that controls `role`. See {grantRole} and {revokeRole}. To change a role's admin, use {_setRoleAdmin}."
      },
      "getRoleMember(bytes32,uint256)": {
        "details": "Returns one of the accounts that have `role`. `index` must be a value between 0 and {getRoleMemberCount}, non-inclusive. Role bearers are not sorted in any particular way, and their ordering may change at any point. WARNING: When using {getRoleMember} and {getRoleMemberCount}, make sure you perform all queries on the same block. See the following https://forum.openzeppelin.com/t/iterating-over-elements-on-enumerableset-in-openzeppelin-contracts/2296[forum post] for more information."
      },
      "getRoleMemberCount(bytes32)": {
        "details": "Returns the number of accounts that have `role`. Can be used together with {getRoleMember} to enumerate all bearers of a role."
      },
      "grantRole(bytes32,address)": {
        "details": "Grants `role` to `account`. If `account` had not been already granted `role`, emits a {RoleGranted} event. Requirements: - the caller must have ``role``'s admin role. May emit a {RoleGranted} event."
      },
      "hasRole(bytes32,address)": {
        "details": "Returns `true` if `account` has been granted `role`."
      },
      "isAllowed(address)": {
        "details": "Contracts are always allowed. Any entity that has signed a valid term      or added themselves to the allowslit for a valid term will pass the      check",
        "params": {
          "account": "Address of the account to check"
        }
      },
      "renounceRole(bytes32,address)": {
        "details": "Revokes `role` from the calling account. Roles are often managed via {grantRole} and {revokeRole}: this function's purpose is to provide a mechanism for accounts to lose their privileges if they are compromised (such as when a trusted device is misplaced). If the calling account had been revoked `role`, emits a {RoleRevoked} event. Requirements: - the caller must be `account`. May emit a {RoleRevoked} event."
      },
      "revokeRole(bytes32,address)": {
        "details": "Revokes `role` from `account`. If `account` had been granted `role`, emits a {RoleRevoked} event. Requirements: - the caller must have ``role``'s admin role. May emit a {RoleRevoked} event."
      },
      "setAccountStatus(address,uint256,bool)": {
        "details": "If a user's status has been set to false, a user can then set their      status back to true. This behavior is known. The allowlist should be      used in conjunction with a blocklist",
        "params": {
          "account": "Address of the account to set the status for",
          "status": "New status of the account",
          "termIndex": "Term index for which to update status for"
        }
      },
      "setCurrentTermIndex(uint256)": {
        "details": "The current term index is not a valid term until it's added to      validIndexesThis function will revert if the `_currentTermIndex` out of bounds      of the terms array",
        "params": {
          "_currentTermIndex": "New current term index"
        }
      },
      "setValidTermIndexes(uint256[])": {
        "details": "Once the validIndexes are set, any user who has been verified to sign      a particular term will pass the `isAllowed` check",
        "params": {
          "_validIndexes": "List of new valid term indexes"
        }
      },
      "supportsInterface(bytes4)": {
        "details": "See {IERC165-supportsInterface}."
      }
    },
    "stateVariables": {
      "ALLOWLIST_ADMIN": {
        "details": "Role based access control roles"
      },
      "verifications": {
        "details": "{<EOA> : {<term index> : <is verified>}};"
      }
    },
    "title": "AllowlistUpgradeable",
    "version": 1
  },
  "userdoc": {
    "errors": {
      "InvalidTermIndex()": [
        {
          "notice": "ERRORS ///"
        }
      ]
    },
    "events": {
      "AccountAddedFromSignature(address,uint256,uint8,bytes32,bytes32)": {
        "notice": "Event emitted when an account is added to the allowlist by a signature"
      },
      "AccountAddedSelf(address,uint256)": {
        "notice": "Event emitted when an account adds itself added to the allowlist"
      },
      "AccountStatusSet(address,uint256,bool)": {
        "notice": "Event emitted when an account status is set"
      },
      "AccountStatusSetByAdmin(address,uint256,bool)": {
        "notice": "Event emitted when an accoun status is set by an admin"
      },
      "CurrentTermIndexSet(uint256,uint256)": {
        "notice": "Event emitted when the current term index is set"
      },
      "TermAdded(bytes32,uint256)": {
        "notice": "Event emitted when a term is added"
      },
      "ValidTermIndexesSet(uint256[],uint256[])": {
        "notice": "Event emitted when the valid term indexes are set"
      }
    },
    "kind": "user",
    "methods": {
      "addAccountToAllowlist(uint256,address,uint8,bytes32,bytes32)": {
        "notice": "Function that allows anyone to add a user to the allowlist with a         given off-chain signature"
      },
      "addSelfToAllowlist(uint256)": {
        "notice": "Function that allows a user to add themselves to the allowlist         for a given `termIndex`"
      },
      "addTerm(string)": {
        "notice": "Adds a term to the list of possible terms"
      },
      "getCurrentTerm()": {
        "notice": "Returns the current terms string associated with the         `currentTermIndex`"
      },
      "getValidTermIndexes()": {
        "notice": "Gets a list term indexes that are valid for a user to be on the         allowlist"
      },
      "isAllowed(address)": {
        "notice": "Function that checks whether a user passes the allowlist check"
      },
      "setAccountStatus(address,uint256,bool)": {
        "notice": "Admin function to set an accounts status for a given term index"
      },
      "setCurrentTermIndex(uint256)": {
        "notice": "Sets the current term index"
      },
      "setValidTermIndexes(uint256[])": {
        "notice": "Sets the list of valid term indexes"
      }
    },
    "notice": "This contract manages the allowlist status for accounts.",
    "version": 1
  },
  "storageLayout": {
    "storage": [
      {
        "astId": 3967,
        "contract": "contracts/usdy/allowlist/AllowlistUpgradeable.sol:AllowlistUpgradeable",
        "label": "_initialized",
        "offset": 0,
        "slot": "0",
        "type": "t_uint8"
      },
      {
        "astId": 3970,
        "contract": "contracts/usdy/allowlist/AllowlistUpgradeable.sol:AllowlistUpgradeable",
        "label": "_initializing",
        "offset": 1,
        "slot": "0",
        "type": "t_bool"
      },
      {
        "astId": 7330,
        "contract": "contracts/usdy/allowlist/AllowlistUpgradeable.sol:AllowlistUpgradeable",
        "label": "__gap",
        "offset": 0,
        "slot": "1",
        "type": "t_array(t_uint256)50_storage"
      },
      {
        "astId": 7448,
        "contract": "contracts/usdy/allowlist/AllowlistUpgradeable.sol:AllowlistUpgradeable",
        "label": "__gap",
        "offset": 0,
        "slot": "51",
        "type": "t_array(t_uint256)50_storage"
      },
      {
        "astId": 3562,
        "contract": "contracts/usdy/allowlist/AllowlistUpgradeable.sol:AllowlistUpgradeable",
        "label": "_roles",
        "offset": 0,
        "slot": "101",
        "type": "t_mapping(t_bytes32,t_struct(RoleData)3557_storage)"
      },
      {
        "astId": 3861,
        "contract": "contracts/usdy/allowlist/AllowlistUpgradeable.sol:AllowlistUpgradeable",
        "label": "__gap",
        "offset": 0,
        "slot": "102",
        "type": "t_array(t_uint256)49_storage"
      },
      {
        "astId": 3411,
        "contract": "contracts/usdy/allowlist/AllowlistUpgradeable.sol:AllowlistUpgradeable",
        "label": "_roleMembers",
        "offset": 0,
        "slot": "151",
        "type": "t_mapping(t_bytes32,t_struct(AddressSet)7761_storage)"
      },
      {
        "astId": 3521,
        "contract": "contracts/usdy/allowlist/AllowlistUpgradeable.sol:AllowlistUpgradeable",
        "label": "__gap",
        "offset": 0,
        "slot": "152",
        "type": "t_array(t_uint256)49_storage"
      },
      {
        "astId": 19458,
        "contract": "contracts/usdy/allowlist/AllowlistUpgradeable.sol:AllowlistUpgradeable",
        "label": "verifications",
        "offset": 0,
        "slot": "201",
        "type": "t_mapping(t_address,t_mapping(t_uint256,t_bool))"
      },
      {
        "astId": 19461,
        "contract": "contracts/usdy/allowlist/AllowlistUpgradeable.sol:AllowlistUpgradeable",
        "label": "terms",
        "offset": 0,
        "slot": "202",
        "type": "t_array(t_string_storage)dyn_storage"
      },
      {
        "astId": 19464,
        "contract": "contracts/usdy/allowlist/AllowlistUpgradeable.sol:AllowlistUpgradeable",
        "label": "currentTermIndex",
        "offset": 0,
        "slot": "203",
        "type": "t_uint256"
      },
      {
        "astId": 19467,
        "contract": "contracts/usdy/allowlist/AllowlistUpgradeable.sol:AllowlistUpgradeable",
        "label": "validIndexes",
        "offset": 0,
        "slot": "204",
        "type": "t_array(t_uint256)dyn_storage"
      }
    ],
    "types": {
      "t_address": {
        "encoding": "inplace",
        "label": "address",
        "numberOfBytes": "20"
      },
      "t_array(t_bytes32)dyn_storage": {
        "base": "t_bytes32",
        "encoding": "dynamic_array",
        "label": "bytes32[]",
        "numberOfBytes": "32"
      },
      "t_array(t_string_storage)dyn_storage": {
        "base": "t_string_storage",
        "encoding": "dynamic_array",
        "label": "string[]",
        "numberOfBytes": "32"
      },
      "t_array(t_uint256)49_storage": {
        "base": "t_uint256",
        "encoding": "inplace",
        "label": "uint256[49]",
        "numberOfBytes": "1568"
      },
      "t_array(t_uint256)50_storage": {
        "base": "t_uint256",
        "encoding": "inplace",
        "label": "uint256[50]",
        "numberOfBytes": "1600"
      },
      "t_array(t_uint256)dyn_storage": {
        "base": "t_uint256",
        "encoding": "dynamic_array",
        "label": "uint256[]",
        "numberOfBytes": "32"
      },
      "t_bool": {
        "encoding": "inplace",
        "label": "bool",
        "numberOfBytes": "1"
      },
      "t_bytes32": {
        "encoding": "inplace",
        "label": "bytes32",
        "numberOfBytes": "32"
      },
      "t_mapping(t_address,t_bool)": {
        "encoding": "mapping",
        "key": "t_address",
        "label": "mapping(address => bool)",
        "numberOfBytes": "32",
        "value": "t_bool"
      },
      "t_mapping(t_address,t_mapping(t_uint256,t_bool))": {
        "encoding": "mapping",
        "key": "t_address",
        "label": "mapping(address => mapping(uint256 => bool))",
        "numberOfBytes": "32",
        "value": "t_mapping(t_uint256,t_bool)"
      },
      "t_mapping(t_bytes32,t_struct(AddressSet)7761_storage)": {
        "encoding": "mapping",
        "key": "t_bytes32",
        "label": "mapping(bytes32 => struct EnumerableSetUpgradeable.AddressSet)",
        "numberOfBytes": "32",
        "value": "t_struct(AddressSet)7761_storage"
      },
      "t_mapping(t_bytes32,t_struct(RoleData)3557_storage)": {
        "encoding": "mapping",
        "key": "t_bytes32",
        "label": "mapping(bytes32 => struct AccessControlUpgradeable.RoleData)",
        "numberOfBytes": "32",
        "value": "t_struct(RoleData)3557_storage"
      },
      "t_mapping(t_bytes32,t_uint256)": {
        "encoding": "mapping",
        "key": "t_bytes32",
        "label": "mapping(bytes32 => uint256)",
        "numberOfBytes": "32",
        "value": "t_uint256"
      },
      "t_mapping(t_uint256,t_bool)": {
        "encoding": "mapping",
        "key": "t_uint256",
        "label": "mapping(uint256 => bool)",
        "numberOfBytes": "32",
        "value": "t_bool"
      },
      "t_string_storage": {
        "encoding": "bytes",
        "label": "string",
        "numberOfBytes": "32"
      },
      "t_struct(AddressSet)7761_storage": {
        "encoding": "inplace",
        "label": "struct EnumerableSetUpgradeable.AddressSet",
        "members": [
          {
            "astId": 7760,
            "contract": "contracts/usdy/allowlist/AllowlistUpgradeable.sol:AllowlistUpgradeable",
            "label": "_inner",
            "offset": 0,
            "slot": "0",
            "type": "t_struct(Set)7460_storage"
          }
        ],
        "numberOfBytes": "64"
      },
      "t_struct(RoleData)3557_storage": {
        "encoding": "inplace",
        "label": "struct AccessControlUpgradeable.RoleData",
        "members": [
          {
            "astId": 3554,
            "contract": "contracts/usdy/allowlist/AllowlistUpgradeable.sol:AllowlistUpgradeable",
            "label": "members",
            "offset": 0,
            "slot": "0",
            "type": "t_mapping(t_address,t_bool)"
          },
          {
            "astId": 3556,
            "contract": "contracts/usdy/allowlist/AllowlistUpgradeable.sol:AllowlistUpgradeable",
            "label": "adminRole",
            "offset": 0,
            "slot": "1",
            "type": "t_bytes32"
          }
        ],
        "numberOfBytes": "64"
      },
      "t_struct(Set)7460_storage": {
        "encoding": "inplace",
        "label": "struct EnumerableSetUpgradeable.Set",
        "members": [
          {
            "astId": 7455,
            "contract": "contracts/usdy/allowlist/AllowlistUpgradeable.sol:AllowlistUpgradeable",
            "label": "_values",
            "offset": 0,
            "slot": "0",
            "type": "t_array(t_bytes32)dyn_storage"
          },
          {
            "astId": 7459,
            "contract": "contracts/usdy/allowlist/AllowlistUpgradeable.sol:AllowlistUpgradeable",
            "label": "_indexes",
            "offset": 0,
            "slot": "1",
            "type": "t_mapping(t_bytes32,t_uint256)"
          }
        ],
        "numberOfBytes": "64"
      },
      "t_uint256": {
        "encoding": "inplace",
        "label": "uint256",
        "numberOfBytes": "32"
      },
      "t_uint8": {
        "encoding": "inplace",
        "label": "uint8",
        "numberOfBytes": "1"
      }
    }
  }
}