{
  "address": "0xE00e79c24B9Bd388fbf1c4599694C2cf18166102",
  "abi": [
    {
      "inputs": [],
      "stateMutability": "nonpayable",
      "type": "constructor"
    },
    {
      "inputs": [],
      "name": "RegistryZeroAddress",
      "type": "error"
    },
    {
      "anonymous": false,
      "inputs": [
        {
          "indexed": true,
          "internalType": "address",
          "name": "owner",
          "type": "address"
        },
        {
          "indexed": true,
          "internalType": "address",
          "name": "spender",
          "type": "address"
        },
        {
          "indexed": false,
          "internalType": "uint256",
          "name": "value",
          "type": "uint256"
        }
      ],
      "name": "Approval",
      "type": "event"
    },
    {
      "anonymous": false,
      "inputs": [
        {
          "indexed": false,
          "internalType": "uint8",
          "name": "version",
          "type": "uint8"
        }
      ],
      "name": "Initialized",
      "type": "event"
    },
    {
      "anonymous": false,
      "inputs": [
        {
          "indexed": false,
          "internalType": "address",
          "name": "oldRegistry",
          "type": "address"
        },
        {
          "indexed": false,
          "internalType": "address",
          "name": "newRegistry",
          "type": "address"
        }
      ],
      "name": "KYCRegistrySet",
      "type": "event"
    },
    {
      "anonymous": false,
      "inputs": [
        {
          "indexed": false,
          "internalType": "uint256",
          "name": "oldRequirementGroup",
          "type": "uint256"
        },
        {
          "indexed": false,
          "internalType": "uint256",
          "name": "newRequirementGroup",
          "type": "uint256"
        }
      ],
      "name": "KYCRequirementGroupSet",
      "type": "event"
    },
    {
      "anonymous": false,
      "inputs": [
        {
          "indexed": false,
          "internalType": "uint256",
          "name": "oldDepositedCash",
          "type": "uint256"
        },
        {
          "indexed": false,
          "internalType": "uint256",
          "name": "newDepositedCash",
          "type": "uint256"
        }
      ],
      "name": "OracleReportHandled",
      "type": "event"
    },
    {
      "anonymous": false,
      "inputs": [
        {
          "indexed": false,
          "internalType": "address",
          "name": "account",
          "type": "address"
        }
      ],
      "name": "Paused",
      "type": "event"
    },
    {
      "anonymous": false,
      "inputs": [
        {
          "indexed": true,
          "internalType": "bytes32",
          "name": "role",
          "type": "bytes32"
        },
        {
          "indexed": true,
          "internalType": "bytes32",
          "name": "previousAdminRole",
          "type": "bytes32"
        },
        {
          "indexed": true,
          "internalType": "bytes32",
          "name": "newAdminRole",
          "type": "bytes32"
        }
      ],
      "name": "RoleAdminChanged",
      "type": "event"
    },
    {
      "anonymous": false,
      "inputs": [
        {
          "indexed": true,
          "internalType": "bytes32",
          "name": "role",
          "type": "bytes32"
        },
        {
          "indexed": true,
          "internalType": "address",
          "name": "account",
          "type": "address"
        },
        {
          "indexed": true,
          "internalType": "address",
          "name": "sender",
          "type": "address"
        }
      ],
      "name": "RoleGranted",
      "type": "event"
    },
    {
      "anonymous": false,
      "inputs": [
        {
          "indexed": true,
          "internalType": "bytes32",
          "name": "role",
          "type": "bytes32"
        },
        {
          "indexed": true,
          "internalType": "address",
          "name": "account",
          "type": "address"
        },
        {
          "indexed": true,
          "internalType": "address",
          "name": "sender",
          "type": "address"
        }
      ],
      "name": "RoleRevoked",
      "type": "event"
    },
    {
      "anonymous": false,
      "inputs": [
        {
          "indexed": true,
          "internalType": "address",
          "name": "from",
          "type": "address"
        },
        {
          "indexed": true,
          "internalType": "address",
          "name": "to",
          "type": "address"
        },
        {
          "indexed": false,
          "internalType": "uint256",
          "name": "value",
          "type": "uint256"
        }
      ],
      "name": "Transfer",
      "type": "event"
    },
    {
      "anonymous": false,
      "inputs": [
        {
          "indexed": true,
          "internalType": "address",
          "name": "from",
          "type": "address"
        },
        {
          "indexed": true,
          "internalType": "address",
          "name": "to",
          "type": "address"
        },
        {
          "indexed": false,
          "internalType": "uint256",
          "name": "sharesValue",
          "type": "uint256"
        }
      ],
      "name": "TransferShares",
      "type": "event"
    },
    {
      "anonymous": false,
      "inputs": [
        {
          "indexed": false,
          "internalType": "address",
          "name": "account",
          "type": "address"
        }
      ],
      "name": "Unpaused",
      "type": "event"
    },
    {
      "inputs": [],
      "name": "BURNER_ROLE",
      "outputs": [
        {
          "internalType": "bytes32",
          "name": "",
          "type": "bytes32"
        }
      ],
      "stateMutability": "view",
      "type": "function"
    },
    {
      "inputs": [],
      "name": "DEFAULT_ADMIN_ROLE",
      "outputs": [
        {
          "internalType": "bytes32",
          "name": "",
          "type": "bytes32"
        }
      ],
      "stateMutability": "view",
      "type": "function"
    },
    {
      "inputs": [],
      "name": "KYC_CONFIGURER_ROLE",
      "outputs": [
        {
          "internalType": "bytes32",
          "name": "",
          "type": "bytes32"
        }
      ],
      "stateMutability": "view",
      "type": "function"
    },
    {
      "inputs": [],
      "name": "MINTER_ROLE",
      "outputs": [
        {
          "internalType": "bytes32",
          "name": "",
          "type": "bytes32"
        }
      ],
      "stateMutability": "view",
      "type": "function"
    },
    {
      "inputs": [],
      "name": "OMMF_MANAGER_ROLE",
      "outputs": [
        {
          "internalType": "bytes32",
          "name": "",
          "type": "bytes32"
        }
      ],
      "stateMutability": "view",
      "type": "function"
    },
    {
      "inputs": [],
      "name": "PAUSER_ROLE",
      "outputs": [
        {
          "internalType": "bytes32",
          "name": "",
          "type": "bytes32"
        }
      ],
      "stateMutability": "view",
      "type": "function"
    },
    {
      "inputs": [
        {
          "internalType": "address",
          "name": "_account",
          "type": "address"
        },
        {
          "internalType": "uint256",
          "name": "_amount",
          "type": "uint256"
        }
      ],
      "name": "adminBurn",
      "outputs": [],
      "stateMutability": "nonpayable",
      "type": "function"
    },
    {
      "inputs": [
        {
          "internalType": "address",
          "name": "_owner",
          "type": "address"
        },
        {
          "internalType": "address",
          "name": "_spender",
          "type": "address"
        }
      ],
      "name": "allowance",
      "outputs": [
        {
          "internalType": "uint256",
          "name": "",
          "type": "uint256"
        }
      ],
      "stateMutability": "view",
      "type": "function"
    },
    {
      "inputs": [
        {
          "internalType": "address",
          "name": "_spender",
          "type": "address"
        },
        {
          "internalType": "uint256",
          "name": "_amount",
          "type": "uint256"
        }
      ],
      "name": "approve",
      "outputs": [
        {
          "internalType": "bool",
          "name": "",
          "type": "bool"
        }
      ],
      "stateMutability": "nonpayable",
      "type": "function"
    },
    {
      "inputs": [
        {
          "internalType": "address",
          "name": "_account",
          "type": "address"
        }
      ],
      "name": "balanceOf",
      "outputs": [
        {
          "internalType": "uint256",
          "name": "",
          "type": "uint256"
        }
      ],
      "stateMutability": "view",
      "type": "function"
    },
    {
      "inputs": [
        {
          "internalType": "uint256",
          "name": "_amount",
          "type": "uint256"
        }
      ],
      "name": "burn",
      "outputs": [],
      "stateMutability": "nonpayable",
      "type": "function"
    },
    {
      "inputs": [
        {
          "internalType": "address",
          "name": "_account",
          "type": "address"
        },
        {
          "internalType": "uint256",
          "name": "_amount",
          "type": "uint256"
        }
      ],
      "name": "burnFrom",
      "outputs": [],
      "stateMutability": "nonpayable",
      "type": "function"
    },
    {
      "inputs": [],
      "name": "decimals",
      "outputs": [
        {
          "internalType": "uint8",
          "name": "",
          "type": "uint8"
        }
      ],
      "stateMutability": "pure",
      "type": "function"
    },
    {
      "inputs": [
        {
          "internalType": "address",
          "name": "_spender",
          "type": "address"
        },
        {
          "internalType": "uint256",
          "name": "_subtractedValue",
          "type": "uint256"
        }
      ],
      "name": "decreaseAllowance",
      "outputs": [
        {
          "internalType": "bool",
          "name": "",
          "type": "bool"
        }
      ],
      "stateMutability": "nonpayable",
      "type": "function"
    },
    {
      "inputs": [],
      "name": "depositedCash",
      "outputs": [
        {
          "internalType": "uint256",
          "name": "",
          "type": "uint256"
        }
      ],
      "stateMutability": "view",
      "type": "function"
    },
    {
      "inputs": [
        {
          "internalType": "uint256",
          "name": "_sharesAmount",
          "type": "uint256"
        }
      ],
      "name": "getBalanceOfByShares",
      "outputs": [
        {
          "internalType": "uint256",
          "name": "",
          "type": "uint256"
        }
      ],
      "stateMutability": "view",
      "type": "function"
    },
    {
      "inputs": [
        {
          "internalType": "bytes32",
          "name": "role",
          "type": "bytes32"
        }
      ],
      "name": "getRoleAdmin",
      "outputs": [
        {
          "internalType": "bytes32",
          "name": "",
          "type": "bytes32"
        }
      ],
      "stateMutability": "view",
      "type": "function"
    },
    {
      "inputs": [
        {
          "internalType": "bytes32",
          "name": "role",
          "type": "bytes32"
        },
        {
          "internalType": "uint256",
          "name": "index",
          "type": "uint256"
        }
      ],
      "name": "getRoleMember",
      "outputs": [
        {
          "internalType": "address",
          "name": "",
          "type": "address"
        }
      ],
      "stateMutability": "view",
      "type": "function"
    },
    {
      "inputs": [
        {
          "internalType": "bytes32",
          "name": "role",
          "type": "bytes32"
        }
      ],
      "name": "getRoleMemberCount",
      "outputs": [
        {
          "internalType": "uint256",
          "name": "",
          "type": "uint256"
        }
      ],
      "stateMutability": "view",
      "type": "function"
    },
    {
      "inputs": [
        {
          "internalType": "uint256",
          "name": "_cashAmount",
          "type": "uint256"
        }
      ],
      "name": "getSharesByPooledCash",
      "outputs": [
        {
          "internalType": "uint256",
          "name": "",
          "type": "uint256"
        }
      ],
      "stateMutability": "view",
      "type": "function"
    },
    {
      "inputs": [],
      "name": "getTotalShares",
      "outputs": [
        {
          "internalType": "uint256",
          "name": "",
          "type": "uint256"
        }
      ],
      "stateMutability": "view",
      "type": "function"
    },
    {
      "inputs": [
        {
          "internalType": "bytes32",
          "name": "role",
          "type": "bytes32"
        },
        {
          "internalType": "address",
          "name": "account",
          "type": "address"
        }
      ],
      "name": "grantRole",
      "outputs": [],
      "stateMutability": "nonpayable",
      "type": "function"
    },
    {
      "inputs": [
        {
          "internalType": "uint256",
          "name": "_depositedCash",
          "type": "uint256"
        }
      ],
      "name": "handleOracleReport",
      "outputs": [],
      "stateMutability": "nonpayable",
      "type": "function"
    },
    {
      "inputs": [
        {
          "internalType": "bytes32",
          "name": "role",
          "type": "bytes32"
        },
        {
          "internalType": "address",
          "name": "account",
          "type": "address"
        }
      ],
      "name": "hasRole",
      "outputs": [
        {
          "internalType": "bool",
          "name": "",
          "type": "bool"
        }
      ],
      "stateMutability": "view",
      "type": "function"
    },
    {
      "inputs": [
        {
          "internalType": "address",
          "name": "_spender",
          "type": "address"
        },
        {
          "internalType": "uint256",
          "name": "_addedValue",
          "type": "uint256"
        }
      ],
      "name": "increaseAllowance",
      "outputs": [
        {
          "internalType": "bool",
          "name": "",
          "type": "bool"
        }
      ],
      "stateMutability": "nonpayable",
      "type": "function"
    },
    {
      "inputs": [
        {
          "internalType": "address",
          "name": "admin",
          "type": "address"
        },
        {
          "internalType": "address",
          "name": "kycRegistry",
          "type": "address"
        },
        {
          "internalType": "uint256",
          "name": "requirementGroup",
          "type": "uint256"
        }
      ],
      "name": "initialize",
      "outputs": [],
      "stateMutability": "nonpayable",
      "type": "function"
    },
    {
      "inputs": [],
      "name": "kycRegistry",
      "outputs": [
        {
          "internalType": "contract IKYCRegistry",
          "name": "",
          "type": "address"
        }
      ],
      "stateMutability": "view",
      "type": "function"
    },
    {
      "inputs": [],
      "name": "kycRequirementGroup",
      "outputs": [
        {
          "internalType": "uint256",
          "name": "",
          "type": "uint256"
        }
      ],
      "stateMutability": "view",
      "type": "function"
    },
    {
      "inputs": [
        {
          "internalType": "address",
          "name": "user",
          "type": "address"
        },
        {
          "internalType": "uint256",
          "name": "depositAmount",
          "type": "uint256"
        }
      ],
      "name": "mint",
      "outputs": [
        {
          "internalType": "uint256",
          "name": "",
          "type": "uint256"
        }
      ],
      "stateMutability": "nonpayable",
      "type": "function"
    },
    {
      "inputs": [],
      "name": "name",
      "outputs": [
        {
          "internalType": "string",
          "name": "",
          "type": "string"
        }
      ],
      "stateMutability": "pure",
      "type": "function"
    },
    {
      "inputs": [],
      "name": "oracle",
      "outputs": [
        {
          "internalType": "address",
          "name": "",
          "type": "address"
        }
      ],
      "stateMutability": "view",
      "type": "function"
    },
    {
      "inputs": [],
      "name": "pause",
      "outputs": [],
      "stateMutability": "nonpayable",
      "type": "function"
    },
    {
      "inputs": [],
      "name": "paused",
      "outputs": [
        {
          "internalType": "bool",
          "name": "",
          "type": "bool"
        }
      ],
      "stateMutability": "view",
      "type": "function"
    },
    {
      "inputs": [
        {
          "internalType": "bytes32",
          "name": "role",
          "type": "bytes32"
        },
        {
          "internalType": "address",
          "name": "account",
          "type": "address"
        }
      ],
      "name": "renounceRole",
      "outputs": [],
      "stateMutability": "nonpayable",
      "type": "function"
    },
    {
      "inputs": [
        {
          "internalType": "bytes32",
          "name": "role",
          "type": "bytes32"
        },
        {
          "internalType": "address",
          "name": "account",
          "type": "address"
        }
      ],
      "name": "revokeRole",
      "outputs": [],
      "stateMutability": "nonpayable",
      "type": "function"
    },
    {
      "inputs": [
        {
          "internalType": "address",
          "name": "registry",
          "type": "address"
        }
      ],
      "name": "setKYCRegistry",
      "outputs": [],
      "stateMutability": "nonpayable",
      "type": "function"
    },
    {
      "inputs": [
        {
          "internalType": "uint256",
          "name": "group",
          "type": "uint256"
        }
      ],
      "name": "setKYCRequirementGroup",
      "outputs": [],
      "stateMutability": "nonpayable",
      "type": "function"
    },
    {
      "inputs": [
        {
          "internalType": "address",
          "name": "_oracle",
          "type": "address"
        }
      ],
      "name": "setOracle",
      "outputs": [],
      "stateMutability": "nonpayable",
      "type": "function"
    },
    {
      "inputs": [
        {
          "internalType": "address",
          "name": "_account",
          "type": "address"
        }
      ],
      "name": "sharesOf",
      "outputs": [
        {
          "internalType": "uint256",
          "name": "",
          "type": "uint256"
        }
      ],
      "stateMutability": "view",
      "type": "function"
    },
    {
      "inputs": [
        {
          "internalType": "bytes4",
          "name": "interfaceId",
          "type": "bytes4"
        }
      ],
      "name": "supportsInterface",
      "outputs": [
        {
          "internalType": "bool",
          "name": "",
          "type": "bool"
        }
      ],
      "stateMutability": "view",
      "type": "function"
    },
    {
      "inputs": [],
      "name": "symbol",
      "outputs": [
        {
          "internalType": "string",
          "name": "",
          "type": "string"
        }
      ],
      "stateMutability": "pure",
      "type": "function"
    },
    {
      "inputs": [],
      "name": "totalSupply",
      "outputs": [
        {
          "internalType": "uint256",
          "name": "",
          "type": "uint256"
        }
      ],
      "stateMutability": "view",
      "type": "function"
    },
    {
      "inputs": [
        {
          "internalType": "address",
          "name": "_recipient",
          "type": "address"
        },
        {
          "internalType": "uint256",
          "name": "_amount",
          "type": "uint256"
        }
      ],
      "name": "transfer",
      "outputs": [
        {
          "internalType": "bool",
          "name": "",
          "type": "bool"
        }
      ],
      "stateMutability": "nonpayable",
      "type": "function"
    },
    {
      "inputs": [
        {
          "internalType": "address",
          "name": "_sender",
          "type": "address"
        },
        {
          "internalType": "address",
          "name": "_recipient",
          "type": "address"
        },
        {
          "internalType": "uint256",
          "name": "_amount",
          "type": "uint256"
        }
      ],
      "name": "transferFrom",
      "outputs": [
        {
          "internalType": "bool",
          "name": "",
          "type": "bool"
        }
      ],
      "stateMutability": "nonpayable",
      "type": "function"
    },
    {
      "inputs": [],
      "name": "unpause",
      "outputs": [],
      "stateMutability": "nonpayable",
      "type": "function"
    }
  ],
  "solcInputHash": "2f1faea390e7257bd369ece6ac7f1fbd",
  "bytecode": "0x608060405234801561001057600080fd5b5061001961001e565b6100de565b600054610100900460ff161561008a5760405162461bcd60e51b815260206004820152602760248201527f496e697469616c697a61626c653a20636f6e747261637420697320696e697469604482015266616c697a696e6760c81b606482015260840160405180910390fd5b60005460ff90811610156100dc576000805460ff191660ff9081179091556040519081527f7f26b83ff96e1f2b6a682f133852f6798a09c465da95921460cefb38474024989060200160405180910390a15b565b61232480620000ee6000396000f3fe608060405234801561001057600080fd5b506004361061027f5760003560e01c806370a082311161015c578063a457c2d7116100ce578063d539139311610087578063d53913931461059b578063d547741f146105c2578063dd62ed3e146105d5578063e63ab1e91461060f578063f5eb42dc14610624578063f722ce941461063757600080fd5b8063a457c2d714610533578063a9059cbb14610546578063bb39512b14610559578063c2dd9a431461056c578063ca15c8731461057f578063d5002f2e1461059257600080fd5b806386b843691161012057806386b84369146104c85780638ad84cea146104db5780639010d07c146104e557806391d14854146104f857806395d89b411461050b578063a217fddf1461052b57600080fd5b806370a082311461047357806379cc6790146104865780637adbf973146104995780637dc0d1d0146104ac5780638456cb59146104c057600080fd5b80632f2ff15d116101f557806340c10f19116101b957806340c10f19146103fb57806342966c681461040e5780634b155b9714610421578063510b751b1461044c5780635c975abb14610455578063600d2dbc1461046057600080fd5b80632f2ff15d146103ab578063313ce567146103be57806336568abe146103cd57806339509351146103e05780633f4ba83a146103f357600080fd5b80631794bb3c116102475780631794bb3c1461033157806318160ddd1461034457806323b872dd1461034d578063248a9ca31461036057806324f09e9c14610383578063282c51f31461039657600080fd5b80630106d96b1461028457806301ffc9a7146102ac57806306dd0419146102cf57806306fdde03146102e4578063095ea7b31461031e575b600080fd5b61029960008051602061222f83398151915281565b6040519081526020015b60405180910390f35b6102bf6102ba366004611e9b565b61064c565b60405190151581526020016102a3565b6102e26102dd366004611edc565b610677565b005b6040805180820190915260158152744f6e646f205553204d6f6e6579204d61726b65747360581b60208201525b6040516102a39190611f2a565b6102bf61032c366004611edc565b610725565b6102e261033f366004611f5d565b61073b565b61013254610299565b6102bf61035b366004611f5d565b610857565b61029961036e366004611f99565b60009081526097602052604090206001015490565b6102e2610391366004611f99565b610900565b6102996000805160206122cf83398151915281565b6102e26103b9366004611fb2565b610925565b604051601281526020016102a3565b6102e26103db366004611fb2565b61094f565b6102bf6103ee366004611edc565b6109c9565b6102e2610a01565b610299610409366004611edc565b610a24565b6102e261041c366004611f99565b610b43565b60fb54610434906001600160a01b031681565b6040516001600160a01b0390911681526020016102a3565b61029960fc5481565b60335460ff166102bf565b6102e261046e366004611fde565b610bee565b610299610481366004611fde565b610c0f565b6102e2610494366004611edc565b610c1d565b6102e26104a7366004611fde565b610cfe565b61013354610434906001600160a01b031681565b6102e2610d3a565b6102996104d6366004611f99565b610d5a565b6102996101325481565b6104346104f3366004611ff9565b610d92565b6102bf610506366004611fb2565b610daa565b60408051808201909152600481526327a6a6a360e11b6020820152610311565b610299600081565b6102bf610541366004611edc565b610dd5565b6102bf610554366004611edc565b610e63565b610299610567366004611f99565b610e70565b6102e261057a366004611f99565b610ea6565b61029961058d366004611f99565b610f43565b61013154610299565b6102997f9f2df0fed2c77648de5860a4cc508cd0818c85b8b8a1ab4ceeef8d981c8956a681565b6102e26105d0366004611fb2565b610f5a565b6102996105e336600461201b565b6001600160a01b0391821660009081526101306020908152604080832093909416825291909152205490565b61029960008051602061226f83398151915281565b610299610632366004611fde565b610f7f565b6102996000805160206122af83398151915281565b60006001600160e01b03198216635a05180f60e01b1480610671575061067182610f8a565b92915050565b6000805160206122cf83398151915261068f81610fbf565b600061069a83610d5a565b90506106a68482610fc9565b508261013260008282546106ba919061205b565b90915550506040518181526000906001600160a01b0386169060008051602061224f833981519152906020015b60405180910390a36040518381526000906001600160a01b0386169060008051602061228f833981519152906020015b60405180910390a350505050565b60006107323384846110b8565b50600192915050565b600054610100900460ff161580801561075b5750600054600160ff909116105b806107755750303b158015610775575060005460ff166001145b6107dd5760405162461bcd60e51b815260206004820152602e60248201527f496e697469616c697a61626c653a20636f6e747261637420697320616c72656160448201526d191e481a5b9a5d1a585b1a5e995960921b60648201526084015b60405180910390fd5b6000805460ff191660011790558015610800576000805461ff0019166101001790555b61080b8484846111c4565b8015610851576000805461ff0019169055604051600181527f7f26b83ff96e1f2b6a682f133852f6798a09c465da95921460cefb38474024989060200160405180910390a15b50505050565b6001600160a01b038316600090815261013060209081526040808320338452909152812054828110156108d65760405162461bcd60e51b815260206004820152602160248201527f5452414e534645525f414d4f554e545f455843454544535f414c4c4f57414e436044820152604560f81b60648201526084016107d4565b6108e1858585611206565b6108f585336108f0868561205b565b6110b8565b506001949350505050565b60008051602061222f83398151915261091881610fbf565b61092182611251565b5050565b60008281526097602052604090206001015461094081610fbf565b61094a838361128f565b505050565b6001600160a01b03811633146109bf5760405162461bcd60e51b815260206004820152602f60248201527f416363657373436f6e74726f6c3a2063616e206f6e6c792072656e6f756e636560448201526e103937b632b9903337b91039b2b63360891b60648201526084016107d4565b61092182826112b1565b336000818152610130602090815260408083206001600160a01b038716845290915281205490916107329185906108f090869061206e565b6000805160206122af833981519152610a1981610fbf565b610a216112d3565b50565b60007f9f2df0fed2c77648de5860a4cc508cd0818c85b8b8a1ab4ceeef8d981c8956a6610a5081610fbf565b60008311610a9c5760405162461bcd60e51b815260206004820152601960248201527813d353518e881e995c9bc819195c1bdcda5d08185b5bdd5b9d603a1b60448201526064016107d4565b6000610aa784610d5a565b905080600003610ab45750825b610abe8582611325565b50836101326000828254610ad2919061206e565b90915550506040518181526001600160a01b0386169060009060008051602061224f8339815191529060200160405180910390a36001600160a01b038516600060008051602061228f833981519152610b2a84610e70565b60405190815260200160405180910390a3949350505050565b80610b50610567336113ee565b1015610b6e5760405162461bcd60e51b81526004016107d490612081565b6000610b7982610d5a565b9050610b853382610fc9565b50816101326000828254610b99919061205b565b9091555050604051818152600090339060008051602061224f8339815191529060200160405180910390a3604051828152600090339060008051602061228f8339815191529060200160405180910390a35050565b60008051602061222f833981519152610c0681610fbf565b6109218261140a565b6000610671610567836113ee565b6001600160a01b03821660009081526101306020908152604080832033845290915290205481811015610c925760405162461bcd60e51b815260206004820152601d60248201527f4255524e5f414d4f554e545f455843454544535f414c4c4f57414e434500000060448201526064016107d4565b6000610c9d83610d5a565b9050610ca98482610fc9565b50826101326000828254610cbd919061205b565b90915550610cd2905084336108f0868661205b565b6040518181526000906001600160a01b0386169060008051602061224f833981519152906020016106e7565b6000805160206122af833981519152610d1681610fbf565b5061013380546001600160a01b0319166001600160a01b0392909216919091179055565b60008051602061226f833981519152610d5281610fbf565b610a2161148b565b61013254600090808203610d715750600092915050565b806101315484610d8191906120b8565b610d8b91906120d7565b9392505050565b600082815260c960205260408120610d8b90836114c8565b60009182526097602090815260408084206001600160a01b0393909316845291905290205460ff1690565b336000908152610130602090815260408083206001600160a01b038616845290915281205482811015610e4a5760405162461bcd60e51b815260206004820152601e60248201527f4445435245415345445f414c4c4f57414e43455f42454c4f575f5a45524f000060448201526064016107d4565b610e5933856108f0868561205b565b5060019392505050565b6000610732338484611206565b600061013154600003610e8557506000919050565b6101315461013254610e9790846120b8565b61067191906120d7565b919050565b610eae6114d4565b610133546001600160a01b03163314610efc5760405162461bcd60e51b815260206004820152601060248201526f4f4d4d463a206e6f74206f7261636c6560801b60448201526064016107d4565b61013280549082905560408051828152602081018490527f51803d9585a0e4512ffb9063e13470c9c31c99544ebdb5e027b8f22d535b864f91015b60405180910390a15050565b600081815260c9602052604081206106719061151c565b600082815260976020526040902060010154610f7581610fbf565b61094a83836112b1565b6000610671826113ee565b60006001600160e01b03198216637965db0b60e01b148061067157506301ffc9a760e01b6001600160e01b0319831614610671565b610a218133611526565b6000610fd36114d4565b6001600160a01b0383166110295760405162461bcd60e51b815260206004820152601a60248201527f4255524e5f46524f4d5f5448455f5a45524f5f4144445245535300000000000060448201526064016107d4565b6110358360008461158a565b6001600160a01b038316600090815261012f60205260409020548083111561106f5760405162461bcd60e51b81526004016107d490612081565b826101316000828254611082919061205b565b909155506110929050838261205b565b6001600160a01b038516600090815261012f602052604090205550506101315492915050565b6110c06114d4565b6001600160a01b0383166111125760405162461bcd60e51b8152602060048201526019602482015278415050524f56455f46524f4d5f5a45524f5f4144445245535360381b60448201526064016107d4565b6001600160a01b0382166111625760405162461bcd60e51b8152602060048201526017602482015276415050524f56455f544f5f5a45524f5f4144445245535360481b60448201526064016107d4565b6001600160a01b038381166000818152610130602090815260408083209487168084529482529182902085905590518481527f8c5be1e5ebec7d5bd14f71427d1e84f3dd0314c0f7b2291e5b200ac8c7c3b925910160405180910390a3505050565b600054610100900460ff166111eb5760405162461bcd60e51b81526004016107d4906120f9565b6111f3611714565b6111fd8282611747565b61094a83611780565b600061121182610d5a565b905061121e848483611812565b826001600160a01b0316846001600160a01b031660008051602061228f8339815191528460405161071791815260200190565b60fc80549082905560408051828152602081018490527fdaffa4de8807a37aaf10d8a67851ece24bdb59211b326eb514393692ddc958329101610f37565b61129982826119b9565b600082815260c96020526040902061094a9082611a3f565b6112bb8282611a54565b600082815260c96020526040902061094a9082611abb565b6112db611ad0565b6033805460ff191690557f5db9ee0a495bf2e6ff9c91a7834c1ba4fdd244a5e8aa4e537bd38aeae4b073aa335b6040516001600160a01b03909116815260200160405180910390a1565b600061132f6114d4565b6001600160a01b0383166113805760405162461bcd60e51b81526020600482015260186024820152774d494e545f544f5f5448455f5a45524f5f4144445245535360401b60448201526064016107d4565b61138c6000848461158a565b81610131600082825461139f919061206e565b90915550506001600160a01b038316600090815261012f60205260409020546113c990839061206e565b6001600160a01b038416600090815261012f6020526040902055506101315492915050565b6001600160a01b0316600090815261012f602052604090205490565b6001600160a01b03811661143157604051636ca1fdd760e01b815260040160405180910390fd5b60fb80546001600160a01b038381166001600160a01b031983168117909355604080519190921680825260208201939093527f7d25fe3c08dd306579e1d2a5002c9c44f52c27fc3754b43c75ef1e080d454c8a9101610f37565b6114936114d4565b6033805460ff191660011790557f62e78cea01bee320cd4e420270b5ea74000d11b0c9f74754ebdbfc544b05a2586113083390565b6000610d8b8383611b19565b60335460ff161561151a5760405162461bcd60e51b815260206004820152601060248201526f14185d5cd8589b194e881c185d5cd95960821b60448201526064016107d4565b565b6000610671825490565b6115308282610daa565b61092157611548816001600160a01b03166014611b43565b611553836020611b43565b604051602001611564929190612144565b60408051601f198184030181529082905262461bcd60e51b82526107d491600401611f2a565b6001600160a01b03831633148015906115ac57506001600160a01b0382163314155b15611617576115ba33611cdf565b6116175760405162461bcd60e51b815260206004820152602860248201527f4f4d4d463a206d757374206265204b5943276420746f20696e697469617465206044820152673a3930b739b332b960c11b60648201526084016107d4565b6001600160a01b038316156116955761162f83611cdf565b6116955760405162461bcd60e51b815260206004820152603160248201527f4f4d4d463a206066726f6d602061646472657373206d757374206265204b5943604482015270276420746f2073656e6420746f6b656e7360781b60648201526084016107d4565b6001600160a01b0382161561094a576116ad82611cdf565b61094a5760405162461bcd60e51b815260206004820152603260248201527f4f4d4d463a2060746f602061646472657373206d757374206265204b5943276460448201527120746f207265636569766520746f6b656e7360701b60648201526084016107d4565b600054610100900460ff1661173b5760405162461bcd60e51b81526004016107d4906120f9565b6033805460ff19169055565b600054610100900460ff1661176e5760405162461bcd60e51b81526004016107d4906120f9565b6117778261140a565b61092181611251565b600054610100900460ff166117a75760405162461bcd60e51b81526004016107d4906120f9565b6117b260008261128f565b6117ca6000805160206122af8339815191528261128f565b6117e260008051602061226f8339815191528261128f565b6117fa6000805160206122cf8339815191528261128f565b610a2160008051602061222f8339815191528261128f565b61181a6114d4565b6001600160a01b0383166118705760405162461bcd60e51b815260206004820152601e60248201527f5452414e534645525f46524f4d5f5448455f5a45524f5f41444452455353000060448201526064016107d4565b6001600160a01b0382166118c65760405162461bcd60e51b815260206004820152601c60248201527f5452414e534645525f544f5f5448455f5a45524f5f414444524553530000000060448201526064016107d4565b6118d183838361158a565b6001600160a01b038316600090815261012f60205260409020548082111561193b5760405162461bcd60e51b815260206004820152601f60248201527f5452414e534645525f414d4f554e545f455843454544535f42414c414e43450060448201526064016107d4565b611945828261205b565b6001600160a01b03808616600090815261012f6020526040808220939093559085168152205461197690839061206e565b6001600160a01b03808516600081815261012f6020526040908190209390935591519086169060008051602061224f833981519152906107179086815260200190565b6119c38282610daa565b6109215760008281526097602090815260408083206001600160a01b03851684529091529020805460ff191660011790556119fb3390565b6001600160a01b0316816001600160a01b0316837f2f8788117e7eff1d82e926ec794901d17c78024a50270940304540a733656f0d60405160405180910390a45050565b6000610d8b836001600160a01b038416611d59565b611a5e8282610daa565b156109215760008281526097602090815260408083206001600160a01b0385168085529252808320805460ff1916905551339285917ff6391f5c32d9c69d2a47ea670b442974b53935d1edc7fd64eb21e047a839171b9190a45050565b6000610d8b836001600160a01b038416611da8565b60335460ff1661151a5760405162461bcd60e51b815260206004820152601460248201527314185d5cd8589b194e881b9bdd081c185d5cd95960621b60448201526064016107d4565b6000826000018281548110611b3057611b306121b3565b9060005260206000200154905092915050565b60606000611b528360026120b8565b611b5d90600261206e565b67ffffffffffffffff811115611b7557611b756121c9565b6040519080825280601f01601f191660200182016040528015611b9f576020820181803683370190505b509050600360fc1b81600081518110611bba57611bba6121b3565b60200101906001600160f81b031916908160001a905350600f60fb1b81600181518110611be957611be96121b3565b60200101906001600160f81b031916908160001a9053506000611c0d8460026120b8565b611c1890600161206e565b90505b6001811115611c90576f181899199a1a9b1b9c1cb0b131b232b360811b85600f1660108110611c4c57611c4c6121b3565b1a60f81b828281518110611c6257611c626121b3565b60200101906001600160f81b031916908160001a90535060049490941c93611c89816121df565b9050611c1b565b508315610d8b5760405162461bcd60e51b815260206004820181905260248201527f537472696e67733a20686578206c656e67746820696e73756666696369656e7460448201526064016107d4565b60fb5460fc5460405163609f4d6d60e11b815260048101919091526001600160a01b038381166024830152600092169063c13e9ada90604401602060405180830381865afa158015611d35573d6000803e3d6000fd5b505050506040513d601f19601f8201168201806040525081019061067191906121f6565b6000818152600183016020526040812054611da057508154600181810184556000848152602080822090930184905584548482528286019093526040902091909155610671565b506000610671565b60008181526001830160205260408120548015611e91576000611dcc60018361205b565b8554909150600090611de09060019061205b565b9050818114611e45576000866000018281548110611e0057611e006121b3565b9060005260206000200154905080876000018481548110611e2357611e236121b3565b6000918252602080832090910192909255918252600188019052604090208390555b8554869080611e5657611e56612218565b600190038181906000526020600020016000905590558560010160008681526020019081526020016000206000905560019350505050610671565b6000915050610671565b600060208284031215611ead57600080fd5b81356001600160e01b031981168114610d8b57600080fd5b80356001600160a01b0381168114610ea157600080fd5b60008060408385031215611eef57600080fd5b611ef883611ec5565b946020939093013593505050565b60005b83811015611f21578181015183820152602001611f09565b50506000910152565b6020815260008251806020840152611f49816040850160208701611f06565b601f01601f19169190910160400192915050565b600080600060608486031215611f7257600080fd5b611f7b84611ec5565b9250611f8960208501611ec5565b9150604084013590509250925092565b600060208284031215611fab57600080fd5b5035919050565b60008060408385031215611fc557600080fd5b82359150611fd560208401611ec5565b90509250929050565b600060208284031215611ff057600080fd5b610d8b82611ec5565b6000806040838503121561200c57600080fd5b50508035926020909101359150565b6000806040838503121561202e57600080fd5b61203783611ec5565b9150611fd560208401611ec5565b634e487b7160e01b600052601160045260246000fd5b8181038181111561067157610671612045565b8082018082111561067157610671612045565b6020808252601b908201527f4255524e5f414d4f554e545f455843454544535f42414c414e43450000000000604082015260600190565b60008160001904831182151516156120d2576120d2612045565b500290565b6000826120f457634e487b7160e01b600052601260045260246000fd5b500490565b6020808252602b908201527f496e697469616c697a61626c653a20636f6e7472616374206973206e6f74206960408201526a6e697469616c697a696e6760a81b606082015260800190565b76020b1b1b2b9b9a1b7b73a3937b61d1030b1b1b7bab73a1604d1b815260008351612176816017850160208801611f06565b7001034b99036b4b9b9b4b733903937b6329607d1b60179184019182015283516121a7816028840160208801611f06565b01602801949350505050565b634e487b7160e01b600052603260045260246000fd5b634e487b7160e01b600052604160045260246000fd5b6000816121ee576121ee612045565b506000190190565b60006020828403121561220857600080fd5b81518015158114610d8b57600080fd5b634e487b7160e01b600052603160045260246000fdfe26a6ff9f16adebf611cecd7b1759204c9bc5a4ce237c46fe05aed34fa1e511879d9c909296d9c674451c0c24f02cb64981eb3b727f99865939192f880a755dcb65d7a28e3265b37a6474929f336521b332c1681b933f6cb9f3376673440d862addf252ad1be2c89b69c2b068fc378daa952ba7f163c4a11628f55a4df523b3efa49807205ce4d355092ef5a8a18f56e8913cf4a201fbe287825b095693c21775e97b137254058bd94f28d2f3eb79e2d34074ffb488d042e3bc958e0a57d2fa22a26469706673582212202aea78a6c19bf85c1bfef9cd238d1b7ba8cd03f48cafa5d466dd845a97506c9b64736f6c63430008100033",
  "devdoc": {
    "events": {
      "OracleReportHandled(uint256,uint256)": {
        "params": {
          "newDepositedCash": "The new NAV value.",
          "oldDepositedCash": "The old NAV value."
        }
      },
      "TransferShares(address,address,uint256)": {
        "details": "emitted in pair with an ERC20-defined `Transfer` event."
      }
    },
    "kind": "dev",
    "methods": {
      "adminBurn(address,uint256)": {
        "params": {
          "_account": "The account to burn tokens from",
          "_amount": "The amount of OMMF tokens to burn"
        }
      },
      "allowance(address,address)": {
        "details": "This value changes when `approve` or `transferFrom` is called.",
        "returns": {
          "_0": "the remaining number of tokens that `_spender` is allowed to spend on behalf of `_owner` through `transferFrom`. This is zero by default."
        }
      },
      "approve(address,uint256)": {
        "details": "The `_amount` argument is the amount of tokens, not shares.",
        "returns": {
          "_0": "a boolean value indicating whether the operation succeeded. Emits an `Approval` event. Requirements: - `_spender` cannot be the zero address. - the contract must not be paused."
        }
      },
      "balanceOf(address)": {
        "details": "Balances are dynamic and equal the `_account`'s share in the amount of the total Cash controlled by the protocol. See `sharesOf`.",
        "returns": {
          "_0": "the amount of tokens owned by the `_account`."
        }
      },
      "burn(uint256)": {
        "params": {
          "_amount": "The amount of OMMF tokens to burn"
        }
      },
      "burnFrom(address,uint256)": {
        "details": "Decrements shares as well as `depositedAmount`",
        "params": {
          "_account": "Account to burn tokens from",
          "_amount": "Amount of tokens to burn"
        }
      },
      "constructor": {
        "custom:oz-upgrades-unsafe-allow": "constructor"
      },
      "decimals()": {
        "returns": {
          "_0": "the number of decimals for getting user representation of a token amount."
        }
      },
      "getBalanceOfByShares(uint256)": {
        "returns": {
          "_0": "the amount of OMMF that corresponds to `_sharesAmount` token shares."
        }
      },
      "getRoleAdmin(bytes32)": {
        "details": "Returns the admin role that controls `role`. See {grantRole} and {revokeRole}. To change a role's admin, use {_setRoleAdmin}."
      },
      "getRoleMember(bytes32,uint256)": {
        "details": "Returns one of the accounts that have `role`. `index` must be a value between 0 and {getRoleMemberCount}, non-inclusive. Role bearers are not sorted in any particular way, and their ordering may change at any point. WARNING: When using {getRoleMember} and {getRoleMemberCount}, make sure you perform all queries on the same block. See the following https://forum.openzeppelin.com/t/iterating-over-elements-on-enumerableset-in-openzeppelin-contracts/2296[forum post] for more information."
      },
      "getRoleMemberCount(bytes32)": {
        "details": "Returns the number of accounts that have `role`. Can be used together with {getRoleMember} to enumerate all bearers of a role."
      },
      "getSharesByPooledCash(uint256)": {
        "returns": {
          "_0": "the amount of shares that corresponds to `cashAmount` protocol-controlled Cash."
        }
      },
      "getTotalShares()": {
        "details": "The sum of all accounts' shares can be an arbitrary number, therefore it is necessary to store it in order to calculate each account's relative share.",
        "returns": {
          "_0": "the total amount of shares in existence."
        }
      },
      "grantRole(bytes32,address)": {
        "details": "Grants `role` to `account`. If `account` had not been already granted `role`, emits a {RoleGranted} event. Requirements: - the caller must have ``role``'s admin role. May emit a {RoleGranted} event."
      },
      "handleOracleReport(uint256)": {
        "details": "periodically called by the Oracle contract",
        "params": {
          "_depositedCash": "Total cash in fund"
        }
      },
      "hasRole(bytes32,address)": {
        "details": "Returns `true` if `account` has been granted `role`."
      },
      "mint(address,uint256)": {
        "returns": {
          "_0": "Amount of OMMF shares generated"
        }
      },
      "name()": {
        "returns": {
          "_0": "the name of the token."
        }
      },
      "paused()": {
        "details": "Returns true if the contract is paused, and false otherwise."
      },
      "renounceRole(bytes32,address)": {
        "details": "Revokes `role` from the calling account. Roles are often managed via {grantRole} and {revokeRole}: this function's purpose is to provide a mechanism for accounts to lose their privileges if they are compromised (such as when a trusted device is misplaced). If the calling account had been revoked `role`, emits a {RoleRevoked} event. Requirements: - the caller must be `account`. May emit a {RoleRevoked} event."
      },
      "revokeRole(bytes32,address)": {
        "details": "Revokes `role` from `account`. If `account` had been granted `role`, emits a {RoleRevoked} event. Requirements: - the caller must have ``role``'s admin role. May emit a {RoleRevoked} event."
      },
      "setOracle(address)": {
        "details": "The new oracle can call `handleOracleReport` for rebases",
        "params": {
          "_oracle": "Address of the new oracle"
        }
      },
      "sharesOf(address)": {
        "returns": {
          "_0": "the amount of shares owned by `_account`."
        }
      },
      "supportsInterface(bytes4)": {
        "details": "See {IERC165-supportsInterface}."
      },
      "symbol()": {
        "returns": {
          "_0": "the symbol of the token, usually a shorter version of the name."
        }
      },
      "totalSupply()": {
        "details": "Always equals to `depositedCash()` since token amount is pegged to the total amount of OMMF controlled by the protocol.",
        "returns": {
          "_0": "the amount of tokens in existence."
        }
      },
      "transfer(address,uint256)": {
        "details": "The `_amount` argument is the amount of tokens, not shares.",
        "returns": {
          "_0": "a boolean value indicating whether the operation succeeded. Emits a `Transfer` event. Emits a `TransferShares` event. Requirements: - `_recipient` cannot be the zero address. - the caller must have a balance of at least `_amount`. - the contract must not be paused."
        }
      },
      "transferFrom(address,address,uint256)": {
        "details": "The `_amount` argument is the amount of tokens, not shares.",
        "returns": {
          "_0": "a boolean value indicating whether the operation succeeded. Emits a `Transfer` event. Emits a `TransferShares` event. Emits an `Approval` event indicating the updated allowance. Requirements: - `_sender` and `_recipient` cannot be the zero addresses. - `_sender` must have a balance of at least `_amount`. - the caller must have allowance for `_sender`'s tokens of at least `_amount`. - the contract must not be paused."
        }
      }
    },
    "stateVariables": {
      "OMMF_MANAGER_ROLE": {
        "details": "Role based access control roles"
      },
      "allowances": {
        "details": "Allowances are nominated in tokens, not token shares."
      },
      "shares": {
        "details": "OMMF balances are dynamic and are calculated based on the accounts' shares and the total amount of Cash controlled by the protocol. Account shares aren't normalized, so the contract also stores the sum of all shares to calculate each account's token balance which equals to:   shares[account] * depositedCash() / _getTotalShares()"
      }
    },
    "title": "Interest-bearing ERC20-like token for OMMF. OMMF balances are dynamic and represent the holder's share in the total amount of Cash controlled by the protocol. Account shares aren't normalized, so the contract also stores the sum of all shares to calculate each account's token balance which equals to:   shares[account] * depositedCash() / _getTotalShares() For example, assume that we have:   depositedCash() -> 10 USDC underlying OMMF   sharesOf(user1) -> 100   sharesOf(user2) -> 400 Therefore:   balanceOf(user1) -> 2 tokens which corresponds 2 OMMF   balanceOf(user2) -> 8 tokens which corresponds 8 OMMF Since balances of all token holders change when the amount of total pooled Cash changes, this token cannot fully implement ERC20 standard: it only emits `Transfer` events upon explicit transfer between holders. In contrast, when total amount of pooled Cash increases, no `Transfer` events are generated: doing so would require emitting an event for each token holder and thus running an unbounded loop.",
    "version": 1
  },
  "userdoc": {
    "errors": {
      "RegistryZeroAddress()": [
        {
          "notice": "Error for when caller attempts to set the KYC registry refernce         to the zero address."
        }
      ]
    },
    "events": {
      "OracleReportHandled(uint256,uint256)": {
        "notice": "Emitted when an oracle report (rebase) is executed"
      },
      "TransferShares(address,address,uint256)": {
        "notice": "An executed shares transfer from `sender` to `recipient`."
      }
    },
    "kind": "user",
    "methods": {
      "adminBurn(address,uint256)": {
        "notice": "Admin burn function to burn OMMF tokens from any account"
      },
      "approve(address,uint256)": {
        "notice": "Sets `_amount` as the allowance of `_spender` over the caller's tokens."
      },
      "burn(uint256)": {
        "notice": "Burns `_amount` of OMMF tokens from msg.sender's holdings"
      },
      "burnFrom(address,uint256)": {
        "notice": "Burns `_amount` of OMMF tokens from `_account`'s holdings,         deducting from the caller's allowance"
      },
      "decreaseAllowance(address,uint256)": {
        "notice": "Atomically decreases the allowance granted to `_spender` by the caller by `_subtractedValue`. This is an alternative to `approve` that can be used as a mitigation for problems described in: https://github.com/OpenZeppelin/openzeppelin-contracts/blob/master/contracts/token/ERC20/IERC20.sol#L42 Emits an `Approval` event indicating the updated allowance. Requirements: - `_spender` cannot be the zero address. - `_spender` must have allowance for the caller of at least `_subtractedValue`. - the contract must not be paused."
      },
      "handleOracleReport(uint256)": {
        "notice": "Updates underlying cash in fund"
      },
      "increaseAllowance(address,uint256)": {
        "notice": "Atomically increases the allowance granted to `_spender` by the caller by `_addedValue`. This is an alternative to `approve` that can be used as a mitigation for problems described in: https://github.com/OpenZeppelin/openzeppelin-contracts/blob/master/contracts/token/ERC20/IERC20.sol#L42 Emits an `Approval` event indicating the updated allowance. Requirements: - `_spender` cannot be the the zero address. - the contract must not be paused."
      },
      "kycRegistry()": {
        "notice": "Returns reference to the KYC registry that this client queries"
      },
      "kycRequirementGroup()": {
        "notice": "Returns what KYC group this client checks accounts for"
      },
      "mint(address,uint256)": {
        "notice": "Send funds to the pool"
      },
      "setKYCRegistry(address)": {
        "notice": "Sets the KYC registry reference"
      },
      "setKYCRequirementGroup(uint256)": {
        "notice": "Sets the KYC group"
      },
      "setOracle(address)": {
        "notice": "Sets the Oracle address"
      },
      "transfer(address,uint256)": {
        "notice": "Moves `_amount` tokens from the caller's account to the `_recipient` account."
      },
      "transferFrom(address,address,uint256)": {
        "notice": "Moves `_amount` tokens from `_sender` to `_recipient` using the allowance mechanism. `_amount` is then deducted from the caller's allowance."
      }
    },
    "version": 1
  },
  "storageLayout": {
    "storage": [
      {
        "astId": 5743,
        "contract": "contracts/ommf/ommf_token/ommf.sol:OMMF",
        "label": "_initialized",
        "offset": 0,
        "slot": "0",
        "type": "t_uint8"
      },
      {
        "astId": 5746,
        "contract": "contracts/ommf/ommf_token/ommf.sol:OMMF",
        "label": "_initializing",
        "offset": 1,
        "slot": "0",
        "type": "t_bool"
      },
      {
        "astId": 9106,
        "contract": "contracts/ommf/ommf_token/ommf.sol:OMMF",
        "label": "__gap",
        "offset": 0,
        "slot": "1",
        "type": "t_array(t_uint256)50_storage"
      },
      {
        "astId": 5908,
        "contract": "contracts/ommf/ommf_token/ommf.sol:OMMF",
        "label": "_paused",
        "offset": 0,
        "slot": "51",
        "type": "t_bool"
      },
      {
        "astId": 6013,
        "contract": "contracts/ommf/ommf_token/ommf.sol:OMMF",
        "label": "__gap",
        "offset": 0,
        "slot": "52",
        "type": "t_array(t_uint256)49_storage"
      },
      {
        "astId": 9224,
        "contract": "contracts/ommf/ommf_token/ommf.sol:OMMF",
        "label": "__gap",
        "offset": 0,
        "slot": "101",
        "type": "t_array(t_uint256)50_storage"
      },
      {
        "astId": 5338,
        "contract": "contracts/ommf/ommf_token/ommf.sol:OMMF",
        "label": "_roles",
        "offset": 0,
        "slot": "151",
        "type": "t_mapping(t_bytes32,t_struct(RoleData)5333_storage)"
      },
      {
        "astId": 5637,
        "contract": "contracts/ommf/ommf_token/ommf.sol:OMMF",
        "label": "__gap",
        "offset": 0,
        "slot": "152",
        "type": "t_array(t_uint256)49_storage"
      },
      {
        "astId": 5187,
        "contract": "contracts/ommf/ommf_token/ommf.sol:OMMF",
        "label": "_roleMembers",
        "offset": 0,
        "slot": "201",
        "type": "t_mapping(t_bytes32,t_struct(AddressSet)9537_storage)"
      },
      {
        "astId": 5297,
        "contract": "contracts/ommf/ommf_token/ommf.sol:OMMF",
        "label": "__gap",
        "offset": 0,
        "slot": "202",
        "type": "t_array(t_uint256)49_storage"
      },
      {
        "astId": 16065,
        "contract": "contracts/ommf/ommf_token/ommf.sol:OMMF",
        "label": "kycRegistry",
        "offset": 0,
        "slot": "251",
        "type": "t_contract(IKYCRegistry)15543"
      },
      {
        "astId": 16068,
        "contract": "contracts/ommf/ommf_token/ommf.sol:OMMF",
        "label": "kycRequirementGroup",
        "offset": 0,
        "slot": "252",
        "type": "t_uint256"
      },
      {
        "astId": 16179,
        "contract": "contracts/ommf/ommf_token/ommf.sol:OMMF",
        "label": "__gap",
        "offset": 0,
        "slot": "253",
        "type": "t_array(t_uint256)50_storage"
      },
      {
        "astId": 16932,
        "contract": "contracts/ommf/ommf_token/ommf.sol:OMMF",
        "label": "shares",
        "offset": 0,
        "slot": "303",
        "type": "t_mapping(t_address,t_uint256)"
      },
      {
        "astId": 16939,
        "contract": "contracts/ommf/ommf_token/ommf.sol:OMMF",
        "label": "allowances",
        "offset": 0,
        "slot": "304",
        "type": "t_mapping(t_address,t_mapping(t_address,t_uint256))"
      },
      {
        "astId": 16941,
        "contract": "contracts/ommf/ommf_token/ommf.sol:OMMF",
        "label": "totalShares",
        "offset": 0,
        "slot": "305",
        "type": "t_uint256"
      },
      {
        "astId": 16943,
        "contract": "contracts/ommf/ommf_token/ommf.sol:OMMF",
        "label": "depositedCash",
        "offset": 0,
        "slot": "306",
        "type": "t_uint256"
      },
      {
        "astId": 16945,
        "contract": "contracts/ommf/ommf_token/ommf.sol:OMMF",
        "label": "oracle",
        "offset": 0,
        "slot": "307",
        "type": "t_address"
      }
    ],
    "types": {
      "t_address": {
        "encoding": "inplace",
        "label": "address",
        "numberOfBytes": "20"
      },
      "t_array(t_bytes32)dyn_storage": {
        "base": "t_bytes32",
        "encoding": "dynamic_array",
        "label": "bytes32[]",
        "numberOfBytes": "32"
      },
      "t_array(t_uint256)49_storage": {
        "base": "t_uint256",
        "encoding": "inplace",
        "label": "uint256[49]",
        "numberOfBytes": "1568"
      },
      "t_array(t_uint256)50_storage": {
        "base": "t_uint256",
        "encoding": "inplace",
        "label": "uint256[50]",
        "numberOfBytes": "1600"
      },
      "t_bool": {
        "encoding": "inplace",
        "label": "bool",
        "numberOfBytes": "1"
      },
      "t_bytes32": {
        "encoding": "inplace",
        "label": "bytes32",
        "numberOfBytes": "32"
      },
      "t_contract(IKYCRegistry)15543": {
        "encoding": "inplace",
        "label": "contract IKYCRegistry",
        "numberOfBytes": "20"
      },
      "t_mapping(t_address,t_bool)": {
        "encoding": "mapping",
        "key": "t_address",
        "label": "mapping(address => bool)",
        "numberOfBytes": "32",
        "value": "t_bool"
      },
      "t_mapping(t_address,t_mapping(t_address,t_uint256))": {
        "encoding": "mapping",
        "key": "t_address",
        "label": "mapping(address => mapping(address => uint256))",
        "numberOfBytes": "32",
        "value": "t_mapping(t_address,t_uint256)"
      },
      "t_mapping(t_address,t_uint256)": {
        "encoding": "mapping",
        "key": "t_address",
        "label": "mapping(address => uint256)",
        "numberOfBytes": "32",
        "value": "t_uint256"
      },
      "t_mapping(t_bytes32,t_struct(AddressSet)9537_storage)": {
        "encoding": "mapping",
        "key": "t_bytes32",
        "label": "mapping(bytes32 => struct EnumerableSetUpgradeable.AddressSet)",
        "numberOfBytes": "32",
        "value": "t_struct(AddressSet)9537_storage"
      },
      "t_mapping(t_bytes32,t_struct(RoleData)5333_storage)": {
        "encoding": "mapping",
        "key": "t_bytes32",
        "label": "mapping(bytes32 => struct AccessControlUpgradeable.RoleData)",
        "numberOfBytes": "32",
        "value": "t_struct(RoleData)5333_storage"
      },
      "t_mapping(t_bytes32,t_uint256)": {
        "encoding": "mapping",
        "key": "t_bytes32",
        "label": "mapping(bytes32 => uint256)",
        "numberOfBytes": "32",
        "value": "t_uint256"
      },
      "t_struct(AddressSet)9537_storage": {
        "encoding": "inplace",
        "label": "struct EnumerableSetUpgradeable.AddressSet",
        "members": [
          {
            "astId": 9536,
            "contract": "contracts/ommf/ommf_token/ommf.sol:OMMF",
            "label": "_inner",
            "offset": 0,
            "slot": "0",
            "type": "t_struct(Set)9236_storage"
          }
        ],
        "numberOfBytes": "64"
      },
      "t_struct(RoleData)5333_storage": {
        "encoding": "inplace",
        "label": "struct AccessControlUpgradeable.RoleData",
        "members": [
          {
            "astId": 5330,
            "contract": "contracts/ommf/ommf_token/ommf.sol:OMMF",
            "label": "members",
            "offset": 0,
            "slot": "0",
            "type": "t_mapping(t_address,t_bool)"
          },
          {
            "astId": 5332,
            "contract": "contracts/ommf/ommf_token/ommf.sol:OMMF",
            "label": "adminRole",
            "offset": 0,
            "slot": "1",
            "type": "t_bytes32"
          }
        ],
        "numberOfBytes": "64"
      },
      "t_struct(Set)9236_storage": {
        "encoding": "inplace",
        "label": "struct EnumerableSetUpgradeable.Set",
        "members": [
          {
            "astId": 9231,
            "contract": "contracts/ommf/ommf_token/ommf.sol:OMMF",
            "label": "_values",
            "offset": 0,
            "slot": "0",
            "type": "t_array(t_bytes32)dyn_storage"
          },
          {
            "astId": 9235,
            "contract": "contracts/ommf/ommf_token/ommf.sol:OMMF",
            "label": "_indexes",
            "offset": 0,
            "slot": "1",
            "type": "t_mapping(t_bytes32,t_uint256)"
          }
        ],
        "numberOfBytes": "64"
      },
      "t_uint256": {
        "encoding": "inplace",
        "label": "uint256",
        "numberOfBytes": "32"
      },
      "t_uint8": {
        "encoding": "inplace",
        "label": "uint8",
        "numberOfBytes": "1"
      }
    }
  }
}