{
  "address": "0x1d01be0296B99aAdeE94116e285CDb2C40bE7929",
  "abi": [
    {
      "inputs": [
        {
          "internalType": "address",
          "name": "_collateral",
          "type": "address"
        },
        {
          "internalType": "address",
          "name": "_rwa",
          "type": "address"
        },
        {
          "internalType": "address",
          "name": "managerAdmin",
          "type": "address"
        },
        {
          "internalType": "address",
          "name": "pauser",
          "type": "address"
        },
        {
          "internalType": "address",
          "name": "_assetSender",
          "type": "address"
        },
        {
          "internalType": "address",
          "name": "_feeRecipient",
          "type": "address"
        },
        {
          "internalType": "uint256",
          "name": "_minimumDepositAmount",
          "type": "uint256"
        },
        {
          "internalType": "uint256",
          "name": "_minimumRedemptionAmount",
          "type": "uint256"
        },
        {
          "internalType": "address",
          "name": "_instantMintAssetManager",
          "type": "address"
        },
        {
          "internalType": "address",
          "name": "_kycRegistry",
          "type": "address"
        },
        {
          "internalType": "uint256",
          "name": "_kycRequirementGroup",
          "type": "uint256"
        },
        {
          "internalType": "address",
          "name": "_wommf",
          "type": "address"
        }
      ],
      "stateMutability": "nonpayable",
      "type": "constructor"
    },
    {
      "inputs": [],
      "name": "AmountTooSmall",
      "type": "error"
    },
    {
      "inputs": [],
      "name": "ArraySizeMismatch",
      "type": "error"
    },
    {
      "inputs": [],
      "name": "AssetSenderCannotBeZero",
      "type": "error"
    },
    {
      "inputs": [],
      "name": "CollateralCannotBeZero",
      "type": "error"
    },
    {
      "inputs": [],
      "name": "DepositProofAlreadyExists",
      "type": "error"
    },
    {
      "inputs": [],
      "name": "DepositTooSmall",
      "type": "error"
    },
    {
      "inputs": [],
      "name": "DepositorNull",
      "type": "error"
    },
    {
      "inputs": [],
      "name": "FeaturePaused",
      "type": "error"
    },
    {
      "inputs": [],
      "name": "FeeRecipientCannotBeZero",
      "type": "error"
    },
    {
      "inputs": [],
      "name": "FeeTooLarge",
      "type": "error"
    },
    {
      "inputs": [],
      "name": "KYCCheckFailed",
      "type": "error"
    },
    {
      "inputs": [],
      "name": "PriceIdAlreadySet",
      "type": "error"
    },
    {
      "inputs": [],
      "name": "PriceIdNotSet",
      "type": "error"
    },
    {
      "inputs": [],
      "name": "RWACannotBeZero",
      "type": "error"
    },
    {
      "inputs": [],
      "name": "RedeemerNull",
      "type": "error"
    },
    {
      "inputs": [],
      "name": "RedemptionProofAlreadyExists",
      "type": "error"
    },
    {
      "inputs": [],
      "name": "RedemptionTooSmall",
      "type": "error"
    },
    {
      "inputs": [],
      "name": "RegistryZeroAddress",
      "type": "error"
    },
    {
      "inputs": [],
      "name": "TxnAlreadyValidated",
      "type": "error"
    },
    {
      "anonymous": false,
      "inputs": [
        {
          "indexed": false,
          "internalType": "address",
          "name": "oldAssetSender",
          "type": "address"
        },
        {
          "indexed": false,
          "internalType": "address",
          "name": "newAssetSender",
          "type": "address"
        }
      ],
      "name": "AssetSenderSet",
      "type": "event"
    },
    {
      "anonymous": false,
      "inputs": [
        {
          "indexed": true,
          "internalType": "bytes32",
          "name": "txHash",
          "type": "bytes32"
        },
        {
          "indexed": true,
          "internalType": "address",
          "name": "user",
          "type": "address"
        },
        {
          "indexed": false,
          "internalType": "uint256",
          "name": "depositAmountAfterFee",
          "type": "uint256"
        },
        {
          "indexed": false,
          "internalType": "uint256",
          "name": "feeAmount",
          "type": "uint256"
        },
        {
          "indexed": false,
          "internalType": "uint256",
          "name": "timestamp",
          "type": "uint256"
        }
      ],
      "name": "DepositProofAdded",
      "type": "event"
    },
    {
      "anonymous": false,
      "inputs": [
        {
          "indexed": true,
          "internalType": "bytes32",
          "name": "depositId",
          "type": "bytes32"
        },
        {
          "indexed": false,
          "internalType": "address",
          "name": "oldDepositor",
          "type": "address"
        },
        {
          "indexed": false,
          "internalType": "address",
          "name": "newDepositor",
          "type": "address"
        },
        {
          "indexed": false,
          "internalType": "uint256",
          "name": "oldPriceId",
          "type": "uint256"
        },
        {
          "indexed": false,
          "internalType": "uint256",
          "name": "newPriceId",
          "type": "uint256"
        },
        {
          "indexed": false,
          "internalType": "uint256",
          "name": "oldDepositAmount",
          "type": "uint256"
        },
        {
          "indexed": false,
          "internalType": "uint256",
          "name": "newDepositAmount",
          "type": "uint256"
        }
      ],
      "name": "DepositorOverwritten",
      "type": "event"
    },
    {
      "anonymous": false,
      "inputs": [
        {
          "indexed": false,
          "internalType": "address",
          "name": "oldFeeRecipient",
          "type": "address"
        },
        {
          "indexed": false,
          "internalType": "address",
          "name": "newFeeRecipient",
          "type": "address"
        }
      ],
      "name": "FeeRecipientSet",
      "type": "event"
    },
    {
      "anonymous": false,
      "inputs": [
        {
          "indexed": false,
          "internalType": "address",
          "name": "oldInstantMintAssetManager",
          "type": "address"
        },
        {
          "indexed": false,
          "internalType": "address",
          "name": "newInstantMintAssetManager",
          "type": "address"
        }
      ],
      "name": "InstantMintAssetManagerSet",
      "type": "event"
    },
    {
      "anonymous": false,
      "inputs": [
        {
          "indexed": true,
          "internalType": "address",
          "name": "user",
          "type": "address"
        },
        {
          "indexed": false,
          "internalType": "uint256",
          "name": "collateralAmountDeposited",
          "type": "uint256"
        },
        {
          "indexed": false,
          "internalType": "uint256",
          "name": "collateralAmountAfterFees",
          "type": "uint256"
        },
        {
          "indexed": false,
          "internalType": "uint256",
          "name": "feesInCollateral",
          "type": "uint256"
        },
        {
          "indexed": false,
          "internalType": "uint256",
          "name": "rwaOwed",
          "type": "uint256"
        },
        {
          "indexed": false,
          "internalType": "uint256",
          "name": "price",
          "type": "uint256"
        }
      ],
      "name": "InstantMintCompleted",
      "type": "event"
    },
    {
      "anonymous": false,
      "inputs": [
        {
          "indexed": false,
          "internalType": "uint256",
          "name": "oldFee",
          "type": "uint256"
        },
        {
          "indexed": false,
          "internalType": "uint256",
          "name": "newFee",
          "type": "uint256"
        }
      ],
      "name": "InstantMintFeeSet",
      "type": "event"
    },
    {
      "anonymous": false,
      "inputs": [
        {
          "indexed": false,
          "internalType": "uint256",
          "name": "instantMintLimitDuration",
          "type": "uint256"
        }
      ],
      "name": "InstantMintLimitDurationSet",
      "type": "event"
    },
    {
      "anonymous": false,
      "inputs": [
        {
          "indexed": false,
          "internalType": "uint256",
          "name": "instantMintLimit",
          "type": "uint256"
        }
      ],
      "name": "InstantMintLimitSet",
      "type": "event"
    },
    {
      "anonymous": false,
      "inputs": [
        {
          "indexed": false,
          "internalType": "address",
          "name": "caller",
          "type": "address"
        }
      ],
      "name": "InstantMintPaused",
      "type": "event"
    },
    {
      "anonymous": false,
      "inputs": [
        {
          "indexed": false,
          "internalType": "address",
          "name": "caller",
          "type": "address"
        }
      ],
      "name": "InstantMintUnpaused",
      "type": "event"
    },
    {
      "anonymous": false,
      "inputs": [
        {
          "indexed": true,
          "internalType": "address",
          "name": "user",
          "type": "address"
        },
        {
          "indexed": false,
          "internalType": "uint256",
          "name": "rwaAmountBurned",
          "type": "uint256"
        },
        {
          "indexed": false,
          "internalType": "uint256",
          "name": "collateralAmountAfterFees",
          "type": "uint256"
        },
        {
          "indexed": false,
          "internalType": "uint256",
          "name": "feesInCollateral",
          "type": "uint256"
        },
        {
          "indexed": false,
          "internalType": "uint256",
          "name": "price",
          "type": "uint256"
        },
        {
          "indexed": false,
          "internalType": "uint256",
          "name": "priceId",
          "type": "uint256"
        }
      ],
      "name": "InstantRedemptionCompleted",
      "type": "event"
    },
    {
      "anonymous": false,
      "inputs": [
        {
          "indexed": false,
          "internalType": "uint256",
          "name": "oldFee",
          "type": "uint256"
        },
        {
          "indexed": false,
          "internalType": "uint256",
          "name": "newFee",
          "type": "uint256"
        }
      ],
      "name": "InstantRedemptionFeeSet",
      "type": "event"
    },
    {
      "anonymous": false,
      "inputs": [
        {
          "indexed": false,
          "internalType": "uint256",
          "name": "redemptionLimitDuration",
          "type": "uint256"
        }
      ],
      "name": "InstantRedemptionLimitDurationSet",
      "type": "event"
    },
    {
      "anonymous": false,
      "inputs": [
        {
          "indexed": false,
          "internalType": "uint256",
          "name": "instantRedemptionLimit",
          "type": "uint256"
        }
      ],
      "name": "InstantRedemptionLimitSet",
      "type": "event"
    },
    {
      "anonymous": false,
      "inputs": [
        {
          "indexed": false,
          "internalType": "address",
          "name": "caller",
          "type": "address"
        }
      ],
      "name": "InstantRedemptionPaused",
      "type": "event"
    },
    {
      "anonymous": false,
      "inputs": [
        {
          "indexed": false,
          "internalType": "address",
          "name": "caller",
          "type": "address"
        }
      ],
      "name": "InstantRedemptionUnpaused",
      "type": "event"
    },
    {
      "anonymous": false,
      "inputs": [
        {
          "indexed": false,
          "internalType": "address",
          "name": "oldRegistry",
          "type": "address"
        },
        {
          "indexed": false,
          "internalType": "address",
          "name": "newRegistry",
          "type": "address"
        }
      ],
      "name": "KYCRegistrySet",
      "type": "event"
    },
    {
      "anonymous": false,
      "inputs": [
        {
          "indexed": false,
          "internalType": "uint256",
          "name": "oldRequirementGroup",
          "type": "uint256"
        },
        {
          "indexed": false,
          "internalType": "uint256",
          "name": "newRequirementGroup",
          "type": "uint256"
        }
      ],
      "name": "KYCRequirementGroupSet",
      "type": "event"
    },
    {
      "anonymous": false,
      "inputs": [
        {
          "indexed": false,
          "internalType": "uint256",
          "name": "oldMinimum",
          "type": "uint256"
        },
        {
          "indexed": false,
          "internalType": "uint256",
          "name": "newMinimum",
          "type": "uint256"
        }
      ],
      "name": "MinimumDepositAmountSet",
      "type": "event"
    },
    {
      "anonymous": false,
      "inputs": [
        {
          "indexed": false,
          "internalType": "uint256",
          "name": "oldRedemptionMin",
          "type": "uint256"
        },
        {
          "indexed": false,
          "internalType": "uint256",
          "name": "newRedemptionMin",
          "type": "uint256"
        }
      ],
      "name": "MinimumRedemptionAmountSet",
      "type": "event"
    },
    {
      "anonymous": false,
      "inputs": [
        {
          "indexed": true,
          "internalType": "address",
          "name": "user",
          "type": "address"
        },
        {
          "indexed": true,
          "internalType": "bytes32",
          "name": "depositId",
          "type": "bytes32"
        },
        {
          "indexed": false,
          "internalType": "uint256",
          "name": "rwaAmountOut",
          "type": "uint256"
        },
        {
          "indexed": false,
          "internalType": "uint256",
          "name": "collateralAmountDeposited",
          "type": "uint256"
        },
        {
          "indexed": false,
          "internalType": "uint256",
          "name": "price",
          "type": "uint256"
        },
        {
          "indexed": false,
          "internalType": "uint256",
          "name": "priceId",
          "type": "uint256"
        }
      ],
      "name": "MintCompleted",
      "type": "event"
    },
    {
      "anonymous": false,
      "inputs": [
        {
          "indexed": false,
          "internalType": "uint256",
          "name": "oldFee",
          "type": "uint256"
        },
        {
          "indexed": false,
          "internalType": "uint256",
          "name": "newFee",
          "type": "uint256"
        }
      ],
      "name": "MintFeeSet",
      "type": "event"
    },
    {
      "anonymous": false,
      "inputs": [
        {
          "indexed": true,
          "internalType": "address",
          "name": "user",
          "type": "address"
        },
        {
          "indexed": true,
          "internalType": "bytes32",
          "name": "depositId",
          "type": "bytes32"
        },
        {
          "indexed": false,
          "internalType": "uint256",
          "name": "collateralAmountDeposited",
          "type": "uint256"
        },
        {
          "indexed": false,
          "internalType": "uint256",
          "name": "depositAmountAfterFee",
          "type": "uint256"
        },
        {
          "indexed": false,
          "internalType": "uint256",
          "name": "feeAmount",
          "type": "uint256"
        }
      ],
      "name": "MintRequested",
      "type": "event"
    },
    {
      "anonymous": false,
      "inputs": [
        {
          "indexed": false,
          "internalType": "address",
          "name": "oldPricer",
          "type": "address"
        },
        {
          "indexed": false,
          "internalType": "address",
          "name": "newPricer",
          "type": "address"
        }
      ],
      "name": "NewPricerSet",
      "type": "event"
    },
    {
      "anonymous": false,
      "inputs": [
        {
          "indexed": false,
          "internalType": "uint256",
          "name": "oldMinimum",
          "type": "uint256"
        },
        {
          "indexed": false,
          "internalType": "uint256",
          "name": "newMinimum",
          "type": "uint256"
        }
      ],
      "name": "OffChainRedemptionMinimumSet",
      "type": "event"
    },
    {
      "anonymous": false,
      "inputs": [
        {
          "indexed": false,
          "internalType": "address",
          "name": "caller",
          "type": "address"
        }
      ],
      "name": "OffChainRedemptionPaused",
      "type": "event"
    },
    {
      "anonymous": false,
      "inputs": [
        {
          "indexed": false,
          "internalType": "address",
          "name": "caller",
          "type": "address"
        }
      ],
      "name": "OffChainRedemptionUnpaused",
      "type": "event"
    },
    {
      "anonymous": false,
      "inputs": [
        {
          "indexed": true,
          "internalType": "bytes32",
          "name": "depositIdSet",
          "type": "bytes32"
        },
        {
          "indexed": true,
          "internalType": "uint256",
          "name": "priceIdSet",
          "type": "uint256"
        }
      ],
      "name": "PriceIdSetForDeposit",
      "type": "event"
    },
    {
      "anonymous": false,
      "inputs": [
        {
          "indexed": false,
          "internalType": "uint256",
          "name": "priceId",
          "type": "uint256"
        }
      ],
      "name": "PriceIdSetForInstantMint",
      "type": "event"
    },
    {
      "anonymous": false,
      "inputs": [
        {
          "indexed": false,
          "internalType": "uint256",
          "name": "priceId",
          "type": "uint256"
        }
      ],
      "name": "PriceIdSetForInstantRedemption",
      "type": "event"
    },
    {
      "anonymous": false,
      "inputs": [
        {
          "indexed": true,
          "internalType": "bytes32",
          "name": "redemptionIdSet",
          "type": "bytes32"
        },
        {
          "indexed": true,
          "internalType": "uint256",
          "name": "priceIdSet",
          "type": "uint256"
        }
      ],
      "name": "PriceIdSetForRedemption",
      "type": "event"
    },
    {
      "anonymous": false,
      "inputs": [
        {
          "indexed": true,
          "internalType": "bytes32",
          "name": "redemptionId",
          "type": "bytes32"
        },
        {
          "indexed": false,
          "internalType": "address",
          "name": "oldRedeemer",
          "type": "address"
        },
        {
          "indexed": false,
          "internalType": "address",
          "name": "newRedeemer",
          "type": "address"
        },
        {
          "indexed": false,
          "internalType": "uint256",
          "name": "oldPriceId",
          "type": "uint256"
        },
        {
          "indexed": false,
          "internalType": "uint256",
          "name": "newPriceId",
          "type": "uint256"
        },
        {
          "indexed": false,
          "internalType": "uint256",
          "name": "oldRWATokenAmountBurned",
          "type": "uint256"
        },
        {
          "indexed": false,
          "internalType": "uint256",
          "name": "newRWATokenAmountBurned",
          "type": "uint256"
        }
      ],
      "name": "RedeemerOverwritten",
      "type": "event"
    },
    {
      "anonymous": false,
      "inputs": [
        {
          "indexed": true,
          "internalType": "address",
          "name": "user",
          "type": "address"
        },
        {
          "indexed": true,
          "internalType": "bytes32",
          "name": "redemptionId",
          "type": "bytes32"
        },
        {
          "indexed": false,
          "internalType": "uint256",
          "name": "rwaAmountRequested",
          "type": "uint256"
        },
        {
          "indexed": false,
          "internalType": "uint256",
          "name": "collateralAmountReturned",
          "type": "uint256"
        },
        {
          "indexed": false,
          "internalType": "uint256",
          "name": "feeAmount",
          "type": "uint256"
        },
        {
          "indexed": false,
          "internalType": "uint256",
          "name": "price",
          "type": "uint256"
        },
        {
          "indexed": false,
          "internalType": "uint256",
          "name": "priceId",
          "type": "uint256"
        }
      ],
      "name": "RedemptionCompleted",
      "type": "event"
    },
    {
      "anonymous": false,
      "inputs": [
        {
          "indexed": false,
          "internalType": "uint256",
          "name": "oldFee",
          "type": "uint256"
        },
        {
          "indexed": false,
          "internalType": "uint256",
          "name": "newFee",
          "type": "uint256"
        }
      ],
      "name": "RedemptionFeeSet",
      "type": "event"
    },
    {
      "anonymous": false,
      "inputs": [
        {
          "indexed": false,
          "internalType": "address",
          "name": "caller",
          "type": "address"
        }
      ],
      "name": "RedemptionPaused",
      "type": "event"
    },
    {
      "anonymous": false,
      "inputs": [
        {
          "indexed": true,
          "internalType": "bytes32",
          "name": "txHash",
          "type": "bytes32"
        },
        {
          "indexed": true,
          "internalType": "address",
          "name": "user",
          "type": "address"
        },
        {
          "indexed": false,
          "internalType": "uint256",
          "name": "rwaAmountBurned",
          "type": "uint256"
        },
        {
          "indexed": false,
          "internalType": "uint256",
          "name": "timestamp",
          "type": "uint256"
        }
      ],
      "name": "RedemptionProofAdded",
      "type": "event"
    },
    {
      "anonymous": false,
      "inputs": [
        {
          "indexed": true,
          "internalType": "address",
          "name": "user",
          "type": "address"
        },
        {
          "indexed": true,
          "internalType": "bytes32",
          "name": "redemptionId",
          "type": "bytes32"
        },
        {
          "indexed": false,
          "internalType": "uint256",
          "name": "rwaAmountIn",
          "type": "uint256"
        }
      ],
      "name": "RedemptionRequested",
      "type": "event"
    },
    {
      "anonymous": false,
      "inputs": [
        {
          "indexed": true,
          "internalType": "address",
          "name": "user",
          "type": "address"
        },
        {
          "indexed": true,
          "internalType": "bytes32",
          "name": "redemptionId",
          "type": "bytes32"
        },
        {
          "indexed": false,
          "internalType": "uint256",
          "name": "rwaTokenAmountIn",
          "type": "uint256"
        },
        {
          "indexed": false,
          "internalType": "bytes32",
          "name": "offChainDestination",
          "type": "bytes32"
        }
      ],
      "name": "RedemptionRequestedServicedOffChain",
      "type": "event"
    },
    {
      "anonymous": false,
      "inputs": [
        {
          "indexed": false,
          "internalType": "address",
          "name": "caller",
          "type": "address"
        }
      ],
      "name": "RedemptionUnpaused",
      "type": "event"
    },
    {
      "anonymous": false,
      "inputs": [
        {
          "indexed": true,
          "internalType": "bytes32",
          "name": "role",
          "type": "bytes32"
        },
        {
          "indexed": true,
          "internalType": "bytes32",
          "name": "previousAdminRole",
          "type": "bytes32"
        },
        {
          "indexed": true,
          "internalType": "bytes32",
          "name": "newAdminRole",
          "type": "bytes32"
        }
      ],
      "name": "RoleAdminChanged",
      "type": "event"
    },
    {
      "anonymous": false,
      "inputs": [
        {
          "indexed": true,
          "internalType": "bytes32",
          "name": "role",
          "type": "bytes32"
        },
        {
          "indexed": true,
          "internalType": "address",
          "name": "account",
          "type": "address"
        },
        {
          "indexed": true,
          "internalType": "address",
          "name": "sender",
          "type": "address"
        }
      ],
      "name": "RoleGranted",
      "type": "event"
    },
    {
      "anonymous": false,
      "inputs": [
        {
          "indexed": true,
          "internalType": "bytes32",
          "name": "role",
          "type": "bytes32"
        },
        {
          "indexed": true,
          "internalType": "address",
          "name": "account",
          "type": "address"
        },
        {
          "indexed": true,
          "internalType": "address",
          "name": "sender",
          "type": "address"
        }
      ],
      "name": "RoleRevoked",
      "type": "event"
    },
    {
      "anonymous": false,
      "inputs": [
        {
          "indexed": false,
          "internalType": "address",
          "name": "caller",
          "type": "address"
        }
      ],
      "name": "SubscriptionPaused",
      "type": "event"
    },
    {
      "anonymous": false,
      "inputs": [
        {
          "indexed": false,
          "internalType": "address",
          "name": "caller",
          "type": "address"
        }
      ],
      "name": "SubscriptionUnpaused",
      "type": "event"
    },
    {
      "anonymous": false,
      "inputs": [
        {
          "indexed": true,
          "internalType": "address",
          "name": "user",
          "type": "address"
        },
        {
          "indexed": true,
          "internalType": "bytes32",
          "name": "depositId",
          "type": "bytes32"
        },
        {
          "indexed": false,
          "internalType": "uint256",
          "name": "rwaAmountOut",
          "type": "uint256"
        },
        {
          "indexed": false,
          "internalType": "uint256",
          "name": "wRWAAmountOut",
          "type": "uint256"
        },
        {
          "indexed": false,
          "internalType": "uint256",
          "name": "collateralAmountDeposited",
          "type": "uint256"
        },
        {
          "indexed": false,
          "internalType": "uint256",
          "name": "price",
          "type": "uint256"
        }
      ],
      "name": "WrappedMintCompleted",
      "type": "event"
    },
    {
      "anonymous": false,
      "inputs": [
        {
          "indexed": true,
          "internalType": "address",
          "name": "user",
          "type": "address"
        },
        {
          "indexed": true,
          "internalType": "bytes32",
          "name": "redemptionId",
          "type": "bytes32"
        },
        {
          "indexed": false,
          "internalType": "uint256",
          "name": "rwaAmountIn",
          "type": "uint256"
        },
        {
          "indexed": false,
          "internalType": "uint256",
          "name": "wrappedRwaAmountIn",
          "type": "uint256"
        }
      ],
      "name": "WrappedRedemptionRequested",
      "type": "event"
    },
    {
      "inputs": [],
      "name": "BPS_DENOMINATOR",
      "outputs": [
        {
          "internalType": "uint256",
          "name": "",
          "type": "uint256"
        }
      ],
      "stateMutability": "view",
      "type": "function"
    },
    {
      "inputs": [],
      "name": "DEFAULT_ADMIN_ROLE",
      "outputs": [
        {
          "internalType": "bytes32",
          "name": "",
          "type": "bytes32"
        }
      ],
      "stateMutability": "view",
      "type": "function"
    },
    {
      "inputs": [],
      "name": "MANAGER_ADMIN",
      "outputs": [
        {
          "internalType": "bytes32",
          "name": "",
          "type": "bytes32"
        }
      ],
      "stateMutability": "view",
      "type": "function"
    },
    {
      "inputs": [],
      "name": "PAUSER_ADMIN",
      "outputs": [
        {
          "internalType": "bytes32",
          "name": "",
          "type": "bytes32"
        }
      ],
      "stateMutability": "view",
      "type": "function"
    },
    {
      "inputs": [],
      "name": "PRICE_ID_SETTER_ROLE",
      "outputs": [
        {
          "internalType": "bytes32",
          "name": "",
          "type": "bytes32"
        }
      ],
      "stateMutability": "view",
      "type": "function"
    },
    {
      "inputs": [],
      "name": "REDEMPTION_PROVER_ROLE",
      "outputs": [
        {
          "internalType": "bytes32",
          "name": "",
          "type": "bytes32"
        }
      ],
      "stateMutability": "view",
      "type": "function"
    },
    {
      "inputs": [],
      "name": "RELAYER_ROLE",
      "outputs": [
        {
          "internalType": "bytes32",
          "name": "",
          "type": "bytes32"
        }
      ],
      "stateMutability": "view",
      "type": "function"
    },
    {
      "inputs": [
        {
          "internalType": "bytes32",
          "name": "txHash",
          "type": "bytes32"
        },
        {
          "internalType": "address",
          "name": "user",
          "type": "address"
        },
        {
          "internalType": "uint256",
          "name": "depositAmountAfterFee",
          "type": "uint256"
        },
        {
          "internalType": "uint256",
          "name": "feeAmount",
          "type": "uint256"
        },
        {
          "internalType": "uint256",
          "name": "timestamp",
          "type": "uint256"
        }
      ],
      "name": "addProof",
      "outputs": [],
      "stateMutability": "nonpayable",
      "type": "function"
    },
    {
      "inputs": [
        {
          "internalType": "bytes32",
          "name": "txHash",
          "type": "bytes32"
        },
        {
          "internalType": "address",
          "name": "user",
          "type": "address"
        },
        {
          "internalType": "uint256",
          "name": "rwaAmountToBurn",
          "type": "uint256"
        },
        {
          "internalType": "uint256",
          "name": "timestamp",
          "type": "uint256"
        }
      ],
      "name": "addRedemptionProof",
      "outputs": [],
      "stateMutability": "nonpayable",
      "type": "function"
    },
    {
      "inputs": [],
      "name": "assetRecipient",
      "outputs": [
        {
          "internalType": "address",
          "name": "",
          "type": "address"
        }
      ],
      "stateMutability": "view",
      "type": "function"
    },
    {
      "inputs": [],
      "name": "assetSender",
      "outputs": [
        {
          "internalType": "address",
          "name": "",
          "type": "address"
        }
      ],
      "stateMutability": "view",
      "type": "function"
    },
    {
      "inputs": [
        {
          "internalType": "bytes32[]",
          "name": "depositIds",
          "type": "bytes32[]"
        }
      ],
      "name": "claimMint",
      "outputs": [],
      "stateMutability": "nonpayable",
      "type": "function"
    },
    {
      "inputs": [
        {
          "internalType": "bytes32[]",
          "name": "depositIds",
          "type": "bytes32[]"
        }
      ],
      "name": "claimMint_wOMMF",
      "outputs": [],
      "stateMutability": "nonpayable",
      "type": "function"
    },
    {
      "inputs": [
        {
          "internalType": "bytes32[]",
          "name": "redemptionIds",
          "type": "bytes32[]"
        }
      ],
      "name": "claimRedemption",
      "outputs": [],
      "stateMutability": "nonpayable",
      "type": "function"
    },
    {
      "inputs": [],
      "name": "collateral",
      "outputs": [
        {
          "internalType": "contract IERC20",
          "name": "",
          "type": "address"
        }
      ],
      "stateMutability": "view",
      "type": "function"
    },
    {
      "inputs": [],
      "name": "currentInstantMintAmount",
      "outputs": [
        {
          "internalType": "uint256",
          "name": "",
          "type": "uint256"
        }
      ],
      "stateMutability": "view",
      "type": "function"
    },
    {
      "inputs": [],
      "name": "currentInstantRedemptionAmount",
      "outputs": [
        {
          "internalType": "uint256",
          "name": "",
          "type": "uint256"
        }
      ],
      "stateMutability": "view",
      "type": "function"
    },
    {
      "inputs": [],
      "name": "decimalsMultiplier",
      "outputs": [
        {
          "internalType": "uint256",
          "name": "",
          "type": "uint256"
        }
      ],
      "stateMutability": "view",
      "type": "function"
    },
    {
      "inputs": [
        {
          "internalType": "bytes32",
          "name": "",
          "type": "bytes32"
        }
      ],
      "name": "depositIdToDepositor",
      "outputs": [
        {
          "internalType": "address",
          "name": "user",
          "type": "address"
        },
        {
          "internalType": "uint256",
          "name": "amountDepositedMinusFees",
          "type": "uint256"
        },
        {
          "internalType": "uint256",
          "name": "priceId",
          "type": "uint256"
        }
      ],
      "stateMutability": "view",
      "type": "function"
    },
    {
      "inputs": [],
      "name": "feeRecipient",
      "outputs": [
        {
          "internalType": "address",
          "name": "",
          "type": "address"
        }
      ],
      "stateMutability": "view",
      "type": "function"
    },
    {
      "inputs": [
        {
          "internalType": "bytes32",
          "name": "role",
          "type": "bytes32"
        }
      ],
      "name": "getRoleAdmin",
      "outputs": [
        {
          "internalType": "bytes32",
          "name": "",
          "type": "bytes32"
        }
      ],
      "stateMutability": "view",
      "type": "function"
    },
    {
      "inputs": [
        {
          "internalType": "bytes32",
          "name": "role",
          "type": "bytes32"
        },
        {
          "internalType": "uint256",
          "name": "index",
          "type": "uint256"
        }
      ],
      "name": "getRoleMember",
      "outputs": [
        {
          "internalType": "address",
          "name": "",
          "type": "address"
        }
      ],
      "stateMutability": "view",
      "type": "function"
    },
    {
      "inputs": [
        {
          "internalType": "bytes32",
          "name": "role",
          "type": "bytes32"
        }
      ],
      "name": "getRoleMemberCount",
      "outputs": [
        {
          "internalType": "uint256",
          "name": "",
          "type": "uint256"
        }
      ],
      "stateMutability": "view",
      "type": "function"
    },
    {
      "inputs": [
        {
          "internalType": "bytes32",
          "name": "role",
          "type": "bytes32"
        },
        {
          "internalType": "address",
          "name": "account",
          "type": "address"
        }
      ],
      "name": "grantRole",
      "outputs": [],
      "stateMutability": "nonpayable",
      "type": "function"
    },
    {
      "inputs": [
        {
          "internalType": "bytes32",
          "name": "role",
          "type": "bytes32"
        },
        {
          "internalType": "address",
          "name": "account",
          "type": "address"
        }
      ],
      "name": "hasRole",
      "outputs": [
        {
          "internalType": "bool",
          "name": "",
          "type": "bool"
        }
      ],
      "stateMutability": "view",
      "type": "function"
    },
    {
      "inputs": [
        {
          "internalType": "uint256",
          "name": "amount",
          "type": "uint256"
        }
      ],
      "name": "instantMint",
      "outputs": [],
      "stateMutability": "nonpayable",
      "type": "function"
    },
    {
      "inputs": [],
      "name": "instantMintAssetManager",
      "outputs": [
        {
          "internalType": "address",
          "name": "",
          "type": "address"
        }
      ],
      "stateMutability": "view",
      "type": "function"
    },
    {
      "inputs": [],
      "name": "instantMintFee",
      "outputs": [
        {
          "internalType": "uint256",
          "name": "",
          "type": "uint256"
        }
      ],
      "stateMutability": "view",
      "type": "function"
    },
    {
      "inputs": [],
      "name": "instantMintLimit",
      "outputs": [
        {
          "internalType": "uint256",
          "name": "",
          "type": "uint256"
        }
      ],
      "stateMutability": "view",
      "type": "function"
    },
    {
      "inputs": [],
      "name": "instantMintPaused",
      "outputs": [
        {
          "internalType": "bool",
          "name": "",
          "type": "bool"
        }
      ],
      "stateMutability": "view",
      "type": "function"
    },
    {
      "inputs": [],
      "name": "instantMintPriceId",
      "outputs": [
        {
          "internalType": "uint256",
          "name": "",
          "type": "uint256"
        }
      ],
      "stateMutability": "view",
      "type": "function"
    },
    {
      "inputs": [
        {
          "internalType": "uint256",
          "name": "amount",
          "type": "uint256"
        }
      ],
      "name": "instantRedemption",
      "outputs": [],
      "stateMutability": "nonpayable",
      "type": "function"
    },
    {
      "inputs": [],
      "name": "instantRedemptionFee",
      "outputs": [
        {
          "internalType": "uint256",
          "name": "",
          "type": "uint256"
        }
      ],
      "stateMutability": "view",
      "type": "function"
    },
    {
      "inputs": [],
      "name": "instantRedemptionLimit",
      "outputs": [
        {
          "internalType": "uint256",
          "name": "",
          "type": "uint256"
        }
      ],
      "stateMutability": "view",
      "type": "function"
    },
    {
      "inputs": [],
      "name": "instantRedemptionPaused",
      "outputs": [
        {
          "internalType": "bool",
          "name": "",
          "type": "bool"
        }
      ],
      "stateMutability": "view",
      "type": "function"
    },
    {
      "inputs": [],
      "name": "instantRedemptionPriceId",
      "outputs": [
        {
          "internalType": "uint256",
          "name": "",
          "type": "uint256"
        }
      ],
      "stateMutability": "view",
      "type": "function"
    },
    {
      "inputs": [],
      "name": "kycRegistry",
      "outputs": [
        {
          "internalType": "contract IKYCRegistry",
          "name": "",
          "type": "address"
        }
      ],
      "stateMutability": "view",
      "type": "function"
    },
    {
      "inputs": [],
      "name": "kycRequirementGroup",
      "outputs": [
        {
          "internalType": "uint256",
          "name": "",
          "type": "uint256"
        }
      ],
      "stateMutability": "view",
      "type": "function"
    },
    {
      "inputs": [],
      "name": "lastResetInstantMintTime",
      "outputs": [
        {
          "internalType": "uint256",
          "name": "",
          "type": "uint256"
        }
      ],
      "stateMutability": "view",
      "type": "function"
    },
    {
      "inputs": [],
      "name": "lastResetInstantRedemptionTime",
      "outputs": [
        {
          "internalType": "uint256",
          "name": "",
          "type": "uint256"
        }
      ],
      "stateMutability": "view",
      "type": "function"
    },
    {
      "inputs": [],
      "name": "minimumDepositAmount",
      "outputs": [
        {
          "internalType": "uint256",
          "name": "",
          "type": "uint256"
        }
      ],
      "stateMutability": "view",
      "type": "function"
    },
    {
      "inputs": [],
      "name": "minimumOffChainRedemptionAmount",
      "outputs": [
        {
          "internalType": "uint256",
          "name": "",
          "type": "uint256"
        }
      ],
      "stateMutability": "view",
      "type": "function"
    },
    {
      "inputs": [],
      "name": "minimumRedemptionAmount",
      "outputs": [
        {
          "internalType": "uint256",
          "name": "",
          "type": "uint256"
        }
      ],
      "stateMutability": "view",
      "type": "function"
    },
    {
      "inputs": [],
      "name": "mintFee",
      "outputs": [
        {
          "internalType": "uint256",
          "name": "",
          "type": "uint256"
        }
      ],
      "stateMutability": "view",
      "type": "function"
    },
    {
      "inputs": [],
      "name": "offChainRedemptionPaused",
      "outputs": [
        {
          "internalType": "bool",
          "name": "",
          "type": "bool"
        }
      ],
      "stateMutability": "view",
      "type": "function"
    },
    {
      "inputs": [
        {
          "internalType": "bytes32",
          "name": "depositIdToOverwrite",
          "type": "bytes32"
        },
        {
          "internalType": "address",
          "name": "user",
          "type": "address"
        },
        {
          "internalType": "uint256",
          "name": "depositAmountAfterFee",
          "type": "uint256"
        },
        {
          "internalType": "uint256",
          "name": "priceId",
          "type": "uint256"
        }
      ],
      "name": "overwriteDepositor",
      "outputs": [],
      "stateMutability": "nonpayable",
      "type": "function"
    },
    {
      "inputs": [
        {
          "internalType": "bytes32",
          "name": "redemptionIdToOverwrite",
          "type": "bytes32"
        },
        {
          "internalType": "address",
          "name": "user",
          "type": "address"
        },
        {
          "internalType": "uint256",
          "name": "rwaTokenAmountBurned",
          "type": "uint256"
        },
        {
          "internalType": "uint256",
          "name": "priceId",
          "type": "uint256"
        }
      ],
      "name": "overwriteRedeemer",
      "outputs": [],
      "stateMutability": "nonpayable",
      "type": "function"
    },
    {
      "inputs": [],
      "name": "pauseInstantMint",
      "outputs": [],
      "stateMutability": "nonpayable",
      "type": "function"
    },
    {
      "inputs": [],
      "name": "pauseInstantRedemption",
      "outputs": [],
      "stateMutability": "nonpayable",
      "type": "function"
    },
    {
      "inputs": [],
      "name": "pauseOffChainRedemption",
      "outputs": [],
      "stateMutability": "nonpayable",
      "type": "function"
    },
    {
      "inputs": [],
      "name": "pauseRedemption",
      "outputs": [],
      "stateMutability": "nonpayable",
      "type": "function"
    },
    {
      "inputs": [],
      "name": "pauseSubscription",
      "outputs": [],
      "stateMutability": "nonpayable",
      "type": "function"
    },
    {
      "inputs": [],
      "name": "pricer",
      "outputs": [
        {
          "internalType": "contract IPricerReader",
          "name": "",
          "type": "address"
        }
      ],
      "stateMutability": "view",
      "type": "function"
    },
    {
      "inputs": [],
      "name": "redemptionFee",
      "outputs": [
        {
          "internalType": "uint256",
          "name": "",
          "type": "uint256"
        }
      ],
      "stateMutability": "view",
      "type": "function"
    },
    {
      "inputs": [
        {
          "internalType": "bytes32",
          "name": "",
          "type": "bytes32"
        }
      ],
      "name": "redemptionIdToRedeemer",
      "outputs": [
        {
          "internalType": "address",
          "name": "user",
          "type": "address"
        },
        {
          "internalType": "uint256",
          "name": "amountRwaTokenBurned",
          "type": "uint256"
        },
        {
          "internalType": "uint256",
          "name": "priceId",
          "type": "uint256"
        }
      ],
      "stateMutability": "view",
      "type": "function"
    },
    {
      "inputs": [],
      "name": "redemptionPaused",
      "outputs": [
        {
          "internalType": "bool",
          "name": "",
          "type": "bool"
        }
      ],
      "stateMutability": "view",
      "type": "function"
    },
    {
      "inputs": [],
      "name": "redemptionRequestCounter",
      "outputs": [
        {
          "internalType": "uint256",
          "name": "",
          "type": "uint256"
        }
      ],
      "stateMutability": "view",
      "type": "function"
    },
    {
      "inputs": [
        {
          "internalType": "bytes32",
          "name": "role",
          "type": "bytes32"
        },
        {
          "internalType": "address",
          "name": "account",
          "type": "address"
        }
      ],
      "name": "renounceRole",
      "outputs": [],
      "stateMutability": "nonpayable",
      "type": "function"
    },
    {
      "inputs": [
        {
          "internalType": "uint256",
          "name": "amount",
          "type": "uint256"
        }
      ],
      "name": "requestRedemption",
      "outputs": [],
      "stateMutability": "nonpayable",
      "type": "function"
    },
    {
      "inputs": [
        {
          "internalType": "uint256",
          "name": "amountRWATokenToRedeem",
          "type": "uint256"
        },
        {
          "internalType": "bytes32",
          "name": "offChainDestination",
          "type": "bytes32"
        }
      ],
      "name": "requestRedemptionServicedOffchain",
      "outputs": [],
      "stateMutability": "nonpayable",
      "type": "function"
    },
    {
      "inputs": [
        {
          "internalType": "uint256",
          "name": "amount",
          "type": "uint256"
        }
      ],
      "name": "requestRedemption_wOMMF",
      "outputs": [],
      "stateMutability": "nonpayable",
      "type": "function"
    },
    {
      "inputs": [
        {
          "internalType": "uint256",
          "name": "amount",
          "type": "uint256"
        }
      ],
      "name": "requestSubscription",
      "outputs": [],
      "stateMutability": "nonpayable",
      "type": "function"
    },
    {
      "inputs": [],
      "name": "resetInstantMintDuration",
      "outputs": [
        {
          "internalType": "uint256",
          "name": "",
          "type": "uint256"
        }
      ],
      "stateMutability": "view",
      "type": "function"
    },
    {
      "inputs": [],
      "name": "resetInstantRedemptionDuration",
      "outputs": [
        {
          "internalType": "uint256",
          "name": "",
          "type": "uint256"
        }
      ],
      "stateMutability": "view",
      "type": "function"
    },
    {
      "inputs": [
        {
          "internalType": "bytes32",
          "name": "role",
          "type": "bytes32"
        },
        {
          "internalType": "address",
          "name": "account",
          "type": "address"
        }
      ],
      "name": "revokeRole",
      "outputs": [],
      "stateMutability": "nonpayable",
      "type": "function"
    },
    {
      "inputs": [],
      "name": "rwa",
      "outputs": [
        {
          "internalType": "contract IRWALike",
          "name": "",
          "type": "address"
        }
      ],
      "stateMutability": "view",
      "type": "function"
    },
    {
      "inputs": [
        {
          "internalType": "address",
          "name": "newAssetSender",
          "type": "address"
        }
      ],
      "name": "setAssetSender",
      "outputs": [],
      "stateMutability": "nonpayable",
      "type": "function"
    },
    {
      "inputs": [
        {
          "internalType": "address",
          "name": "newFeeRecipient",
          "type": "address"
        }
      ],
      "name": "setFeeRecipient",
      "outputs": [],
      "stateMutability": "nonpayable",
      "type": "function"
    },
    {
      "inputs": [
        {
          "internalType": "address",
          "name": "_instantMintAssetManager",
          "type": "address"
        }
      ],
      "name": "setInstantMintAssetManager",
      "outputs": [],
      "stateMutability": "nonpayable",
      "type": "function"
    },
    {
      "inputs": [
        {
          "internalType": "uint256",
          "name": "_instantMintFee",
          "type": "uint256"
        }
      ],
      "name": "setInstantMintFee",
      "outputs": [],
      "stateMutability": "nonpayable",
      "type": "function"
    },
    {
      "inputs": [
        {
          "internalType": "uint256",
          "name": "newMintLimit",
          "type": "uint256"
        }
      ],
      "name": "setInstantMintLimit",
      "outputs": [],
      "stateMutability": "nonpayable",
      "type": "function"
    },
    {
      "inputs": [
        {
          "internalType": "uint256",
          "name": "newMintLimitDuration",
          "type": "uint256"
        }
      ],
      "name": "setInstantMintLimitDuration",
      "outputs": [],
      "stateMutability": "nonpayable",
      "type": "function"
    },
    {
      "inputs": [
        {
          "internalType": "uint256",
          "name": "_instantMintPriceId",
          "type": "uint256"
        }
      ],
      "name": "setInstantMintPriceId",
      "outputs": [],
      "stateMutability": "nonpayable",
      "type": "function"
    },
    {
      "inputs": [
        {
          "internalType": "uint256",
          "name": "_instantRedemptionFee",
          "type": "uint256"
        }
      ],
      "name": "setInstantRedemptionFee",
      "outputs": [],
      "stateMutability": "nonpayable",
      "type": "function"
    },
    {
      "inputs": [
        {
          "internalType": "uint256",
          "name": "newRedemptionLimit",
          "type": "uint256"
        }
      ],
      "name": "setInstantRedemptionLimit",
      "outputs": [],
      "stateMutability": "nonpayable",
      "type": "function"
    },
    {
      "inputs": [
        {
          "internalType": "uint256",
          "name": "newRedemptionLimitDuration",
          "type": "uint256"
        }
      ],
      "name": "setInstantRedemptionLimitDuration",
      "outputs": [],
      "stateMutability": "nonpayable",
      "type": "function"
    },
    {
      "inputs": [
        {
          "internalType": "uint256",
          "name": "_instantRedemptionPriceId",
          "type": "uint256"
        }
      ],
      "name": "setInstantRedemptionPriceId",
      "outputs": [],
      "stateMutability": "nonpayable",
      "type": "function"
    },
    {
      "inputs": [
        {
          "internalType": "address",
          "name": "_kycRegistry",
          "type": "address"
        }
      ],
      "name": "setKYCRegistry",
      "outputs": [],
      "stateMutability": "nonpayable",
      "type": "function"
    },
    {
      "inputs": [
        {
          "internalType": "uint256",
          "name": "_kycRequirementGroup",
          "type": "uint256"
        }
      ],
      "name": "setKYCRequirementGroup",
      "outputs": [],
      "stateMutability": "nonpayable",
      "type": "function"
    },
    {
      "inputs": [
        {
          "internalType": "uint256",
          "name": "minDepositAmount",
          "type": "uint256"
        }
      ],
      "name": "setMinimumDepositAmount",
      "outputs": [],
      "stateMutability": "nonpayable",
      "type": "function"
    },
    {
      "inputs": [
        {
          "internalType": "uint256",
          "name": "_minimumRedemptionAmount",
          "type": "uint256"
        }
      ],
      "name": "setMinimumRedemptionAmount",
      "outputs": [],
      "stateMutability": "nonpayable",
      "type": "function"
    },
    {
      "inputs": [
        {
          "internalType": "uint256",
          "name": "_mintFee",
          "type": "uint256"
        }
      ],
      "name": "setMintFee",
      "outputs": [],
      "stateMutability": "nonpayable",
      "type": "function"
    },
    {
      "inputs": [
        {
          "internalType": "uint256",
          "name": "_minimumOffChainRedemptionAmount",
          "type": "uint256"
        }
      ],
      "name": "setOffChainRedemptionMinimum",
      "outputs": [],
      "stateMutability": "nonpayable",
      "type": "function"
    },
    {
      "inputs": [
        {
          "internalType": "bytes32[]",
          "name": "depositIds",
          "type": "bytes32[]"
        },
        {
          "internalType": "uint256[]",
          "name": "priceIds",
          "type": "uint256[]"
        }
      ],
      "name": "setPriceIdForDeposits",
      "outputs": [],
      "stateMutability": "nonpayable",
      "type": "function"
    },
    {
      "inputs": [
        {
          "internalType": "bytes32[]",
          "name": "redemptionIds",
          "type": "bytes32[]"
        },
        {
          "internalType": "uint256[]",
          "name": "priceIds",
          "type": "uint256[]"
        }
      ],
      "name": "setPriceIdForRedemptions",
      "outputs": [],
      "stateMutability": "nonpayable",
      "type": "function"
    },
    {
      "inputs": [
        {
          "internalType": "address",
          "name": "newPricer",
          "type": "address"
        }
      ],
      "name": "setPricer",
      "outputs": [],
      "stateMutability": "nonpayable",
      "type": "function"
    },
    {
      "inputs": [
        {
          "internalType": "uint256",
          "name": "_redemptionFee",
          "type": "uint256"
        }
      ],
      "name": "setRedemptionFee",
      "outputs": [],
      "stateMutability": "nonpayable",
      "type": "function"
    },
    {
      "inputs": [],
      "name": "subscriptionPaused",
      "outputs": [
        {
          "internalType": "bool",
          "name": "",
          "type": "bool"
        }
      ],
      "stateMutability": "view",
      "type": "function"
    },
    {
      "inputs": [],
      "name": "subscriptionRequestCounter",
      "outputs": [
        {
          "internalType": "uint256",
          "name": "",
          "type": "uint256"
        }
      ],
      "stateMutability": "view",
      "type": "function"
    },
    {
      "inputs": [
        {
          "internalType": "bytes4",
          "name": "interfaceId",
          "type": "bytes4"
        }
      ],
      "name": "supportsInterface",
      "outputs": [
        {
          "internalType": "bool",
          "name": "",
          "type": "bool"
        }
      ],
      "stateMutability": "view",
      "type": "function"
    },
    {
      "inputs": [],
      "name": "unpauseInstantMint",
      "outputs": [],
      "stateMutability": "nonpayable",
      "type": "function"
    },
    {
      "inputs": [],
      "name": "unpauseInstantRedemption",
      "outputs": [],
      "stateMutability": "nonpayable",
      "type": "function"
    },
    {
      "inputs": [],
      "name": "unpauseOffChainRedemption",
      "outputs": [],
      "stateMutability": "nonpayable",
      "type": "function"
    },
    {
      "inputs": [],
      "name": "unpauseRedemption",
      "outputs": [],
      "stateMutability": "nonpayable",
      "type": "function"
    },
    {
      "inputs": [],
      "name": "unpauseSubscription",
      "outputs": [],
      "stateMutability": "nonpayable",
      "type": "function"
    },
    {
      "inputs": [],
      "name": "wommf",
      "outputs": [
        {
          "internalType": "contract IWOMMF",
          "name": "",
          "type": "address"
        }
      ],
      "stateMutability": "view",
      "type": "function"
    }
  ],
  "transactionHash": "0x6a9412e9ef245e192f73fb0745960c1a893886156605a94251c38a64e48d6fef",
  "args": [
    "0xA0b86991c6218b36c1d19D4a2e9Eb0cE3606eB48",
    "0xE00e79c24B9Bd388fbf1c4599694C2cf18166102",
    "0xAEd4caF2E535D964165B4392342F71bac77e8367",
    "0x2e55b738F5969Eea10fB67e326BEE5e2fA15A2CC",
    "0xc99b6cABd6ea0269b403eb4F7DaC8cdbeF3DbA01",
    "0xc99b6cABd6ea0269b403eb4F7DaC8cdbeF3DbA01",
    "10000000",
    "10000000000000000000",
    "0xAEd4caF2E535D964165B4392342F71bac77e8367",
    "0x7cE91291846502D50D635163135B2d40a602dc70",
    1,
    "0x59E119C783BC6EEF1045f254b841dc4dE94DC6fD"
  ],
  "solcInputHash": "2f1faea390e7257bd369ece6ac7f1fbd",
  "bytecode": "0x6101006040526000600a818155600b919091556001600c819055600d556018819055601955601c805461ffff19166101011790553480156200004057600080fd5b506040516200547838038062005478833981016040819052620000639162000688565b8b8b8b8b8b8b8b8b8b6000806000808c8c8c8c8c8c8c8c8787878787878787600160008190555060006001600160a01b0316886001600160a01b031603620000be5760405163a1aeceb760e01b815260040160405180910390fd5b6001600160a01b038716620000e65760405163071aeb1d60e01b815260040160405180910390fd5b6001600160a01b0384166200010e57604051633b2b1d5560e01b815260040160405180910390fd5b6001600160a01b0383166200013657604051634fdcfc5560e11b815260040160405180910390fd5b6200014360008762000417565b6200015e600080516020620054588339815191528762000417565b62000179600080516020620054388339815191528662000417565b620001a360008051602062005438833981519152600080516020620054588339815191526200045a565b620001de7f830a9081649e91840eb0274e99b47626a896cfa0f4dd591cb31cd5060e566c0d600080516020620054588339815191526200045a565b620002197fe2b7fb3b832174769106daebcfd6d1970523240dda11281102db9363b83b0dc4600080516020620054588339815191526200045a565b6001600160a01b0388811660a0819052888216608052600580546001600160a01b03199081168785161790915560048054909116928716929092178255600884905560098390556040805163313ce56760e01b81529051919263313ce5679282820192602092908290030181865afa1580156200029a573d6000803e3d6000fd5b505050506040513d601f19601f82011682018060405250810190620002c0919062000762565b876001600160a01b031663313ce5676040518163ffffffff1660e01b8152600401602060405180830381865afa158015620002ff573d6000803e3d6000fd5b505050506040513d601f19601f8201168201806040525081019062000325919062000762565b620003319190620007a4565b6200033e90600a620008bd565b60c052505050600f9590955550505060109c909c55505050601497909755505050601292909255601655505042601181905560155550601c80546001600160a01b03909216620100000262010000600160b01b031990921691909117905550620003b2965089955050620004a79350505050565b620003bd8262000531565b6001600160a01b03811660e052620004057f6d1bd15a3098a6dad77d962815b9ece90c7c3fedff3027331df16fc4e1849408600080516020620054588339815191526200045a565b505050505050505050505050620008ce565b6200042e82826200057060201b620035191760201c565b60008281526002602090815260409091206200045591839062003584620005f9821b17901c565b505050565b6000828152600160208190526040808320909101805490849055905190918391839186917fbd79b86ffe0ab8e8776151514217cd7cacd52c909f66475c3af44e129f0b00ff9190a4505050565b6001600160a01b038116620004cf57604051636ca1fdd760e01b815260040160405180910390fd5b601d80546001600160a01b038381166001600160a01b031983168117909355604080519190921680825260208201939093527f7d25fe3c08dd306579e1d2a5002c9c44f52c27fc3754b43c75ef1e080d454c8a91015b60405180910390a15050565b601e80549082905560408051828152602081018490527fdaffa4de8807a37aaf10d8a67851ece24bdb59211b326eb514393692ddc95832910162000525565b60008281526001602090815260408083206001600160a01b038516845290915290205460ff16620005f55760008281526001602081815260408084206001600160a01b0386168086529252808420805460ff19169093179092559051339285917f2f8788117e7eff1d82e926ec794901d17c78024a50270940304540a733656f0d9190a45b5050565b600062000610836001600160a01b03841662000619565b90505b92915050565b6000818152600183016020526040812054620006625750815460018181018455600084815260208082209093018490558454848252828601909352604090209190915562000613565b50600062000613565b80516001600160a01b03811681146200068357600080fd5b919050565b6000806000806000806000806000806000806101808d8f031215620006ac57600080fd5b620006b78d6200066b565b9b50620006c760208e016200066b565b9a50620006d760408e016200066b565b9950620006e760608e016200066b565b9850620006f760808e016200066b565b97506200070760a08e016200066b565b965060c08d0151955060e08d01519450620007266101008e016200066b565b9350620007376101208e016200066b565b92506101408d01519150620007506101608e016200066b565b90509295989b509295989b509295989b565b6000602082840312156200077557600080fd5b815160ff811681146200078757600080fd5b9392505050565b634e487b7160e01b600052601160045260246000fd5b60ff82811682821603908111156200061357620006136200078e565b600181815b8085111562000801578160001904821115620007e557620007e56200078e565b80851615620007f357918102915b93841c9390800290620007c5565b509250929050565b6000826200081a5750600162000613565b81620008295750600062000613565b81600181146200084257600281146200084d576200086d565b600191505062000613565b60ff8411156200086157620008616200078e565b50506001821b62000613565b5060208310610133831016604e8410600b841016171562000892575081810a62000613565b6200089e8383620007c0565b8060001904821115620008b557620008b56200078e565b029392505050565b60006200061060ff84168362000809565b60805160a05160c05160e051614a88620009b060003960008181610bd80152818161208d015281816121110152818161218d0152818161221d01528181613237015281816132e60152613379015260008181610a1501528181613d9f0152614159015260008181610ae101528181610e3e015281816111a601528181611270015281816126460152818161295e015261299601526000818161095201528181610dc501528181611fd80152818161205e0152818161271a01528181612d6901528181612fd4015281816131200152818161346101526139c90152614a886000f3fe608060405234801561001057600080fd5b50600436106105305760003560e01c80638baa2614116102af578063cd4d0bcf11610172578063e2240869116100d9578063eeb3c91011610092578063eeb3c91014610bc0578063f724f15614610bd3578063f80a36d614610bfa578063f862171914610c0d578063fc3e6dce14610c20578063fc46221d14610c3357600080fd5b8063e224086914610b4e578063e4107c9714610b61578063e74b981b14610b74578063e7be73fd14610b87578063eddd0d9c14610b9a578063ee75d7d414610bad57600080fd5b8063d8dfeb451161012b578063d8dfeb4514610adc578063da9c9ef314610b03578063dd45eef614610b16578063de6afa8214610b29578063e0f486ef14610b3c578063e1a4521814610b4557600080fd5b8063cd4d0bcf14610a71578063cdc4b34f14610a83578063ce9bece814610a96578063d547741f14610aa9578063d576d64b14610abc578063d592d81514610ac957600080fd5b8063a797f29911610216578063ba1fe9ed116101cf578063ba1fe9ed146109fe578063bb13245f14610a10578063bcc7028314610a37578063c3a7d68f14610a4c578063c71f4d2814610a55578063ca15c87314610a5e57600080fd5b8063a797f299146109ab578063aa85c1df146109b4578063aab483d6146109c7578063add66495146109da578063b80b88f0146109e2578063b8fd49f3146109f557600080fd5b806392bccb801161026857806392bccb801461094557806395e4b2511461094d5780639afc595d146109745780639c5fea9414610987578063a217fddf14610990578063a6138ed91461099857600080fd5b80638baa2614146108d55780638d044c06146108dd5780639010d07c146108e5578063906d26c8146108f857806391d148541461090b578063926d7d7f1461091e57600080fd5b8063458f5815116103f757806355584bee1161035e5780637a73db6e116103175780637a73db6e146108815780637dbc1df014610889578063820fe4be1461089c578063837018fa146108a557806385c4e79e146108ad57806387e2d06e146108c257600080fd5b806355584bee146107f45780635d591d68146107fc578063600d2dbc1461083557806365f6ef541461084857806373a95ddd1461085b5780637a191fa71461086857600080fd5b80634b155b97116103b05780634b155b97146107835780634c99a0af146107965780634dfe7af2146107bd5780634ef1ccd1146107c5578063510b751b146107d8578063525decd6146107e157600080fd5b8063458f58151461073a5780634591f63d146107435780634690484014610756578063479cafe01461076957806348bc54e81461077257806349cbbf2a1461077b57600080fd5b8063248a9ca31161049b578063354181f311610454578063354181f31461067c57806336568abe1461068557806338fed708146106985780633bfa67fe146106f65780634565e9ff1461071e5780634589c3b11461073157600080fd5b8063248a9ca3146105f957806324f09e9c1461061d578063258492cd1461063057806329390370146106435780632b5eceff146106565780632f2ff15d1461066957600080fd5b80630e063987116104ed5780630e063987146105a457806312589fb5146105b957806313966db5146105c25780631a4b131a146105cb5780632056aa12146105de578063244f5acf146105e657600080fd5b8063010801ea1461053557806301ffc9a714610551578063078a6be81461057457806307bda1bb14610589578063080c279a146105925780630954e08c1461059b575b600080fd5b61053e60175481565b6040519081526020015b60405180910390f35b61056461055f3660046143ea565b610c3c565b6040519015158152602001610548565b61053e600080516020614a3383398151915281565b61053e600c5481565b61053e60085481565b61053e60115481565b6105b76105b2366004614414565b610c67565b005b61053e600f5481565b61053e600a5481565b6105b76105d9366004614414565b610ec8565b6105b7610f4b565b6105b76105f4366004614479565b610fae565b61053e610607366004614414565b6000908152600160208190526040909120015490565b6105b761062b366004614414565b6112a9565b6105b761063e3660046144d7565b6112cf565b6105b7610651366004614512565b611429565b6105b761066436600461452d565b611495565b6105b7610677366004614573565b6115a4565b61053e600d5481565b6105b7610693366004614573565b6115d0565b6106d16106a6366004614414565b6007602052600090815260409020805460018201546002909201546001600160a01b03909116919083565b604080516001600160a01b039094168452602084019290925290820152606001610548565b61071173599c5276f94153aed4abfe267efc719b524f3aaa81565b604051610548919061459f565b6105b761072c366004614479565b61164a565b61053e60185481565b61053e600b5481565b6105b7610751366004614414565b6116d8565b600554610711906001600160a01b031681565b61053e60165481565b61053e60145481565b6105b7611752565b601d54610711906001600160a01b031681565b61053e7f6d1bd15a3098a6dad77d962815b9ece90c7c3fedff3027331df16fc4e184940881565b6105b76117ac565b6105b76107d3366004614414565b611801565b61053e601e5481565b6105b76107ef366004614512565b61187b565b6105b76118e7565b6106d161080a366004614414565b6006602052600090815260409020805460018201546002909201546001600160a01b03909116919083565b6105b7610843366004614512565b61193b565b6105b7610856366004614512565b61195d565b600e546105649060ff1681565b601c54610711906201000090046001600160a01b031681565b6105b76119d5565b6105b7610897366004614414565b611a2b565b61053e60195481565b6105b7611aa5565b61053e6000805160206149f383398151915281565b6105b76108d03660046145b3565b611af9565b6105b7611ca7565b6105b7611cff565b6107116108f336600461461f565b611d52565b6105b7610906366004614414565b611d71565b610564610919366004614573565b611d93565b61053e7fe2b7fb3b832174769106daebcfd6d1970523240dda11281102db9363b83b0dc481565b6105b7611dbe565b6107117f000000000000000000000000000000000000000000000000000000000000000081565b6105b7610982366004614657565b611e14565b61053e60135481565b61053e600081565b600354610711906001600160a01b031681565b61053e60105481565b6105b76109c23660046145b3565b612335565b6105b76109d5366004614414565b612481565b6105b76124fb565b6105b76109f0366004614414565b61254e565b61053e601a5481565b601c5461056490610100900460ff1681565b61053e7f000000000000000000000000000000000000000000000000000000000000000081565b61053e600080516020614a1383398151915281565b61053e601b5481565b61053e60155481565b61053e610a6c366004614414565b612570565b600e5461056490610100900460ff1681565b6105b7610a91366004614414565b612587565b6105b7610aa4366004614414565b6127c4565b6105b7610ab7366004614573565b61281a565b601c546105649060ff1681565b6105b7610ad7366004614414565b612841565b6107117f000000000000000000000000000000000000000000000000000000000000000081565b6105b7610b11366004614414565b612a24565b600e546105649062010000900460ff1681565b6105b7610b373660046144d7565b612a72565b61053e60095481565b61053e61271081565b6105b7610b5c366004614414565b612bbb565b6105b7610b6f366004614414565b612bdd565b6105b7610b82366004614512565b612c34565b6105b7610b953660046144d7565b612c9f565b6105b7610ba8366004614414565b612e6e565b600454610711906001600160a01b031681565b6105b7610bce366004614414565b612ee8565b6107117f000000000000000000000000000000000000000000000000000000000000000081565b6105b7610c0836600461461f565b61307c565b6105b7610c1b366004614414565b6131d2565b6105b7610c2e366004614414565b6134f7565b61053e60125481565b60006001600160e01b03198216635a05180f60e01b1480610c615750610c6182613599565b92915050565b600260005403610c925760405162461bcd60e51b8152600401610c8990614715565b60405180910390fd5b6002600055601c54610100900460ff168015610cc15760405163aadfaddd60e01b815260040160405180910390fd5b600954821015610ce45760405163595bd39f60e11b815260040160405180910390fd5b601b54600003610d0757604051638718c77160e01b815260040160405180910390fd5b610d10826135ce565b600354601b54604051630e75722360e41b815260048101919091526000916001600160a01b03169063e757223090602401602060405180830381865afa158015610d5e573d6000803e3d6000fd5b505050506040513d601f19601f82011682018060405250810190610d82919061474c565b90506000610d9084836136db565b90506000610d9d8261370c565b90506000610dab828461477b565b60405163079cc67960e41b81529091506001600160a01b037f000000000000000000000000000000000000000000000000000000000000000016906379cc679090610dfc9033908a9060040161478e565b600060405180830381600087803b158015610e1657600080fd5b505af1158015610e2a573d6000803e3d6000fd5b5050601c54610e7092506001600160a01b037f00000000000000000000000000000000000000000000000000000000000000008116925062010000909104163384613729565b336001600160a01b03167f74fc01c9a93ba557e57d074c70ac6eef4dee582d6900127632177a29ab23720687838588601b54604051610eb39594939291906147a7565b60405180910390a25050600160005550505050565b600080516020614a33833981519152610ee18133613787565b612710821115610f0457604051637e2df70960e11b815260040160405180910390fd5b601880549083905560408051828152602081018590527fc2a90774a43ce37d67c5941ddf6d15d3ca7a8b36cb0160dae29be3f66111544a91015b60405180910390a1505050565b6000805160206149f3833981519152610f648133613787565b600e805461ff0019166101001790556040517fcd71257f2998474633e94cfffa045014068f6218ffdca256b6f4aa9d5f15fb8990610fa390339061459f565b60405180910390a150565b600260005403610fd05760405162461bcd60e51b8152600401610c8990614715565b6002600055600e5460ff168015610ffa5760405163aadfaddd60e01b815260040160405180910390fd5b600082815b818110156112555760006007600088888581811061101f5761101f6147ca565b60209081029290920135835250818101929092526040908101600020815160608101835281546001600160a01b0316808252600183015494820194909452600290910154918101919091529150611075906137eb565b806040015160000361109a57604051638718c77160e01b815260040160405180910390fd5b6003546040828101519051630e75722360e41b815260048101919091526000916001600160a01b03169063e757223090602401602060405180830381865afa1580156110ea573d6000803e3d6000fd5b505050506040513d601f19601f8201168201806040525081019061110e919061474c565b905060006111208360200151836136db565b9050600061112d82613814565b9050600061113b828461477b565b905061114782896147e0565b9750600760008c8c8981811061115f5761115f6147ca565b60209081029290920135835250810191909152604001600090812080546001600160a01b0319168155600181018290556002015560045485516111d1916001600160a01b037f000000000000000000000000000000000000000000000000000000000000000081169291169084613729565b8a8a878181106111e3576111e36147ca565b9050602002013585600001516001600160a01b03167f9fcb6040dd03e5eea5db44708f190f5ddebd9ecbbdca948c6abe029f9a2796e487602001518486898b604001516040516112379594939291906147a7565b60405180910390a350505050508061124e906147f3565b9050610fff565b50811561129d5760045460055461129d916001600160a01b037f0000000000000000000000000000000000000000000000000000000000000000811692918116911685613729565b50506001600055505050565b600080516020614a338339815191526112c28133613787565b6112cb82613827565b5050565b600080516020614a338339815191526112e88133613787565b836112f2816137eb565b6000600760008881526020019081526020016000206040518060600160405290816000820160009054906101000a90046001600160a01b03166001600160a01b03166001600160a01b031681526020016001820154815260200160028201548152505090506040518060600160405280876001600160a01b03168152602001868152602001858152506007600089815260200190815260200160002060008201518160000160006101000a8154816001600160a01b0302191690836001600160a01b031602179055506020820151816001015560408201518160020155905050867f5a0c55c421ae3aac2379811eca16aaee32b6e64411322b624118d4219b9350a082600001518884604001518886602001518b6040516114189695949392919061480c565b60405180910390a250505050505050565b600080516020614a338339815191526114428133613787565b600380546001600160a01b038481166001600160a01b03198316179092556040519116907f801352e72ef9b80b3992ccbedf07ab0e133e7da7aaccf0024abf23f4f32eb99a90610f3e9083908690614842565b7fe2b7fb3b832174769106daebcfd6d1970523240dda11281102db9363b83b0dc46114c08133613787565b846114ca816137eb565b6000878152600660205260409020546001600160a01b03161561150057604051631aeecebf60e21b815260040160405180910390fd5b60408051606080820183526001600160a01b0389811680845260208085018b815260008688018181528f82526006845290889020965187546001600160a01b031916951694909417865551600186015591516002909401939093558351898152908101889052928301869052909189917fc985471d1cb1bb75da0d54fa5ab10f7171e952cefcc0bf4fc7c2546c19d1811f910160405180910390a350505050505050565b600082815260016020819052604090912001546115c18133613787565b6115cb8383613865565b505050565b6001600160a01b03811633146116405760405162461bcd60e51b815260206004820152602f60248201527f416363657373436f6e74726f6c3a2063616e206f6e6c792072656e6f756e636560448201526e103937b632b9903337b91039b2b63360891b6064820152608401610c89565b6112cb8282613887565b60026000540361166c5760405162461bcd60e51b8152600401610c8990614715565b6002600055600e54610100900460ff16801561169b5760405163aadfaddd60e01b815260040160405180910390fd5b8160005b8181101561129d576116c88585838181106116bc576116bc6147ca565b905060200201356138a9565b6116d1816147f3565b905061169f565b600080516020614a338339815191526116f18133613787565b61271082111561171457604051637e2df70960e11b815260040160405180910390fd5b601980549083905560408051828152602081018590527f1e58c4c7b3363e317e721969029ab4f15b80691bd68a66b4ff0841b37acde78e9101610f3e565b6000805160206149f383398151915261176b8133613787565b600e805462ff00001916620100001790556040517fdc41a92196ccc1ab8149c01bc68c2f506b10a7bb5cd2693c9516d176f5381ff490610fa390339061459f565b600080516020614a338339815191526117c58133613787565b600e805462ff0000191690556040517f53a8c40fc17c78d38e2c06aa8d2c550c1acbf7b30d087dbda289ab3dd41c235c90610fa390339061459f565b600080516020614a3383398151915261181a8133613787565b61271082101561183d5760405163617ab12d60e11b815260040160405180910390fd5b600980549083905560408051828152602081018590527ffdaf6ed728cef208e62328a008209556f8281f3062b14dd08aaaa90fa15942119101610f3e565b600080516020614a338339815191526118948133613787565b600480546001600160a01b038481166001600160a01b03198316179092556040519116907fb09f298b2812193d5ada18beaadd6cb8f12b3640926d99de46e2a65394df829d90610f3e9083908690614842565b600080516020614a338339815191526119008133613787565b601c805461ff00191690556040517f0e16f2dd9ed75755cbc7d3920f29c5bb6a45df54feab3054c31503038ea7f9cf90610fa390339061459f565b600080516020614a338339815191526119548133613787565b6112cb82613a9d565b600080516020614a338339815191526119768133613787565b601c80546001600160a01b038481166201000090810262010000600160b01b03198416179093556040519290910416907f53b26230bb246c12ee4e4aa8ac96558cdaa606d102c0c03147eea7931570f98290610f3e9083908690614842565b6000805160206149f38339815191526119ee8133613787565b601c805460ff191660011790556040517f365ee0941ce5514ccbd89ac783816a0aaee7799d4a16335ee163b6ab0459e0e790610fa390339061459f565b600080516020614a33833981519152611a448133613787565b612710821115611a6757604051637e2df70960e11b815260040160405180910390fd5b600b80549083905560408051828152602081018590527f2956acfe8584fb02384e06c675ee215bf10d55c3de1e6ff9b2f621e8a40c64709101610f3e565b600080516020614a33833981519152611abe8133613787565b600e805461ff00191690556040517f94482ee2b195c365dbbc2d689fd5a088d2b219abe44360ba8895525c9471d66f90610fa390339061459f565b600080516020614a13833981519152611b128133613787565b83828114611b335760405163cc6e40b360e01b815260040160405180910390fd5b60005b81811015611c9e576000600681898985818110611b5557611b556147ca565b60209081029290920135835250810191909152604001600020546001600160a01b031603611b96576040516305a8a45b60e41b815260040160405180910390fd5b60066000888884818110611bac57611bac6147ca565b90506020020135815260200190815260200160002060020154600014611be557604051631139f30960e31b815260040160405180910390fd5b848482818110611bf757611bf76147ca565b9050602002013560066000898985818110611c1457611c146147ca565b90506020020135815260200190815260200160002060020181905550848482818110611c4257611c426147ca565b90506020020135878783818110611c5b57611c5b6147ca565b905060200201357fc2055184bbc2d10b90bf7df17a84f8bdda6b52377a976e41e0c1610fffafc0d760405160405180910390a3611c97816147f3565b9050611b36565b50505050505050565b6000805160206149f3833981519152611cc08133613787565b601c805461ff0019166101001790556040517fd61ea3bf0cabdd28bc420f68a4009311324664863af4a13766bad3ee33b4d92b90610fa390339061459f565b600080516020614a33833981519152611d188133613787565b600e805460ff191690556040517fc641b9c4afa539cedcbe2e5f3e47d9f092175b5d0b8ae72dffa634a3eb3e47e490610fa390339061459f565b6000828152600260205260408120611d6a9083613b17565b9392505050565b600080516020614a33833981519152611d8a8133613787565b6112cb82613b23565b60009182526001602090815260408084206001600160a01b0393909316845291905290205460ff1690565b6000805160206149f3833981519152611dd78133613787565b600e805460ff191660011790556040517f71e0406677c0570b2a66b1a4feeccf5c1cba2d6729435461e27a312b15410d0490610fa390339061459f565b600260005403611e365760405162461bcd60e51b8152600401610c8990614715565b6002600055600e54610100900460ff168015611e655760405163aadfaddd60e01b815260040160405180910390fd5b815160005b8181101561232a57600060066000868481518110611e8a57611e8a6147ca565b60209081029190910181015182528181019290925260409081016000908120825160608101845281546001600160a01b03168152600182015494810194909452600201549183018290529192509003611ef657604051638718c77160e01b815260040160405180910390fd5b6003546040828101519051630e75722360e41b815260048101919091526000916001600160a01b03169063e757223090602401602060405180830381865afa158015611f46573d6000803e3d6000fd5b505050506040513d601f19601f82011682018060405250810190611f6a919061474c565b90506000611f7c836020015183613b58565b905060066000888681518110611f9457611f946147ca565b60209081029190910181015182528101919091526040908101600090812080546001600160a01b03191681556001810182905560020155516340c10f1960e01b81527f00000000000000000000000000000000000000000000000000000000000000006001600160a01b0316906340c10f1990612017903090859060040161478e565b600060405180830381600087803b15801561203157600080fd5b505af1158015612045573d6000803e3d6000fd5b505060405163095ea7b360e01b81526001600160a01b037f000000000000000000000000000000000000000000000000000000000000000016925063095ea7b391506120b7907f000000000000000000000000000000000000000000000000000000000000000090859060040161478e565b6020604051808303816000875af11580156120d6573d6000803e3d6000fd5b505050506040513d601f19601f820116820180604052508101906120fa919061485c565b50604051630ea598cb60e41b8152600481018290527f00000000000000000000000000000000000000000000000000000000000000006001600160a01b03169063ea598cb090602401600060405180830381600087803b15801561215d57600080fd5b505af1158015612171573d6000803e3d6000fd5b505060405163f9f293b560e01b815260048101849052600092507f00000000000000000000000000000000000000000000000000000000000000006001600160a01b0316915063f9f293b590602401602060405180830381865afa1580156121dd573d6000803e3d6000fd5b505050506040513d601f19601f82011682018060405250810190612201919061474c565b845160405163a9059cbb60e01b81529192506001600160a01b037f0000000000000000000000000000000000000000000000000000000000000000169163a9059cbb9161225291859060040161478e565b6020604051808303816000875af1158015612271573d6000803e3d6000fd5b505050506040513d601f19601f82011682018060405250810190612295919061485c565b508785815181106122a8576122a86147ca565b602002602001015184600001516001600160a01b03167f1483345876eecfaf85b0f3c4982aff7f7dd612694b4ec78c329e69c2dcd46bb4848488602001518860405161230d949392919093845260208401929092526040830152606082015260800190565b60405180910390a35050505080612323906147f3565b9050611e6a565b505060016000555050565b600080516020614a1383398151915261234e8133613787565b8382811461236f5760405163cc6e40b360e01b815260040160405180910390fd5b60005b81811015611c9e5760076000888884818110612390576123906147ca565b905060200201358152602001908152602001600020600201546000146123c957604051631139f30960e31b815260040160405180910390fd5b8484828181106123db576123db6147ca565b90506020020135600760008989858181106123f8576123f86147ca565b90506020020135815260200190815260200160002060020181905550848482818110612426576124266147ca565b9050602002013587878381811061243f5761243f6147ca565b905060200201357e05e86a70f400d1820ab5a0573a2be911d831ab28fe2e9448b34daab223b09c60405160405180910390a361247a816147f3565b9050612372565b600080516020614a3383398151915261249a8133613787565b6127108210156124bd5760405163617ab12d60e11b815260040160405180910390fd5b600880549083905560408051828152602081018590527fe6e25add7363f8f8a40cbea9810d3115a33703b10972ef759104219b006574369101610f3e565b600080516020614a338339815191526125148133613787565b601c805460ff191690556040517f6eea27d051c0a3f9c4cba255f20bb93741b636b210e3a435717aa0172d07230e90610fa390339061459f565b600080516020614a338339815191526125678133613787565b6112cb82613b82565b6000818152600260205260408120610c6190613bb7565b6002600054036125a95760405162461bcd60e51b8152600401610c8990614715565b6002600055601c5460ff1680156125d35760405163aadfaddd60e01b815260040160405180910390fd5b6008548210156125f657604051636ba4a1c760e01b815260040160405180910390fd5b601a5460000361261957604051638718c77160e01b815260040160405180910390fd5b600061262483613bc1565b90506000612632828561477b565b601c54909150612678906001600160a01b037f00000000000000000000000000000000000000000000000000000000000000008116913391620100009091041687613729565b600354601a54604051630e75722360e41b815260048101919091526000916001600160a01b03169063e757223090602401602060405180830381865afa1580156126c6573d6000803e3d6000fd5b505050506040513d601f19601f820116820180604052508101906126ea919061474c565b905060006126f88383613b58565b905061270381613bd4565b6040516340c10f1960e01b81526001600160a01b037f000000000000000000000000000000000000000000000000000000000000000016906340c10f1990612751903390859060040161478e565b600060405180830381600087803b15801561276b57600080fd5b505af115801561277f573d6000803e3d6000fd5b50505050336001600160a01b03167f548614ed135de9493b574143d3721cbad6495ef644dd0b16e9ecaab5dd3222878785878587604051610eb39594939291906147a7565b600080516020614a138339815191526127dd8133613787565b601b8290556040518281527f0f419e2aeb56cdc816ef1c7a850258508d4bef9b25a1c3db1e1a158da46982c7906020015b60405180910390a15050565b600082815260016020819052604090912001546128378133613787565b6115cb8383613887565b6002600054036128635760405162461bcd60e51b8152600401610c8990614715565b6002600055600e54610100900460ff1680156128925760405163aadfaddd60e01b815260040160405180910390fd5b3361289c816137eb565b6008548310156128bf57604051636ba4a1c760e01b815260040160405180910390fd5b60006128ca84613ccc565b905060006128d8828661477b565b600c805491925060009190826128ed836147f3565b909155506040805160608101825233815260208082018681526000838501818152868252600690935293909320915182546001600160a01b0319166001600160a01b039091161782559151600182015590516002909101559050821561298957600554612989906001600160a01b037f000000000000000000000000000000000000000000000000000000000000000081169133911686613729565b6129d26001600160a01b037f0000000000000000000000000000000000000000000000000000000000000000163373599c5276f94153aed4abfe267efc719b524f3aaa85613729565b6040805187815260208101849052908101849052819033907f7cbce37c7b11d322316420484f40c29ce672ad3fa16752551a3dbe6ccfa04e149060600160405180910390a35050600160005550505050565b600080516020614a13833981519152612a3d8133613787565b601a8290556040518281527f8ead426a987b40e06b37cd99f6e88af46e0f59c3b13ef79db3904a239339f39e9060200161280e565b600080516020614a33833981519152612a8b8133613787565b83612a95816137eb565b6000600660008881526020019081526020016000206040518060600160405290816000820160009054906101000a90046001600160a01b03166001600160a01b03166001600160a01b031681526020016001820154815260200160028201548152505090506040518060600160405280876001600160a01b03168152602001868152602001858152506006600089815260200190815260200160002060008201518160000160006101000a8154816001600160a01b0302191690836001600160a01b031602179055506020820151816001015560408201518160020155905050867f7e506b1f11218d4c947d5a59a97fd996c42afc2b024b6aeaec050930eb2b339982600001518884604001518886602001518b6040516114189695949392919061480c565b600080516020614a33833981519152612bd48133613787565b6112cb82613cdf565b600080516020614a33833981519152612bf68133613787565b600f80549083905560408051828152602081018590527f1071422bad736c3651d3d3b7a4eda70e84e9c85a08f21c955d79ded03bbf06bb9101610f3e565b600080516020614a33833981519152612c4d8133613787565b600580546001600160a01b038481166001600160a01b0319831681179093556040519116917f15d80a013f22151bc7246e3bc132e12828cde19de98870475e3fa7084015272191610f3e918491614842565b7f6d1bd15a3098a6dad77d962815b9ece90c7c3fedff3027331df16fc4e1849408612cca8133613787565b83612cd4816137eb565b6000868152600760205260409020546001600160a01b031615612d0a57604051636e27aecf60e01b815260040160405180910390fd5b83600003612d2b5760405163595bd39f60e11b815260040160405180910390fd5b6001600160a01b038516612d52576040516325cf4ebb60e21b815260040160405180910390fd5b60405163079cc67960e41b81526001600160a01b037f000000000000000000000000000000000000000000000000000000000000000016906379cc679090612da0903390889060040161478e565b600060405180830381600087803b158015612dba57600080fd5b505af1158015612dce573d6000803e3d6000fd5b5050604080516060810182526001600160a01b0389811680835260208084018b815260008587018181528f82526007845290879020955186546001600160a01b0319169516949094178555516001850155915160029093019290925582518981529081018890529093508992507ffd54f2267d4171d61087dba82ecc7cba341846cdc41eb7c3f6d7c4d822680d89910160405180910390a3505050505050565b600080516020614a33833981519152612e878133613787565b612710821115612eaa57604051637e2df70960e11b815260040160405180910390fd5b600a80549083905560408051828152602081018590527f387269377ae17304805d5f88cea4252e5ca47346783c279aeb9e8627335a49ac9101610f3e565b600260005403612f0a5760405162461bcd60e51b8152600401610c8990614715565b6002600055600e5460ff168015612f345760405163aadfaddd60e01b815260040160405180910390fd5b600954821015612f575760405163595bd39f60e11b815260040160405180910390fd5b600d805460009182612f68836147f3565b909155506040805160608101825233808252602080830188815260008486018181528782526007909352859020935184546001600160a01b0319166001600160a01b03918216178555905160018501559051600290930192909255915163079cc67960e41b81529293507f000000000000000000000000000000000000000000000000000000000000000016916379cc67909161300991879060040161478e565b600060405180830381600087803b15801561302357600080fd5b505af1158015613037573d6000803e3d6000fd5b50506040518581528392503391507f80ebb30e7c30052bf403a20da869bdd033841684e93930d97c4af74238529b4f9060200160405180910390a35050600160005550565b60026000540361309e5760405162461bcd60e51b8152600401610c8990614715565b6002600055600e5462010000900460ff1680156130ce5760405163aadfaddd60e01b815260040160405180910390fd5b600f548310156130f15760405163595bd39f60e11b815260040160405180910390fd5b600d805460009182613102836147f3565b9091555060405163079cc67960e41b81529091506001600160a01b037f000000000000000000000000000000000000000000000000000000000000000016906379cc679090613157903390889060040161478e565b600060405180830381600087803b15801561317157600080fd5b505af1158015613185573d6000803e3d6000fd5b505060408051878152602081018790528493503392507fad2102c6abc98f954bd5d61e6c0d19764db331f63019296309309a34f70e66a691015b60405180910390a3505060016000555050565b6002600054036131f45760405162461bcd60e51b8152600401610c8990614715565b6002600055600e5460ff16801561321e5760405163aadfaddd60e01b815260040160405180910390fd5b60405163736b5f6360e11b8152600481018390526000907f00000000000000000000000000000000000000000000000000000000000000006001600160a01b03169063e6d6bec690602401602060405180830381865afa158015613286573d6000803e3d6000fd5b505050506040513d601f19601f820116820180604052508101906132aa919061474c565b90506009548110156132cf5760405163595bd39f60e11b815260040160405180910390fd5b6040516323b872dd60e01b81526001600160a01b037f000000000000000000000000000000000000000000000000000000000000000016906323b872dd9061331f9033903090889060040161487e565b6020604051808303816000875af115801561333e573d6000803e3d6000fd5b505050506040513d601f19601f82011682018060405250810190613362919061485c565b50604051636f074d1f60e11b8152600481018490527f00000000000000000000000000000000000000000000000000000000000000006001600160a01b03169063de0e9a3e90602401600060405180830381600087803b1580156133c557600080fd5b505af11580156133d9573d6000803e3d6000fd5b5050600d8054600093509150826133ef836147f3565b9091555060408051606081018252338152602080820188815260008385018181528682526007909352849020925183546001600160a01b0319166001600160a01b039182161784559051600184015590516002909201919091559051630852cd8d60e31b8152600481018590529192507f000000000000000000000000000000000000000000000000000000000000000016906342966c6890602401600060405180830381600087803b1580156134a557600080fd5b505af11580156134b9573d6000803e3d6000fd5b505060408051858152602081018890528493503392507fe3735a9dc0172383ce7d440885f5d0940bbecc6801a336b7a3c953598c27332d91016131bf565b600080516020614a338339815191526135108133613787565b6112cb82613d14565b6135238282611d93565b6112cb5760008281526001602081815260408084206001600160a01b0386168086529252808420805460ff19169093179092559051339285917f2f8788117e7eff1d82e926ec794901d17c78024a50270940304540a733656f0d9190a45050565b6000611d6a836001600160a01b038416613d49565b60006001600160e01b03198216637965db0b60e01b1480610c6157506301ffc9a760e01b6001600160e01b0319831614610c61565b600081116136315760405162461bcd60e51b815260206004820152602a60248201527f526174654c696d69743a20726564656d7074696f6e20616d6f756e742063616e6044820152692774206265207a65726f60b01b6064820152608401610c89565b60145460155461364191906147e0565b4210613651576000601755426015555b601754601654613661919061477b565b8111156136c15760405162461bcd60e51b815260206004820152602860248201527f526174654c696d69743a20526564656d7074696f6e20657863656564732072616044820152671d19481b1a5b5a5d60c21b6064820152608401610c89565b80601760008282546136d391906147e0565b909155505050565b6000806136e883856148a2565b90506137046136ff670de0b6b3a7640000836148c1565b613d98565b949350505050565b60006127106019548361371f91906148a2565b610c6191906148c1565b613781846323b872dd60e01b85858560405160240161374a9392919061487e565b60408051601f198184030181529190526020810180516001600160e01b03166001600160e01b031990931692909217909152613dc4565b50505050565b6137918282611d93565b6112cb576137a9816001600160a01b03166014613e96565b6137b4836020613e96565b6040516020016137c5929190614907565b60408051601f198184030181529082905262461bcd60e51b8252610c8991600401614976565b6137f481614032565b61381157604051634555d55360e11b815260040160405180910390fd5b50565b6000612710600b548361371f91906148a2565b601e80549082905560408051828152602081018490527fdaffa4de8807a37aaf10d8a67851ece24bdb59211b326eb514393692ddc95832910161280e565b61386f8282613519565b60008281526002602052604090206115cb9082613584565b61389182826140ac565b60008281526002602052604090206115cb9082614113565b6000818152600660209081526040808320815160608101835281546001600160a01b031681526001820154938101939093526002015490820181905290910361390557604051638718c77160e01b815260040160405180910390fd5b6003546040828101519051630e75722360e41b815260048101919091526000916001600160a01b03169063e757223090602401602060405180830381865afa158015613955573d6000803e3d6000fd5b505050506040513d601f19601f82011682018060405250810190613979919061474c565b9050600061398b836020015183613b58565b60008581526006602052604080822080546001600160a01b03191681556001810183905560020191909155845190516340c10f1960e01b81529192507f00000000000000000000000000000000000000000000000000000000000000006001600160a01b0316916340c10f1991613a0691859060040161478e565b600060405180830381600087803b158015613a2057600080fd5b505af1158015613a34573d6000803e3d6000fd5b50508451602080870151604080890151815188815293840192909252820187905260608201528793506001600160a01b0390911691507fdd602cc9cb236502fb74f091872b4025184011dd96eee41099caa260842f20249060800160405180910390a350505050565b6001600160a01b038116613ac457604051636ca1fdd760e01b815260040160405180910390fd5b601d80546001600160a01b038381166001600160a01b03198316179092556040519116907f7d25fe3c08dd306579e1d2a5002c9c44f52c27fc3754b43c75ef1e080d454c8a9061280e9083908590614842565b6000611d6a8383614128565b60148190556040518181527f32a8f3574ca524f2270a30dd04f9d974be646ae632e3aeb71dc6e3626969518090602001610fa3565b600080613b6484614152565b613b7690670de0b6b3a76400006148a2565b905061370483826148c1565b60128190556040518181527fd55928cd495ee9e8e5a2dad1c2f3374c98d73710a0ea91113c8de16b1b2f7f4190602001610fa3565b6000610c61825490565b60006127106018548361371f91906148a2565b60008111613c305760405162461bcd60e51b8152602060048201526024808201527f526174654c696d69743a206d696e7420616d6f756e742063616e2774206265206044820152637a65726f60e01b6064820152608401610c89565b601054601154613c4091906147e0565b4210613c50576000601355426011555b601354601254613c60919061477b565b811115613cba5760405162461bcd60e51b815260206004820152602260248201527f526174654c696d69743a204d696e7420657863656564732072617465206c696d6044820152611a5d60f21b6064820152608401610c89565b80601360008282546136d391906147e0565b6000612710600a548361371f91906148a2565b60108190556040518181527f2f77dd17027c07a9480eb52927b1fd5913198135d604c63753f1f5134669fce890602001610fa3565b60168190556040518181527f3529f5a9e0d78c67c2a076927ab79e66d4917baa096c5710de0a5b111f4c41e890602001610fa3565b6000818152600183016020526040812054613d9057508154600181810184556000848152602080822090930184905584548482528286019093526040902091909155610c61565b506000610c61565b6000610c617f0000000000000000000000000000000000000000000000000000000000000000836148c1565b6000613e19826040518060400160405280602081526020017f5361666545524332303a206c6f772d6c6576656c2063616c6c206661696c6564815250856001600160a01b031661417e9092919063ffffffff16565b8051909150156115cb5780806020019051810190613e37919061485c565b6115cb5760405162461bcd60e51b815260206004820152602a60248201527f5361666545524332303a204552433230206f7065726174696f6e20646964206e6044820152691bdd081cdd58d8d9595960b21b6064820152608401610c89565b60606000613ea58360026148a2565b613eb09060026147e0565b67ffffffffffffffff811115613ec857613ec8614641565b6040519080825280601f01601f191660200182016040528015613ef2576020820181803683370190505b509050600360fc1b81600081518110613f0d57613f0d6147ca565b60200101906001600160f81b031916908160001a905350600f60fb1b81600181518110613f3c57613f3c6147ca565b60200101906001600160f81b031916908160001a9053506000613f608460026148a2565b613f6b9060016147e0565b90505b6001811115613fe3576f181899199a1a9b1b9c1cb0b131b232b360811b85600f1660108110613f9f57613f9f6147ca565b1a60f81b828281518110613fb557613fb56147ca565b60200101906001600160f81b031916908160001a90535060049490941c93613fdc816149a9565b9050613f6e565b508315611d6a5760405162461bcd60e51b815260206004820181905260248201527f537472696e67733a20686578206c656e67746820696e73756666696369656e746044820152606401610c89565b601d54601e5460405163609f4d6d60e11b815260048101919091526001600160a01b038381166024830152600092169063c13e9ada90604401602060405180830381865afa158015614088573d6000803e3d6000fd5b505050506040513d601f19601f82011682018060405250810190610c61919061485c565b6140b68282611d93565b156112cb5760008281526001602090815260408083206001600160a01b0385168085529252808320805460ff1916905551339285917ff6391f5c32d9c69d2a47ea670b442974b53935d1edc7fd64eb21e047a839171b9190a45050565b6000611d6a836001600160a01b03841661418d565b600082600001828154811061413f5761413f6147ca565b9060005260206000200154905092915050565b6000610c617f0000000000000000000000000000000000000000000000000000000000000000836148a2565b60606137048484600085614280565b600081815260018301602052604081205480156142765760006141b160018361477b565b85549091506000906141c59060019061477b565b905081811461422a5760008660000182815481106141e5576141e56147ca565b9060005260206000200154905080876000018481548110614208576142086147ca565b6000918252602080832090910192909255918252600188019052604090208390555b855486908061423b5761423b6149c0565b600190038181906000526020600020016000905590558560010160008681526020019081526020016000206000905560019350505050610c61565b6000915050610c61565b6060824710156142e15760405162461bcd60e51b815260206004820152602660248201527f416464726573733a20696e73756666696369656e742062616c616e636520666f6044820152651c8818d85b1b60d21b6064820152608401610c89565b6001600160a01b0385163b6143385760405162461bcd60e51b815260206004820152601d60248201527f416464726573733a2063616c6c20746f206e6f6e2d636f6e74726163740000006044820152606401610c89565b600080866001600160a01b0316858760405161435491906149d6565b60006040518083038185875af1925050503d8060008114614391576040519150601f19603f3d011682016040523d82523d6000602084013e614396565b606091505b50915091506143a68282866143b1565b979650505050505050565b606083156143c0575081611d6a565b8251156143d05782518084602001fd5b8160405162461bcd60e51b8152600401610c899190614976565b6000602082840312156143fc57600080fd5b81356001600160e01b031981168114611d6a57600080fd5b60006020828403121561442657600080fd5b5035919050565b60008083601f84011261443f57600080fd5b50813567ffffffffffffffff81111561445757600080fd5b6020830191508360208260051b850101111561447257600080fd5b9250929050565b6000806020838503121561448c57600080fd5b823567ffffffffffffffff8111156144a357600080fd5b6144af8582860161442d565b90969095509350505050565b80356001600160a01b03811681146144d257600080fd5b919050565b600080600080608085870312156144ed57600080fd5b843593506144fd602086016144bb565b93969395505050506040820135916060013590565b60006020828403121561452457600080fd5b611d6a826144bb565b600080600080600060a0868803121561454557600080fd5b85359450614555602087016144bb565b94979496505050506040830135926060810135926080909101359150565b6000806040838503121561458657600080fd5b82359150614596602084016144bb565b90509250929050565b6001600160a01b0391909116815260200190565b600080600080604085870312156145c957600080fd5b843567ffffffffffffffff808211156145e157600080fd5b6145ed8883890161442d565b9096509450602087013591508082111561460657600080fd5b506146138782880161442d565b95989497509550505050565b6000806040838503121561463257600080fd5b50508035926020909101359150565b634e487b7160e01b600052604160045260246000fd5b6000602080838503121561466a57600080fd5b823567ffffffffffffffff8082111561468257600080fd5b818501915085601f83011261469657600080fd5b8135818111156146a8576146a8614641565b8060051b604051601f19603f830116810181811085821117156146cd576146cd614641565b6040529182528482019250838101850191888311156146eb57600080fd5b938501935b82851015614709578435845293850193928501926146f0565b98975050505050505050565b6020808252601f908201527f5265656e7472616e637947756172643a207265656e7472616e742063616c6c00604082015260600190565b60006020828403121561475e57600080fd5b5051919050565b634e487b7160e01b600052601160045260246000fd5b81810381811115610c6157610c61614765565b6001600160a01b03929092168252602082015260400190565b948552602085019390935260408401919091526060830152608082015260a00190565b634e487b7160e01b600052603260045260246000fd5b80820180821115610c6157610c61614765565b60006001820161480557614805614765565b5060010190565b6001600160a01b03968716815294909516602085015260408401929092526060830152608082015260a081019190915260c00190565b6001600160a01b0392831681529116602082015260400190565b60006020828403121561486e57600080fd5b81518015158114611d6a57600080fd5b6001600160a01b039384168152919092166020820152604081019190915260600190565b60008160001904831182151516156148bc576148bc614765565b500290565b6000826148de57634e487b7160e01b600052601260045260246000fd5b500490565b60005b838110156148fe5781810151838201526020016148e6565b50506000910152565b76020b1b1b2b9b9a1b7b73a3937b61d1030b1b1b7bab73a1604d1b8152600083516149398160178501602088016148e3565b7001034b99036b4b9b9b4b733903937b6329607d1b601791840191820152835161496a8160288401602088016148e3565b01602801949350505050565b60208152600082518060208401526149958160408501602087016148e3565b601f01601f19169190910160400192915050565b6000816149b8576149b8614765565b506000190190565b634e487b7160e01b600052603160045260246000fd5b600082516149e88184602087016148e3565b919091019291505056fe9ac2c43e905fe4f0c030a0b0e4b805a284e79da32a5c9c71be1c68dd79bbb89d830a9081649e91840eb0274e99b47626a896cfa0f4dd591cb31cd5060e566c0d8c6dd8af24db306eb580672d47cf7dd23b8394bf74074f8ac14b948512ecdb03a2646970667358221220c99ee1efd1aa3ed73a0a546a624294a3aa701975dcba45e5a5d65300d3e22b2164736f6c634300081000339ac2c43e905fe4f0c030a0b0e4b805a284e79da32a5c9c71be1c68dd79bbb89d8c6dd8af24db306eb580672d47cf7dd23b8394bf74074f8ac14b948512ecdb03",
  "devdoc": {
    "events": {
      "RedemptionProofAdded(bytes32,address,uint256,uint256)": {
        "params": {
          "rwaAmountBurned": "Amount of OMMF burned",
          "timestamp": "Timestamp of the redemption",
          "txHash": "Tx hash (redemption id) of the redemption transfer",
          "user": "Address of the user who made the redemption"
        }
      },
      "WrappedMintCompleted(address,bytes32,uint256,uint256,uint256,uint256)": {
        "params": {
          "collateralAmountDeposited": "The amount of collateral deposited",
          "depositId": "The deposit Id for the subscription request",
          "price": "The price set for the depositId",
          "rwaAmountOut": "The amount of RWA token minted to the                                  user",
          "user": "The address of the user getting the funds",
          "wRWAAmountOut": "The amount of wrapped RWA token minted"
        }
      },
      "WrappedRedemptionRequested(address,bytes32,uint256,uint256)": {
        "params": {
          "redemptionId": "The redemption Id for a given redemption                           request",
          "rwaAmountIn": "The amount of rwa being redeemed",
          "user": "The address of the user",
          "wrappedRwaAmountIn": "The amount of wrapped rwa to convert to rwa"
        }
      }
    },
    "kind": "dev",
    "methods": {
      "addProof(bytes32,address,uint256,uint256,uint256)": {
        "details": "txHash is used as the depositId in storageAll amounts are in decimals of `collateral`",
        "params": {
          "depositAmountAfterFee": "The amount of the deposit after fees",
          "feeAmount": "The amount of the fees taken",
          "timestamp": "The timestamp of the deposit",
          "txHash": "The transaction hash of the deposit",
          "user": "The address of the user who made the deposit"
        }
      },
      "addRedemptionProof(bytes32,address,uint256,uint256)": {
        "params": {
          "rwaAmountToBurn": "The amount of OMMF burned",
          "timestamp": "The timestamp of the redemption request",
          "txHash": "The tx hash (redemption Id) of the redemption",
          "user": "The address of the user who made the redemption"
        }
      },
      "claimMint(bytes32[])": {
        "details": "Implicitly does all transfer checks present in underlying `rwa`The priceId corresponding to a given depositId must be set prior to      claiming a mint",
        "params": {
          "depositIds": "An array containing the deposit Ids one wishes to claim"
        }
      },
      "claimMint_wOMMF(bytes32[])": {
        "params": {
          "depositIds": "The depositIds to be claimed"
        }
      },
      "claimRedemption(bytes32[])": {
        "details": "Implicitly does all checks present in underlying `rwa`The price Id corresponding to a redemptionId must be set prior to      claiming a redemption",
        "params": {
          "redemptionIds": "an Array of redemption Id's which ought to fulfilled"
        }
      },
      "getRoleAdmin(bytes32)": {
        "details": "Returns the admin role that controls `role`. See {grantRole} and {revokeRole}. To change a role's admin, use {_setRoleAdmin}."
      },
      "getRoleMember(bytes32,uint256)": {
        "details": "Returns one of the accounts that have `role`. `index` must be a value between 0 and {getRoleMemberCount}, non-inclusive. Role bearers are not sorted in any particular way, and their ordering may change at any point. WARNING: When using {getRoleMember} and {getRoleMemberCount}, make sure you perform all queries on the same block. See the following https://forum.openzeppelin.com/t/iterating-over-elements-on-enumerableset-in-openzeppelin-contracts/2296[forum post] for more information."
      },
      "getRoleMemberCount(bytes32)": {
        "details": "Returns the number of accounts that have `role`. Can be used together with {getRoleMember} to enumerate all bearers of a role."
      },
      "grantRole(bytes32,address)": {
        "details": "Grants `role` to `account`. If `account` had not been already granted `role`, emits a {RoleGranted} event. Requirements: - the caller must have ``role``'s admin role."
      },
      "hasRole(bytes32,address)": {
        "details": "Returns `true` if `account` has been granted `role`."
      },
      "instantMint(uint256)": {
        "details": "All fees are deducted from amount transferred by      `instantMintAssetManager`",
        "params": {
          "amount": "The amount of `collateral` to deposit"
        }
      },
      "instantRedemption(uint256)": {
        "details": "All fees are deducted from collateral transferred by      `instantMintAssetManager`",
        "params": {
          "amount": "The amount of `collateral` to deposit"
        }
      },
      "overwriteDepositor(bytes32,address,uint256,uint256)": {
        "params": {
          "depositAmountAfterFee": "The deposit value for the new entry",
          "depositIdToOverwrite": "The depositId of the entry we wish to                              overwrite",
          "priceId": "The priceId to be associated with the new                              entry",
          "user": "The user for the new entry"
        }
      },
      "overwriteRedeemer(bytes32,address,uint256,uint256)": {
        "params": {
          "priceId": "The priceID to be associated with the new                                entry",
          "redemptionIdToOverwrite": "The redemptionId of the entry we wish to                                overwrite",
          "rwaTokenAmountBurned": "The burn amount for the new entry",
          "user": "The user for the new entry"
        }
      },
      "renounceRole(bytes32,address)": {
        "details": "Revokes `role` from the calling account. Roles are often managed via {grantRole} and {revokeRole}: this function's purpose is to provide a mechanism for accounts to lose their privileges if they are compromised (such as when a trusted device is misplaced). If the calling account had been revoked `role`, emits a {RoleRevoked} event. Requirements: - the caller must be `account`."
      },
      "requestRedemption(uint256)": {
        "params": {
          "amount": "The amount (in units of `rwa`) that a user wishes to redeem               from the fund"
        }
      },
      "requestRedemptionServicedOffchain(uint256,bytes32)": {
        "params": {
          "amountRWATokenToRedeem": "The requested redemption amount",
          "offChainDestination": "A hash of the destination to which                               the request should be serviced to."
        }
      },
      "requestRedemption_wOMMF(uint256)": {
        "params": {
          "amount": "The amount of wrapped rwa that the user would like to burn"
        }
      },
      "requestSubscription(uint256)": {
        "params": {
          "amount": "The amount of collateral one wished to deposit"
        }
      },
      "revokeRole(bytes32,address)": {
        "details": "Revokes `role` from `account`. If `account` had been granted `role`, emits a {RoleRevoked} event. Requirements: - the caller must have ``role``'s admin role."
      },
      "setAssetSender(address)": {
        "params": {
          "newAssetSender": "The address of the new `assetSender`"
        }
      },
      "setFeeRecipient(address)": {
        "params": {
          "newFeeRecipient": "The address of the new `feeRecipient`"
        }
      },
      "setInstantMintAssetManager(address)": {
        "params": {
          "_instantMintAssetManager": "The address to update                                 `instantMintAssetManager` to"
        }
      },
      "setInstantMintFee(uint256)": {
        "details": "`_instantMintFee` must not exceed 100% (or 10_000 bps)",
        "params": {
          "_instantMintFee": "new mint fee specified in basis points"
        }
      },
      "setInstantMintLimit(uint256)": {
        "params": {
          "newMintLimit": "New limit that dictates how much RWA can be minted                     in a specified duration                     (in 18 decimals per the RWA contract)"
        }
      },
      "setInstantMintLimitDuration(uint256)": {
        "params": {
          "newMintLimitDuration": "New limit that specifies the interval                             (in seconds) in which only mintLimit RWA                             can be minted within"
        }
      },
      "setInstantRedemptionFee(uint256)": {
        "details": "`_instantRedemptionFee` must not exceed 100% (or 10_000 bps)",
        "params": {
          "_instantRedemptionFee": "new redemption fee specified in basis points"
        }
      },
      "setInstantRedemptionLimit(uint256)": {
        "params": {
          "newRedemptionLimit": "New limit that dicates how much RWA                       can be redeemed in a specified duration                       (in 18 decimals per the RWA contract)"
        }
      },
      "setInstantRedemptionLimitDuration(uint256)": {
        "params": {
          "newRedemptionLimitDuration": "New limit that specifies the interval                               (in seconds) in which only RedemptionLimit RWA                               can be redeemed within"
        }
      },
      "setKYCRegistry(address)": {
        "params": {
          "_kycRegistry": "The new KYC registry address"
        }
      },
      "setKYCRequirementGroup(uint256)": {
        "params": {
          "_kycRequirementGroup": "The new KYC requirement group"
        }
      },
      "setMinimumDepositAmount(uint256)": {
        "params": {
          "minDepositAmount": "The minimum amount required to submit a deposit                         request"
        }
      },
      "setMinimumRedemptionAmount(uint256)": {
        "params": {
          "_minimumRedemptionAmount": "The minimum amount required to submit a                                 redemption request"
        }
      },
      "setMintFee(uint256)": {
        "details": "The maximum fee that can be set is 10_000 bps, or 100%",
        "params": {
          "_mintFee": "The new mint fee specified in basis points"
        }
      },
      "setOffChainRedemptionMinimum(uint256)": {
        "params": {
          "_minimumOffChainRedemptionAmount": "The new minimum off chain                                         redemption amount"
        }
      },
      "setPriceIdForDeposits(bytes32[],uint256[])": {
        "details": "Array size must match",
        "params": {
          "depositIds": "an Array of deposit Ids to be associated",
          "priceIds": "an Array of price Ids to be associated"
        }
      },
      "setPriceIdForRedemptions(bytes32[],uint256[])": {
        "params": {
          "priceIds": "an Array of priceIds to associate",
          "redemptionIds": "an Array of redemptionIds to associate"
        }
      },
      "setPricer(address)": {
        "params": {
          "newPricer": "The address of the new pricer contract"
        }
      },
      "setRedemptionFee(uint256)": {
        "details": "The maximum fee that can be set is 10_000 bps, or 100%",
        "params": {
          "_redemptionFee": "The new redeem fee specified in basis points"
        }
      },
      "supportsInterface(bytes4)": {
        "details": "See {IERC165-supportsInterface}."
      }
    },
    "version": 1
  },
  "userdoc": {
    "errors": {
      "PriceIdNotSet()": [
        {
          "notice": "ERRORS ///"
        }
      ],
      "RegistryZeroAddress()": [
        {
          "notice": "Error for when caller attempts to set the KYC registry refernce         to the zero address."
        }
      ]
    },
    "events": {
      "AssetSenderSet(address,address)": {
        "notice": "Event emitted when the assetSender is changed"
      },
      "DepositProofAdded(bytes32,address,uint256,uint256,uint256)": {
        "notice": "Event emitted when deposit proof has been added"
      },
      "FeeRecipientSet(address,address)": {
        "notice": "Event emitted when fee recipient is set"
      },
      "InstantMintAssetManagerSet(address,address)": {
        "notice": "Event emitted when instant mint asset manager is set"
      },
      "InstantMintCompleted(address,uint256,uint256,uint256,uint256,uint256)": {
        "notice": "Event emitted when an instant mint is completed"
      },
      "InstantMintFeeSet(uint256,uint256)": {
        "notice": "Event emitted when instant mint fee is set"
      },
      "InstantMintLimitDurationSet(uint256)": {
        "notice": "Event emitted when mint limit duration is set"
      },
      "InstantMintLimitSet(uint256)": {
        "notice": "Event emitted when instant mint limit is set"
      },
      "InstantMintPaused(address)": {
        "notice": "Event emitted when instant mints are paused"
      },
      "InstantMintUnpaused(address)": {
        "notice": "Event emitted when instant mints are unpaused"
      },
      "InstantRedemptionCompleted(address,uint256,uint256,uint256,uint256,uint256)": {
        "notice": "Event emitted when an instant redeem is completed"
      },
      "InstantRedemptionFeeSet(uint256,uint256)": {
        "notice": "Event emitted when instant redeem fee is set"
      },
      "InstantRedemptionLimitDurationSet(uint256)": {
        "notice": "Event emitted when redemption limit duration is set"
      },
      "InstantRedemptionLimitSet(uint256)": {
        "notice": "Event emitted when instant redemption limit is set"
      },
      "InstantRedemptionPaused(address)": {
        "notice": "Event emitted when instant redeems are paused"
      },
      "InstantRedemptionUnpaused(address)": {
        "notice": "Event emitted when instant redeems are unpaused"
      },
      "MinimumDepositAmountSet(uint256,uint256)": {
        "notice": "Event emitted when minimum deposit amount is set"
      },
      "MinimumRedemptionAmountSet(uint256,uint256)": {
        "notice": "Event emitted when a new redeem minimum is set.         All units are in 1e18"
      },
      "MintCompleted(address,bytes32,uint256,uint256,uint256,uint256)": {
        "notice": "Event emitted when a Mint request is completed"
      },
      "MintFeeSet(uint256,uint256)": {
        "notice": "Event emitted when mint fee is set"
      },
      "MintRequested(address,bytes32,uint256,uint256,uint256)": {
        "notice": "Event emitted when a mint request is submitted"
      },
      "NewPricerSet(address,address)": {
        "notice": "Event emitted when a new Pricer contract is set"
      },
      "OffChainRedemptionMinimumSet(uint256,uint256)": {
        "notice": "Event emitted when the off chain redemption minimum is         updated"
      },
      "OffChainRedemptionPaused(address)": {
        "notice": "Event emitted when the off chain redemption feature is         paused"
      },
      "OffChainRedemptionUnpaused(address)": {
        "notice": "Event emitted when the off chain redemption feature is         unpaused"
      },
      "PriceIdSetForDeposit(bytes32,uint256)": {
        "notice": "Event emitted when a deposit has its corresponding priceId set"
      },
      "PriceIdSetForInstantMint(uint256)": {
        "notice": "Event emitted when instant mint priceId is set"
      },
      "PriceIdSetForInstantRedemption(uint256)": {
        "notice": "Event emitted when instant redeem priceId is set"
      },
      "PriceIdSetForRedemption(bytes32,uint256)": {
        "notice": "Event Emitted when a redemption has its corresponding priceId set"
      },
      "RedemptionCompleted(address,bytes32,uint256,uint256,uint256,uint256,uint256)": {
        "notice": "Event emitted when a redemption request is completed"
      },
      "RedemptionFeeSet(uint256,uint256)": {
        "notice": "Event emitted when redeem fee is set"
      },
      "RedemptionPaused(address)": {
        "notice": "Event emitted when redemptions are paused"
      },
      "RedemptionProofAdded(bytes32,address,uint256,uint256)": {
        "notice": "Event emitted when redemption proof has been added"
      },
      "RedemptionRequested(address,bytes32,uint256)": {
        "notice": "Event emitted when redemption request is submitted"
      },
      "RedemptionRequestedServicedOffChain(address,bytes32,uint256,bytes32)": {
        "notice": "Event emitted when redemption request is submitted"
      },
      "RedemptionUnpaused(address)": {
        "notice": "Event emitted when redemptions are unpaused"
      },
      "SubscriptionPaused(address)": {
        "notice": "Event emitted when subscriptions are paused"
      },
      "SubscriptionUnpaused(address)": {
        "notice": "Event emitted when subscriptions are unpaused"
      },
      "WrappedMintCompleted(address,bytes32,uint256,uint256,uint256,uint256)": {
        "notice": "Event emitted when a Mint request is completed"
      },
      "WrappedRedemptionRequested(address,bytes32,uint256,uint256)": {
        "notice": "Event emitted when a Redemption request is completed"
      }
    },
    "kind": "user",
    "methods": {
      "addProof(bytes32,address,uint256,uint256,uint256)": {
        "notice": "Adds a deposit proof to the contract"
      },
      "addRedemptionProof(bytes32,address,uint256,uint256)": {
        "notice": "Function to add a redemption proof to the contract"
      },
      "claimMint(bytes32[])": {
        "notice": "Function used to claim tokens corresponding to a deposit request"
      },
      "claimMint_wOMMF(bytes32[])": {
        "notice": "Function to claim a subscription request in wrapped rwa         token"
      },
      "claimRedemption(bytes32[])": {
        "notice": "Function to claim collateral corresponding to a redemption request"
      },
      "instantMint(uint256)": {
        "notice": "Instant mints `rwa` token to the caller in exchange for         `collateral`"
      },
      "instantRedemption(uint256)": {
        "notice": "Instant mints `rwa` token to the caller in exchange for         `collateral`"
      },
      "kycRegistry()": {
        "notice": "Returns reference to the KYC registry that this client queries"
      },
      "kycRequirementGroup()": {
        "notice": "Returns what KYC group this client checks accounts for"
      },
      "overwriteDepositor(bytes32,address,uint256,uint256)": {
        "notice": "Admin function to overwrite entries in the depoitIdToDepositor         mapping"
      },
      "overwriteRedeemer(bytes32,address,uint256,uint256)": {
        "notice": "Admin function to overwrite entries in the redemptionIdToRedeemer         mapping"
      },
      "pauseInstantMint()": {
        "notice": "Function to pause instant mints"
      },
      "pauseInstantRedemption()": {
        "notice": "Function to pause instant redemptions"
      },
      "pauseOffChainRedemption()": {
        "notice": "Function to pause off chain redemptoins"
      },
      "pauseRedemption()": {
        "notice": "Function to pause redemptions to RWAHub"
      },
      "pauseSubscription()": {
        "notice": "Function to pause subscription to RWAHub"
      },
      "requestRedemption(uint256)": {
        "notice": "Function used by users to request a redemption from the fund"
      },
      "requestRedemptionServicedOffchain(uint256,bytes32)": {
        "notice": "Request a redemption to be serviced off chain."
      },
      "requestRedemption_wOMMF(uint256)": {
        "notice": "Function to request a redemption in instances when the user would         like to burn the wrapped rwa token"
      },
      "requestSubscription(uint256)": {
        "notice": "Function used by users to request subscription to the fund"
      },
      "setAssetSender(address)": {
        "notice": "Admin function to set the address of `assetSender`"
      },
      "setFeeRecipient(address)": {
        "notice": "Admin function to set the address of `feeRecipient`"
      },
      "setInstantMintAssetManager(address)": {
        "notice": "Guarded function to set the `instantMintAssetManager`"
      },
      "setInstantMintFee(uint256)": {
        "notice": "Sets the instant mint fee"
      },
      "setInstantMintLimit(uint256)": {
        "notice": "Set the mintLimit constraint inside the TimeBasedRateLimiter         base contract"
      },
      "setInstantMintLimitDuration(uint256)": {
        "notice": "Sets mintLimitDuration constraint inside the TimeBasedRateLimiter         base contract"
      },
      "setInstantMintPriceId(uint256)": {
        "notice": "Function to set priceId for instant mints"
      },
      "setInstantRedemptionFee(uint256)": {
        "notice": "Sets instant redemption fee."
      },
      "setInstantRedemptionLimit(uint256)": {
        "notice": "Set the RedemptionLimit constraint inside the TimeBasedRateLimiter         base contract"
      },
      "setInstantRedemptionLimitDuration(uint256)": {
        "notice": "Sets RedemptionLimitDuration inside the TimeBasedRateLimiter         base contract"
      },
      "setInstantRedemptionPriceId(uint256)": {
        "notice": "Function to set priceId for instant redemptions"
      },
      "setKYCRegistry(address)": {
        "notice": "Update KYC registry address"
      },
      "setKYCRequirementGroup(uint256)": {
        "notice": "Update KYC group of the contract for which         accounts are checked against"
      },
      "setMinimumDepositAmount(uint256)": {
        "notice": "Admin function to set the minimum amount required for a deposit"
      },
      "setMinimumRedemptionAmount(uint256)": {
        "notice": "Admin function to set the minimum amount to redeem"
      },
      "setMintFee(uint256)": {
        "notice": "Admin function to set the mint fee"
      },
      "setOffChainRedemptionMinimum(uint256)": {
        "notice": "Admin Function to set the minimum off chain redemption amount"
      },
      "setPriceIdForDeposits(bytes32[],uint256[])": {
        "notice": "Admin function to associate a depositId with a given Price Id"
      },
      "setPriceIdForRedemptions(bytes32[],uint256[])": {
        "notice": "Admin function to associate redemptionId with a given priceId"
      },
      "setPricer(address)": {
        "notice": "Admin function to set the address of the Pricer contract"
      },
      "setRedemptionFee(uint256)": {
        "notice": "Admin function to set the redeem fee"
      },
      "unpauseInstantMint()": {
        "notice": "Function to unpause instant mints"
      },
      "unpauseInstantRedemption()": {
        "notice": "Function to unpause instant redemptions"
      },
      "unpauseOffChainRedemption()": {
        "notice": "Function to unpause off chain redemptoins"
      },
      "unpauseRedemption()": {
        "notice": "Function to unpause redemptions to RWAHub"
      },
      "unpauseSubscription()": {
        "notice": "Function to unpause subscriptions to RWAHub"
      },
      "wommf()": {
        "notice": "`rwa` variable is OMMF token contract"
      }
    },
    "version": 1
  },
  "storageLayout": {
    "storage": [
      {
        "astId": 11628,
        "contract": "contracts/ommf/ommfManager.sol:OMMFManager",
        "label": "_status",
        "offset": 0,
        "slot": "0",
        "type": "t_uint256"
      },
      {
        "astId": 10087,
        "contract": "contracts/ommf/ommfManager.sol:OMMFManager",
        "label": "_roles",
        "offset": 0,
        "slot": "1",
        "type": "t_mapping(t_bytes32,t_struct(RoleData)10082_storage)"
      },
      {
        "astId": 10390,
        "contract": "contracts/ommf/ommfManager.sol:OMMFManager",
        "label": "_roleMembers",
        "offset": 0,
        "slot": "2",
        "type": "t_mapping(t_bytes32,t_struct(AddressSet)13299_storage)"
      },
      {
        "astId": 735,
        "contract": "contracts/ommf/ommfManager.sol:OMMFManager",
        "label": "pricer",
        "offset": 0,
        "slot": "3",
        "type": "t_contract(IPricerReader)14799"
      },
      {
        "astId": 740,
        "contract": "contracts/ommf/ommfManager.sol:OMMFManager",
        "label": "assetSender",
        "offset": 0,
        "slot": "4",
        "type": "t_address"
      },
      {
        "astId": 742,
        "contract": "contracts/ommf/ommfManager.sol:OMMFManager",
        "label": "feeRecipient",
        "offset": 0,
        "slot": "5",
        "type": "t_address"
      },
      {
        "astId": 747,
        "contract": "contracts/ommf/ommfManager.sol:OMMFManager",
        "label": "depositIdToDepositor",
        "offset": 0,
        "slot": "6",
        "type": "t_mapping(t_bytes32,t_struct(Depositor)14818_storage)"
      },
      {
        "astId": 752,
        "contract": "contracts/ommf/ommfManager.sol:OMMFManager",
        "label": "redemptionIdToRedeemer",
        "offset": 0,
        "slot": "7",
        "type": "t_mapping(t_bytes32,t_struct(Redeemer)14825_storage)"
      },
      {
        "astId": 755,
        "contract": "contracts/ommf/ommfManager.sol:OMMFManager",
        "label": "minimumDepositAmount",
        "offset": 0,
        "slot": "8",
        "type": "t_uint256"
      },
      {
        "astId": 757,
        "contract": "contracts/ommf/ommfManager.sol:OMMFManager",
        "label": "minimumRedemptionAmount",
        "offset": 0,
        "slot": "9",
        "type": "t_uint256"
      },
      {
        "astId": 760,
        "contract": "contracts/ommf/ommfManager.sol:OMMFManager",
        "label": "mintFee",
        "offset": 0,
        "slot": "10",
        "type": "t_uint256"
      },
      {
        "astId": 763,
        "contract": "contracts/ommf/ommfManager.sol:OMMFManager",
        "label": "redemptionFee",
        "offset": 0,
        "slot": "11",
        "type": "t_uint256"
      },
      {
        "astId": 771,
        "contract": "contracts/ommf/ommfManager.sol:OMMFManager",
        "label": "subscriptionRequestCounter",
        "offset": 0,
        "slot": "12",
        "type": "t_uint256"
      },
      {
        "astId": 774,
        "contract": "contracts/ommf/ommfManager.sol:OMMFManager",
        "label": "redemptionRequestCounter",
        "offset": 0,
        "slot": "13",
        "type": "t_uint256"
      },
      {
        "astId": 779,
        "contract": "contracts/ommf/ommfManager.sol:OMMFManager",
        "label": "redemptionPaused",
        "offset": 0,
        "slot": "14",
        "type": "t_bool"
      },
      {
        "astId": 781,
        "contract": "contracts/ommf/ommfManager.sol:OMMFManager",
        "label": "subscriptionPaused",
        "offset": 1,
        "slot": "14",
        "type": "t_bool"
      },
      {
        "astId": 3185,
        "contract": "contracts/ommf/ommfManager.sol:OMMFManager",
        "label": "offChainRedemptionPaused",
        "offset": 2,
        "slot": "14",
        "type": "t_bool"
      },
      {
        "astId": 3187,
        "contract": "contracts/ommf/ommfManager.sol:OMMFManager",
        "label": "minimumOffChainRedemptionAmount",
        "offset": 0,
        "slot": "15",
        "type": "t_uint256"
      },
      {
        "astId": 4,
        "contract": "contracts/ommf/ommfManager.sol:OMMFManager",
        "label": "resetInstantMintDuration",
        "offset": 0,
        "slot": "16",
        "type": "t_uint256"
      },
      {
        "astId": 6,
        "contract": "contracts/ommf/ommfManager.sol:OMMFManager",
        "label": "lastResetInstantMintTime",
        "offset": 0,
        "slot": "17",
        "type": "t_uint256"
      },
      {
        "astId": 8,
        "contract": "contracts/ommf/ommfManager.sol:OMMFManager",
        "label": "instantMintLimit",
        "offset": 0,
        "slot": "18",
        "type": "t_uint256"
      },
      {
        "astId": 10,
        "contract": "contracts/ommf/ommfManager.sol:OMMFManager",
        "label": "currentInstantMintAmount",
        "offset": 0,
        "slot": "19",
        "type": "t_uint256"
      },
      {
        "astId": 12,
        "contract": "contracts/ommf/ommfManager.sol:OMMFManager",
        "label": "resetInstantRedemptionDuration",
        "offset": 0,
        "slot": "20",
        "type": "t_uint256"
      },
      {
        "astId": 14,
        "contract": "contracts/ommf/ommfManager.sol:OMMFManager",
        "label": "lastResetInstantRedemptionTime",
        "offset": 0,
        "slot": "21",
        "type": "t_uint256"
      },
      {
        "astId": 16,
        "contract": "contracts/ommf/ommfManager.sol:OMMFManager",
        "label": "instantRedemptionLimit",
        "offset": 0,
        "slot": "22",
        "type": "t_uint256"
      },
      {
        "astId": 18,
        "contract": "contracts/ommf/ommfManager.sol:OMMFManager",
        "label": "currentInstantRedemptionAmount",
        "offset": 0,
        "slot": "23",
        "type": "t_uint256"
      },
      {
        "astId": 2052,
        "contract": "contracts/ommf/ommfManager.sol:OMMFManager",
        "label": "instantMintFee",
        "offset": 0,
        "slot": "24",
        "type": "t_uint256"
      },
      {
        "astId": 2055,
        "contract": "contracts/ommf/ommfManager.sol:OMMFManager",
        "label": "instantRedemptionFee",
        "offset": 0,
        "slot": "25",
        "type": "t_uint256"
      },
      {
        "astId": 2057,
        "contract": "contracts/ommf/ommfManager.sol:OMMFManager",
        "label": "instantMintPriceId",
        "offset": 0,
        "slot": "26",
        "type": "t_uint256"
      },
      {
        "astId": 2059,
        "contract": "contracts/ommf/ommfManager.sol:OMMFManager",
        "label": "instantRedemptionPriceId",
        "offset": 0,
        "slot": "27",
        "type": "t_uint256"
      },
      {
        "astId": 2062,
        "contract": "contracts/ommf/ommfManager.sol:OMMFManager",
        "label": "instantMintPaused",
        "offset": 0,
        "slot": "28",
        "type": "t_bool"
      },
      {
        "astId": 2065,
        "contract": "contracts/ommf/ommfManager.sol:OMMFManager",
        "label": "instantRedemptionPaused",
        "offset": 1,
        "slot": "28",
        "type": "t_bool"
      },
      {
        "astId": 2067,
        "contract": "contracts/ommf/ommfManager.sol:OMMFManager",
        "label": "instantMintAssetManager",
        "offset": 2,
        "slot": "28",
        "type": "t_address"
      },
      {
        "astId": 15962,
        "contract": "contracts/ommf/ommfManager.sol:OMMFManager",
        "label": "kycRegistry",
        "offset": 0,
        "slot": "29",
        "type": "t_contract(IKYCRegistry)15543"
      },
      {
        "astId": 15965,
        "contract": "contracts/ommf/ommfManager.sol:OMMFManager",
        "label": "kycRequirementGroup",
        "offset": 0,
        "slot": "30",
        "type": "t_uint256"
      }
    ],
    "types": {
      "t_address": {
        "encoding": "inplace",
        "label": "address",
        "numberOfBytes": "20"
      },
      "t_array(t_bytes32)dyn_storage": {
        "base": "t_bytes32",
        "encoding": "dynamic_array",
        "label": "bytes32[]",
        "numberOfBytes": "32"
      },
      "t_bool": {
        "encoding": "inplace",
        "label": "bool",
        "numberOfBytes": "1"
      },
      "t_bytes32": {
        "encoding": "inplace",
        "label": "bytes32",
        "numberOfBytes": "32"
      },
      "t_contract(IKYCRegistry)15543": {
        "encoding": "inplace",
        "label": "contract IKYCRegistry",
        "numberOfBytes": "20"
      },
      "t_contract(IPricerReader)14799": {
        "encoding": "inplace",
        "label": "contract IPricerReader",
        "numberOfBytes": "20"
      },
      "t_mapping(t_address,t_bool)": {
        "encoding": "mapping",
        "key": "t_address",
        "label": "mapping(address => bool)",
        "numberOfBytes": "32",
        "value": "t_bool"
      },
      "t_mapping(t_bytes32,t_struct(AddressSet)13299_storage)": {
        "encoding": "mapping",
        "key": "t_bytes32",
        "label": "mapping(bytes32 => struct EnumerableSet.AddressSet)",
        "numberOfBytes": "32",
        "value": "t_struct(AddressSet)13299_storage"
      },
      "t_mapping(t_bytes32,t_struct(Depositor)14818_storage)": {
        "encoding": "mapping",
        "key": "t_bytes32",
        "label": "mapping(bytes32 => struct IRWAHub.Depositor)",
        "numberOfBytes": "32",
        "value": "t_struct(Depositor)14818_storage"
      },
      "t_mapping(t_bytes32,t_struct(Redeemer)14825_storage)": {
        "encoding": "mapping",
        "key": "t_bytes32",
        "label": "mapping(bytes32 => struct IRWAHub.Redeemer)",
        "numberOfBytes": "32",
        "value": "t_struct(Redeemer)14825_storage"
      },
      "t_mapping(t_bytes32,t_struct(RoleData)10082_storage)": {
        "encoding": "mapping",
        "key": "t_bytes32",
        "label": "mapping(bytes32 => struct AccessControl.RoleData)",
        "numberOfBytes": "32",
        "value": "t_struct(RoleData)10082_storage"
      },
      "t_mapping(t_bytes32,t_uint256)": {
        "encoding": "mapping",
        "key": "t_bytes32",
        "label": "mapping(bytes32 => uint256)",
        "numberOfBytes": "32",
        "value": "t_uint256"
      },
      "t_struct(AddressSet)13299_storage": {
        "encoding": "inplace",
        "label": "struct EnumerableSet.AddressSet",
        "members": [
          {
            "astId": 13298,
            "contract": "contracts/ommf/ommfManager.sol:OMMFManager",
            "label": "_inner",
            "offset": 0,
            "slot": "0",
            "type": "t_struct(Set)12998_storage"
          }
        ],
        "numberOfBytes": "64"
      },
      "t_struct(Depositor)14818_storage": {
        "encoding": "inplace",
        "label": "struct IRWAHub.Depositor",
        "members": [
          {
            "astId": 14813,
            "contract": "contracts/ommf/ommfManager.sol:OMMFManager",
            "label": "user",
            "offset": 0,
            "slot": "0",
            "type": "t_address"
          },
          {
            "astId": 14815,
            "contract": "contracts/ommf/ommfManager.sol:OMMFManager",
            "label": "amountDepositedMinusFees",
            "offset": 0,
            "slot": "1",
            "type": "t_uint256"
          },
          {
            "astId": 14817,
            "contract": "contracts/ommf/ommfManager.sol:OMMFManager",
            "label": "priceId",
            "offset": 0,
            "slot": "2",
            "type": "t_uint256"
          }
        ],
        "numberOfBytes": "96"
      },
      "t_struct(Redeemer)14825_storage": {
        "encoding": "inplace",
        "label": "struct IRWAHub.Redeemer",
        "members": [
          {
            "astId": 14820,
            "contract": "contracts/ommf/ommfManager.sol:OMMFManager",
            "label": "user",
            "offset": 0,
            "slot": "0",
            "type": "t_address"
          },
          {
            "astId": 14822,
            "contract": "contracts/ommf/ommfManager.sol:OMMFManager",
            "label": "amountRwaTokenBurned",
            "offset": 0,
            "slot": "1",
            "type": "t_uint256"
          },
          {
            "astId": 14824,
            "contract": "contracts/ommf/ommfManager.sol:OMMFManager",
            "label": "priceId",
            "offset": 0,
            "slot": "2",
            "type": "t_uint256"
          }
        ],
        "numberOfBytes": "96"
      },
      "t_struct(RoleData)10082_storage": {
        "encoding": "inplace",
        "label": "struct AccessControl.RoleData",
        "members": [
          {
            "astId": 10079,
            "contract": "contracts/ommf/ommfManager.sol:OMMFManager",
            "label": "members",
            "offset": 0,
            "slot": "0",
            "type": "t_mapping(t_address,t_bool)"
          },
          {
            "astId": 10081,
            "contract": "contracts/ommf/ommfManager.sol:OMMFManager",
            "label": "adminRole",
            "offset": 0,
            "slot": "1",
            "type": "t_bytes32"
          }
        ],
        "numberOfBytes": "64"
      },
      "t_struct(Set)12998_storage": {
        "encoding": "inplace",
        "label": "struct EnumerableSet.Set",
        "members": [
          {
            "astId": 12993,
            "contract": "contracts/ommf/ommfManager.sol:OMMFManager",
            "label": "_values",
            "offset": 0,
            "slot": "0",
            "type": "t_array(t_bytes32)dyn_storage"
          },
          {
            "astId": 12997,
            "contract": "contracts/ommf/ommfManager.sol:OMMFManager",
            "label": "_indexes",
            "offset": 0,
            "slot": "1",
            "type": "t_mapping(t_bytes32,t_uint256)"
          }
        ],
        "numberOfBytes": "64"
      },
      "t_uint256": {
        "encoding": "inplace",
        "label": "uint256",
        "numberOfBytes": "32"
      }
    }
  }
}