{
  "address": "0x5e95Db2dd76DDeeaB34a4d510Db5FC6e6C45d4fA",
  "abi": [
    {
      "inputs": [
        {
          "internalType": "address",
          "name": "admin",
          "type": "address"
        },
        {
          "internalType": "address",
          "name": "setter",
          "type": "address"
        },
        {
          "internalType": "address",
          "name": "_ommf",
          "type": "address"
        }
      ],
      "stateMutability": "nonpayable",
      "type": "constructor"
    },
    {
      "inputs": [],
      "name": "DeltaDifferenceConstraintViolation",
      "type": "error"
    },
    {
      "inputs": [],
      "name": "InvalidPrice",
      "type": "error"
    },
    {
      "inputs": [],
      "name": "OldUnderlyingMismatch",
      "type": "error"
    },
    {
      "inputs": [],
      "name": "PriceUpdateWindowViolation",
      "type": "error"
    },
    {
      "anonymous": false,
      "inputs": [
        {
          "indexed": false,
          "internalType": "int256",
          "name": "oldRwaUnderlying",
          "type": "int256"
        },
        {
          "indexed": false,
          "internalType": "int256",
          "name": "newRwaUnderlying",
          "type": "int256"
        },
        {
          "indexed": false,
          "internalType": "uint256",
          "name": "timestamp",
          "type": "uint256"
        }
      ],
      "name": "RWAUnderlyingSet",
      "type": "event"
    },
    {
      "anonymous": false,
      "inputs": [
        {
          "indexed": true,
          "internalType": "bytes32",
          "name": "role",
          "type": "bytes32"
        },
        {
          "indexed": true,
          "internalType": "bytes32",
          "name": "previousAdminRole",
          "type": "bytes32"
        },
        {
          "indexed": true,
          "internalType": "bytes32",
          "name": "newAdminRole",
          "type": "bytes32"
        }
      ],
      "name": "RoleAdminChanged",
      "type": "event"
    },
    {
      "anonymous": false,
      "inputs": [
        {
          "indexed": true,
          "internalType": "bytes32",
          "name": "role",
          "type": "bytes32"
        },
        {
          "indexed": true,
          "internalType": "address",
          "name": "account",
          "type": "address"
        },
        {
          "indexed": true,
          "internalType": "address",
          "name": "sender",
          "type": "address"
        }
      ],
      "name": "RoleGranted",
      "type": "event"
    },
    {
      "anonymous": false,
      "inputs": [
        {
          "indexed": true,
          "internalType": "bytes32",
          "name": "role",
          "type": "bytes32"
        },
        {
          "indexed": true,
          "internalType": "address",
          "name": "account",
          "type": "address"
        },
        {
          "indexed": true,
          "internalType": "address",
          "name": "sender",
          "type": "address"
        }
      ],
      "name": "RoleRevoked",
      "type": "event"
    },
    {
      "inputs": [],
      "name": "BPS_DENOMINATOR",
      "outputs": [
        {
          "internalType": "uint256",
          "name": "",
          "type": "uint256"
        }
      ],
      "stateMutability": "view",
      "type": "function"
    },
    {
      "inputs": [],
      "name": "DEFAULT_ADMIN_ROLE",
      "outputs": [
        {
          "internalType": "bytes32",
          "name": "",
          "type": "bytes32"
        }
      ],
      "stateMutability": "view",
      "type": "function"
    },
    {
      "inputs": [],
      "name": "MAX_CHANGE_DIFF_BPS",
      "outputs": [
        {
          "internalType": "uint256",
          "name": "",
          "type": "uint256"
        }
      ],
      "stateMutability": "view",
      "type": "function"
    },
    {
      "inputs": [],
      "name": "MIN_PRICE_UPDATE_WINDOW",
      "outputs": [
        {
          "internalType": "uint256",
          "name": "",
          "type": "uint256"
        }
      ],
      "stateMutability": "view",
      "type": "function"
    },
    {
      "inputs": [],
      "name": "OPS_MAX_CHANGE_DIFF_BPS",
      "outputs": [
        {
          "internalType": "uint256",
          "name": "",
          "type": "uint256"
        }
      ],
      "stateMutability": "view",
      "type": "function"
    },
    {
      "inputs": [],
      "name": "OPS_SETTER_ROLE",
      "outputs": [
        {
          "internalType": "bytes32",
          "name": "",
          "type": "bytes32"
        }
      ],
      "stateMutability": "view",
      "type": "function"
    },
    {
      "inputs": [],
      "name": "SETTER_ROLE",
      "outputs": [
        {
          "internalType": "bytes32",
          "name": "",
          "type": "bytes32"
        }
      ],
      "stateMutability": "view",
      "type": "function"
    },
    {
      "inputs": [
        {
          "internalType": "bytes32",
          "name": "role",
          "type": "bytes32"
        }
      ],
      "name": "getRoleAdmin",
      "outputs": [
        {
          "internalType": "bytes32",
          "name": "",
          "type": "bytes32"
        }
      ],
      "stateMutability": "view",
      "type": "function"
    },
    {
      "inputs": [
        {
          "internalType": "bytes32",
          "name": "role",
          "type": "bytes32"
        },
        {
          "internalType": "uint256",
          "name": "index",
          "type": "uint256"
        }
      ],
      "name": "getRoleMember",
      "outputs": [
        {
          "internalType": "address",
          "name": "",
          "type": "address"
        }
      ],
      "stateMutability": "view",
      "type": "function"
    },
    {
      "inputs": [
        {
          "internalType": "bytes32",
          "name": "role",
          "type": "bytes32"
        }
      ],
      "name": "getRoleMemberCount",
      "outputs": [
        {
          "internalType": "uint256",
          "name": "",
          "type": "uint256"
        }
      ],
      "stateMutability": "view",
      "type": "function"
    },
    {
      "inputs": [
        {
          "internalType": "bytes32",
          "name": "role",
          "type": "bytes32"
        },
        {
          "internalType": "address",
          "name": "account",
          "type": "address"
        }
      ],
      "name": "grantRole",
      "outputs": [],
      "stateMutability": "nonpayable",
      "type": "function"
    },
    {
      "inputs": [
        {
          "internalType": "bytes32",
          "name": "role",
          "type": "bytes32"
        },
        {
          "internalType": "address",
          "name": "account",
          "type": "address"
        }
      ],
      "name": "hasRole",
      "outputs": [
        {
          "internalType": "bool",
          "name": "",
          "type": "bool"
        }
      ],
      "stateMutability": "view",
      "type": "function"
    },
    {
      "inputs": [],
      "name": "ommf",
      "outputs": [
        {
          "internalType": "contract OMMF",
          "name": "",
          "type": "address"
        }
      ],
      "stateMutability": "view",
      "type": "function"
    },
    {
      "inputs": [],
      "name": "priceTimestamp",
      "outputs": [
        {
          "internalType": "uint256",
          "name": "",
          "type": "uint256"
        }
      ],
      "stateMutability": "view",
      "type": "function"
    },
    {
      "inputs": [
        {
          "internalType": "bytes32",
          "name": "role",
          "type": "bytes32"
        },
        {
          "internalType": "address",
          "name": "account",
          "type": "address"
        }
      ],
      "name": "renounceRole",
      "outputs": [],
      "stateMutability": "nonpayable",
      "type": "function"
    },
    {
      "inputs": [
        {
          "internalType": "bytes32",
          "name": "role",
          "type": "bytes32"
        },
        {
          "internalType": "address",
          "name": "account",
          "type": "address"
        }
      ],
      "name": "revokeRole",
      "outputs": [],
      "stateMutability": "nonpayable",
      "type": "function"
    },
    {
      "inputs": [
        {
          "internalType": "int256",
          "name": "oldUnderlying",
          "type": "int256"
        },
        {
          "internalType": "int256",
          "name": "newUnderlying",
          "type": "int256"
        }
      ],
      "name": "setRWAUnderlying",
      "outputs": [],
      "stateMutability": "nonpayable",
      "type": "function"
    },
    {
      "inputs": [
        {
          "internalType": "int256",
          "name": "oldUnderlying",
          "type": "int256"
        },
        {
          "internalType": "int256",
          "name": "newUnderlying",
          "type": "int256"
        }
      ],
      "name": "setRWAUnderlyingOps",
      "outputs": [],
      "stateMutability": "nonpayable",
      "type": "function"
    },
    {
      "inputs": [
        {
          "internalType": "bytes4",
          "name": "interfaceId",
          "type": "bytes4"
        }
      ],
      "name": "supportsInterface",
      "outputs": [
        {
          "internalType": "bool",
          "name": "",
          "type": "bool"
        }
      ],
      "stateMutability": "view",
      "type": "function"
    }
  ],
  "transactionHash": "0xb4ff85ea20f6d37b4287f1e7ceeb7b25a7a7a0b94f11e7848a9eed7fec7e04f8",
  "args": [
    "0xAEd4caF2E535D964165B4392342F71bac77e8367",
    "0xAEd4caF2E535D964165B4392342F71bac77e8367",
    "0xE00e79c24B9Bd388fbf1c4599694C2cf18166102"
  ],
  "solcInputHash": "dabe3532388182408a54a78a0fc69205",
  "bytecode": "0x60a06040523480156200001157600080fd5b50604051620011f0380380620011f08339810160408190526200003491620002d0565b620000416000846200015d565b6200006d7f61c92169ef077349011ff0b1383c894d86c5f0b41d986366b58a6cf31e93beda836200015d565b620000997f51965ca564f4e90705daccef77ed08fd754391c03da659d600866d088ca3562a836200015d565b6001600160a01b0381166080819052426002556040805163456c267560e11b815290517f47c739bd9b1654223acbf73679a6c2c5b13684ace0e36e15846128c2c2f7bbfb926000929091638ad84cea916004808201926020929091908290030181865afa1580156200010f573d6000803e3d6000fd5b505050506040513d601f19601f820116820180604052508101906200013591906200031a565b604080519283526020830191909152429082015260600160405180910390a150505062000334565b620001748282620001a060201b620004b21760201c565b60008281526001602090815260409091206200019b9183906200053662000241821b17901c565b505050565b6000828152602081815260408083206001600160a01b038516845290915290205460ff166200023d576000828152602081815260408083206001600160a01b03851684529091529020805460ff19166001179055620001fc3390565b6001600160a01b0316816001600160a01b0316837f2f8788117e7eff1d82e926ec794901d17c78024a50270940304540a733656f0d60405160405180910390a45b5050565b600062000258836001600160a01b03841662000261565b90505b92915050565b6000818152600183016020526040812054620002aa575081546001818101845560008481526020808220909301849055845484825282860190935260409020919091556200025b565b5060006200025b565b80516001600160a01b0381168114620002cb57600080fd5b919050565b600080600060608486031215620002e657600080fd5b620002f184620002b3565b92506200030160208501620002b3565b91506200031160408501620002b3565b90509250925092565b6000602082840312156200032d57600080fd5b5051919050565b608051610e926200035e6000396000818161026f0152818161069501526107790152610e926000f3fe608060405234801561001057600080fd5b50600436106101115760003560e01c80639010d07c116100ad578063c183e15111610071578063c183e1511461026a578063ca15c87314610291578063d547741f146102a4578063e1a45218146102b7578063fff64151146102c057600080fd5b80639010d07c146101f457806391d148541461021f578063a2011b3f14610232578063a217fddf14610259578063b59754bc1461026157600080fd5b806301ffc9a714610116578063248a9ca31461013e5780632f2ff15d1461016f5780632f3b57f91461018457806336568abe146101975780634cfccfbf146101aa5780634db260f3146101d157806359643fc0146101d957806377a5f9ae146101e1575b600080fd5b610129610124366004610c08565b6102c9565b60405190151581526020015b60405180910390f35b61016161014c366004610c32565b60009081526020819052604090206001015490565b604051908152602001610135565b61018261017d366004610c4b565b6102f4565b005b610182610192366004610c87565b61031f565b6101826101a5366004610c4b565b61037f565b6101617f51965ca564f4e90705daccef77ed08fd754391c03da659d600866d088ca3562a81565b610161600981565b610161603281565b6101826101ef366004610c87565b610402565b610207610202366004610c87565b61042d565b6040516001600160a01b039091168152602001610135565b61012961022d366004610c4b565b61044c565b6101617f61c92169ef077349011ff0b1383c894d86c5f0b41d986366b58a6cf31e93beda81565b610161600081565b61016160025481565b6102077f000000000000000000000000000000000000000000000000000000000000000081565b61016161029f366004610c32565b610475565b6101826102b2366004610c4b565b61048c565b61016161271081565b61016161546081565b60006001600160e01b03198216635a05180f60e01b14806102ee57506102ee8261054b565b92915050565b6000828152602081905260409020600101546103108133610580565b61031a83836105e4565b505050565b7f51965ca564f4e90705daccef77ed08fd754391c03da659d600866d088ca3562a61034a8133610580565b60096103568484610606565b11156103755760405163fa95c4d360e01b815260040160405180910390fd5b61031a8383610643565b6001600160a01b03811633146103f45760405162461bcd60e51b815260206004820152602f60248201527f416363657373436f6e74726f6c3a2063616e206f6e6c792072656e6f756e636560448201526e103937b632b9903337b91039b2b63360891b60648201526084015b60405180910390fd5b6103fe8282610821565b5050565b7f61c92169ef077349011ff0b1383c894d86c5f0b41d986366b58a6cf31e93beda6103758133610580565b60008281526001602052604081206104459083610843565b9392505050565b6000918252602082815260408084206001600160a01b0393909316845291905290205460ff1690565b60008181526001602052604081206102ee9061084f565b6000828152602081905260409020600101546104a88133610580565b61031a8383610821565b6104bc828261044c565b6103fe576000828152602081815260408083206001600160a01b03851684529091529020805460ff191660011790556104f23390565b6001600160a01b0316816001600160a01b0316837f2f8788117e7eff1d82e926ec794901d17c78024a50270940304540a733656f0d60405160405180910390a45050565b6000610445836001600160a01b038416610859565b60006001600160e01b03198216637965db0b60e01b14806102ee57506301ffc9a760e01b6001600160e01b03198316146102ee565b61058a828261044c565b6103fe576105a2816001600160a01b031660146108a8565b6105ad8360206108a8565b6040516020016105be929190610ccd565b60408051601f198184030181529082905262461bcd60e51b82526103eb91600401610d3c565b6105ee82826104b2565b600082815260016020526040902061031a9082610536565b60008083831361061f5761061a8385610d85565b610629565b6106298484610d85565b9050600061063a8261271087610a44565b95945050505050565b600081136106635760405162bfc92160e01b815260040160405180910390fd5b615460600254426106749190610da5565b10156106935760405163143a0ddf60e11b815260040160405180910390fd5b7f00000000000000000000000000000000000000000000000000000000000000006001600160a01b0316638ad84cea6040518163ffffffff1660e01b8152600401602060405180830381865afa1580156106f1573d6000803e3d6000fd5b505050506040513d601f19601f820116820180604052508101906107159190610db8565b8214610734576040516389dfeb6f60e01b815260040160405180910390fd5b60326107408383610606565b111561075f5760405163fa95c4d360e01b815260040160405180910390fd5b4260025560405163c2dd9a4360e01b8152600481018290527f00000000000000000000000000000000000000000000000000000000000000006001600160a01b03169063c2dd9a4390602401600060405180830381600087803b1580156107c557600080fd5b505af11580156107d9573d6000803e3d6000fd5b50506040805185815260208101859052428183015290517f47c739bd9b1654223acbf73679a6c2c5b13684ace0e36e15846128c2c2f7bbfb9350908190036060019150a15050565b61082b8282610a6a565b600082815260016020526040902061031a9082610acf565b60006104458383610ae4565b60006102ee825490565b60008181526001830160205260408120546108a0575081546001818101845560008481526020808220909301849055845484825282860190935260409020919091556102ee565b5060006102ee565b606060006108b7836002610dd1565b6108c2906002610df0565b67ffffffffffffffff8111156108da576108da610e03565b6040519080825280601f01601f191660200182016040528015610904576020820181803683370190505b509050600360fc1b8160008151811061091f5761091f610e19565b60200101906001600160f81b031916908160001a905350600f60fb1b8160018151811061094e5761094e610e19565b60200101906001600160f81b031916908160001a9053506000610972846002610dd1565b61097d906001610df0565b90505b60018111156109f5576f181899199a1a9b1b9c1cb0b131b232b360811b85600f16601081106109b1576109b1610e19565b1a60f81b8282815181106109c7576109c7610e19565b60200101906001600160f81b031916908160001a90535060049490941c936109ee81610e2f565b9050610980565b5083156104455760405162461bcd60e51b815260206004820181905260248201527f537472696e67733a20686578206c656e67746820696e73756666696369656e7460448201526064016103eb565b6000826000190484118302158202610a5b57600080fd5b50910281810615159190040190565b610a74828261044c565b156103fe576000828152602081815260408083206001600160a01b0385168085529252808320805460ff1916905551339285917ff6391f5c32d9c69d2a47ea670b442974b53935d1edc7fd64eb21e047a839171b9190a45050565b6000610445836001600160a01b038416610b0e565b6000826000018281548110610afb57610afb610e19565b9060005260206000200154905092915050565b60008181526001830160205260408120548015610bf7576000610b32600183610da5565b8554909150600090610b4690600190610da5565b9050818114610bab576000866000018281548110610b6657610b66610e19565b9060005260206000200154905080876000018481548110610b8957610b89610e19565b6000918252602080832090910192909255918252600188019052604090208390555b8554869080610bbc57610bbc610e46565b6001900381819060005260206000200160009055905585600101600086815260200190815260200160002060009055600193505050506102ee565b60009150506102ee565b5092915050565b600060208284031215610c1a57600080fd5b81356001600160e01b03198116811461044557600080fd5b600060208284031215610c4457600080fd5b5035919050565b60008060408385031215610c5e57600080fd5b8235915060208301356001600160a01b0381168114610c7c57600080fd5b809150509250929050565b60008060408385031215610c9a57600080fd5b50508035926020909101359150565b60005b83811015610cc4578181015183820152602001610cac565b50506000910152565b76020b1b1b2b9b9a1b7b73a3937b61d1030b1b1b7bab73a1604d1b815260008351610cff816017850160208801610ca9565b7001034b99036b4b9b9b4b733903937b6329607d1b6017918401918201528351610d30816028840160208801610ca9565b01602801949350505050565b6020815260008251806020840152610d5b816040850160208701610ca9565b601f01601f19169190910160400192915050565b634e487b7160e01b600052601160045260246000fd5b8181036000831280158383131683831282161715610c0157610c01610d6f565b818103818111156102ee576102ee610d6f565b600060208284031215610dca57600080fd5b5051919050565b6000816000190483118215151615610deb57610deb610d6f565b500290565b808201808211156102ee576102ee610d6f565b634e487b7160e01b600052604160045260246000fd5b634e487b7160e01b600052603260045260246000fd5b600081610e3e57610e3e610d6f565b506000190190565b634e487b7160e01b600052603160045260246000fdfea264697066735822122087c3aef98b475a7aa61c5263dc2b35be42efc7eb9c521158a6099e9f182b763f64736f6c63430008100033",
  "devdoc": {
    "events": {
      "RWAUnderlyingSet(int256,int256,uint256)": {
        "params": {
          "newRwaUnderlying": "The new RWA underlying",
          "oldRwaUnderlying": "The old RWA underlying",
          "timestamp": "The timestamp at which the underlying was set"
        }
      }
    },
    "kind": "dev",
    "methods": {
      "constructor": {
        "params": {
          "_ommf": "The address of the OMMF token",
          "admin": "The address of the admin",
          "setter": "The address of the setter"
        }
      },
      "getRoleAdmin(bytes32)": {
        "details": "Returns the admin role that controls `role`. See {grantRole} and {revokeRole}. To change a role's admin, use {_setRoleAdmin}."
      },
      "getRoleMember(bytes32,uint256)": {
        "details": "Returns one of the accounts that have `role`. `index` must be a value between 0 and {getRoleMemberCount}, non-inclusive. Role bearers are not sorted in any particular way, and their ordering may change at any point. WARNING: When using {getRoleMember} and {getRoleMemberCount}, make sure you perform all queries on the same block. See the following https://forum.openzeppelin.com/t/iterating-over-elements-on-enumerableset-in-openzeppelin-contracts/2296[forum post] for more information."
      },
      "getRoleMemberCount(bytes32)": {
        "details": "Returns the number of accounts that have `role`. Can be used together with {getRoleMember} to enumerate all bearers of a role."
      },
      "grantRole(bytes32,address)": {
        "details": "Grants `role` to `account`. If `account` had not been already granted `role`, emits a {RoleGranted} event. Requirements: - the caller must have ``role``'s admin role."
      },
      "hasRole(bytes32,address)": {
        "details": "Returns `true` if `account` has been granted `role`."
      },
      "renounceRole(bytes32,address)": {
        "details": "Revokes `role` from the calling account. Roles are often managed via {grantRole} and {revokeRole}: this function's purpose is to provide a mechanism for accounts to lose their privileges if they are compromised (such as when a trusted device is misplaced). If the calling account had been revoked `role`, emits a {RoleRevoked} event. Requirements: - the caller must be `account`."
      },
      "revokeRole(bytes32,address)": {
        "details": "Revokes `role` from `account`. If `account` had been granted `role`, emits a {RoleRevoked} event. Requirements: - the caller must have ``role``'s admin role."
      },
      "setRWAUnderlying(int256,int256)": {
        "details": "`MAX_CHANGE_DIFF_BPS` can be a positive or negative percent deviationThis function will fail when ommf underlying is initially 0This function will fail if `oldUnderlying` doesn't match      `ommf.getTotalPooledCash()`",
        "params": {
          "newUnderlying": "The new RWA underlying value",
          "oldUnderlying": "The old RWA underlying value"
        }
      },
      "setRWAUnderlyingOps(int256,int256)": {
        "details": "`OPS_MAX_CHANGE_DIFF_BPS` can be a positive or negative percent deviationThis function will fail when ommf underlying is initially 0This function will fail if `oldUnderlying` doesn't match      `ommf.getTotalPooledCash()`",
        "params": {
          "newUnderlying": "The new RWA underlying value",
          "oldUnderlying": "The old RWA underlying value"
        }
      },
      "supportsInterface(bytes4)": {
        "details": "See {IERC165-supportsInterface}."
      }
    },
    "version": 1
  },
  "userdoc": {
    "events": {
      "RWAUnderlyingSet(int256,int256,uint256)": {
        "notice": "Emitted when the RWA Underlying is set"
      }
    },
    "kind": "user",
    "methods": {
      "constructor": {
        "notice": "Constructor"
      },
      "setRWAUnderlying(int256,int256)": {
        "notice": "Set the RWA underlying value"
      },
      "setRWAUnderlyingOps(int256,int256)": {
        "notice": "Set the RWA underlying value"
      }
    },
    "notice": "This contract is based on `RWAOracleRateCheck`, with minor updates         to call into the OMMF token",
    "version": 1
  },
  "storageLayout": {
    "storage": [
      {
        "astId": 2154,
        "contract": "contracts/ommf/ommf_token/OMMFRebaseSetter.sol:OMMFRebaseSetter",
        "label": "_roles",
        "offset": 0,
        "slot": "0",
        "type": "t_mapping(t_bytes32,t_struct(RoleData)2149_storage)"
      },
      {
        "astId": 2457,
        "contract": "contracts/ommf/ommf_token/OMMFRebaseSetter.sol:OMMFRebaseSetter",
        "label": "_roleMembers",
        "offset": 0,
        "slot": "1",
        "type": "t_mapping(t_bytes32,t_struct(AddressSet)3019_storage)"
      },
      {
        "astId": 3731,
        "contract": "contracts/ommf/ommf_token/OMMFRebaseSetter.sol:OMMFRebaseSetter",
        "label": "priceTimestamp",
        "offset": 0,
        "slot": "2",
        "type": "t_uint256"
      }
    ],
    "types": {
      "t_address": {
        "encoding": "inplace",
        "label": "address",
        "numberOfBytes": "20"
      },
      "t_array(t_bytes32)dyn_storage": {
        "base": "t_bytes32",
        "encoding": "dynamic_array",
        "label": "bytes32[]",
        "numberOfBytes": "32"
      },
      "t_bool": {
        "encoding": "inplace",
        "label": "bool",
        "numberOfBytes": "1"
      },
      "t_bytes32": {
        "encoding": "inplace",
        "label": "bytes32",
        "numberOfBytes": "32"
      },
      "t_mapping(t_address,t_bool)": {
        "encoding": "mapping",
        "key": "t_address",
        "label": "mapping(address => bool)",
        "numberOfBytes": "32",
        "value": "t_bool"
      },
      "t_mapping(t_bytes32,t_struct(AddressSet)3019_storage)": {
        "encoding": "mapping",
        "key": "t_bytes32",
        "label": "mapping(bytes32 => struct EnumerableSet.AddressSet)",
        "numberOfBytes": "32",
        "value": "t_struct(AddressSet)3019_storage"
      },
      "t_mapping(t_bytes32,t_struct(RoleData)2149_storage)": {
        "encoding": "mapping",
        "key": "t_bytes32",
        "label": "mapping(bytes32 => struct AccessControl.RoleData)",
        "numberOfBytes": "32",
        "value": "t_struct(RoleData)2149_storage"
      },
      "t_mapping(t_bytes32,t_uint256)": {
        "encoding": "mapping",
        "key": "t_bytes32",
        "label": "mapping(bytes32 => uint256)",
        "numberOfBytes": "32",
        "value": "t_uint256"
      },
      "t_struct(AddressSet)3019_storage": {
        "encoding": "inplace",
        "label": "struct EnumerableSet.AddressSet",
        "members": [
          {
            "astId": 3018,
            "contract": "contracts/ommf/ommf_token/OMMFRebaseSetter.sol:OMMFRebaseSetter",
            "label": "_inner",
            "offset": 0,
            "slot": "0",
            "type": "t_struct(Set)2718_storage"
          }
        ],
        "numberOfBytes": "64"
      },
      "t_struct(RoleData)2149_storage": {
        "encoding": "inplace",
        "label": "struct AccessControl.RoleData",
        "members": [
          {
            "astId": 2146,
            "contract": "contracts/ommf/ommf_token/OMMFRebaseSetter.sol:OMMFRebaseSetter",
            "label": "members",
            "offset": 0,
            "slot": "0",
            "type": "t_mapping(t_address,t_bool)"
          },
          {
            "astId": 2148,
            "contract": "contracts/ommf/ommf_token/OMMFRebaseSetter.sol:OMMFRebaseSetter",
            "label": "adminRole",
            "offset": 0,
            "slot": "1",
            "type": "t_bytes32"
          }
        ],
        "numberOfBytes": "64"
      },
      "t_struct(Set)2718_storage": {
        "encoding": "inplace",
        "label": "struct EnumerableSet.Set",
        "members": [
          {
            "astId": 2713,
            "contract": "contracts/ommf/ommf_token/OMMFRebaseSetter.sol:OMMFRebaseSetter",
            "label": "_values",
            "offset": 0,
            "slot": "0",
            "type": "t_array(t_bytes32)dyn_storage"
          },
          {
            "astId": 2717,
            "contract": "contracts/ommf/ommf_token/OMMFRebaseSetter.sol:OMMFRebaseSetter",
            "label": "_indexes",
            "offset": 0,
            "slot": "1",
            "type": "t_mapping(t_bytes32,t_uint256)"
          }
        ],
        "numberOfBytes": "64"
      },
      "t_uint256": {
        "encoding": "inplace",
        "label": "uint256",
        "numberOfBytes": "32"
      }
    }
  }
}