{
  "address": "0x07c81aB894dC6B577222784360742c436D557a87",
  "abi": [
    {
      "inputs": [
        {
          "internalType": "address",
          "name": "_guardian",
          "type": "address"
        }
      ],
      "stateMutability": "nonpayable",
      "type": "constructor"
    },
    {
      "anonymous": false,
      "inputs": [
        {
          "indexed": false,
          "internalType": "address",
          "name": "proxy",
          "type": "address"
        },
        {
          "indexed": false,
          "internalType": "address",
          "name": "proxyAdmin",
          "type": "address"
        },
        {
          "indexed": false,
          "internalType": "address",
          "name": "implementation",
          "type": "address"
        },
        {
          "indexed": false,
          "internalType": "string",
          "name": "name",
          "type": "string"
        },
        {
          "indexed": false,
          "internalType": "string",
          "name": "ticker",
          "type": "string"
        },
        {
          "components": [
            {
              "internalType": "address",
              "name": "blocklist",
              "type": "address"
            },
            {
              "internalType": "address",
              "name": "allowlist",
              "type": "address"
            },
            {
              "internalType": "address",
              "name": "sanctionsList",
              "type": "address"
            }
          ],
          "indexed": false,
          "internalType": "struct USDYFactory.USDYListData",
          "name": "listData",
          "type": "tuple"
        }
      ],
      "name": "USDYDeployed",
      "type": "event"
    },
    {
      "inputs": [],
      "name": "DEFAULT_ADMIN_ROLE",
      "outputs": [
        {
          "internalType": "bytes32",
          "name": "",
          "type": "bytes32"
        }
      ],
      "stateMutability": "view",
      "type": "function"
    },
    {
      "inputs": [],
      "name": "MINTER_ROLE",
      "outputs": [
        {
          "internalType": "bytes32",
          "name": "",
          "type": "bytes32"
        }
      ],
      "stateMutability": "view",
      "type": "function"
    },
    {
      "inputs": [],
      "name": "PAUSER_ROLE",
      "outputs": [
        {
          "internalType": "bytes32",
          "name": "",
          "type": "bytes32"
        }
      ],
      "stateMutability": "view",
      "type": "function"
    },
    {
      "inputs": [
        {
          "internalType": "string",
          "name": "name",
          "type": "string"
        },
        {
          "internalType": "string",
          "name": "ticker",
          "type": "string"
        },
        {
          "components": [
            {
              "internalType": "address",
              "name": "blocklist",
              "type": "address"
            },
            {
              "internalType": "address",
              "name": "allowlist",
              "type": "address"
            },
            {
              "internalType": "address",
              "name": "sanctionsList",
              "type": "address"
            }
          ],
          "internalType": "struct USDYFactory.USDYListData",
          "name": "listData",
          "type": "tuple"
        }
      ],
      "name": "deployUSDY",
      "outputs": [
        {
          "internalType": "address",
          "name": "",
          "type": "address"
        },
        {
          "internalType": "address",
          "name": "",
          "type": "address"
        },
        {
          "internalType": "address",
          "name": "",
          "type": "address"
        }
      ],
      "stateMutability": "nonpayable",
      "type": "function"
    },
    {
      "inputs": [
        {
          "components": [
            {
              "internalType": "address",
              "name": "target",
              "type": "address"
            },
            {
              "internalType": "bytes",
              "name": "data",
              "type": "bytes"
            },
            {
              "internalType": "uint256",
              "name": "value",
              "type": "uint256"
            }
          ],
          "internalType": "struct IMulticall.ExCallData[]",
          "name": "exCallData",
          "type": "tuple[]"
        }
      ],
      "name": "multiexcall",
      "outputs": [
        {
          "internalType": "bytes[]",
          "name": "results",
          "type": "bytes[]"
        }
      ],
      "stateMutability": "payable",
      "type": "function"
    },
    {
      "inputs": [],
      "name": "usdyImplementation",
      "outputs": [
        {
          "internalType": "contract USDY",
          "name": "",
          "type": "address"
        }
      ],
      "stateMutability": "view",
      "type": "function"
    },
    {
      "inputs": [],
      "name": "usdyProxy",
      "outputs": [
        {
          "internalType": "contract TokenProxy",
          "name": "",
          "type": "address"
        }
      ],
      "stateMutability": "view",
      "type": "function"
    },
    {
      "inputs": [],
      "name": "usdyProxyAdmin",
      "outputs": [
        {
          "internalType": "contract ProxyAdmin",
          "name": "",
          "type": "address"
        }
      ],
      "stateMutability": "view",
      "type": "function"
    }
  ],
  "transactionHash": "0x2b7dc4b71984a15e69e307c4e590c254f4d8ab7186f11609d69e8a6e8f4b1a83",
  "args": [
    "0x1a694A09494E214a3Be3652e4B343B7B81A73ad7"
  ],
  "solcInputHash": "2bf7682020e60daa8b926519f6d5921d",
  "bytecode": "0x60a060405234801561001057600080fd5b50604051614fea380380614fea83398101604081905261002f91610040565b6001600160a01b0316608052610070565b60006020828403121561005257600080fd5b81516001600160a01b038116811461006957600080fd5b9392505050565b608051614f3c6100ae6000396000818161020201528181610416015281816104a90152818161067a015281816106e501526108290152614f3c6000f3fe608060405260043610620000745760003560e01c80630792c02f14620000795780631ee9af4314620000b857806329d0e9c914620000da5780634820e90814620000fc578063936bffd9146200014c578063a217fddf1462000172578063d53913931462000198578063e63ab1e914620001ce575b600080fd5b3480156200008657600080fd5b506002546200009b906001600160a01b031681565b6040516001600160a01b0390911681526020015b60405180910390f35b348015620000c557600080fd5b506001546200009b906001600160a01b031681565b348015620000e757600080fd5b506000546200009b906001600160a01b031681565b3480156200010957600080fd5b50620001216200011b36600462000abe565b620001f3565b604080516001600160a01b0394851681529284166020840152921691810191909152606001620000af565b620001636200015d36600462000b52565b6200081c565b604051620000af919062000bcc565b3480156200017f57600080fd5b5062000189600081565b604051908152602001620000af565b348015620001a557600080fd5b50620001897f9f2df0fed2c77648de5860a4cc508cd0818c85b8b8a1ab4ceeef8d981c8956a681565b348015620001db57600080fd5b506200018960008051602062004ee783398151915281565b60008080336001600160a01b037f000000000000000000000000000000000000000000000000000000000000000016146200024b5760405162461bcd60e51b8152600401620002429062000c62565b60405180910390fd5b604051620002599062000a48565b604051809103906000f08015801562000276573d6000803e3d6000fd5b50600080546001600160a01b0319166001600160a01b0392909216919091179055604051620002a59062000a56565b604051809103906000f080158015620002c2573d6000803e3d6000fd5b50600180546001600160a01b0319166001600160a01b03928316908117909155600054604051921691620002f69062000a64565b6001600160a01b03928316815291166020820152606060408201819052600090820152608001604051809103906000f08015801562000339573d6000803e3d6000fd5b50600280546001600160a01b0319166001600160a01b039290921691821790558063db0ed6a08a8a8a8a6200037260208c018c62000cc0565b6200038460408d0160208e0162000cc0565b6200039660608e0160408f0162000cc0565b6040518863ffffffff1660e01b8152600401620003ba979695949392919062000d10565b600060405180830381600087803b158015620003d557600080fd5b505af1158015620003ea573d6000803e3d6000fd5b5050604051632f2ff15d60e01b81526001600160a01b0384169250632f2ff15d91506200043f906000907f00000000000000000000000000000000000000000000000000000000000000009060040162000d68565b600060405180830381600087803b1580156200045a57600080fd5b505af11580156200046f573d6000803e3d6000fd5b5050604051632f2ff15d60e01b81526001600160a01b0384169250632f2ff15d9150620004d29060008051602062004ee7833981519152907f00000000000000000000000000000000000000000000000000000000000000009060040162000d68565b600060405180830381600087803b158015620004ed57600080fd5b505af115801562000502573d6000803e3d6000fd5b505060405163d547741f60e01b81526001600160a01b038416925063d547741f915062000556907f9f2df0fed2c77648de5860a4cc508cd0818c85b8b8a1ab4ceeef8d981c8956a690309060040162000d68565b600060405180830381600087803b1580156200057157600080fd5b505af115801562000586573d6000803e3d6000fd5b505060405163d547741f60e01b81526001600160a01b038416925063d547741f9150620005c99060008051602062004ee783398151915290309060040162000d68565b600060405180830381600087803b158015620005e457600080fd5b505af1158015620005f9573d6000803e3d6000fd5b505060405163d547741f60e01b81526001600160a01b038416925063d547741f91506200062e90600090309060040162000d68565b600060405180830381600087803b1580156200064957600080fd5b505af11580156200065e573d6000803e3d6000fd5b505060015460405163f2fde38b60e01b81526001600160a01b037f000000000000000000000000000000000000000000000000000000000000000081166004830152909116925063f2fde38b9150602401600060405180830381600087803b158015620006ca57600080fd5b505af1158015620006df573d6000803e3d6000fd5b505050507f00000000000000000000000000000000000000000000000000000000000000006001600160a01b0316600160009054906101000a90046001600160a01b03166001600160a01b0316638da5cb5b6040518163ffffffff1660e01b8152600401602060405180830381865afa15801562000761573d6000803e3d6000fd5b505050506040513d601f19601f8201168201806040525081019062000787919062000d7f565b6001600160a01b031614620007a057620007a062000d9f565b6001546000546040517f659c6be73db393c99d335071b31567da06b3f525febd748972fe512a8c91712492620007f29285926001600160a01b0392831692909116908e908e908e908e908e9062000db5565b60405180910390a1600154600054919a6001600160a01b039182169a509116975095505050505050565b6060336001600160a01b037f00000000000000000000000000000000000000000000000000000000000000001614620008695760405162461bcd60e51b8152600401620002429062000c62565b8167ffffffffffffffff81111562000885576200088562000e5f565b604051908082528060200260200182016040528015620008ba57816020015b6060815260200190600190039081620008a45790505b50905060005b8281101562000a4157600080858584818110620008e157620008e162000e75565b9050602002810190620008f5919062000e8b565b6200090590602081019062000cc0565b6001600160a01b031686868581811062000923576200092362000e75565b905060200281019062000937919062000e8b565b6040013587878681811062000950576200095062000e75565b905060200281019062000964919062000e8b565b6200097490602081019062000eac565b6040516200098492919062000ef6565b60006040518083038185875af1925050503d8060008114620009c3576040519150601f19603f3d011682016040523d82523d6000602084013e620009c8565b606091505b50915091508162000a0a5760405162461bcd60e51b815260206004820152600b60248201526a10d85b1b0811985a5b195960aa1b604482015260640162000242565b8084848151811062000a205762000a2062000e75565b602002602001018190525050508062000a399062000f06565b9050620008c0565b5092915050565b6128d88062000f2f83390190565b6107b7806200380783390190565b610f298062003fbe83390190565b60008083601f84011262000a8557600080fd5b50813567ffffffffffffffff81111562000a9e57600080fd5b60208301915083602082850101111562000ab757600080fd5b9250929050565b600080600080600085870360a081121562000ad857600080fd5b863567ffffffffffffffff8082111562000af157600080fd5b62000aff8a838b0162000a72565b9098509650602089013591508082111562000b1957600080fd5b5062000b2889828a0162000a72565b9095509350506060603f198201121562000b4157600080fd5b506040860190509295509295909350565b6000806020838503121562000b6657600080fd5b823567ffffffffffffffff8082111562000b7f57600080fd5b818501915085601f83011262000b9457600080fd5b81358181111562000ba457600080fd5b8660208260051b850101111562000bba57600080fd5b60209290920196919550909350505050565b6000602080830181845280855180835260408601915060408160051b87010192508387016000805b8381101562000c5457888603603f1901855282518051808852835b8181101562000c2c578281018a01518982018b0152890162000c0f565b508781018901849052601f01601f191690960187019550938601939186019160010162000bf4565b509398975050505050505050565b60208082526025908201527f55534459466163746f72793a20596f7520617265206e6f742074686520477561604082015264393234b0b760d91b606082015260800190565b6001600160a01b038116811462000cbd57600080fd5b50565b60006020828403121562000cd357600080fd5b813562000ce08162000ca7565b9392505050565b81835281816020850137506000828201602090810191909152601f909101601f19169091010190565b60a08152600062000d2660a08301898b62000ce7565b828103602084015262000d3b81888a62000ce7565b6001600160a01b039687166040850152948616606084015250509216608090920191909152949350505050565b9182526001600160a01b0316602082015260400190565b60006020828403121562000d9257600080fd5b815162000ce08162000ca7565b634e487b7160e01b600052600160045260246000fd5b6001600160a01b038981168252888116602083015287811660408301526101006060830181905260009162000dee848301898b62000ce7565b9150838203608085015262000e0582878962000ce7565b92508435915062000e168262000ca7565b90811660a084015260208401359062000e2f8262000ca7565b90811660c084015260408401359062000e488262000ca7565b80821660e085015250509998505050505050505050565b634e487b7160e01b600052604160045260246000fd5b634e487b7160e01b600052603260045260246000fd5b60008235605e1983360301811262000ea257600080fd5b9190910192915050565b6000808335601e1984360301811262000ec457600080fd5b83018035915067ffffffffffffffff82111562000ee057600080fd5b60200191503681900382131562000ab757600080fd5b8183823760009101908152919050565b60006001820162000f2757634e487b7160e01b600052601160045260246000fd5b506001019056fe60806040523480156200001157600080fd5b506200001c62000022565b620000e4565b600054610100900460ff16156200008f5760405162461bcd60e51b815260206004820152602760248201527f496e697469616c697a61626c653a20636f6e747261637420697320696e697469604482015266616c697a696e6760c81b606482015260840160405180910390fd5b60005460ff9081161015620000e2576000805460ff191660ff9081179091556040519081527f7f26b83ff96e1f2b6a682f133852f6798a09c465da95921460cefb38474024989060200160405180910390a15b565b6127e480620000f46000396000f3fe608060405234801561001057600080fd5b506004361061022d5760003560e01c806370a082311161013b578063aef18ae7116100b8578063d64e53961161007c578063d64e5396146104e5578063db0ed6a0146104f9578063dd62ed3e1461050c578063e63ab1e91461051f578063ec571c6a1461053457600080fd5b8063aef18ae714610482578063bf1d5b8f14610495578063ca15c873146104aa578063d5391393146104bd578063d547741f146104d257600080fd5b806395d89b41116100ff57806395d89b41146104395780639dc29fac14610441578063a217fddf14610454578063a457c2d71461045c578063a9059cbb1461046f57600080fd5b806370a08231146103cf57806379cc6790146103f85780638456cb591461040b5780639010d07c1461041357806391d148541461042657600080fd5b8063313ce567116101c957806342966c681161018d57806342966c681461037757806349dc5e8d1461038a5780634cd88b761461039d57806358bf3c7f146103b05780635c975abb146103c357600080fd5b8063313ce5671461032757806336568abe1461033657806339509351146103495780633f4ba83a1461035c57806340c10f191461036457600080fd5b806301ffc9a71461023257806306fdde031461025a578063095ea7b31461026f57806318160ddd1461028257806323b872dd14610294578063248a9ca3146102a7578063282c51f3146102ca5780632b47da52146102f15780632f2ff15d14610312575b600080fd5b61024561024036600461208c565b610548565b60405190151581526020015b60405180910390f35b610262610573565b60405161025191906120da565b61024561027d366004612129565b610605565b60cb545b604051908152602001610251565b6102456102a2366004612153565b61061d565b6102866102b536600461218f565b60009081526065602052604090206001015490565b6102867f3c11d16cbaffd01df69ce1c404f6340ee057498f5f00246190ea54220576a84881565b6101f654610305906001600160a01b031681565b60405161025191906121a8565b6103256103203660046121bc565b610641565b005b60405160128152602001610251565b6103256103443660046121bc565b61066b565b610245610357366004612129565b6106ee565b610325610710565b610325610372366004612129565b61078e565b61032561038536600461218f565b610809565b6103256103983660046121e8565b610816565b6103256103ab3660046122a6565b610837565b6103256103be3660046121e8565b610904565b61012d5460ff16610245565b6102866103dd3660046121e8565b6001600160a01b0316600090815260c9602052604090205490565b610325610406366004612129565b610925565b61032561093a565b61030561042136600461230a565b6109b4565b6102456104343660046121bc565b6109d3565b6102626109fe565b61032561044f366004612129565b610a0d565b610286600081565b61024561046a366004612129565b610a41565b61024561047d366004612129565b610abc565b6103256104903660046121e8565b610aca565b61028660008051602061278f83398151915281565b6102866104b836600461218f565b610aeb565b61028660008051602061274f83398151915281565b6103256104e03660046121bc565b610b02565b6101c354610305906001600160a01b031681565b61032561050736600461232c565b610b27565b61028661051a3660046123c2565b610c13565b61028660008051602061272f83398151915281565b61022954610305906001600160a01b031681565b60006001600160e01b03198216635a05180f60e01b148061056d575061056d82610c3e565b92915050565b606060cc8054610582906123ec565b80601f01602080910402602001604051908101604052809291908181526020018280546105ae906123ec565b80156105fb5780601f106105d0576101008083540402835291602001916105fb565b820191906000526020600020905b8154815290600101906020018083116105de57829003601f168201915b5050505050905090565b600033610613818585610c73565b5060019392505050565b60003361062b858285610d97565b610636858585610e11565b506001949350505050565b60008281526065602052604090206001015461065c81610fd8565b6106668383610fe2565b505050565b6001600160a01b03811633146106e05760405162461bcd60e51b815260206004820152602f60248201527f416363657373436f6e74726f6c3a2063616e206f6e6c792072656e6f756e636560448201526e103937b632b9903337b91039b2b63360891b60648201526084015b60405180910390fd5b6106ea8282611004565b5050565b6000336106138185856107018383610c13565b61070b919061243c565b610c73565b61072860008051602061272f833981519152336109d3565b6107845760405162461bcd60e51b8152602060048201526039602482015260008051602061270f83398151915260448201527876652070617573657220726f6c6520746f20756e706175736560381b60648201526084016106d7565b61078c611026565b565b6107a660008051602061274f833981519152336109d3565b6107ff5760405162461bcd60e51b8152602060048201526036602482015260008051602061270f8339815191526044820152751d99481b5a5b9d195c881c9bdb19481d1bc81b5a5b9d60521b60648201526084016106d7565b6106ea8282611073565b610813338261114c565b50565b60008051602061278f83398151915261082e81610fd8565b6106ea82611294565b600054610100900460ff16158080156108575750600054600160ff909116105b806108715750303b158015610871575060005460ff166001145b61088d5760405162461bcd60e51b81526004016106d79061244f565b6000805460ff1916600117905580156108b0576000805461ff0019166101001790555b6108ba838361131b565b8015610666576000805461ff0019169055604051600181527f7f26b83ff96e1f2b6a682f133852f6798a09c465da95921460cefb38474024989060200160405180910390a1505050565b60008051602061278f83398151915261091c81610fd8565b6106ea8261135e565b610930823383610d97565b6106ea828261114c565b61095260008051602061272f833981519152336109d3565b6109ac5760405162461bcd60e51b8152602060048201526037602482015260008051602061270f83398151915260448201527676652070617573657220726f6c6520746f20706175736560481b60648201526084016106d7565b61078c6113d9565b60008281526097602052604081206109cc9083611417565b9392505050565b60009182526065602090815260408084206001600160a01b0393909316845291905290205460ff1690565b606060cd8054610582906123ec565b7f3c11d16cbaffd01df69ce1c404f6340ee057498f5f00246190ea54220576a848610a3781610fd8565b610666838361114c565b60003381610a4f8286610c13565b905083811015610aaf5760405162461bcd60e51b815260206004820152602560248201527f45524332303a2064656372656173656420616c6c6f77616e63652062656c6f77604482015264207a65726f60d81b60648201526084016106d7565b6106368286868403610c73565b600033610613818585610e11565b60008051602061278f833981519152610ae281610fd8565b6106ea82611423565b600081815260976020526040812061056d9061149e565b600082815260656020526040902060010154610b1d81610fd8565b6106668383611004565b600054610100900460ff1615808015610b475750600054600160ff909116105b80610b615750303b158015610b61575060005460ff166001145b610b7d5760405162461bcd60e51b81526004016106d79061244f565b6000805460ff191660011790558015610ba0576000805461ff0019166101001790555b610baa868661131b565b610bb3846114a8565b610bbc836114d8565b610bc582611508565b8015610c0b576000805461ff0019169055604051600181527f7f26b83ff96e1f2b6a682f133852f6798a09c465da95921460cefb38474024989060200160405180910390a15b505050505050565b6001600160a01b03918216600090815260ca6020908152604080832093909416825291909152205490565b60006001600160e01b03198216637965db0b60e01b148061056d57506301ffc9a760e01b6001600160e01b031983161461056d565b6001600160a01b038316610cd55760405162461bcd60e51b8152602060048201526024808201527f45524332303a20617070726f76652066726f6d20746865207a65726f206164646044820152637265737360e01b60648201526084016106d7565b6001600160a01b038216610d365760405162461bcd60e51b815260206004820152602260248201527f45524332303a20617070726f766520746f20746865207a65726f206164647265604482015261737360f01b60648201526084016106d7565b6001600160a01b03838116600081815260ca602090815260408083209487168084529482529182902085905590518481527f8c5be1e5ebec7d5bd14f71427d1e84f3dd0314c0f7b2291e5b200ac8c7c3b925910160405180910390a3505050565b6000610da38484610c13565b90506000198114610e0b5781811015610dfe5760405162461bcd60e51b815260206004820152601d60248201527f45524332303a20696e73756666696369656e7420616c6c6f77616e636500000060448201526064016106d7565b610e0b8484848403610c73565b50505050565b6001600160a01b038316610e755760405162461bcd60e51b815260206004820152602560248201527f45524332303a207472616e736665722066726f6d20746865207a65726f206164604482015264647265737360d81b60648201526084016106d7565b6001600160a01b038216610ed75760405162461bcd60e51b815260206004820152602360248201527f45524332303a207472616e7366657220746f20746865207a65726f206164647260448201526265737360e81b60648201526084016106d7565b610ee2838383611538565b6001600160a01b038316600090815260c9602052604090205481811015610f5a5760405162461bcd60e51b815260206004820152602660248201527f45524332303a207472616e7366657220616d6f756e7420657863656564732062604482015265616c616e636560d01b60648201526084016106d7565b6001600160a01b03808516600090815260c96020526040808220858503905591851681529081208054849290610f9190849061243c565b92505081905550826001600160a01b0316846001600160a01b031660008051602061276f83398151915284604051610fcb91815260200190565b60405180910390a3610e0b565b61081381336118bf565b610fec8282611923565b600082815260976020526040902061066690826119a9565b61100e82826119be565b60008281526097602052604090206106669082611a25565b61102e611a3a565b61012d805460ff191690557f5db9ee0a495bf2e6ff9c91a7834c1ba4fdd244a5e8aa4e537bd38aeae4b073aa335b60405161106991906121a8565b60405180910390a1565b6001600160a01b0382166110c95760405162461bcd60e51b815260206004820152601f60248201527f45524332303a206d696e7420746f20746865207a65726f20616464726573730060448201526064016106d7565b6110d560008383611538565b8060cb60008282546110e7919061243c565b90915550506001600160a01b038216600090815260c960205260408120805483929061111490849061243c565b90915550506040518181526001600160a01b0383169060009060008051602061276f8339815191529060200160405180910390a35050565b6001600160a01b0382166111ac5760405162461bcd60e51b815260206004820152602160248201527f45524332303a206275726e2066726f6d20746865207a65726f206164647265736044820152607360f81b60648201526084016106d7565b6111b882600083611538565b6001600160a01b038216600090815260c960205260409020548181101561122c5760405162461bcd60e51b815260206004820152602260248201527f45524332303a206275726e20616d6f756e7420657863656564732062616c616e604482015261636560f01b60648201526084016106d7565b6001600160a01b038316600090815260c960205260408120838303905560cb805484929061125b90849061249d565b90915550506040518281526000906001600160a01b0385169060008051602061276f8339815191529060200160405180910390a3505050565b6001600160a01b0381166112bb576040516310ce5abd60e21b815260040160405180910390fd5b61022980546001600160a01b038381166001600160a01b03198316179092556040519116907fa19fd4029e820c57308467576d8d0296f07717cfcb98941cf8988b25dcd700e39061130f90839085906124b0565b60405180910390a15050565b600054610100900460ff166113425760405162461bcd60e51b81526004016106d7906124ca565b61134c8282611a84565b611354611ac4565b6106ea8282611af8565b6001600160a01b038116611385576040516314d7e06960e01b815260040160405180910390fd5b6101f680546001600160a01b038381166001600160a01b03198316179092556040519116907f451b0d3ada7fe0de9043f3de5fec87856a83f521b63c4a4c264c9a7d419bca489061130f90839085906124b0565b6113e1611b5a565b61012d805460ff191660011790557f62e78cea01bee320cd4e420270b5ea74000d11b0c9f74754ebdbfc544b05a25861105c3390565b60006109cc8383611ba1565b6001600160a01b03811661144a57604051637e33865360e01b815260040160405180910390fd5b6101c380546001600160a01b038381166001600160a01b03198316179092556040519116907f7e053cdc9069fe4f629b6b3fa2a01bb53a9a8305ec11830b259d95e9e75b73049061130f90839085906124b0565b600061056d825490565b600054610100900460ff166114cf5760405162461bcd60e51b81526004016106d7906124ca565b61081381611bcb565b600054610100900460ff166114ff5760405162461bcd60e51b81526004016106d7906124ca565b61081381611bfb565b600054610100900460ff1661152f5760405162461bcd60e51b81526004016106d7906124ca565b61081381611c2b565b611543838383611c5b565b6001600160a01b038316331480159061156557506001600160a01b0382163314155b156116855761157333611c66565b156115c05760405162461bcd60e51b815260206004820152601e60248201527f555344593a202773656e64657227206164647265737320626c6f636b6564000060448201526064016106d7565b6115c933611cd9565b156116205760405162461bcd60e51b815260206004820152602160248201527f555344593a202773656e6465722720616464726573732073616e6374696f6e656044820152601960fa1b60648201526084016106d7565b61162933611d0b565b6116855760405162461bcd60e51b815260206004820152602760248201527f555344593a202773656e646572272061646472657373206e6f74206f6e20616c6044820152661b1bdddb1a5cdd60ca1b60648201526084016106d7565b6001600160a01b038316156117a35761169d83611c66565b156116ea5760405162461bcd60e51b815260206004820152601c60248201527f555344593a202766726f6d27206164647265737320626c6f636b65640000000060448201526064016106d7565b6116f383611cd9565b156117405760405162461bcd60e51b815260206004820152601f60248201527f555344593a202766726f6d2720616464726573732073616e6374696f6e65640060448201526064016106d7565b61174983611d0b565b6117a35760405162461bcd60e51b815260206004820152602560248201527f555344593a202766726f6d272061646472657373206e6f74206f6e20616c6c6f6044820152641ddb1a5cdd60da1b60648201526084016106d7565b6001600160a01b03821615610666576117bb82611c66565b156118085760405162461bcd60e51b815260206004820152601a60248201527f555344593a2027746f27206164647265737320626c6f636b656400000000000060448201526064016106d7565b61181182611cd9565b1561185e5760405162461bcd60e51b815260206004820152601d60248201527f555344593a2027746f2720616464726573732073616e6374696f6e656400000060448201526064016106d7565b61186782611d0b565b6106665760405162461bcd60e51b815260206004820152602360248201527f555344593a2027746f272061646472657373206e6f74206f6e20616c6c6f776c6044820152621a5cdd60ea1b60648201526084016106d7565b6118c982826109d3565b6106ea576118e1816001600160a01b03166014611d3d565b6118ec836020611d3d565b6040516020016118fd929190612515565b60408051601f198184030181529082905262461bcd60e51b82526106d7916004016120da565b61192d82826109d3565b6106ea5760008281526065602090815260408083206001600160a01b03851684529091529020805460ff191660011790556119653390565b6001600160a01b0316816001600160a01b0316837f2f8788117e7eff1d82e926ec794901d17c78024a50270940304540a733656f0d60405160405180910390a45050565b60006109cc836001600160a01b038416611ed9565b6119c882826109d3565b156106ea5760008281526065602090815260408083206001600160a01b0385168085529252808320805460ff1916905551339285917ff6391f5c32d9c69d2a47ea670b442974b53935d1edc7fd64eb21e047a839171b9190a45050565b60006109cc836001600160a01b038416611f28565b61012d5460ff1661078c5760405162461bcd60e51b815260206004820152601460248201527314185d5cd8589b194e881b9bdd081c185d5cd95960621b60448201526064016106d7565b600054610100900460ff16611aab5760405162461bcd60e51b81526004016106d7906124ca565b60cc611ab783826125ca565b5060cd61066682826125ca565b600054610100900460ff16611aeb5760405162461bcd60e51b81526004016106d7906124ca565b61012d805460ff19169055565b600054610100900460ff16611b1f5760405162461bcd60e51b81526004016106d7906124ca565b611b2a60003361201b565b611b4260008051602061274f8339815191523361201b565b6106ea60008051602061272f8339815191523361201b565b61012d5460ff161561078c5760405162461bcd60e51b815260206004820152601060248201526f14185d5cd8589b194e881c185d5cd95960821b60448201526064016106d7565b6000826000018281548110611bb857611bb861268a565b9060005260206000200154905092915050565b600054610100900460ff16611bf25760405162461bcd60e51b81526004016106d7906124ca565b61081381611423565b600054610100900460ff16611c225760405162461bcd60e51b81526004016106d7906124ca565b6108138161135e565b600054610100900460ff16611c525760405162461bcd60e51b81526004016106d7906124ca565b61081381611294565b610666838383612025565b6101c35460405163fbac395160e01b81526000916001600160a01b03169063fbac395190611c989085906004016121a8565b602060405180830381865afa158015611cb5573d6000803e3d6000fd5b505050506040513d601f19601f8201168201806040525081019061056d91906126a0565b6102295460405163df592f7d60e01b81526000916001600160a01b03169063df592f7d90611c989085906004016121a8565b6101f65460405163babcc53960e01b81526000916001600160a01b03169063babcc53990611c989085906004016121a8565b60606000611d4c8360026126c2565b611d5790600261243c565b67ffffffffffffffff811115611d6f57611d6f612203565b6040519080825280601f01601f191660200182016040528015611d99576020820181803683370190505b509050600360fc1b81600081518110611db457611db461268a565b60200101906001600160f81b031916908160001a905350600f60fb1b81600181518110611de357611de361268a565b60200101906001600160f81b031916908160001a9053506000611e078460026126c2565b611e1290600161243c565b90505b6001811115611e8a576f181899199a1a9b1b9c1cb0b131b232b360811b85600f1660108110611e4657611e4661268a565b1a60f81b828281518110611e5c57611e5c61268a565b60200101906001600160f81b031916908160001a90535060049490941c93611e83816126e1565b9050611e15565b5083156109cc5760405162461bcd60e51b815260206004820181905260248201527f537472696e67733a20686578206c656e67746820696e73756666696369656e7460448201526064016106d7565b6000818152600183016020526040812054611f205750815460018181018455600084815260208082209093018490558454848252828601909352604090209190915561056d565b50600061056d565b60008181526001830160205260408120548015612011576000611f4c60018361249d565b8554909150600090611f609060019061249d565b9050818114611fc5576000866000018281548110611f8057611f8061268a565b9060005260206000200154905080876000018481548110611fa357611fa361268a565b6000918252602080832090910192909255918252600188019052604090208390555b8554869080611fd657611fd66126f8565b60019003818190600052602060002001600090559055856001016000868152602001908152602001600020600090556001935050505061056d565b600091505061056d565b6106ea8282610fe2565b61012d5460ff16156106665760405162461bcd60e51b815260206004820152602a60248201527f45524332305061757361626c653a20746f6b656e207472616e736665722077686044820152691a5b19481c185d5cd95960b21b60648201526084016106d7565b60006020828403121561209e57600080fd5b81356001600160e01b0319811681146109cc57600080fd5b60005b838110156120d15781810151838201526020016120b9565b50506000910152565b60208152600082518060208401526120f98160408501602087016120b6565b601f01601f19169190910160400192915050565b80356001600160a01b038116811461212457600080fd5b919050565b6000806040838503121561213c57600080fd5b6121458361210d565b946020939093013593505050565b60008060006060848603121561216857600080fd5b6121718461210d565b925061217f6020850161210d565b9150604084013590509250925092565b6000602082840312156121a157600080fd5b5035919050565b6001600160a01b0391909116815260200190565b600080604083850312156121cf57600080fd5b823591506121df6020840161210d565b90509250929050565b6000602082840312156121fa57600080fd5b6109cc8261210d565b634e487b7160e01b600052604160045260246000fd5b600082601f83011261222a57600080fd5b813567ffffffffffffffff8082111561224557612245612203565b604051601f8301601f19908116603f0116810190828211818310171561226d5761226d612203565b8160405283815286602085880101111561228657600080fd5b836020870160208301376000602085830101528094505050505092915050565b600080604083850312156122b957600080fd5b823567ffffffffffffffff808211156122d157600080fd5b6122dd86838701612219565b935060208501359150808211156122f357600080fd5b5061230085828601612219565b9150509250929050565b6000806040838503121561231d57600080fd5b50508035926020909101359150565b600080600080600060a0868803121561234457600080fd5b853567ffffffffffffffff8082111561235c57600080fd5b61236889838a01612219565b9650602088013591508082111561237e57600080fd5b5061238b88828901612219565b94505061239a6040870161210d565b92506123a86060870161210d565b91506123b66080870161210d565b90509295509295909350565b600080604083850312156123d557600080fd5b6123de8361210d565b91506121df6020840161210d565b600181811c9082168061240057607f821691505b60208210810361242057634e487b7160e01b600052602260045260246000fd5b50919050565b634e487b7160e01b600052601160045260246000fd5b8082018082111561056d5761056d612426565b6020808252602e908201527f496e697469616c697a61626c653a20636f6e747261637420697320616c72656160408201526d191e481a5b9a5d1a585b1a5e995960921b606082015260800190565b8181038181111561056d5761056d612426565b6001600160a01b0392831681529116602082015260400190565b6020808252602b908201527f496e697469616c697a61626c653a20636f6e7472616374206973206e6f74206960408201526a6e697469616c697a696e6760a81b606082015260800190565b76020b1b1b2b9b9a1b7b73a3937b61d1030b1b1b7bab73a1604d1b8152600083516125478160178501602088016120b6565b7001034b99036b4b9b9b4b733903937b6329607d1b60179184019182015283516125788160288401602088016120b6565b01602801949350505050565b601f82111561066657600081815260208120601f850160051c810160208610156125ab5750805b601f850160051c820191505b81811015610c0b578281556001016125b7565b815167ffffffffffffffff8111156125e4576125e4612203565b6125f8816125f284546123ec565b84612584565b602080601f83116001811461262d57600084156126155750858301515b600019600386901b1c1916600185901b178555610c0b565b600085815260208120601f198616915b8281101561265c5788860151825594840194600190910190840161263d565b508582101561267a5787850151600019600388901b60f8161c191681555b5050505050600190811b01905550565b634e487b7160e01b600052603260045260246000fd5b6000602082840312156126b257600080fd5b815180151581146109cc57600080fd5b60008160001904831182151516156126dc576126dc612426565b500290565b6000816126f0576126f0612426565b506000190190565b634e487b7160e01b600052603160045260246000fdfe45524332305072657365744d696e7465725061757365723a206d75737420686165d7a28e3265b37a6474929f336521b332c1681b933f6cb9f3376673440d862a9f2df0fed2c77648de5860a4cc508cd0818c85b8b8a1ab4ceeef8d981c8956a6ddf252ad1be2c89b69c2b068fc378daa952ba7f163c4a11628f55a4df523b3efa74faf88a584437bd0449f37007060732f2e252b1607e7286651c9b6c1a74cbaa264697066735822122034d5dca9d1102166d0c5faeb9272cb1e9c95b6862d935279d19ea165fa62954a64736f6c63430008100033608060405234801561001057600080fd5b5061001a3361001f565b61006f565b600080546001600160a01b038381166001600160a01b0319831681178455604051919092169283917f8be0079c531659141344cd1fd0a4f28419497f9722a3daafe3b4186f6b6457e09190a35050565b6107398061007e6000396000f3fe60806040526004361061006b5760003560e01c8063204e1c7a14610070578063715018a6146100a65780637eff275e146100bd5780638da5cb5b146100dd5780639623609d146100f257806399a88ec414610105578063f2fde38b14610125578063f3b7dead14610145575b600080fd5b34801561007c57600080fd5b5061009061008b3660046104f6565b610165565b60405161009d919061051a565b60405180910390f35b3480156100b257600080fd5b506100bb6101f6565b005b3480156100c957600080fd5b506100bb6100d836600461052e565b61023a565b3480156100e957600080fd5b506100906102cb565b6100bb61010036600461057d565b6102da565b34801561011157600080fd5b506100bb61012036600461052e565b610370565b34801561013157600080fd5b506100bb6101403660046104f6565b6103cb565b34801561015157600080fd5b506100906101603660046104f6565b61046b565b6000806000836001600160a01b031660405161018b90635c60da1b60e01b815260040190565b600060405180830381855afa9150503d80600081146101c6576040519150601f19603f3d011682016040523d82523d6000602084013e6101cb565b606091505b5091509150816101da57600080fd5b808060200190518101906101ee9190610653565b949350505050565b336101ff6102cb565b6001600160a01b03161461022e5760405162461bcd60e51b815260040161022590610670565b60405180910390fd5b6102386000610491565b565b336102436102cb565b6001600160a01b0316146102695760405162461bcd60e51b815260040161022590610670565b6040516308f2839760e41b81526001600160a01b03831690638f2839709061029590849060040161051a565b600060405180830381600087803b1580156102af57600080fd5b505af11580156102c3573d6000803e3d6000fd5b505050505050565b6000546001600160a01b031690565b336102e36102cb565b6001600160a01b0316146103095760405162461bcd60e51b815260040161022590610670565b60405163278f794360e11b81526001600160a01b03841690634f1ef28690349061033990869086906004016106a5565b6000604051808303818588803b15801561035257600080fd5b505af1158015610366573d6000803e3d6000fd5b5050505050505050565b336103796102cb565b6001600160a01b03161461039f5760405162461bcd60e51b815260040161022590610670565b604051631b2ce7f360e11b81526001600160a01b03831690633659cfe69061029590849060040161051a565b336103d46102cb565b6001600160a01b0316146103fa5760405162461bcd60e51b815260040161022590610670565b6001600160a01b03811661045f5760405162461bcd60e51b815260206004820152602660248201527f4f776e61626c653a206e6577206f776e657220697320746865207a65726f206160448201526564647265737360d01b6064820152608401610225565b61046881610491565b50565b6000806000836001600160a01b031660405161018b906303e1469160e61b815260040190565b600080546001600160a01b038381166001600160a01b0319831681178455604051919092169283917f8be0079c531659141344cd1fd0a4f28419497f9722a3daafe3b4186f6b6457e09190a35050565b6001600160a01b038116811461046857600080fd5b60006020828403121561050857600080fd5b8135610513816104e1565b9392505050565b6001600160a01b0391909116815260200190565b6000806040838503121561054157600080fd5b823561054c816104e1565b9150602083013561055c816104e1565b809150509250929050565b634e487b7160e01b600052604160045260246000fd5b60008060006060848603121561059257600080fd5b833561059d816104e1565b925060208401356105ad816104e1565b9150604084013567ffffffffffffffff808211156105ca57600080fd5b818601915086601f8301126105de57600080fd5b8135818111156105f0576105f0610567565b604051601f8201601f19908116603f0116810190838211818310171561061857610618610567565b8160405282815289602084870101111561063157600080fd5b8260208601602083013760006020848301015280955050505050509250925092565b60006020828403121561066557600080fd5b8151610513816104e1565b6020808252818101527f4f776e61626c653a2063616c6c6572206973206e6f7420746865206f776e6572604082015260600190565b60018060a01b038316815260006020604081840152835180604085015260005b818110156106e1578581018301518582016060015282016106c5565b506000606082860101526060601f19601f83011685010192505050939250505056fea2646970667358221220e4431c0c42c818f97f8582430738c79e6584ed94b888442b706f43993cb3ee9464736f6c6343000810003360806040523480156200001157600080fd5b5060405162000f2938038062000f29833981016040819052620000349162000528565b82828282816200006660017f360894a13ba1a3210667c828492db98dca3e2076cc3735a920a3ca505d382bbd62000608565b60008051602062000ee2833981519152146200008657620000866200062a565b6200009482826000620000fb565b50620000c4905060017fb53127684a568b3173ae13b9f8a6016e243e63b6e8ee1178d6a717850b5d610462000608565b60008051602062000ec283398151915214620000e457620000e46200062a565b620000ef8262000138565b50505050505062000693565b620001068362000193565b600082511180620001145750805b156200013357620001318383620001d560201b6200022e1760201c565b505b505050565b7f7e644d79422f17c01e4894b5f4f588d331ebfa28653d42ae832dc59e38c9798f6200016362000206565b604080516001600160a01b03928316815291841660208301520160405180910390a162000190816200023f565b50565b6200019e81620002f4565b6040516001600160a01b038216907fbc7cd75a20ee27fd9adebab32041f755214dbc6bffa90cc0225b39da2e5c2d3b90600090a250565b6060620001fd838360405180606001604052806027815260200162000f026027913962000397565b90505b92915050565b60006200023060008051602062000ec283398151915260001b6200047f60201b620001ea1760201c565b546001600160a01b0316919050565b6001600160a01b038116620002aa5760405162461bcd60e51b815260206004820152602660248201527f455243313936373a206e65772061646d696e20697320746865207a65726f206160448201526564647265737360d01b60648201526084015b60405180910390fd5b80620002d360008051602062000ec283398151915260001b6200047f60201b620001ea1760201c565b80546001600160a01b0319166001600160a01b039290921691909117905550565b6200030a816200048260201b6200025a1760201c565b6200036e5760405162461bcd60e51b815260206004820152602d60248201527f455243313936373a206e657720696d706c656d656e746174696f6e206973206e60448201526c1bdd08184818dbdb9d1c9858dd609a1b6064820152608401620002a1565b80620002d360008051602062000ee283398151915260001b6200047f60201b620001ea1760201c565b60606001600160a01b0384163b620004015760405162461bcd60e51b815260206004820152602660248201527f416464726573733a2064656c65676174652063616c6c20746f206e6f6e2d636f6044820152651b9d1c9858dd60d21b6064820152608401620002a1565b600080856001600160a01b0316856040516200041e919062000640565b600060405180830381855af49150503d80600081146200045b576040519150601f19603f3d011682016040523d82523d6000602084013e62000460565b606091505b5090925090506200047382828662000491565b925050505b9392505050565b90565b6001600160a01b03163b151590565b60608315620004a257508162000478565b825115620004b35782518084602001fd5b8160405162461bcd60e51b8152600401620002a191906200065e565b80516001600160a01b0381168114620004e757600080fd5b919050565b634e487b7160e01b600052604160045260246000fd5b60005b838110156200051f57818101518382015260200162000505565b50506000910152565b6000806000606084860312156200053e57600080fd5b6200054984620004cf565b92506200055960208501620004cf565b60408501519092506001600160401b03808211156200057757600080fd5b818601915086601f8301126200058c57600080fd5b815181811115620005a157620005a1620004ec565b604051601f8201601f19908116603f01168101908382118183101715620005cc57620005cc620004ec565b81604052828152896020848701011115620005e657600080fd5b620005f983602083016020880162000502565b80955050505050509250925092565b818103818111156200020057634e487b7160e01b600052601160045260246000fd5b634e487b7160e01b600052600160045260246000fd5b600082516200065481846020870162000502565b9190910192915050565b60208152600082518060208401526200067f81604085016020870162000502565b601f01601f19169190910160400192915050565b61081f80620006a36000396000f3fe60806040526004361061004e5760003560e01c80633659cfe6146100655780634f1ef286146100855780635c60da1b146100985780638f283970146100c9578063f851a440146100e95761005d565b3661005d5761005b6100fe565b005b61005b6100fe565b34801561007157600080fd5b5061005b6100803660046106b1565b610118565b61005b6100933660046106cc565b610155565b3480156100a457600080fd5b506100ad6101bc565b6040516001600160a01b03909116815260200160405180910390f35b3480156100d557600080fd5b5061005b6100e43660046106b1565b6101ed565b3480156100f557600080fd5b506100ad61020d565b610106610269565b6101166101116102fe565b610308565b565b61012061032c565b6001600160a01b0316330361014d5761014a8160405180602001604052806000815250600061035f565b50565b61014a6100fe565b61015d61032c565b6001600160a01b031633036101b4576101af8383838080601f0160208091040260200160405190810160405280939291908181526020018383808284376000920191909152506001925061035f915050565b505050565b6101af6100fe565b60006101c661032c565b6001600160a01b031633036101e2576101dd6102fe565b905090565b6101ea6100fe565b90565b6101f561032c565b6001600160a01b0316330361014d5761014a8161038a565b600061021761032c565b6001600160a01b031633036101e2576101dd61032c565b606061025383836040518060600160405280602781526020016107c3602791396103de565b9392505050565b6001600160a01b03163b151590565b61027161032c565b6001600160a01b031633036101165760405162461bcd60e51b815260206004820152604260248201527f5472616e73706172656e745570677261646561626c6550726f78793a2061646d60448201527f696e2063616e6e6f742066616c6c6261636b20746f2070726f78792074617267606482015261195d60f21b608482015260a4015b60405180910390fd5b60006101dd6104b9565b3660008037600080366000845af43d6000803e808015610327573d6000f35b3d6000fd5b60007fb53127684a568b3173ae13b9f8a6016e243e63b6e8ee1178d6a717850b5d61035b546001600160a01b0316919050565b610368836104e1565b6000825111806103755750805b156101af57610384838361022e565b50505050565b7f7e644d79422f17c01e4894b5f4f588d331ebfa28653d42ae832dc59e38c9798f6103b361032c565b604080516001600160a01b03928316815291841660208301520160405180910390a161014a81610521565b60606103e98461025a565b6104445760405162461bcd60e51b815260206004820152602660248201527f416464726573733a2064656c65676174652063616c6c20746f206e6f6e2d636f6044820152651b9d1c9858dd60d21b60648201526084016102f5565b600080856001600160a01b03168560405161045f9190610773565b600060405180830381855af49150503d806000811461049a576040519150601f19603f3d011682016040523d82523d6000602084013e61049f565b606091505b50915091506104af8282866105ca565b9695505050505050565b60007f360894a13ba1a3210667c828492db98dca3e2076cc3735a920a3ca505d382bbc610350565b6104ea81610603565b6040516001600160a01b038216907fbc7cd75a20ee27fd9adebab32041f755214dbc6bffa90cc0225b39da2e5c2d3b90600090a250565b6001600160a01b0381166105865760405162461bcd60e51b815260206004820152602660248201527f455243313936373a206e65772061646d696e20697320746865207a65726f206160448201526564647265737360d01b60648201526084016102f5565b807fb53127684a568b3173ae13b9f8a6016e243e63b6e8ee1178d6a717850b5d61035b80546001600160a01b0319166001600160a01b039290921691909117905550565b606083156105d9575081610253565b8251156105e95782518084602001fd5b8160405162461bcd60e51b81526004016102f5919061078f565b61060c8161025a565b61066e5760405162461bcd60e51b815260206004820152602d60248201527f455243313936373a206e657720696d706c656d656e746174696f6e206973206e60448201526c1bdd08184818dbdb9d1c9858dd609a1b60648201526084016102f5565b807f360894a13ba1a3210667c828492db98dca3e2076cc3735a920a3ca505d382bbc6105a9565b80356001600160a01b03811681146106ac57600080fd5b919050565b6000602082840312156106c357600080fd5b61025382610695565b6000806000604084860312156106e157600080fd5b6106ea84610695565b9250602084013567ffffffffffffffff8082111561070757600080fd5b818601915086601f83011261071b57600080fd5b81358181111561072a57600080fd5b87602082850101111561073c57600080fd5b6020830194508093505050509250925092565b60005b8381101561076a578181015183820152602001610752565b50506000910152565b6000825161078581846020870161074f565b9190910192915050565b60208152600082518060208401526107ae81604085016020870161074f565b601f01601f1916919091016040019291505056fe416464726573733a206c6f772d6c6576656c2064656c65676174652063616c6c206661696c6564a2646970667358221220bc79656da5dcf6854b9cca378a0453db2ed924a45d43ec97b50dc22b6ebe7bbb64736f6c63430008100033b53127684a568b3173ae13b9f8a6016e243e63b6e8ee1178d6a717850b5d6103360894a13ba1a3210667c828492db98dca3e2076cc3735a920a3ca505d382bbc416464726573733a206c6f772d6c6576656c2064656c65676174652063616c6c206661696c656465d7a28e3265b37a6474929f336521b332c1681b933f6cb9f3376673440d862aa2646970667358221220e0fcea542a2c79fbbc6bf7cc2935c3df76ac02f9a00e58cd36f055713bf9712c64736f6c63430008100033",
  "devdoc": {
    "author": "Ondo Finance",
    "events": {
      "USDYDeployed(address,address,address,string,string,(address,address,address))": {
        "details": "Event emitted when upgradable USDY is deployed",
        "params": {
          "implementation": "The address for the implementation contract",
          "proxy": "The address for the proxy contract",
          "proxyAdmin": "The address for the proxy admin contract"
        }
      }
    },
    "kind": "dev",
    "methods": {
      "deployUSDY(string,string,(address,address,address))": {
        "details": "This function will deploy an upgradable instance of USDY",
        "params": {
          "name": "The name of the token we want to deploy.",
          "ticker": "The ticker for the token we want to deploy."
        },
        "returns": {
          "_0": "address The address of the proxy contract.",
          "_1": "address The address of the proxyAdmin contract.",
          "_2": "address The address of the implementation contract."
        }
      },
      "multiexcall((address,bytes,uint256)[])": {
        "details": "All external calls made through this function will      msg.sender == contract address",
        "params": {
          "exCallData": "Struct consisting of       1) target - contract to call       2) data - data to call target with       3) value - eth value to call target with"
        }
      }
    },
    "title": "USDYFactory",
    "version": 1
  },
  "userdoc": {
    "kind": "user",
    "methods": {
      "deployUSDY(string,string,(address,address,address))": {
        "notice": "1) Will automatically revoke all deployer roles granted to            address(this).         2) Will grant DEFAULT_ADMIN & PAUSER_ROLE(S) to `guardian`            address specified in constructor.         3) Will transfer ownership of the proxyAdmin to guardian            address."
      },
      "multiexcall((address,bytes,uint256)[])": {
        "notice": "Allows for arbitrary batched calls"
      }
    },
    "notice": "This contract serves as a Factory for the upgradable USDY token contract.         Upon calling `deployUSDY` the `guardian` address (set in constructor) will         deploy the following:         1) USDY - The implementation contract, ERC20 contract with the initializer disabled         2) ProxyAdmin - OZ ProxyAdmin contract, used to upgrade the proxy instance.Owner is set to `guardian` address.         3) TransparentUpgradeableProxy - OZ, proxy contract. Admin is set to `address(proxyAdmin)`.                                          `_logic' is set to `address(cash)`.         Following the above mentioned deployment, the address of the CashFactory contract will:         i) Grant the `DEFAULT_ADMIN_ROLE` & PAUSER_ROLE to the `guardian` address         ii) Revoke the `MINTER_ROLE`, `PAUSER_ROLE` & `DEFAULT_ADMIN_ROLE` from address(this).         iii) Transfer ownership of the ProxyAdmin to that of the `guardian` address.`guardian` address in constructor is a msig.",
    "version": 1
  },
  "storageLayout": {
    "storage": [
      {
        "astId": 18294,
        "contract": "contracts/usdy/USDYFactory.sol:USDYFactory",
        "label": "usdyImplementation",
        "offset": 0,
        "slot": "0",
        "type": "t_contract(USDY)18257"
      },
      {
        "astId": 18297,
        "contract": "contracts/usdy/USDYFactory.sol:USDYFactory",
        "label": "usdyProxyAdmin",
        "offset": 0,
        "slot": "1",
        "type": "t_contract(ProxyAdmin)9575"
      },
      {
        "astId": 18300,
        "contract": "contracts/usdy/USDYFactory.sol:USDYFactory",
        "label": "usdyProxy",
        "offset": 0,
        "slot": "2",
        "type": "t_contract(TokenProxy)709"
      }
    ],
    "types": {
      "t_contract(ProxyAdmin)9575": {
        "encoding": "inplace",
        "label": "contract ProxyAdmin",
        "numberOfBytes": "20"
      },
      "t_contract(TokenProxy)709": {
        "encoding": "inplace",
        "label": "contract TokenProxy",
        "numberOfBytes": "20"
      },
      "t_contract(USDY)18257": {
        "encoding": "inplace",
        "label": "contract USDY",
        "numberOfBytes": "20"
      }
    }
  }
}