{
  "address": "0x96F6eF951840721AdBF46Ac996b59E0235CB985C",
  "abi": [
    {
      "inputs": [],
      "stateMutability": "nonpayable",
      "type": "constructor"
    },
    {
      "inputs": [],
      "name": "AllowlistZeroAddress",
      "type": "error"
    },
    {
      "inputs": [],
      "name": "BlockedAccount",
      "type": "error"
    },
    {
      "inputs": [],
      "name": "BlocklistZeroAddress",
      "type": "error"
    },
    {
      "inputs": [],
      "name": "SanctionedAccount",
      "type": "error"
    },
    {
      "inputs": [],
      "name": "SanctionsListZeroAddress",
      "type": "error"
    },
    {
      "anonymous": false,
      "inputs": [
        {
          "indexed": false,
          "internalType": "address",
          "name": "oldAllowlist",
          "type": "address"
        },
        {
          "indexed": false,
          "internalType": "address",
          "name": "newAllowlist",
          "type": "address"
        }
      ],
      "name": "AllowlistSet",
      "type": "event"
    },
    {
      "anonymous": false,
      "inputs": [
        {
          "indexed": true,
          "internalType": "address",
          "name": "owner",
          "type": "address"
        },
        {
          "indexed": true,
          "internalType": "address",
          "name": "spender",
          "type": "address"
        },
        {
          "indexed": false,
          "internalType": "uint256",
          "name": "value",
          "type": "uint256"
        }
      ],
      "name": "Approval",
      "type": "event"
    },
    {
      "anonymous": false,
      "inputs": [
        {
          "indexed": false,
          "internalType": "address",
          "name": "oldBlocklist",
          "type": "address"
        },
        {
          "indexed": false,
          "internalType": "address",
          "name": "newBlocklist",
          "type": "address"
        }
      ],
      "name": "BlocklistSet",
      "type": "event"
    },
    {
      "anonymous": false,
      "inputs": [
        {
          "indexed": false,
          "internalType": "uint8",
          "name": "version",
          "type": "uint8"
        }
      ],
      "name": "Initialized",
      "type": "event"
    },
    {
      "anonymous": false,
      "inputs": [
        {
          "indexed": false,
          "internalType": "address",
          "name": "account",
          "type": "address"
        }
      ],
      "name": "Paused",
      "type": "event"
    },
    {
      "anonymous": false,
      "inputs": [
        {
          "indexed": true,
          "internalType": "bytes32",
          "name": "role",
          "type": "bytes32"
        },
        {
          "indexed": true,
          "internalType": "bytes32",
          "name": "previousAdminRole",
          "type": "bytes32"
        },
        {
          "indexed": true,
          "internalType": "bytes32",
          "name": "newAdminRole",
          "type": "bytes32"
        }
      ],
      "name": "RoleAdminChanged",
      "type": "event"
    },
    {
      "anonymous": false,
      "inputs": [
        {
          "indexed": true,
          "internalType": "bytes32",
          "name": "role",
          "type": "bytes32"
        },
        {
          "indexed": true,
          "internalType": "address",
          "name": "account",
          "type": "address"
        },
        {
          "indexed": true,
          "internalType": "address",
          "name": "sender",
          "type": "address"
        }
      ],
      "name": "RoleGranted",
      "type": "event"
    },
    {
      "anonymous": false,
      "inputs": [
        {
          "indexed": true,
          "internalType": "bytes32",
          "name": "role",
          "type": "bytes32"
        },
        {
          "indexed": true,
          "internalType": "address",
          "name": "account",
          "type": "address"
        },
        {
          "indexed": true,
          "internalType": "address",
          "name": "sender",
          "type": "address"
        }
      ],
      "name": "RoleRevoked",
      "type": "event"
    },
    {
      "anonymous": false,
      "inputs": [
        {
          "indexed": false,
          "internalType": "address",
          "name": "oldSanctionsList",
          "type": "address"
        },
        {
          "indexed": false,
          "internalType": "address",
          "name": "newSanctionsList",
          "type": "address"
        }
      ],
      "name": "SanctionsListSet",
      "type": "event"
    },
    {
      "anonymous": false,
      "inputs": [
        {
          "indexed": true,
          "internalType": "address",
          "name": "from",
          "type": "address"
        },
        {
          "indexed": true,
          "internalType": "address",
          "name": "to",
          "type": "address"
        },
        {
          "indexed": false,
          "internalType": "uint256",
          "name": "value",
          "type": "uint256"
        }
      ],
      "name": "Transfer",
      "type": "event"
    },
    {
      "anonymous": false,
      "inputs": [
        {
          "indexed": false,
          "internalType": "address",
          "name": "account",
          "type": "address"
        }
      ],
      "name": "Unpaused",
      "type": "event"
    },
    {
      "inputs": [],
      "name": "BURNER_ROLE",
      "outputs": [
        {
          "internalType": "bytes32",
          "name": "",
          "type": "bytes32"
        }
      ],
      "stateMutability": "view",
      "type": "function"
    },
    {
      "inputs": [],
      "name": "DEFAULT_ADMIN_ROLE",
      "outputs": [
        {
          "internalType": "bytes32",
          "name": "",
          "type": "bytes32"
        }
      ],
      "stateMutability": "view",
      "type": "function"
    },
    {
      "inputs": [],
      "name": "LIST_CONFIGURER_ROLE",
      "outputs": [
        {
          "internalType": "bytes32",
          "name": "",
          "type": "bytes32"
        }
      ],
      "stateMutability": "view",
      "type": "function"
    },
    {
      "inputs": [],
      "name": "MINTER_ROLE",
      "outputs": [
        {
          "internalType": "bytes32",
          "name": "",
          "type": "bytes32"
        }
      ],
      "stateMutability": "view",
      "type": "function"
    },
    {
      "inputs": [],
      "name": "PAUSER_ROLE",
      "outputs": [
        {
          "internalType": "bytes32",
          "name": "",
          "type": "bytes32"
        }
      ],
      "stateMutability": "view",
      "type": "function"
    },
    {
      "inputs": [
        {
          "internalType": "address",
          "name": "owner",
          "type": "address"
        },
        {
          "internalType": "address",
          "name": "spender",
          "type": "address"
        }
      ],
      "name": "allowance",
      "outputs": [
        {
          "internalType": "uint256",
          "name": "",
          "type": "uint256"
        }
      ],
      "stateMutability": "view",
      "type": "function"
    },
    {
      "inputs": [],
      "name": "allowlist",
      "outputs": [
        {
          "internalType": "contract IAllowlist",
          "name": "",
          "type": "address"
        }
      ],
      "stateMutability": "view",
      "type": "function"
    },
    {
      "inputs": [
        {
          "internalType": "address",
          "name": "spender",
          "type": "address"
        },
        {
          "internalType": "uint256",
          "name": "amount",
          "type": "uint256"
        }
      ],
      "name": "approve",
      "outputs": [
        {
          "internalType": "bool",
          "name": "",
          "type": "bool"
        }
      ],
      "stateMutability": "nonpayable",
      "type": "function"
    },
    {
      "inputs": [
        {
          "internalType": "address",
          "name": "account",
          "type": "address"
        }
      ],
      "name": "balanceOf",
      "outputs": [
        {
          "internalType": "uint256",
          "name": "",
          "type": "uint256"
        }
      ],
      "stateMutability": "view",
      "type": "function"
    },
    {
      "inputs": [],
      "name": "blocklist",
      "outputs": [
        {
          "internalType": "contract IBlocklist",
          "name": "",
          "type": "address"
        }
      ],
      "stateMutability": "view",
      "type": "function"
    },
    {
      "inputs": [
        {
          "internalType": "uint256",
          "name": "amount",
          "type": "uint256"
        }
      ],
      "name": "burn",
      "outputs": [],
      "stateMutability": "nonpayable",
      "type": "function"
    },
    {
      "inputs": [
        {
          "internalType": "address",
          "name": "from",
          "type": "address"
        },
        {
          "internalType": "uint256",
          "name": "amount",
          "type": "uint256"
        }
      ],
      "name": "burn",
      "outputs": [],
      "stateMutability": "nonpayable",
      "type": "function"
    },
    {
      "inputs": [
        {
          "internalType": "address",
          "name": "account",
          "type": "address"
        },
        {
          "internalType": "uint256",
          "name": "amount",
          "type": "uint256"
        }
      ],
      "name": "burnFrom",
      "outputs": [],
      "stateMutability": "nonpayable",
      "type": "function"
    },
    {
      "inputs": [],
      "name": "decimals",
      "outputs": [
        {
          "internalType": "uint8",
          "name": "",
          "type": "uint8"
        }
      ],
      "stateMutability": "view",
      "type": "function"
    },
    {
      "inputs": [
        {
          "internalType": "address",
          "name": "spender",
          "type": "address"
        },
        {
          "internalType": "uint256",
          "name": "subtractedValue",
          "type": "uint256"
        }
      ],
      "name": "decreaseAllowance",
      "outputs": [
        {
          "internalType": "bool",
          "name": "",
          "type": "bool"
        }
      ],
      "stateMutability": "nonpayable",
      "type": "function"
    },
    {
      "inputs": [
        {
          "internalType": "bytes32",
          "name": "role",
          "type": "bytes32"
        }
      ],
      "name": "getRoleAdmin",
      "outputs": [
        {
          "internalType": "bytes32",
          "name": "",
          "type": "bytes32"
        }
      ],
      "stateMutability": "view",
      "type": "function"
    },
    {
      "inputs": [
        {
          "internalType": "bytes32",
          "name": "role",
          "type": "bytes32"
        },
        {
          "internalType": "uint256",
          "name": "index",
          "type": "uint256"
        }
      ],
      "name": "getRoleMember",
      "outputs": [
        {
          "internalType": "address",
          "name": "",
          "type": "address"
        }
      ],
      "stateMutability": "view",
      "type": "function"
    },
    {
      "inputs": [
        {
          "internalType": "bytes32",
          "name": "role",
          "type": "bytes32"
        }
      ],
      "name": "getRoleMemberCount",
      "outputs": [
        {
          "internalType": "uint256",
          "name": "",
          "type": "uint256"
        }
      ],
      "stateMutability": "view",
      "type": "function"
    },
    {
      "inputs": [
        {
          "internalType": "bytes32",
          "name": "role",
          "type": "bytes32"
        },
        {
          "internalType": "address",
          "name": "account",
          "type": "address"
        }
      ],
      "name": "grantRole",
      "outputs": [],
      "stateMutability": "nonpayable",
      "type": "function"
    },
    {
      "inputs": [
        {
          "internalType": "bytes32",
          "name": "role",
          "type": "bytes32"
        },
        {
          "internalType": "address",
          "name": "account",
          "type": "address"
        }
      ],
      "name": "hasRole",
      "outputs": [
        {
          "internalType": "bool",
          "name": "",
          "type": "bool"
        }
      ],
      "stateMutability": "view",
      "type": "function"
    },
    {
      "inputs": [
        {
          "internalType": "address",
          "name": "spender",
          "type": "address"
        },
        {
          "internalType": "uint256",
          "name": "addedValue",
          "type": "uint256"
        }
      ],
      "name": "increaseAllowance",
      "outputs": [
        {
          "internalType": "bool",
          "name": "",
          "type": "bool"
        }
      ],
      "stateMutability": "nonpayable",
      "type": "function"
    },
    {
      "inputs": [
        {
          "internalType": "string",
          "name": "name",
          "type": "string"
        },
        {
          "internalType": "string",
          "name": "symbol",
          "type": "string"
        }
      ],
      "name": "initialize",
      "outputs": [],
      "stateMutability": "nonpayable",
      "type": "function"
    },
    {
      "inputs": [
        {
          "internalType": "string",
          "name": "name",
          "type": "string"
        },
        {
          "internalType": "string",
          "name": "symbol",
          "type": "string"
        },
        {
          "internalType": "address",
          "name": "blocklist",
          "type": "address"
        },
        {
          "internalType": "address",
          "name": "allowlist",
          "type": "address"
        },
        {
          "internalType": "address",
          "name": "sanctionsList",
          "type": "address"
        }
      ],
      "name": "initialize",
      "outputs": [],
      "stateMutability": "nonpayable",
      "type": "function"
    },
    {
      "inputs": [
        {
          "internalType": "address",
          "name": "to",
          "type": "address"
        },
        {
          "internalType": "uint256",
          "name": "amount",
          "type": "uint256"
        }
      ],
      "name": "mint",
      "outputs": [],
      "stateMutability": "nonpayable",
      "type": "function"
    },
    {
      "inputs": [],
      "name": "name",
      "outputs": [
        {
          "internalType": "string",
          "name": "",
          "type": "string"
        }
      ],
      "stateMutability": "view",
      "type": "function"
    },
    {
      "inputs": [],
      "name": "pause",
      "outputs": [],
      "stateMutability": "nonpayable",
      "type": "function"
    },
    {
      "inputs": [],
      "name": "paused",
      "outputs": [
        {
          "internalType": "bool",
          "name": "",
          "type": "bool"
        }
      ],
      "stateMutability": "view",
      "type": "function"
    },
    {
      "inputs": [
        {
          "internalType": "bytes32",
          "name": "role",
          "type": "bytes32"
        },
        {
          "internalType": "address",
          "name": "account",
          "type": "address"
        }
      ],
      "name": "renounceRole",
      "outputs": [],
      "stateMutability": "nonpayable",
      "type": "function"
    },
    {
      "inputs": [
        {
          "internalType": "bytes32",
          "name": "role",
          "type": "bytes32"
        },
        {
          "internalType": "address",
          "name": "account",
          "type": "address"
        }
      ],
      "name": "revokeRole",
      "outputs": [],
      "stateMutability": "nonpayable",
      "type": "function"
    },
    {
      "inputs": [],
      "name": "sanctionsList",
      "outputs": [
        {
          "internalType": "contract ISanctionsList",
          "name": "",
          "type": "address"
        }
      ],
      "stateMutability": "view",
      "type": "function"
    },
    {
      "inputs": [
        {
          "internalType": "address",
          "name": "allowlist",
          "type": "address"
        }
      ],
      "name": "setAllowlist",
      "outputs": [],
      "stateMutability": "nonpayable",
      "type": "function"
    },
    {
      "inputs": [
        {
          "internalType": "address",
          "name": "blocklist",
          "type": "address"
        }
      ],
      "name": "setBlocklist",
      "outputs": [],
      "stateMutability": "nonpayable",
      "type": "function"
    },
    {
      "inputs": [
        {
          "internalType": "address",
          "name": "sanctionsList",
          "type": "address"
        }
      ],
      "name": "setSanctionsList",
      "outputs": [],
      "stateMutability": "nonpayable",
      "type": "function"
    },
    {
      "inputs": [
        {
          "internalType": "bytes4",
          "name": "interfaceId",
          "type": "bytes4"
        }
      ],
      "name": "supportsInterface",
      "outputs": [
        {
          "internalType": "bool",
          "name": "",
          "type": "bool"
        }
      ],
      "stateMutability": "view",
      "type": "function"
    },
    {
      "inputs": [],
      "name": "symbol",
      "outputs": [
        {
          "internalType": "string",
          "name": "",
          "type": "string"
        }
      ],
      "stateMutability": "view",
      "type": "function"
    },
    {
      "inputs": [],
      "name": "totalSupply",
      "outputs": [
        {
          "internalType": "uint256",
          "name": "",
          "type": "uint256"
        }
      ],
      "stateMutability": "view",
      "type": "function"
    },
    {
      "inputs": [
        {
          "internalType": "address",
          "name": "to",
          "type": "address"
        },
        {
          "internalType": "uint256",
          "name": "amount",
          "type": "uint256"
        }
      ],
      "name": "transfer",
      "outputs": [
        {
          "internalType": "bool",
          "name": "",
          "type": "bool"
        }
      ],
      "stateMutability": "nonpayable",
      "type": "function"
    },
    {
      "inputs": [
        {
          "internalType": "address",
          "name": "from",
          "type": "address"
        },
        {
          "internalType": "address",
          "name": "to",
          "type": "address"
        },
        {
          "internalType": "uint256",
          "name": "amount",
          "type": "uint256"
        }
      ],
      "name": "transferFrom",
      "outputs": [
        {
          "internalType": "bool",
          "name": "",
          "type": "bool"
        }
      ],
      "stateMutability": "nonpayable",
      "type": "function"
    },
    {
      "inputs": [],
      "name": "unpause",
      "outputs": [],
      "stateMutability": "nonpayable",
      "type": "function"
    }
  ],
  "solcInputHash": "9aa0d944e74cb8113a4b1fcc33c6565d",
  "bytecode": "0x60806040523480156200001157600080fd5b506200001c62000022565b620000e4565b600054610100900460ff16156200008f5760405162461bcd60e51b815260206004820152602760248201527f496e697469616c697a61626c653a20636f6e747261637420697320696e697469604482015266616c697a696e6760c81b606482015260840160405180910390fd5b60005460ff9081161015620000e2576000805460ff191660ff9081179091556040519081527f7f26b83ff96e1f2b6a682f133852f6798a09c465da95921460cefb38474024989060200160405180910390a15b565b6127e480620000f46000396000f3fe608060405234801561001057600080fd5b506004361061022d5760003560e01c806370a082311161013b578063aef18ae7116100b8578063d64e53961161007c578063d64e5396146104e5578063db0ed6a0146104f9578063dd62ed3e1461050c578063e63ab1e91461051f578063ec571c6a1461053457600080fd5b8063aef18ae714610482578063bf1d5b8f14610495578063ca15c873146104aa578063d5391393146104bd578063d547741f146104d257600080fd5b806395d89b41116100ff57806395d89b41146104395780639dc29fac14610441578063a217fddf14610454578063a457c2d71461045c578063a9059cbb1461046f57600080fd5b806370a08231146103cf57806379cc6790146103f85780638456cb591461040b5780639010d07c1461041357806391d148541461042657600080fd5b8063313ce567116101c957806342966c681161018d57806342966c681461037757806349dc5e8d1461038a5780634cd88b761461039d57806358bf3c7f146103b05780635c975abb146103c357600080fd5b8063313ce5671461032757806336568abe1461033657806339509351146103495780633f4ba83a1461035c57806340c10f191461036457600080fd5b806301ffc9a71461023257806306fdde031461025a578063095ea7b31461026f57806318160ddd1461028257806323b872dd14610294578063248a9ca3146102a7578063282c51f3146102ca5780632b47da52146102f15780632f2ff15d14610312575b600080fd5b61024561024036600461208c565b610548565b60405190151581526020015b60405180910390f35b610262610573565b60405161025191906120da565b61024561027d366004612129565b610605565b60cb545b604051908152602001610251565b6102456102a2366004612153565b61061d565b6102866102b536600461218f565b60009081526065602052604090206001015490565b6102867f3c11d16cbaffd01df69ce1c404f6340ee057498f5f00246190ea54220576a84881565b6101f654610305906001600160a01b031681565b60405161025191906121a8565b6103256103203660046121bc565b610641565b005b60405160128152602001610251565b6103256103443660046121bc565b61066b565b610245610357366004612129565b6106ee565b610325610710565b610325610372366004612129565b61078e565b61032561038536600461218f565b610809565b6103256103983660046121e8565b610816565b6103256103ab3660046122a6565b610837565b6103256103be3660046121e8565b610904565b61012d5460ff16610245565b6102866103dd3660046121e8565b6001600160a01b0316600090815260c9602052604090205490565b610325610406366004612129565b610925565b61032561093a565b61030561042136600461230a565b6109b4565b6102456104343660046121bc565b6109d3565b6102626109fe565b61032561044f366004612129565b610a0d565b610286600081565b61024561046a366004612129565b610a41565b61024561047d366004612129565b610abc565b6103256104903660046121e8565b610aca565b61028660008051602061278f83398151915281565b6102866104b836600461218f565b610aeb565b61028660008051602061274f83398151915281565b6103256104e03660046121bc565b610b02565b6101c354610305906001600160a01b031681565b61032561050736600461232c565b610b27565b61028661051a3660046123c2565b610c13565b61028660008051602061272f83398151915281565b61022954610305906001600160a01b031681565b60006001600160e01b03198216635a05180f60e01b148061056d575061056d82610c3e565b92915050565b606060cc8054610582906123ec565b80601f01602080910402602001604051908101604052809291908181526020018280546105ae906123ec565b80156105fb5780601f106105d0576101008083540402835291602001916105fb565b820191906000526020600020905b8154815290600101906020018083116105de57829003601f168201915b5050505050905090565b600033610613818585610c73565b5060019392505050565b60003361062b858285610d97565b610636858585610e11565b506001949350505050565b60008281526065602052604090206001015461065c81610fd8565b6106668383610fe2565b505050565b6001600160a01b03811633146106e05760405162461bcd60e51b815260206004820152602f60248201527f416363657373436f6e74726f6c3a2063616e206f6e6c792072656e6f756e636560448201526e103937b632b9903337b91039b2b63360891b60648201526084015b60405180910390fd5b6106ea8282611004565b5050565b6000336106138185856107018383610c13565b61070b919061243c565b610c73565b61072860008051602061272f833981519152336109d3565b6107845760405162461bcd60e51b8152602060048201526039602482015260008051602061270f83398151915260448201527876652070617573657220726f6c6520746f20756e706175736560381b60648201526084016106d7565b61078c611026565b565b6107a660008051602061274f833981519152336109d3565b6107ff5760405162461bcd60e51b8152602060048201526036602482015260008051602061270f8339815191526044820152751d99481b5a5b9d195c881c9bdb19481d1bc81b5a5b9d60521b60648201526084016106d7565b6106ea8282611073565b610813338261114c565b50565b60008051602061278f83398151915261082e81610fd8565b6106ea82611294565b600054610100900460ff16158080156108575750600054600160ff909116105b806108715750303b158015610871575060005460ff166001145b61088d5760405162461bcd60e51b81526004016106d79061244f565b6000805460ff1916600117905580156108b0576000805461ff0019166101001790555b6108ba838361131b565b8015610666576000805461ff0019169055604051600181527f7f26b83ff96e1f2b6a682f133852f6798a09c465da95921460cefb38474024989060200160405180910390a1505050565b60008051602061278f83398151915261091c81610fd8565b6106ea8261135e565b610930823383610d97565b6106ea828261114c565b61095260008051602061272f833981519152336109d3565b6109ac5760405162461bcd60e51b8152602060048201526037602482015260008051602061270f83398151915260448201527676652070617573657220726f6c6520746f20706175736560481b60648201526084016106d7565b61078c6113d9565b60008281526097602052604081206109cc9083611417565b9392505050565b60009182526065602090815260408084206001600160a01b0393909316845291905290205460ff1690565b606060cd8054610582906123ec565b7f3c11d16cbaffd01df69ce1c404f6340ee057498f5f00246190ea54220576a848610a3781610fd8565b610666838361114c565b60003381610a4f8286610c13565b905083811015610aaf5760405162461bcd60e51b815260206004820152602560248201527f45524332303a2064656372656173656420616c6c6f77616e63652062656c6f77604482015264207a65726f60d81b60648201526084016106d7565b6106368286868403610c73565b600033610613818585610e11565b60008051602061278f833981519152610ae281610fd8565b6106ea82611423565b600081815260976020526040812061056d9061149e565b600082815260656020526040902060010154610b1d81610fd8565b6106668383611004565b600054610100900460ff1615808015610b475750600054600160ff909116105b80610b615750303b158015610b61575060005460ff166001145b610b7d5760405162461bcd60e51b81526004016106d79061244f565b6000805460ff191660011790558015610ba0576000805461ff0019166101001790555b610baa868661131b565b610bb3846114a8565b610bbc836114d8565b610bc582611508565b8015610c0b576000805461ff0019169055604051600181527f7f26b83ff96e1f2b6a682f133852f6798a09c465da95921460cefb38474024989060200160405180910390a15b505050505050565b6001600160a01b03918216600090815260ca6020908152604080832093909416825291909152205490565b60006001600160e01b03198216637965db0b60e01b148061056d57506301ffc9a760e01b6001600160e01b031983161461056d565b6001600160a01b038316610cd55760405162461bcd60e51b8152602060048201526024808201527f45524332303a20617070726f76652066726f6d20746865207a65726f206164646044820152637265737360e01b60648201526084016106d7565b6001600160a01b038216610d365760405162461bcd60e51b815260206004820152602260248201527f45524332303a20617070726f766520746f20746865207a65726f206164647265604482015261737360f01b60648201526084016106d7565b6001600160a01b03838116600081815260ca602090815260408083209487168084529482529182902085905590518481527f8c5be1e5ebec7d5bd14f71427d1e84f3dd0314c0f7b2291e5b200ac8c7c3b925910160405180910390a3505050565b6000610da38484610c13565b90506000198114610e0b5781811015610dfe5760405162461bcd60e51b815260206004820152601d60248201527f45524332303a20696e73756666696369656e7420616c6c6f77616e636500000060448201526064016106d7565b610e0b8484848403610c73565b50505050565b6001600160a01b038316610e755760405162461bcd60e51b815260206004820152602560248201527f45524332303a207472616e736665722066726f6d20746865207a65726f206164604482015264647265737360d81b60648201526084016106d7565b6001600160a01b038216610ed75760405162461bcd60e51b815260206004820152602360248201527f45524332303a207472616e7366657220746f20746865207a65726f206164647260448201526265737360e81b60648201526084016106d7565b610ee2838383611538565b6001600160a01b038316600090815260c9602052604090205481811015610f5a5760405162461bcd60e51b815260206004820152602660248201527f45524332303a207472616e7366657220616d6f756e7420657863656564732062604482015265616c616e636560d01b60648201526084016106d7565b6001600160a01b03808516600090815260c96020526040808220858503905591851681529081208054849290610f9190849061243c565b92505081905550826001600160a01b0316846001600160a01b031660008051602061276f83398151915284604051610fcb91815260200190565b60405180910390a3610e0b565b61081381336118bf565b610fec8282611923565b600082815260976020526040902061066690826119a9565b61100e82826119be565b60008281526097602052604090206106669082611a25565b61102e611a3a565b61012d805460ff191690557f5db9ee0a495bf2e6ff9c91a7834c1ba4fdd244a5e8aa4e537bd38aeae4b073aa335b60405161106991906121a8565b60405180910390a1565b6001600160a01b0382166110c95760405162461bcd60e51b815260206004820152601f60248201527f45524332303a206d696e7420746f20746865207a65726f20616464726573730060448201526064016106d7565b6110d560008383611538565b8060cb60008282546110e7919061243c565b90915550506001600160a01b038216600090815260c960205260408120805483929061111490849061243c565b90915550506040518181526001600160a01b0383169060009060008051602061276f8339815191529060200160405180910390a35050565b6001600160a01b0382166111ac5760405162461bcd60e51b815260206004820152602160248201527f45524332303a206275726e2066726f6d20746865207a65726f206164647265736044820152607360f81b60648201526084016106d7565b6111b882600083611538565b6001600160a01b038216600090815260c960205260409020548181101561122c5760405162461bcd60e51b815260206004820152602260248201527f45524332303a206275726e20616d6f756e7420657863656564732062616c616e604482015261636560f01b60648201526084016106d7565b6001600160a01b038316600090815260c960205260408120838303905560cb805484929061125b90849061249d565b90915550506040518281526000906001600160a01b0385169060008051602061276f8339815191529060200160405180910390a3505050565b6001600160a01b0381166112bb576040516310ce5abd60e21b815260040160405180910390fd5b61022980546001600160a01b038381166001600160a01b03198316179092556040519116907fa19fd4029e820c57308467576d8d0296f07717cfcb98941cf8988b25dcd700e39061130f90839085906124b0565b60405180910390a15050565b600054610100900460ff166113425760405162461bcd60e51b81526004016106d7906124ca565b61134c8282611a84565b611354611ac4565b6106ea8282611af8565b6001600160a01b038116611385576040516314d7e06960e01b815260040160405180910390fd5b6101f680546001600160a01b038381166001600160a01b03198316179092556040519116907f451b0d3ada7fe0de9043f3de5fec87856a83f521b63c4a4c264c9a7d419bca489061130f90839085906124b0565b6113e1611b5a565b61012d805460ff191660011790557f62e78cea01bee320cd4e420270b5ea74000d11b0c9f74754ebdbfc544b05a25861105c3390565b60006109cc8383611ba1565b6001600160a01b03811661144a57604051637e33865360e01b815260040160405180910390fd5b6101c380546001600160a01b038381166001600160a01b03198316179092556040519116907f7e053cdc9069fe4f629b6b3fa2a01bb53a9a8305ec11830b259d95e9e75b73049061130f90839085906124b0565b600061056d825490565b600054610100900460ff166114cf5760405162461bcd60e51b81526004016106d7906124ca565b61081381611bcb565b600054610100900460ff166114ff5760405162461bcd60e51b81526004016106d7906124ca565b61081381611bfb565b600054610100900460ff1661152f5760405162461bcd60e51b81526004016106d7906124ca565b61081381611c2b565b611543838383611c5b565b6001600160a01b038316331480159061156557506001600160a01b0382163314155b156116855761157333611c66565b156115c05760405162461bcd60e51b815260206004820152601e60248201527f555344593a202773656e64657227206164647265737320626c6f636b6564000060448201526064016106d7565b6115c933611cd9565b156116205760405162461bcd60e51b815260206004820152602160248201527f555344593a202773656e6465722720616464726573732073616e6374696f6e656044820152601960fa1b60648201526084016106d7565b61162933611d0b565b6116855760405162461bcd60e51b815260206004820152602760248201527f555344593a202773656e646572272061646472657373206e6f74206f6e20616c6044820152661b1bdddb1a5cdd60ca1b60648201526084016106d7565b6001600160a01b038316156117a35761169d83611c66565b156116ea5760405162461bcd60e51b815260206004820152601c60248201527f555344593a202766726f6d27206164647265737320626c6f636b65640000000060448201526064016106d7565b6116f383611cd9565b156117405760405162461bcd60e51b815260206004820152601f60248201527f555344593a202766726f6d2720616464726573732073616e6374696f6e65640060448201526064016106d7565b61174983611d0b565b6117a35760405162461bcd60e51b815260206004820152602560248201527f555344593a202766726f6d272061646472657373206e6f74206f6e20616c6c6f6044820152641ddb1a5cdd60da1b60648201526084016106d7565b6001600160a01b03821615610666576117bb82611c66565b156118085760405162461bcd60e51b815260206004820152601a60248201527f555344593a2027746f27206164647265737320626c6f636b656400000000000060448201526064016106d7565b61181182611cd9565b1561185e5760405162461bcd60e51b815260206004820152601d60248201527f555344593a2027746f2720616464726573732073616e6374696f6e656400000060448201526064016106d7565b61186782611d0b565b6106665760405162461bcd60e51b815260206004820152602360248201527f555344593a2027746f272061646472657373206e6f74206f6e20616c6c6f776c6044820152621a5cdd60ea1b60648201526084016106d7565b6118c982826109d3565b6106ea576118e1816001600160a01b03166014611d3d565b6118ec836020611d3d565b6040516020016118fd929190612515565b60408051601f198184030181529082905262461bcd60e51b82526106d7916004016120da565b61192d82826109d3565b6106ea5760008281526065602090815260408083206001600160a01b03851684529091529020805460ff191660011790556119653390565b6001600160a01b0316816001600160a01b0316837f2f8788117e7eff1d82e926ec794901d17c78024a50270940304540a733656f0d60405160405180910390a45050565b60006109cc836001600160a01b038416611ed9565b6119c882826109d3565b156106ea5760008281526065602090815260408083206001600160a01b0385168085529252808320805460ff1916905551339285917ff6391f5c32d9c69d2a47ea670b442974b53935d1edc7fd64eb21e047a839171b9190a45050565b60006109cc836001600160a01b038416611f28565b61012d5460ff1661078c5760405162461bcd60e51b815260206004820152601460248201527314185d5cd8589b194e881b9bdd081c185d5cd95960621b60448201526064016106d7565b600054610100900460ff16611aab5760405162461bcd60e51b81526004016106d7906124ca565b60cc611ab783826125ca565b5060cd61066682826125ca565b600054610100900460ff16611aeb5760405162461bcd60e51b81526004016106d7906124ca565b61012d805460ff19169055565b600054610100900460ff16611b1f5760405162461bcd60e51b81526004016106d7906124ca565b611b2a60003361201b565b611b4260008051602061274f8339815191523361201b565b6106ea60008051602061272f8339815191523361201b565b61012d5460ff161561078c5760405162461bcd60e51b815260206004820152601060248201526f14185d5cd8589b194e881c185d5cd95960821b60448201526064016106d7565b6000826000018281548110611bb857611bb861268a565b9060005260206000200154905092915050565b600054610100900460ff16611bf25760405162461bcd60e51b81526004016106d7906124ca565b61081381611423565b600054610100900460ff16611c225760405162461bcd60e51b81526004016106d7906124ca565b6108138161135e565b600054610100900460ff16611c525760405162461bcd60e51b81526004016106d7906124ca565b61081381611294565b610666838383612025565b6101c35460405163fbac395160e01b81526000916001600160a01b03169063fbac395190611c989085906004016121a8565b602060405180830381865afa158015611cb5573d6000803e3d6000fd5b505050506040513d601f19601f8201168201806040525081019061056d91906126a0565b6102295460405163df592f7d60e01b81526000916001600160a01b03169063df592f7d90611c989085906004016121a8565b6101f65460405163babcc53960e01b81526000916001600160a01b03169063babcc53990611c989085906004016121a8565b60606000611d4c8360026126c2565b611d5790600261243c565b67ffffffffffffffff811115611d6f57611d6f612203565b6040519080825280601f01601f191660200182016040528015611d99576020820181803683370190505b509050600360fc1b81600081518110611db457611db461268a565b60200101906001600160f81b031916908160001a905350600f60fb1b81600181518110611de357611de361268a565b60200101906001600160f81b031916908160001a9053506000611e078460026126c2565b611e1290600161243c565b90505b6001811115611e8a576f181899199a1a9b1b9c1cb0b131b232b360811b85600f1660108110611e4657611e4661268a565b1a60f81b828281518110611e5c57611e5c61268a565b60200101906001600160f81b031916908160001a90535060049490941c93611e83816126e1565b9050611e15565b5083156109cc5760405162461bcd60e51b815260206004820181905260248201527f537472696e67733a20686578206c656e67746820696e73756666696369656e7460448201526064016106d7565b6000818152600183016020526040812054611f205750815460018181018455600084815260208082209093018490558454848252828601909352604090209190915561056d565b50600061056d565b60008181526001830160205260408120548015612011576000611f4c60018361249d565b8554909150600090611f609060019061249d565b9050818114611fc5576000866000018281548110611f8057611f8061268a565b9060005260206000200154905080876000018481548110611fa357611fa361268a565b6000918252602080832090910192909255918252600188019052604090208390555b8554869080611fd657611fd66126f8565b60019003818190600052602060002001600090559055856001016000868152602001908152602001600020600090556001935050505061056d565b600091505061056d565b6106ea8282610fe2565b61012d5460ff16156106665760405162461bcd60e51b815260206004820152602a60248201527f45524332305061757361626c653a20746f6b656e207472616e736665722077686044820152691a5b19481c185d5cd95960b21b60648201526084016106d7565b60006020828403121561209e57600080fd5b81356001600160e01b0319811681146109cc57600080fd5b60005b838110156120d15781810151838201526020016120b9565b50506000910152565b60208152600082518060208401526120f98160408501602087016120b6565b601f01601f19169190910160400192915050565b80356001600160a01b038116811461212457600080fd5b919050565b6000806040838503121561213c57600080fd5b6121458361210d565b946020939093013593505050565b60008060006060848603121561216857600080fd5b6121718461210d565b925061217f6020850161210d565b9150604084013590509250925092565b6000602082840312156121a157600080fd5b5035919050565b6001600160a01b0391909116815260200190565b600080604083850312156121cf57600080fd5b823591506121df6020840161210d565b90509250929050565b6000602082840312156121fa57600080fd5b6109cc8261210d565b634e487b7160e01b600052604160045260246000fd5b600082601f83011261222a57600080fd5b813567ffffffffffffffff8082111561224557612245612203565b604051601f8301601f19908116603f0116810190828211818310171561226d5761226d612203565b8160405283815286602085880101111561228657600080fd5b836020870160208301376000602085830101528094505050505092915050565b600080604083850312156122b957600080fd5b823567ffffffffffffffff808211156122d157600080fd5b6122dd86838701612219565b935060208501359150808211156122f357600080fd5b5061230085828601612219565b9150509250929050565b6000806040838503121561231d57600080fd5b50508035926020909101359150565b600080600080600060a0868803121561234457600080fd5b853567ffffffffffffffff8082111561235c57600080fd5b61236889838a01612219565b9650602088013591508082111561237e57600080fd5b5061238b88828901612219565b94505061239a6040870161210d565b92506123a86060870161210d565b91506123b66080870161210d565b90509295509295909350565b600080604083850312156123d557600080fd5b6123de8361210d565b91506121df6020840161210d565b600181811c9082168061240057607f821691505b60208210810361242057634e487b7160e01b600052602260045260246000fd5b50919050565b634e487b7160e01b600052601160045260246000fd5b8082018082111561056d5761056d612426565b6020808252602e908201527f496e697469616c697a61626c653a20636f6e747261637420697320616c72656160408201526d191e481a5b9a5d1a585b1a5e995960921b606082015260800190565b8181038181111561056d5761056d612426565b6001600160a01b0392831681529116602082015260400190565b6020808252602b908201527f496e697469616c697a61626c653a20636f6e7472616374206973206e6f74206960408201526a6e697469616c697a696e6760a81b606082015260800190565b76020b1b1b2b9b9a1b7b73a3937b61d1030b1b1b7bab73a1604d1b8152600083516125478160178501602088016120b6565b7001034b99036b4b9b9b4b733903937b6329607d1b60179184019182015283516125788160288401602088016120b6565b01602801949350505050565b601f82111561066657600081815260208120601f850160051c810160208610156125ab5750805b601f850160051c820191505b81811015610c0b578281556001016125b7565b815167ffffffffffffffff8111156125e4576125e4612203565b6125f8816125f284546123ec565b84612584565b602080601f83116001811461262d57600084156126155750858301515b600019600386901b1c1916600185901b178555610c0b565b600085815260208120601f198616915b8281101561265c5788860151825594840194600190910190840161263d565b508582101561267a5787850151600019600388901b60f8161c191681555b5050505050600190811b01905550565b634e487b7160e01b600052603260045260246000fd5b6000602082840312156126b257600080fd5b815180151581146109cc57600080fd5b60008160001904831182151516156126dc576126dc612426565b500290565b6000816126f0576126f0612426565b506000190190565b634e487b7160e01b600052603160045260246000fdfe45524332305072657365744d696e7465725061757365723a206d75737420686165d7a28e3265b37a6474929f336521b332c1681b933f6cb9f3376673440d862a9f2df0fed2c77648de5860a4cc508cd0818c85b8b8a1ab4ceeef8d981c8956a6ddf252ad1be2c89b69c2b068fc378daa952ba7f163c4a11628f55a4df523b3efa74faf88a584437bd0449f37007060732f2e252b1607e7286651c9b6c1a74cbaa264697066735822122034d5dca9d1102166d0c5faeb9272cb1e9c95b6862d935279d19ea165fa62954a64736f6c63430008100033",
  "devdoc": {
    "kind": "dev",
    "methods": {
      "allowance(address,address)": {
        "details": "See {IERC20-allowance}."
      },
      "approve(address,uint256)": {
        "details": "See {IERC20-approve}. NOTE: If `amount` is the maximum `uint256`, the allowance is not updated on `transferFrom`. This is semantically equivalent to an infinite approval. Requirements: - `spender` cannot be the zero address."
      },
      "balanceOf(address)": {
        "details": "See {IERC20-balanceOf}."
      },
      "burn(address,uint256)": {
        "details": "This function can be considered an admin-burn and is only callable      by an address with the `BURNER_ROLE`",
        "params": {
          "amount": "The amount of token to be burned",
          "from": "The account whose tokens will be burned"
        }
      },
      "burn(uint256)": {
        "details": "Destroys `amount` tokens from the caller. See {ERC20-_burn}."
      },
      "burnFrom(address,uint256)": {
        "details": "Destroys `amount` tokens from `account`, deducting from the caller's allowance. See {ERC20-_burn} and {ERC20-allowance}. Requirements: - the caller must have allowance for ``accounts``'s tokens of at least `amount`."
      },
      "constructor": {
        "custom:oz-upgrades-unsafe-allow": "constructor"
      },
      "decimals()": {
        "details": "Returns the number of decimals used to get its user representation. For example, if `decimals` equals `2`, a balance of `505` tokens should be displayed to a user as `5.05` (`505 / 10 ** 2`). Tokens usually opt for a value of 18, imitating the relationship between Ether and Wei. This is the value {ERC20} uses, unless this function is overridden; NOTE: This information is only used for _display_ purposes: it in no way affects any of the arithmetic of the contract, including {IERC20-balanceOf} and {IERC20-transfer}."
      },
      "decreaseAllowance(address,uint256)": {
        "details": "Atomically decreases the allowance granted to `spender` by the caller. This is an alternative to {approve} that can be used as a mitigation for problems described in {IERC20-approve}. Emits an {Approval} event indicating the updated allowance. Requirements: - `spender` cannot be the zero address. - `spender` must have allowance for the caller of at least `subtractedValue`."
      },
      "getRoleAdmin(bytes32)": {
        "details": "Returns the admin role that controls `role`. See {grantRole} and {revokeRole}. To change a role's admin, use {_setRoleAdmin}."
      },
      "getRoleMember(bytes32,uint256)": {
        "details": "Returns one of the accounts that have `role`. `index` must be a value between 0 and {getRoleMemberCount}, non-inclusive. Role bearers are not sorted in any particular way, and their ordering may change at any point. WARNING: When using {getRoleMember} and {getRoleMemberCount}, make sure you perform all queries on the same block. See the following https://forum.openzeppelin.com/t/iterating-over-elements-on-enumerableset-in-openzeppelin-contracts/2296[forum post] for more information."
      },
      "getRoleMemberCount(bytes32)": {
        "details": "Returns the number of accounts that have `role`. Can be used together with {getRoleMember} to enumerate all bearers of a role."
      },
      "grantRole(bytes32,address)": {
        "details": "Grants `role` to `account`. If `account` had not been already granted `role`, emits a {RoleGranted} event. Requirements: - the caller must have ``role``'s admin role. May emit a {RoleGranted} event."
      },
      "hasRole(bytes32,address)": {
        "details": "Returns `true` if `account` has been granted `role`."
      },
      "increaseAllowance(address,uint256)": {
        "details": "Atomically increases the allowance granted to `spender` by the caller. This is an alternative to {approve} that can be used as a mitigation for problems described in {IERC20-approve}. Emits an {Approval} event indicating the updated allowance. Requirements: - `spender` cannot be the zero address."
      },
      "mint(address,uint256)": {
        "details": "Creates `amount` new tokens for `to`. See {ERC20-_mint}. Requirements: - the caller must have the `MINTER_ROLE`."
      },
      "name()": {
        "details": "Returns the name of the token."
      },
      "pause()": {
        "details": "Pauses all token transfers. See {ERC20Pausable} and {Pausable-_pause}. Requirements: - the caller must have the `PAUSER_ROLE`."
      },
      "paused()": {
        "details": "Returns true if the contract is paused, and false otherwise."
      },
      "renounceRole(bytes32,address)": {
        "details": "Revokes `role` from the calling account. Roles are often managed via {grantRole} and {revokeRole}: this function's purpose is to provide a mechanism for accounts to lose their privileges if they are compromised (such as when a trusted device is misplaced). If the calling account had been revoked `role`, emits a {RoleRevoked} event. Requirements: - the caller must be `account`. May emit a {RoleRevoked} event."
      },
      "revokeRole(bytes32,address)": {
        "details": "Revokes `role` from `account`. If `account` had been granted `role`, emits a {RoleRevoked} event. Requirements: - the caller must have ``role``'s admin role. May emit a {RoleRevoked} event."
      },
      "setAllowlist(address)": {
        "params": {
          "allowlist": "New allowlist address"
        }
      },
      "setBlocklist(address)": {
        "params": {
          "blocklist": "New blocklist address"
        }
      },
      "setSanctionsList(address)": {
        "params": {
          "sanctionsList": "New sanctions list address"
        }
      },
      "supportsInterface(bytes4)": {
        "details": "See {IERC165-supportsInterface}."
      },
      "symbol()": {
        "details": "Returns the symbol of the token, usually a shorter version of the name."
      },
      "totalSupply()": {
        "details": "See {IERC20-totalSupply}."
      },
      "transfer(address,uint256)": {
        "details": "See {IERC20-transfer}. Requirements: - `to` cannot be the zero address. - the caller must have a balance of at least `amount`."
      },
      "transferFrom(address,address,uint256)": {
        "details": "See {IERC20-transferFrom}. Emits an {Approval} event indicating the updated allowance. This is not required by the EIP. See the note at the beginning of {ERC20}. NOTE: Does not update the allowance if the current allowance is the maximum `uint256`. Requirements: - `from` and `to` cannot be the zero address. - `from` must have a balance of at least `amount`. - the caller must have allowance for ``from``'s tokens of at least `amount`."
      },
      "unpause()": {
        "details": "Unpauses all token transfers. See {ERC20Pausable} and {Pausable-_unpause}. Requirements: - the caller must have the `PAUSER_ROLE`."
      }
    },
    "version": 1
  },
  "userdoc": {
    "errors": {
      "AllowlistZeroAddress()": [
        {
          "notice": "Error for when caller attempts to set the allowlist reference         to the zero address."
        }
      ],
      "BlockedAccount()": [
        {
          "notice": "Error for when caller attempts to perform action on a blocked         account"
        }
      ],
      "BlocklistZeroAddress()": [
        {
          "notice": "Error for when caller attempts to set the blocklist reference         to the zero address"
        }
      ],
      "SanctionedAccount()": [
        {
          "notice": "Error for when caller attempts to perform an action on a         sanctioned account"
        }
      ],
      "SanctionsListZeroAddress()": [
        {
          "notice": "Error for when caller attempts to set the `sanctionsList`         reference to the zero address"
        }
      ]
    },
    "kind": "user",
    "methods": {
      "allowlist()": {
        "notice": "Returns reference to the allowlist that this client queries"
      },
      "blocklist()": {
        "notice": "Returns reference to the blocklist that this client queries"
      },
      "burn(address,uint256)": {
        "notice": "Burns a specific amount of tokens"
      },
      "sanctionsList()": {
        "notice": "Returns reference to the sanctions list that this client queries"
      },
      "setAllowlist(address)": {
        "notice": "Sets the allowlist address"
      },
      "setBlocklist(address)": {
        "notice": "Sets the blocklist address"
      },
      "setSanctionsList(address)": {
        "notice": "Sets the sanctions list address"
      }
    },
    "version": 1
  },
  "storageLayout": {
    "storage": [
      {
        "astId": 3967,
        "contract": "contracts/usdy/USDY.sol:USDY",
        "label": "_initialized",
        "offset": 0,
        "slot": "0",
        "type": "t_uint8"
      },
      {
        "astId": 3970,
        "contract": "contracts/usdy/USDY.sol:USDY",
        "label": "_initializing",
        "offset": 1,
        "slot": "0",
        "type": "t_bool"
      },
      {
        "astId": 7330,
        "contract": "contracts/usdy/USDY.sol:USDY",
        "label": "__gap",
        "offset": 0,
        "slot": "1",
        "type": "t_array(t_uint256)50_storage"
      },
      {
        "astId": 7448,
        "contract": "contracts/usdy/USDY.sol:USDY",
        "label": "__gap",
        "offset": 0,
        "slot": "51",
        "type": "t_array(t_uint256)50_storage"
      },
      {
        "astId": 3562,
        "contract": "contracts/usdy/USDY.sol:USDY",
        "label": "_roles",
        "offset": 0,
        "slot": "101",
        "type": "t_mapping(t_bytes32,t_struct(RoleData)3557_storage)"
      },
      {
        "astId": 3861,
        "contract": "contracts/usdy/USDY.sol:USDY",
        "label": "__gap",
        "offset": 0,
        "slot": "102",
        "type": "t_array(t_uint256)49_storage"
      },
      {
        "astId": 3411,
        "contract": "contracts/usdy/USDY.sol:USDY",
        "label": "_roleMembers",
        "offset": 0,
        "slot": "151",
        "type": "t_mapping(t_bytes32,t_struct(AddressSet)7761_storage)"
      },
      {
        "astId": 3521,
        "contract": "contracts/usdy/USDY.sol:USDY",
        "label": "__gap",
        "offset": 0,
        "slot": "152",
        "type": "t_array(t_uint256)49_storage"
      },
      {
        "astId": 4561,
        "contract": "contracts/usdy/USDY.sol:USDY",
        "label": "_balances",
        "offset": 0,
        "slot": "201",
        "type": "t_mapping(t_address,t_uint256)"
      },
      {
        "astId": 4567,
        "contract": "contracts/usdy/USDY.sol:USDY",
        "label": "_allowances",
        "offset": 0,
        "slot": "202",
        "type": "t_mapping(t_address,t_mapping(t_address,t_uint256))"
      },
      {
        "astId": 4569,
        "contract": "contracts/usdy/USDY.sol:USDY",
        "label": "_totalSupply",
        "offset": 0,
        "slot": "203",
        "type": "t_uint256"
      },
      {
        "astId": 4571,
        "contract": "contracts/usdy/USDY.sol:USDY",
        "label": "_name",
        "offset": 0,
        "slot": "204",
        "type": "t_string_storage"
      },
      {
        "astId": 4573,
        "contract": "contracts/usdy/USDY.sol:USDY",
        "label": "_symbol",
        "offset": 0,
        "slot": "205",
        "type": "t_string_storage"
      },
      {
        "astId": 5152,
        "contract": "contracts/usdy/USDY.sol:USDY",
        "label": "__gap",
        "offset": 0,
        "slot": "206",
        "type": "t_array(t_uint256)45_storage"
      },
      {
        "astId": 4301,
        "contract": "contracts/usdy/USDY.sol:USDY",
        "label": "__gap",
        "offset": 0,
        "slot": "251",
        "type": "t_array(t_uint256)50_storage"
      },
      {
        "astId": 4132,
        "contract": "contracts/usdy/USDY.sol:USDY",
        "label": "_paused",
        "offset": 0,
        "slot": "301",
        "type": "t_bool"
      },
      {
        "astId": 4237,
        "contract": "contracts/usdy/USDY.sol:USDY",
        "label": "__gap",
        "offset": 0,
        "slot": "302",
        "type": "t_array(t_uint256)49_storage"
      },
      {
        "astId": 4361,
        "contract": "contracts/usdy/USDY.sol:USDY",
        "label": "__gap",
        "offset": 0,
        "slot": "351",
        "type": "t_array(t_uint256)50_storage"
      },
      {
        "astId": 4541,
        "contract": "contracts/usdy/USDY.sol:USDY",
        "label": "__gap",
        "offset": 0,
        "slot": "401",
        "type": "t_array(t_uint256)50_storage"
      },
      {
        "astId": 19846,
        "contract": "contracts/usdy/USDY.sol:USDY",
        "label": "blocklist",
        "offset": 0,
        "slot": "451",
        "type": "t_contract(IBlocklist)12796"
      },
      {
        "astId": 19927,
        "contract": "contracts/usdy/USDY.sol:USDY",
        "label": "__gap",
        "offset": 0,
        "slot": "452",
        "type": "t_array(t_uint256)50_storage"
      },
      {
        "astId": 18871,
        "contract": "contracts/usdy/USDY.sol:USDY",
        "label": "allowlist",
        "offset": 0,
        "slot": "502",
        "type": "t_contract(IAllowlist)12734"
      },
      {
        "astId": 18952,
        "contract": "contracts/usdy/USDY.sol:USDY",
        "label": "__gap",
        "offset": 0,
        "slot": "503",
        "type": "t_array(t_uint256)50_storage"
      },
      {
        "astId": 17929,
        "contract": "contracts/usdy/USDY.sol:USDY",
        "label": "sanctionsList",
        "offset": 0,
        "slot": "553",
        "type": "t_contract(ISanctionsList)3331"
      },
      {
        "astId": 18010,
        "contract": "contracts/usdy/USDY.sol:USDY",
        "label": "__gap",
        "offset": 0,
        "slot": "554",
        "type": "t_array(t_uint256)50_storage"
      }
    ],
    "types": {
      "t_address": {
        "encoding": "inplace",
        "label": "address",
        "numberOfBytes": "20"
      },
      "t_array(t_bytes32)dyn_storage": {
        "base": "t_bytes32",
        "encoding": "dynamic_array",
        "label": "bytes32[]",
        "numberOfBytes": "32"
      },
      "t_array(t_uint256)45_storage": {
        "base": "t_uint256",
        "encoding": "inplace",
        "label": "uint256[45]",
        "numberOfBytes": "1440"
      },
      "t_array(t_uint256)49_storage": {
        "base": "t_uint256",
        "encoding": "inplace",
        "label": "uint256[49]",
        "numberOfBytes": "1568"
      },
      "t_array(t_uint256)50_storage": {
        "base": "t_uint256",
        "encoding": "inplace",
        "label": "uint256[50]",
        "numberOfBytes": "1600"
      },
      "t_bool": {
        "encoding": "inplace",
        "label": "bool",
        "numberOfBytes": "1"
      },
      "t_bytes32": {
        "encoding": "inplace",
        "label": "bytes32",
        "numberOfBytes": "32"
      },
      "t_contract(IAllowlist)12734": {
        "encoding": "inplace",
        "label": "contract IAllowlist",
        "numberOfBytes": "20"
      },
      "t_contract(IBlocklist)12796": {
        "encoding": "inplace",
        "label": "contract IBlocklist",
        "numberOfBytes": "20"
      },
      "t_contract(ISanctionsList)3331": {
        "encoding": "inplace",
        "label": "contract ISanctionsList",
        "numberOfBytes": "20"
      },
      "t_mapping(t_address,t_bool)": {
        "encoding": "mapping",
        "key": "t_address",
        "label": "mapping(address => bool)",
        "numberOfBytes": "32",
        "value": "t_bool"
      },
      "t_mapping(t_address,t_mapping(t_address,t_uint256))": {
        "encoding": "mapping",
        "key": "t_address",
        "label": "mapping(address => mapping(address => uint256))",
        "numberOfBytes": "32",
        "value": "t_mapping(t_address,t_uint256)"
      },
      "t_mapping(t_address,t_uint256)": {
        "encoding": "mapping",
        "key": "t_address",
        "label": "mapping(address => uint256)",
        "numberOfBytes": "32",
        "value": "t_uint256"
      },
      "t_mapping(t_bytes32,t_struct(AddressSet)7761_storage)": {
        "encoding": "mapping",
        "key": "t_bytes32",
        "label": "mapping(bytes32 => struct EnumerableSetUpgradeable.AddressSet)",
        "numberOfBytes": "32",
        "value": "t_struct(AddressSet)7761_storage"
      },
      "t_mapping(t_bytes32,t_struct(RoleData)3557_storage)": {
        "encoding": "mapping",
        "key": "t_bytes32",
        "label": "mapping(bytes32 => struct AccessControlUpgradeable.RoleData)",
        "numberOfBytes": "32",
        "value": "t_struct(RoleData)3557_storage"
      },
      "t_mapping(t_bytes32,t_uint256)": {
        "encoding": "mapping",
        "key": "t_bytes32",
        "label": "mapping(bytes32 => uint256)",
        "numberOfBytes": "32",
        "value": "t_uint256"
      },
      "t_string_storage": {
        "encoding": "bytes",
        "label": "string",
        "numberOfBytes": "32"
      },
      "t_struct(AddressSet)7761_storage": {
        "encoding": "inplace",
        "label": "struct EnumerableSetUpgradeable.AddressSet",
        "members": [
          {
            "astId": 7760,
            "contract": "contracts/usdy/USDY.sol:USDY",
            "label": "_inner",
            "offset": 0,
            "slot": "0",
            "type": "t_struct(Set)7460_storage"
          }
        ],
        "numberOfBytes": "64"
      },
      "t_struct(RoleData)3557_storage": {
        "encoding": "inplace",
        "label": "struct AccessControlUpgradeable.RoleData",
        "members": [
          {
            "astId": 3554,
            "contract": "contracts/usdy/USDY.sol:USDY",
            "label": "members",
            "offset": 0,
            "slot": "0",
            "type": "t_mapping(t_address,t_bool)"
          },
          {
            "astId": 3556,
            "contract": "contracts/usdy/USDY.sol:USDY",
            "label": "adminRole",
            "offset": 0,
            "slot": "1",
            "type": "t_bytes32"
          }
        ],
        "numberOfBytes": "64"
      },
      "t_struct(Set)7460_storage": {
        "encoding": "inplace",
        "label": "struct EnumerableSetUpgradeable.Set",
        "members": [
          {
            "astId": 7455,
            "contract": "contracts/usdy/USDY.sol:USDY",
            "label": "_values",
            "offset": 0,
            "slot": "0",
            "type": "t_array(t_bytes32)dyn_storage"
          },
          {
            "astId": 7459,
            "contract": "contracts/usdy/USDY.sol:USDY",
            "label": "_indexes",
            "offset": 0,
            "slot": "1",
            "type": "t_mapping(t_bytes32,t_uint256)"
          }
        ],
        "numberOfBytes": "64"
      },
      "t_uint256": {
        "encoding": "inplace",
        "label": "uint256",
        "numberOfBytes": "32"
      },
      "t_uint8": {
        "encoding": "inplace",
        "label": "uint8",
        "numberOfBytes": "1"
      }
    }
  }
}