{
  "address": "0x02D77d39C3889BF1da64c96f6f3b9a22AEE2b51D",
  "abi": [
    {
      "inputs": [
        {
          "internalType": "address",
          "name": "_guardian",
          "type": "address"
        }
      ],
      "stateMutability": "nonpayable",
      "type": "constructor"
    },
    {
      "anonymous": false,
      "inputs": [
        {
          "indexed": false,
          "internalType": "address",
          "name": "proxy",
          "type": "address"
        },
        {
          "indexed": false,
          "internalType": "address",
          "name": "proxyAdmin",
          "type": "address"
        },
        {
          "indexed": false,
          "internalType": "address",
          "name": "implementation",
          "type": "address"
        },
        {
          "indexed": false,
          "internalType": "string",
          "name": "name",
          "type": "string"
        },
        {
          "indexed": false,
          "internalType": "string",
          "name": "ticker",
          "type": "string"
        }
      ],
      "name": "WOMMFDeployed",
      "type": "event"
    },
    {
      "inputs": [],
      "name": "DEFAULT_ADMIN_ROLE",
      "outputs": [
        {
          "internalType": "bytes32",
          "name": "",
          "type": "bytes32"
        }
      ],
      "stateMutability": "view",
      "type": "function"
    },
    {
      "inputs": [],
      "name": "MINTER_ROLE",
      "outputs": [
        {
          "internalType": "bytes32",
          "name": "",
          "type": "bytes32"
        }
      ],
      "stateMutability": "view",
      "type": "function"
    },
    {
      "inputs": [],
      "name": "PAUSER_ROLE",
      "outputs": [
        {
          "internalType": "bytes32",
          "name": "",
          "type": "bytes32"
        }
      ],
      "stateMutability": "view",
      "type": "function"
    },
    {
      "inputs": [
        {
          "internalType": "string",
          "name": "name",
          "type": "string"
        },
        {
          "internalType": "string",
          "name": "ticker",
          "type": "string"
        },
        {
          "internalType": "address",
          "name": "ommfAddress",
          "type": "address"
        },
        {
          "internalType": "address",
          "name": "registry",
          "type": "address"
        },
        {
          "internalType": "uint256",
          "name": "requirementGroup",
          "type": "uint256"
        }
      ],
      "name": "deployWOMMF",
      "outputs": [
        {
          "internalType": "address",
          "name": "",
          "type": "address"
        },
        {
          "internalType": "address",
          "name": "",
          "type": "address"
        },
        {
          "internalType": "address",
          "name": "",
          "type": "address"
        }
      ],
      "stateMutability": "nonpayable",
      "type": "function"
    },
    {
      "inputs": [
        {
          "components": [
            {
              "internalType": "address",
              "name": "target",
              "type": "address"
            },
            {
              "internalType": "bytes",
              "name": "data",
              "type": "bytes"
            },
            {
              "internalType": "uint256",
              "name": "value",
              "type": "uint256"
            }
          ],
          "internalType": "struct IMulticall.ExCallData[]",
          "name": "exCallData",
          "type": "tuple[]"
        }
      ],
      "name": "multiexcall",
      "outputs": [
        {
          "internalType": "bytes[]",
          "name": "results",
          "type": "bytes[]"
        }
      ],
      "stateMutability": "payable",
      "type": "function"
    },
    {
      "inputs": [],
      "name": "wommfImplementation",
      "outputs": [
        {
          "internalType": "contract WOMMF",
          "name": "",
          "type": "address"
        }
      ],
      "stateMutability": "view",
      "type": "function"
    },
    {
      "inputs": [],
      "name": "wommfProxy",
      "outputs": [
        {
          "internalType": "contract TokenProxy",
          "name": "",
          "type": "address"
        }
      ],
      "stateMutability": "view",
      "type": "function"
    },
    {
      "inputs": [],
      "name": "wommfProxyAdmin",
      "outputs": [
        {
          "internalType": "contract ProxyAdmin",
          "name": "",
          "type": "address"
        }
      ],
      "stateMutability": "view",
      "type": "function"
    }
  ],
  "transactionHash": "0xa88541aa7c559b969b9c175a9ea6bb7623b14838e4f51c73915f133c4c9d8657",
  "args": [
    "0xAEd4caF2E535D964165B4392342F71bac77e8367"
  ],
  "solcInputHash": "2f1faea390e7257bd369ece6ac7f1fbd",
  "bytecode": "0x60a060405234801561001057600080fd5b5060405161509d38038061509d83398101604081905261002f91610040565b6001600160a01b0316608052610070565b60006020828403121561005257600080fd5b81516001600160a01b038116811461006957600080fd5b9392505050565b608051614ff66100a7600039600081816102130152818161038601528181610576015281816105e1015261073a0152614ff66000f3fe608060405260043610620000745760003560e01c80634a52662e146200007957806356ff9a5a14620000b8578063724c0d6a14620001085780638a502302146200012a578063936bffd9146200014c578063a217fddf1462000172578063d53913931462000198578063e63ab1e914620001ce575b600080fd5b3480156200008657600080fd5b506000546200009b906001600160a01b031681565b6040516001600160a01b0390911681526020015b60405180910390f35b348015620000c557600080fd5b50620000dd620000d7366004620009e8565b62000204565b604080516001600160a01b0394851681529284166020840152921691810191909152606001620000af565b3480156200011557600080fd5b506001546200009b906001600160a01b031681565b3480156200013757600080fd5b506002546200009b906001600160a01b031681565b620001636200015d36600462000a93565b6200072d565b604051620000af919062000b0d565b3480156200017f57600080fd5b5062000189600081565b604051908152602001620000af565b348015620001a557600080fd5b50620001897f9f2df0fed2c77648de5860a4cc508cd0818c85b8b8a1ab4ceeef8d981c8956a681565b348015620001db57600080fd5b50620001897f65d7a28e3265b37a6474929f336521b332c1681b933f6cb9f3376673440d862a81565b60008080336001600160a01b037f000000000000000000000000000000000000000000000000000000000000000016146200025c5760405162461bcd60e51b8152600401620002539062000ba3565b60405180910390fd5b6040516200026a9062000959565b604051809103906000f08015801562000287573d6000803e3d6000fd5b50600080546001600160a01b0319166001600160a01b0392909216919091179055604051620002b69062000967565b604051809103906000f080158015620002d3573d6000803e3d6000fd5b50600180546001600160a01b0319166001600160a01b03928316908117909155600054604051921691620003079062000975565b6001600160a01b03928316815291166020820152606060408201819052600090820152608001604051809103906000f0801580156200034a573d6000803e3d6000fd5b50600280546001600160a01b0319166001600160a01b03929092169182179055604051638d26ce8160e01b81528190638d26ce8190620003bd907f0000000000000000000000000000000000000000000000000000000000000000908f908f908f908f908f908f908f9060040162000c12565b600060405180830381600087803b158015620003d857600080fd5b505af1158015620003ed573d6000803e3d6000fd5b505060405163d547741f60e01b81526001600160a01b038416925063d547741f915062000441907f9f2df0fed2c77648de5860a4cc508cd0818c85b8b8a1ab4ceeef8d981c8956a690309060040162000c6c565b600060405180830381600087803b1580156200045c57600080fd5b505af115801562000471573d6000803e3d6000fd5b505060405163d547741f60e01b81526001600160a01b038416925063d547741f9150620004c5907f65d7a28e3265b37a6474929f336521b332c1681b933f6cb9f3376673440d862a90309060040162000c6c565b600060405180830381600087803b158015620004e057600080fd5b505af1158015620004f5573d6000803e3d6000fd5b505060405163d547741f60e01b81526001600160a01b038416925063d547741f91506200052a90600090309060040162000c6c565b600060405180830381600087803b1580156200054557600080fd5b505af11580156200055a573d6000803e3d6000fd5b505060015460405163f2fde38b60e01b81526001600160a01b037f000000000000000000000000000000000000000000000000000000000000000081166004830152909116925063f2fde38b9150602401600060405180830381600087803b158015620005c657600080fd5b505af1158015620005db573d6000803e3d6000fd5b505050507f00000000000000000000000000000000000000000000000000000000000000006001600160a01b0316600160009054906101000a90046001600160a01b03166001600160a01b0316638da5cb5b6040518163ffffffff1660e01b8152600401602060405180830381865afa1580156200065d573d6000803e3d6000fd5b505050506040513d601f19601f8201168201806040525081019062000683919062000c83565b6001600160a01b0316146200069c576200069c62000caa565b7fa30f0d9043c8dd4211f2e2c4bd603b2cc4ec0143a4ce22e3be06a089383caa6981600160009054906101000a90046001600160a01b031660008054906101000a90046001600160a01b03168e8e8e8e60405162000701979695949392919062000cc0565b60405180910390a1600154600054919c6001600160a01b039182169c5091169950975050505050505050565b6060336001600160a01b037f000000000000000000000000000000000000000000000000000000000000000016146200077a5760405162461bcd60e51b8152600401620002539062000ba3565b8167ffffffffffffffff81111562000796576200079662000d1a565b604051908082528060200260200182016040528015620007cb57816020015b6060815260200190600190039081620007b55790505b50905060005b828110156200095257600080858584818110620007f257620007f262000d30565b905060200281019062000806919062000d46565b6200081690602081019062000d67565b6001600160a01b031686868581811062000834576200083462000d30565b905060200281019062000848919062000d46565b6040013587878681811062000861576200086162000d30565b905060200281019062000875919062000d46565b6200088590602081019062000d87565b6040516200089592919062000dd1565b60006040518083038185875af1925050503d8060008114620008d4576040519150601f19603f3d011682016040523d82523d6000602084013e620008d9565b606091505b5091509150816200091b5760405162461bcd60e51b815260206004820152600b60248201526a10d85b1b0811985a5b195960aa1b604482015260640162000253565b8084848151811062000931576200093162000d30565b60200260200101819052505050806200094a9062000de1565b9050620007d1565b5092915050565b612ad78062000e0a83390190565b6107b780620038e183390190565b610f29806200409883390190565b60008083601f8401126200099657600080fd5b50813567ffffffffffffffff811115620009af57600080fd5b602083019150836020828501011115620009c857600080fd5b9250929050565b6001600160a01b0381168114620009e557600080fd5b50565b600080600080600080600060a0888a03121562000a0457600080fd5b873567ffffffffffffffff8082111562000a1d57600080fd5b62000a2b8b838c0162000983565b909950975060208a013591508082111562000a4557600080fd5b5062000a548a828b0162000983565b909650945050604088013562000a6a81620009cf565b9250606088013562000a7c81620009cf565b809250506080880135905092959891949750929550565b6000806020838503121562000aa757600080fd5b823567ffffffffffffffff8082111562000ac057600080fd5b818501915085601f83011262000ad557600080fd5b81358181111562000ae557600080fd5b8660208260051b850101111562000afb57600080fd5b60209290920196919550909350505050565b6000602080830181845280855180835260408601915060408160051b87010192508387016000805b8381101562000b9557888603603f1901855282518051808852835b8181101562000b6d578281018a01518982018b0152890162000b50565b508781018901849052601f01601f191690960187019550938601939186019160010162000b35565b509398975050505050505050565b60208082526026908201527f574f4d4d46466163746f72793a20596f7520617265206e6f742074686520477560408201526530b93234b0b760d11b606082015260800190565b81835281816020850137506000828201602090810191909152601f909101601f19169091010190565b600060018060a01b03808b16835260c0602084015262000c3760c084018a8c62000be9565b838103604085015262000c4c81898b62000be9565b96821660608501525093909316608082015260a001525095945050505050565b9182526001600160a01b0316602082015260400190565b60006020828403121562000c9657600080fd5b815162000ca381620009cf565b9392505050565b634e487b7160e01b600052600160045260246000fd5b6001600160a01b03888116825287811660208301528616604082015260a06060820181905260009062000cf7908301868862000be9565b828103608084015262000d0c81858762000be9565b9a9950505050505050505050565b634e487b7160e01b600052604160045260246000fd5b634e487b7160e01b600052603260045260246000fd5b60008235605e1983360301811262000d5d57600080fd5b9190910192915050565b60006020828403121562000d7a57600080fd5b813562000ca381620009cf565b6000808335601e1984360301811262000d9f57600080fd5b83018035915067ffffffffffffffff82111562000dbb57600080fd5b602001915036819003821315620009c857600080fd5b8183823760009101908152919050565b60006001820162000e0257634e487b7160e01b600052601160045260246000fd5b506001019056fe60806040523480156200001157600080fd5b506200001c62000022565b620000e4565b600054610100900460ff16156200008f5760405162461bcd60e51b815260206004820152602760248201527f496e697469616c697a61626c653a20636f6e747261637420697320696e697469604482015266616c697a696e6760c81b606482015260840160405180910390fd5b60005460ff9081161015620000e2576000805460ff191660ff9081179091556040519081527f7f26b83ff96e1f2b6a682f133852f6798a09c465da95921460cefb38474024989060200160405180910390a15b565b6129e380620000f46000396000f3fe608060405234801561001057600080fd5b506004361061027f5760003560e01c8063600d2dbc1161015c578063a719f9b8116100ce578063dd62ed3e11610087578063dd62ed3e14610577578063de0e9a3e1461058a578063e63ab1e91461059d578063e6d6bec6146105b2578063ea598cb0146105c5578063f9f293b5146105d857600080fd5b8063a719f9b814610500578063a9059cbb14610515578063c183e15114610528578063ca15c8731461053c578063d53913931461054f578063d547741f1461056457600080fd5b80639010d07c116101205780639010d07c146104af57806391d14854146104c257806392b82759146104d557806395d89b41146104dd578063a217fddf146104e5578063a457c2d7146104ed57600080fd5b8063600d2dbc1461044557806370a082311461045857806379cc6790146104815780638456cb59146104945780638d26ce811461049c57600080fd5b80632f2ff15d116101f557806340c10f19116101b957806340c10f19146103ca57806342966c68146103dd5780634b155b97146103f05780634cd88b761461041c578063510b751b1461042f5780635c975abb1461043957600080fd5b80632f2ff15d1461037a578063313ce5671461038d57806336568abe1461039c57806339509351146103af5780633f4ba83a146103c257600080fd5b806318160ddd1161024757806318160ddd1461030c5780631db588241461031457806323b872dd1461031c578063248a9ca31461032f57806324f09e9c14610352578063282c51f31461036557600080fd5b80630106d96b1461028457806301ffc9a7146102ac57806306dd0419146102cf57806306fdde03146102e4578063095ea7b3146102f9575b600080fd5b61029960008051602061290e83398151915281565b6040519081526020015b60405180910390f35b6102bf6102ba366004612270565b6105eb565b60405190151581526020016102a3565b6102e26102dd3660046122b6565b610616565b005b6102ec610725565b6040516102a39190612304565b6102bf6103073660046122b6565b6107b7565b60cb54610299565b6102996107cf565b6102bf61032a366004612337565b61084b565b61029961033d366004612373565b60009081526065602052604090206001015490565b6102e2610360366004612373565b61086f565b61029960008051602061298e83398151915281565b6102e261038836600461238c565b610894565b604051601281526020016102a3565b6102e26103aa36600461238c565b6108be565b6102bf6103bd3660046122b6565b61093d565b6102e261095f565b6102e26103d83660046122b6565b610982565b6102e26103eb366004612373565b610a0f565b6101c354610404906001600160a01b031681565b6040516001600160a01b0390911681526020016102a3565b6102e261042a36600461245b565b610a19565b6102996101c45481565b61012d5460ff166102bf565b6102e26104533660046124bf565b610ae6565b6102996104663660046124bf565b6001600160a01b0316600090815260c9602052604090205490565b6102e261048f3660046122b6565b610b07565b6102e2610b1c565b6102e26104aa3660046124da565b610b3c565b6104046104bd366004612578565b610c9f565b6102bf6104d036600461238c565b610cbe565b610299610ce9565b6102ec610d23565b610299600081565b6102bf6104fb3660046122b6565b610d32565b6102996000805160206128ee83398151915281565b6102bf6105233660046122b6565b610dad565b6101f754610404906001600160a01b031681565b61029961054a366004612373565b610dbb565b61029960008051602061294e83398151915281565b6102e261057236600461238c565b610dd2565b61029961058536600461259a565b610df7565b6102e2610598366004612373565b610e22565b61029960008051602061292e83398151915281565b6102996105c0366004612373565b610fb2565b6102e26105d3366004612373565b611022565b6102996105e6366004612373565b6111ad565b60006001600160e01b03198216635a05180f60e01b14806106105750610610826111e0565b92915050565b60008051602061298e83398151915261062e81611215565b610638838361121f565b6101f75460405163bb39512b60e01b8152600481018490526000916001600160a01b03169063bb39512b90602401602060405180830381865afa158015610683573d6000803e3d6000fd5b505050506040513d601f19601f820116820180604052508101906106a791906125c4565b6101f75460405163a9059cbb60e01b8152336004820152602481018390529192506001600160a01b03169063a9059cbb906044016020604051808303816000875af11580156106fa573d6000803e3d6000fd5b505050506040513d601f19601f8201168201806040525081019061071e91906125dd565b5050505050565b606060cc8054610734906125ff565b80601f0160208091040260200160405190810160405280929190818152602001828054610760906125ff565b80156107ad5780601f10610782576101008083540402835291602001916107ad565b820191906000526020600020905b81548152906001019060200180831161079057829003601f168201915b5050505050905090565b6000336107c5818585611367565b5060019392505050565b6101f7546040516386b8436960e01b8152670de0b6b3a764000060048201526000916001600160a01b0316906386b84369906024015b602060405180830381865afa158015610822573d6000803e3d6000fd5b505050506040513d601f19601f8201168201806040525081019061084691906125c4565b905090565b60003361085985828561148b565b610864858585611505565b506001949350505050565b60008051602061290e83398151915261088781611215565b610890826116cc565b5050565b6000828152606560205260409020600101546108af81611215565b6108b98383611713565b505050565b6001600160a01b03811633146109335760405162461bcd60e51b815260206004820152602f60248201527f416363657373436f6e74726f6c3a2063616e206f6e6c792072656e6f756e636560448201526e103937b632b9903337b91039b2b63360891b60648201526084015b60405180910390fd5b6108908282611735565b6000336107c58185856109508383610df7565b61095a919061264f565b611367565b6000805160206128ee83398151915261097781611215565b61097f611757565b50565b61099a60008051602061294e83398151915233610cbe565b610a055760405162461bcd60e51b815260206004820152603660248201527f45524332305072657365744d696e7465725061757365723a206d7573742068616044820152751d99481b5a5b9d195c881c9bdb19481d1bc81b5a5b9d60521b606482015260840161092a565b61089082826117aa565b61097f338261121f565b600054610100900460ff1615808015610a395750600054600160ff909116105b80610a535750303b158015610a53575060005460ff166001145b610a6f5760405162461bcd60e51b815260040161092a90612662565b6000805460ff191660011790558015610a92576000805461ff0019166101001790555b610a9c8383611883565b80156108b9576000805461ff0019169055604051600181527f7f26b83ff96e1f2b6a682f133852f6798a09c465da95921460cefb38474024989060200160405180910390a1505050565b60008051602061290e833981519152610afe81611215565b610890826118c6565b610b1282338361148b565b610890828261121f565b60008051602061292e833981519152610b3481611215565b61097f611948565b600054610100900460ff1615808015610b5c5750600054600160ff909116105b80610b765750303b158015610b76575060005460ff166001145b610b925760405162461bcd60e51b815260040161092a90612662565b6000805460ff191660011790558015610bb5576000805461ff0019166101001790555b610bbf8686611883565b610bc98383611986565b6101f780546001600160a01b0319166001600160a01b038616179055610bf0600088611713565b610c0860008051602061292e83398151915288611713565b610c2060008051602061298e83398151915288611713565b610c3860008051602061290e83398151915288611713565b610c506000805160206128ee83398151915288611713565b8015610c96576000805461ff0019169055604051600181527f7f26b83ff96e1f2b6a682f133852f6798a09c465da95921460cefb38474024989060200160405180910390a15b50505050505050565b6000828152609760205260408120610cb790836119b7565b9392505050565b60009182526065602090815260408084206001600160a01b0393909316845291905290205460ff1690565b6101f75460405163bb39512b60e01b8152670de0b6b3a764000060048201526000916001600160a01b03169063bb39512b90602401610805565b606060cd8054610734906125ff565b60003381610d408286610df7565b905083811015610da05760405162461bcd60e51b815260206004820152602560248201527f45524332303a2064656372656173656420616c6c6f77616e63652062656c6f77604482015264207a65726f60d81b606482015260840161092a565b6108648286868403611367565b6000336107c5818585611505565b6000818152609760205260408120610610906119c3565b600082815260656020526040902060010154610ded81611215565b6108b98383611735565b6001600160a01b03918216600090815260ca6020908152604080832093909416825291909152205490565b60008111610e805760405162461bcd60e51b815260206004820152602560248201527f774f4d4d463a2063616e277420756e77726170207a65726f20774f4d4d4620746044820152646f6b656e7360d81b606482015260840161092a565b6101f75460405163bb39512b60e01b8152600481018390526000916001600160a01b03169063bb39512b90602401602060405180830381865afa158015610ecb573d6000803e3d6000fd5b505050506040513d601f19601f82011682018060405250810190610eef91906125c4565b9050610efb338361121f565b6101f75460405163a9059cbb60e01b8152336004820152602481018390526001600160a01b039091169063a9059cbb906044016020604051808303816000875af1158015610f4d573d6000803e3d6000fd5b505050506040513d601f19601f82011682018060405250810190610f7191906125dd565b50604080518281526020810184905233917fe8e8d3915b94f03b4f3342716334ae94bd6f36775da7b263c908889b93d0574b91015b60405180910390a25050565b6101f75460405163bb39512b60e01b8152600481018390526000916001600160a01b03169063bb39512b906024015b602060405180830381865afa158015610ffe573d6000803e3d6000fd5b505050506040513d601f19601f8201168201806040525081019061061091906125c4565b6000811161107d5760405162461bcd60e51b815260206004820152602260248201527f774f4d4d463a2063616e27742077726170207a65726f204f4d4d4620746f6b656044820152616e7360f01b606482015260840161092a565b6101f7546040516386b8436960e01b8152600481018390526000916001600160a01b0316906386b8436990602401602060405180830381865afa1580156110c8573d6000803e3d6000fd5b505050506040513d601f19601f820116820180604052508101906110ec91906125c4565b90506110f833826117aa565b6101f7546040516323b872dd60e01b8152336004820152306024820152604481018490526001600160a01b03909116906323b872dd906064016020604051808303816000875af1158015611150573d6000803e3d6000fd5b505050506040513d601f19601f8201168201806040525081019061117491906125dd565b50604080518381526020810183905233917f18a5ed48bb0a697c64a5aef8f28cec1f29ab01da27a45c5f835099781ef1ea469101610fa6565b6101f7546040516386b8436960e01b8152600481018390526000916001600160a01b0316906386b8436990602401610fe1565b60006001600160e01b03198216637965db0b60e01b148061061057506301ffc9a760e01b6001600160e01b0319831614610610565b61097f81336119cd565b6001600160a01b03821661127f5760405162461bcd60e51b815260206004820152602160248201527f45524332303a206275726e2066726f6d20746865207a65726f206164647265736044820152607360f81b606482015260840161092a565b61128b82600083611a31565b6001600160a01b038216600090815260c96020526040902054818110156112ff5760405162461bcd60e51b815260206004820152602260248201527f45524332303a206275726e20616d6f756e7420657863656564732062616c616e604482015261636560f01b606482015260840161092a565b6001600160a01b038316600090815260c960205260408120838303905560cb805484929061132e9084906126b0565b90915550506040518281526000906001600160a01b0385169060008051602061296e8339815191529060200160405180910390a3505050565b6001600160a01b0383166113c95760405162461bcd60e51b8152602060048201526024808201527f45524332303a20617070726f76652066726f6d20746865207a65726f206164646044820152637265737360e01b606482015260840161092a565b6001600160a01b03821661142a5760405162461bcd60e51b815260206004820152602260248201527f45524332303a20617070726f766520746f20746865207a65726f206164647265604482015261737360f01b606482015260840161092a565b6001600160a01b03838116600081815260ca602090815260408083209487168084529482529182902085905590518481527f8c5be1e5ebec7d5bd14f71427d1e84f3dd0314c0f7b2291e5b200ac8c7c3b925910160405180910390a3505050565b60006114978484610df7565b905060001981146114ff57818110156114f25760405162461bcd60e51b815260206004820152601d60248201527f45524332303a20696e73756666696369656e7420616c6c6f77616e6365000000604482015260640161092a565b6114ff8484848403611367565b50505050565b6001600160a01b0383166115695760405162461bcd60e51b815260206004820152602560248201527f45524332303a207472616e736665722066726f6d20746865207a65726f206164604482015264647265737360d81b606482015260840161092a565b6001600160a01b0382166115cb5760405162461bcd60e51b815260206004820152602360248201527f45524332303a207472616e7366657220746f20746865207a65726f206164647260448201526265737360e81b606482015260840161092a565b6115d6838383611a31565b6001600160a01b038316600090815260c960205260409020548181101561164e5760405162461bcd60e51b815260206004820152602660248201527f45524332303a207472616e7366657220616d6f756e7420657863656564732062604482015265616c616e636560d01b606482015260840161092a565b6001600160a01b03808516600090815260c9602052604080822085850390559185168152908120805484929061168590849061264f565b92505081905550826001600160a01b0316846001600160a01b031660008051602061296e833981519152846040516116bf91815260200190565b60405180910390a36114ff565b6101c480549082905560408051828152602081018490527fdaffa4de8807a37aaf10d8a67851ece24bdb59211b326eb514393692ddc9583291015b60405180910390a15050565b61171d8282611bb7565b60008281526097602052604090206108b99082611c3d565b61173f8282611c52565b60008281526097602052604090206108b99082611cb9565b61175f611cce565b61012d805460ff191690557f5db9ee0a495bf2e6ff9c91a7834c1ba4fdd244a5e8aa4e537bd38aeae4b073aa335b6040516001600160a01b03909116815260200160405180910390a1565b6001600160a01b0382166118005760405162461bcd60e51b815260206004820152601f60248201527f45524332303a206d696e7420746f20746865207a65726f206164647265737300604482015260640161092a565b61180c60008383611a31565b8060cb600082825461181e919061264f565b90915550506001600160a01b038216600090815260c960205260408120805483929061184b90849061264f565b90915550506040518181526001600160a01b0383169060009060008051602061296e8339815191529060200160405180910390a35050565b600054610100900460ff166118aa5760405162461bcd60e51b815260040161092a906126c3565b6118b48282611d1a565b6118bc611d5a565b6108908282611d8e565b6001600160a01b0381166118ed57604051636ca1fdd760e01b815260040160405180910390fd5b6101c380546001600160a01b038381166001600160a01b031983168117909355604080519190921680825260208201939093527f7d25fe3c08dd306579e1d2a5002c9c44f52c27fc3754b43c75ef1e080d454c8a9101611707565b611950611df0565b61012d805460ff191660011790557f62e78cea01bee320cd4e420270b5ea74000d11b0c9f74754ebdbfc544b05a25861178d3390565b600054610100900460ff166119ad5760405162461bcd60e51b815260040161092a906126c3565b6108908282611e37565b6000610cb78383611e70565b6000610610825490565b6119d78282610cbe565b610890576119ef816001600160a01b03166014611e9a565b6119fa836020611e9a565b604051602001611a0b92919061270e565b60408051601f198184030181529082905262461bcd60e51b825261092a91600401612304565b611a3c838383612036565b6001600160a01b0383163314801590611a5e57506001600160a01b0382163314155b15611aca57611a6c33612041565b611aca5760405162461bcd60e51b815260206004820152602960248201527f774f4d4d463a206d757374206265204b5943276420746f20696e697469617465604482015268103a3930b739b332b960b91b606482015260840161092a565b6001600160a01b03831615611b4957611ae283612041565b611b495760405162461bcd60e51b815260206004820152603260248201527f774f4d4d463a206066726f6d602061646472657373206d757374206265204b5960448201527143276420746f2073656e6420746f6b656e7360701b606482015260840161092a565b6001600160a01b038216156108b957611b6182612041565b6108b95760405162461bcd60e51b815260206004820152602160248201527f774f4d4d463a2060746f602061646472657373206d757374206265204b5943276044820152601960fa1b606482015260840161092a565b611bc18282610cbe565b6108905760008281526065602090815260408083206001600160a01b03851684529091529020805460ff19166001179055611bf93390565b6001600160a01b0316816001600160a01b0316837f2f8788117e7eff1d82e926ec794901d17c78024a50270940304540a733656f0d60405160405180910390a45050565b6000610cb7836001600160a01b0384166120bd565b611c5c8282610cbe565b156108905760008281526065602090815260408083206001600160a01b0385168085529252808320805460ff1916905551339285917ff6391f5c32d9c69d2a47ea670b442974b53935d1edc7fd64eb21e047a839171b9190a45050565b6000610cb7836001600160a01b03841661210c565b61012d5460ff16611d185760405162461bcd60e51b815260206004820152601460248201527314185d5cd8589b194e881b9bdd081c185d5cd95960621b604482015260640161092a565b565b600054610100900460ff16611d415760405162461bcd60e51b815260040161092a906126c3565b60cc611d4d83826127cb565b5060cd6108b982826127cb565b600054610100900460ff16611d815760405162461bcd60e51b815260040161092a906126c3565b61012d805460ff19169055565b600054610100900460ff16611db55760405162461bcd60e51b815260040161092a906126c3565b611dc06000336121ff565b611dd860008051602061294e833981519152336121ff565b61089060008051602061292e833981519152336121ff565b61012d5460ff1615611d185760405162461bcd60e51b815260206004820152601060248201526f14185d5cd8589b194e881c185d5cd95960821b604482015260640161092a565b600054610100900460ff16611e5e5760405162461bcd60e51b815260040161092a906126c3565b611e67826118c6565b610890816116cc565b6000826000018281548110611e8757611e8761288b565b9060005260206000200154905092915050565b60606000611ea98360026128a1565b611eb490600261264f565b67ffffffffffffffff811115611ecc57611ecc6123b8565b6040519080825280601f01601f191660200182016040528015611ef6576020820181803683370190505b509050600360fc1b81600081518110611f1157611f1161288b565b60200101906001600160f81b031916908160001a905350600f60fb1b81600181518110611f4057611f4061288b565b60200101906001600160f81b031916908160001a9053506000611f648460026128a1565b611f6f90600161264f565b90505b6001811115611fe7576f181899199a1a9b1b9c1cb0b131b232b360811b85600f1660108110611fa357611fa361288b565b1a60f81b828281518110611fb957611fb961288b565b60200101906001600160f81b031916908160001a90535060049490941c93611fe0816128c0565b9050611f72565b508315610cb75760405162461bcd60e51b815260206004820181905260248201527f537472696e67733a20686578206c656e67746820696e73756666696369656e74604482015260640161092a565b6108b9838383612209565b6101c3546101c45460405163609f4d6d60e11b815260048101919091526001600160a01b038381166024830152600092169063c13e9ada90604401602060405180830381865afa158015612099573d6000803e3d6000fd5b505050506040513d601f19601f8201168201806040525081019061061091906125dd565b600081815260018301602052604081205461210457508154600181810184556000848152602080822090930184905584548482528286019093526040902091909155610610565b506000610610565b600081815260018301602052604081205480156121f55760006121306001836126b0565b8554909150600090612144906001906126b0565b90508181146121a95760008660000182815481106121645761216461288b565b90600052602060002001549050808760000184815481106121875761218761288b565b6000918252602080832090910192909255918252600188019052604090208390555b85548690806121ba576121ba6128d7565b600190038181906000526020600020016000905590558560010160008681526020019081526020016000206000905560019350505050610610565b6000915050610610565b6108908282611713565b61012d5460ff16156108b95760405162461bcd60e51b815260206004820152602a60248201527f45524332305061757361626c653a20746f6b656e207472616e736665722077686044820152691a5b19481c185d5cd95960b21b606482015260840161092a565b60006020828403121561228257600080fd5b81356001600160e01b031981168114610cb757600080fd5b80356001600160a01b03811681146122b157600080fd5b919050565b600080604083850312156122c957600080fd5b6122d28361229a565b946020939093013593505050565b60005b838110156122fb5781810151838201526020016122e3565b50506000910152565b60208152600082518060208401526123238160408501602087016122e0565b601f01601f19169190910160400192915050565b60008060006060848603121561234c57600080fd5b6123558461229a565b92506123636020850161229a565b9150604084013590509250925092565b60006020828403121561238557600080fd5b5035919050565b6000806040838503121561239f57600080fd5b823591506123af6020840161229a565b90509250929050565b634e487b7160e01b600052604160045260246000fd5b600082601f8301126123df57600080fd5b813567ffffffffffffffff808211156123fa576123fa6123b8565b604051601f8301601f19908116603f01168101908282118183101715612422576124226123b8565b8160405283815286602085880101111561243b57600080fd5b836020870160208301376000602085830101528094505050505092915050565b6000806040838503121561246e57600080fd5b823567ffffffffffffffff8082111561248657600080fd5b612492868387016123ce565b935060208501359150808211156124a857600080fd5b506124b5858286016123ce565b9150509250929050565b6000602082840312156124d157600080fd5b610cb78261229a565b60008060008060008060c087890312156124f357600080fd5b6124fc8761229a565b9550602087013567ffffffffffffffff8082111561251957600080fd5b6125258a838b016123ce565b9650604089013591508082111561253b57600080fd5b5061254889828a016123ce565b9450506125576060880161229a565b92506125656080880161229a565b915060a087013590509295509295509295565b6000806040838503121561258b57600080fd5b50508035926020909101359150565b600080604083850312156125ad57600080fd5b6125b68361229a565b91506123af6020840161229a565b6000602082840312156125d657600080fd5b5051919050565b6000602082840312156125ef57600080fd5b81518015158114610cb757600080fd5b600181811c9082168061261357607f821691505b60208210810361263357634e487b7160e01b600052602260045260246000fd5b50919050565b634e487b7160e01b600052601160045260246000fd5b8082018082111561061057610610612639565b6020808252602e908201527f496e697469616c697a61626c653a20636f6e747261637420697320616c72656160408201526d191e481a5b9a5d1a585b1a5e995960921b606082015260800190565b8181038181111561061057610610612639565b6020808252602b908201527f496e697469616c697a61626c653a20636f6e7472616374206973206e6f74206960408201526a6e697469616c697a696e6760a81b606082015260800190565b76020b1b1b2b9b9a1b7b73a3937b61d1030b1b1b7bab73a1604d1b8152600083516127408160178501602088016122e0565b7001034b99036b4b9b9b4b733903937b6329607d1b60179184019182015283516127718160288401602088016122e0565b01602801949350505050565b601f8211156108b957600081815260208120601f850160051c810160208610156127a45750805b601f850160051c820191505b818110156127c3578281556001016127b0565b505050505050565b815167ffffffffffffffff8111156127e5576127e56123b8565b6127f9816127f384546125ff565b8461277d565b602080601f83116001811461282e57600084156128165750858301515b600019600386901b1c1916600185901b1785556127c3565b600085815260208120601f198616915b8281101561285d5788860151825594840194600190910190840161283e565b508582101561287b5787850151600019600388901b60f8161c191681555b5050505050600190811b01905550565b634e487b7160e01b600052603260045260246000fd5b60008160001904831182151516156128bb576128bb612639565b500290565b6000816128cf576128cf612639565b506000190190565b634e487b7160e01b600052603160045260246000fdfe837841b136837974ae7dbc9d82a0877d981d4d84abfe9b07abe165fd8ba456b726a6ff9f16adebf611cecd7b1759204c9bc5a4ce237c46fe05aed34fa1e5118765d7a28e3265b37a6474929f336521b332c1681b933f6cb9f3376673440d862a9f2df0fed2c77648de5860a4cc508cd0818c85b8b8a1ab4ceeef8d981c8956a6ddf252ad1be2c89b69c2b068fc378daa952ba7f163c4a11628f55a4df523b3efe97b137254058bd94f28d2f3eb79e2d34074ffb488d042e3bc958e0a57d2fa22a2646970667358221220aa0ab9c0d7e66f474066b735d50361f1e04ce2676ddc22fd73414f413be9d9d964736f6c63430008100033608060405234801561001057600080fd5b5061001a3361001f565b61006f565b600080546001600160a01b038381166001600160a01b0319831681178455604051919092169283917f8be0079c531659141344cd1fd0a4f28419497f9722a3daafe3b4186f6b6457e09190a35050565b6107398061007e6000396000f3fe60806040526004361061006b5760003560e01c8063204e1c7a14610070578063715018a6146100a65780637eff275e146100bd5780638da5cb5b146100dd5780639623609d146100f257806399a88ec414610105578063f2fde38b14610125578063f3b7dead14610145575b600080fd5b34801561007c57600080fd5b5061009061008b3660046104f6565b610165565b60405161009d919061051a565b60405180910390f35b3480156100b257600080fd5b506100bb6101f6565b005b3480156100c957600080fd5b506100bb6100d836600461052e565b61023a565b3480156100e957600080fd5b506100906102cb565b6100bb61010036600461057d565b6102da565b34801561011157600080fd5b506100bb61012036600461052e565b610370565b34801561013157600080fd5b506100bb6101403660046104f6565b6103cb565b34801561015157600080fd5b506100906101603660046104f6565b61046b565b6000806000836001600160a01b031660405161018b90635c60da1b60e01b815260040190565b600060405180830381855afa9150503d80600081146101c6576040519150601f19603f3d011682016040523d82523d6000602084013e6101cb565b606091505b5091509150816101da57600080fd5b808060200190518101906101ee9190610653565b949350505050565b336101ff6102cb565b6001600160a01b03161461022e5760405162461bcd60e51b815260040161022590610670565b60405180910390fd5b6102386000610491565b565b336102436102cb565b6001600160a01b0316146102695760405162461bcd60e51b815260040161022590610670565b6040516308f2839760e41b81526001600160a01b03831690638f2839709061029590849060040161051a565b600060405180830381600087803b1580156102af57600080fd5b505af11580156102c3573d6000803e3d6000fd5b505050505050565b6000546001600160a01b031690565b336102e36102cb565b6001600160a01b0316146103095760405162461bcd60e51b815260040161022590610670565b60405163278f794360e11b81526001600160a01b03841690634f1ef28690349061033990869086906004016106a5565b6000604051808303818588803b15801561035257600080fd5b505af1158015610366573d6000803e3d6000fd5b5050505050505050565b336103796102cb565b6001600160a01b03161461039f5760405162461bcd60e51b815260040161022590610670565b604051631b2ce7f360e11b81526001600160a01b03831690633659cfe69061029590849060040161051a565b336103d46102cb565b6001600160a01b0316146103fa5760405162461bcd60e51b815260040161022590610670565b6001600160a01b03811661045f5760405162461bcd60e51b815260206004820152602660248201527f4f776e61626c653a206e6577206f776e657220697320746865207a65726f206160448201526564647265737360d01b6064820152608401610225565b61046881610491565b50565b6000806000836001600160a01b031660405161018b906303e1469160e61b815260040190565b600080546001600160a01b038381166001600160a01b0319831681178455604051919092169283917f8be0079c531659141344cd1fd0a4f28419497f9722a3daafe3b4186f6b6457e09190a35050565b6001600160a01b038116811461046857600080fd5b60006020828403121561050857600080fd5b8135610513816104e1565b9392505050565b6001600160a01b0391909116815260200190565b6000806040838503121561054157600080fd5b823561054c816104e1565b9150602083013561055c816104e1565b809150509250929050565b634e487b7160e01b600052604160045260246000fd5b60008060006060848603121561059257600080fd5b833561059d816104e1565b925060208401356105ad816104e1565b9150604084013567ffffffffffffffff808211156105ca57600080fd5b818601915086601f8301126105de57600080fd5b8135818111156105f0576105f0610567565b604051601f8201601f19908116603f0116810190838211818310171561061857610618610567565b8160405282815289602084870101111561063157600080fd5b8260208601602083013760006020848301015280955050505050509250925092565b60006020828403121561066557600080fd5b8151610513816104e1565b6020808252818101527f4f776e61626c653a2063616c6c6572206973206e6f7420746865206f776e6572604082015260600190565b60018060a01b038316815260006020604081840152835180604085015260005b818110156106e1578581018301518582016060015282016106c5565b506000606082860101526060601f19601f83011685010192505050939250505056fea2646970667358221220e4431c0c42c818f97f8582430738c79e6584ed94b888442b706f43993cb3ee9464736f6c6343000810003360806040523480156200001157600080fd5b5060405162000f2938038062000f29833981016040819052620000349162000528565b82828282816200006660017f360894a13ba1a3210667c828492db98dca3e2076cc3735a920a3ca505d382bbd62000608565b60008051602062000ee2833981519152146200008657620000866200062a565b6200009482826000620000fb565b50620000c4905060017fb53127684a568b3173ae13b9f8a6016e243e63b6e8ee1178d6a717850b5d610462000608565b60008051602062000ec283398151915214620000e457620000e46200062a565b620000ef8262000138565b50505050505062000693565b620001068362000193565b600082511180620001145750805b156200013357620001318383620001d560201b6200022e1760201c565b505b505050565b7f7e644d79422f17c01e4894b5f4f588d331ebfa28653d42ae832dc59e38c9798f6200016362000206565b604080516001600160a01b03928316815291841660208301520160405180910390a162000190816200023f565b50565b6200019e81620002f4565b6040516001600160a01b038216907fbc7cd75a20ee27fd9adebab32041f755214dbc6bffa90cc0225b39da2e5c2d3b90600090a250565b6060620001fd838360405180606001604052806027815260200162000f026027913962000397565b90505b92915050565b60006200023060008051602062000ec283398151915260001b6200047f60201b620001ea1760201c565b546001600160a01b0316919050565b6001600160a01b038116620002aa5760405162461bcd60e51b815260206004820152602660248201527f455243313936373a206e65772061646d696e20697320746865207a65726f206160448201526564647265737360d01b60648201526084015b60405180910390fd5b80620002d360008051602062000ec283398151915260001b6200047f60201b620001ea1760201c565b80546001600160a01b0319166001600160a01b039290921691909117905550565b6200030a816200048260201b6200025a1760201c565b6200036e5760405162461bcd60e51b815260206004820152602d60248201527f455243313936373a206e657720696d706c656d656e746174696f6e206973206e60448201526c1bdd08184818dbdb9d1c9858dd609a1b6064820152608401620002a1565b80620002d360008051602062000ee283398151915260001b6200047f60201b620001ea1760201c565b60606001600160a01b0384163b620004015760405162461bcd60e51b815260206004820152602660248201527f416464726573733a2064656c65676174652063616c6c20746f206e6f6e2d636f6044820152651b9d1c9858dd60d21b6064820152608401620002a1565b600080856001600160a01b0316856040516200041e919062000640565b600060405180830381855af49150503d80600081146200045b576040519150601f19603f3d011682016040523d82523d6000602084013e62000460565b606091505b5090925090506200047382828662000491565b925050505b9392505050565b90565b6001600160a01b03163b151590565b60608315620004a257508162000478565b825115620004b35782518084602001fd5b8160405162461bcd60e51b8152600401620002a191906200065e565b80516001600160a01b0381168114620004e757600080fd5b919050565b634e487b7160e01b600052604160045260246000fd5b60005b838110156200051f57818101518382015260200162000505565b50506000910152565b6000806000606084860312156200053e57600080fd5b6200054984620004cf565b92506200055960208501620004cf565b60408501519092506001600160401b03808211156200057757600080fd5b818601915086601f8301126200058c57600080fd5b815181811115620005a157620005a1620004ec565b604051601f8201601f19908116603f01168101908382118183101715620005cc57620005cc620004ec565b81604052828152896020848701011115620005e657600080fd5b620005f983602083016020880162000502565b80955050505050509250925092565b818103818111156200020057634e487b7160e01b600052601160045260246000fd5b634e487b7160e01b600052600160045260246000fd5b600082516200065481846020870162000502565b9190910192915050565b60208152600082518060208401526200067f81604085016020870162000502565b601f01601f19169190910160400192915050565b61081f80620006a36000396000f3fe60806040526004361061004e5760003560e01c80633659cfe6146100655780634f1ef286146100855780635c60da1b146100985780638f283970146100c9578063f851a440146100e95761005d565b3661005d5761005b6100fe565b005b61005b6100fe565b34801561007157600080fd5b5061005b6100803660046106b1565b610118565b61005b6100933660046106cc565b610155565b3480156100a457600080fd5b506100ad6101bc565b6040516001600160a01b03909116815260200160405180910390f35b3480156100d557600080fd5b5061005b6100e43660046106b1565b6101ed565b3480156100f557600080fd5b506100ad61020d565b610106610269565b6101166101116102fe565b610308565b565b61012061032c565b6001600160a01b0316330361014d5761014a8160405180602001604052806000815250600061035f565b50565b61014a6100fe565b61015d61032c565b6001600160a01b031633036101b4576101af8383838080601f0160208091040260200160405190810160405280939291908181526020018383808284376000920191909152506001925061035f915050565b505050565b6101af6100fe565b60006101c661032c565b6001600160a01b031633036101e2576101dd6102fe565b905090565b6101ea6100fe565b90565b6101f561032c565b6001600160a01b0316330361014d5761014a8161038a565b600061021761032c565b6001600160a01b031633036101e2576101dd61032c565b606061025383836040518060600160405280602781526020016107c3602791396103de565b9392505050565b6001600160a01b03163b151590565b61027161032c565b6001600160a01b031633036101165760405162461bcd60e51b815260206004820152604260248201527f5472616e73706172656e745570677261646561626c6550726f78793a2061646d60448201527f696e2063616e6e6f742066616c6c6261636b20746f2070726f78792074617267606482015261195d60f21b608482015260a4015b60405180910390fd5b60006101dd6104b9565b3660008037600080366000845af43d6000803e808015610327573d6000f35b3d6000fd5b60007fb53127684a568b3173ae13b9f8a6016e243e63b6e8ee1178d6a717850b5d61035b546001600160a01b0316919050565b610368836104e1565b6000825111806103755750805b156101af57610384838361022e565b50505050565b7f7e644d79422f17c01e4894b5f4f588d331ebfa28653d42ae832dc59e38c9798f6103b361032c565b604080516001600160a01b03928316815291841660208301520160405180910390a161014a81610521565b60606103e98461025a565b6104445760405162461bcd60e51b815260206004820152602660248201527f416464726573733a2064656c65676174652063616c6c20746f206e6f6e2d636f6044820152651b9d1c9858dd60d21b60648201526084016102f5565b600080856001600160a01b03168560405161045f9190610773565b600060405180830381855af49150503d806000811461049a576040519150601f19603f3d011682016040523d82523d6000602084013e61049f565b606091505b50915091506104af8282866105ca565b9695505050505050565b60007f360894a13ba1a3210667c828492db98dca3e2076cc3735a920a3ca505d382bbc610350565b6104ea81610603565b6040516001600160a01b038216907fbc7cd75a20ee27fd9adebab32041f755214dbc6bffa90cc0225b39da2e5c2d3b90600090a250565b6001600160a01b0381166105865760405162461bcd60e51b815260206004820152602660248201527f455243313936373a206e65772061646d696e20697320746865207a65726f206160448201526564647265737360d01b60648201526084016102f5565b807fb53127684a568b3173ae13b9f8a6016e243e63b6e8ee1178d6a717850b5d61035b80546001600160a01b0319166001600160a01b039290921691909117905550565b606083156105d9575081610253565b8251156105e95782518084602001fd5b8160405162461bcd60e51b81526004016102f5919061078f565b61060c8161025a565b61066e5760405162461bcd60e51b815260206004820152602d60248201527f455243313936373a206e657720696d706c656d656e746174696f6e206973206e60448201526c1bdd08184818dbdb9d1c9858dd609a1b60648201526084016102f5565b807f360894a13ba1a3210667c828492db98dca3e2076cc3735a920a3ca505d382bbc6105a9565b80356001600160a01b03811681146106ac57600080fd5b919050565b6000602082840312156106c357600080fd5b61025382610695565b6000806000604084860312156106e157600080fd5b6106ea84610695565b9250602084013567ffffffffffffffff8082111561070757600080fd5b818601915086601f83011261071b57600080fd5b81358181111561072a57600080fd5b87602082850101111561073c57600080fd5b6020830194508093505050509250925092565b60005b8381101561076a578181015183820152602001610752565b50506000910152565b6000825161078581846020870161074f565b9190910192915050565b60208152600082518060208401526107ae81604085016020870161074f565b601f01601f1916919091016040019291505056fe416464726573733a206c6f772d6c6576656c2064656c65676174652063616c6c206661696c6564a2646970667358221220bc79656da5dcf6854b9cca378a0453db2ed924a45d43ec97b50dc22b6ebe7bbb64736f6c63430008100033b53127684a568b3173ae13b9f8a6016e243e63b6e8ee1178d6a717850b5d6103360894a13ba1a3210667c828492db98dca3e2076cc3735a920a3ca505d382bbc416464726573733a206c6f772d6c6576656c2064656c65676174652063616c6c206661696c6564a2646970667358221220ef06c87dff9d146437d8d812965d8f1779dc35cb4a98b89f6691e871b2f107f464736f6c63430008100033",
  "devdoc": {
    "author": "Ondo Finance",
    "events": {
      "WOMMFDeployed(address,address,address,string,string)": {
        "details": "Event emitted when upgradable RWA token is deployed",
        "params": {
          "implementation": "The address for the implementation contract",
          "proxy": "The address for the proxy contract",
          "proxyAdmin": "The address for the proxy admin contract"
        }
      }
    },
    "kind": "dev",
    "methods": {
      "deployWOMMF(string,string,address,address,uint256)": {
        "details": "This function will deploy an upgradable instance of RWA",
        "params": {
          "name": "The name of the token we want to deploy.",
          "ommfAddress": "The address of the OMMF token to wrap",
          "registry": "The address of the KYC Registry",
          "requirementGroup": "The KYC requirement group for this token",
          "ticker": "The ticker for the token we want to deploy."
        },
        "returns": {
          "_0": "address The address of the proxy contract.",
          "_1": "address The address of the proxyAdmin contract.",
          "_2": "address The address of the implementation contract."
        }
      },
      "multiexcall((address,bytes,uint256)[])": {
        "details": "All external calls made through this function will      msg.sender == contract address",
        "params": {
          "exCallData": "Struct consisting of       1) target - contract to call       2) data - data to call target with       3) value - eth value to call target with"
        }
      }
    },
    "title": "wommfFactory",
    "version": 1
  },
  "userdoc": {
    "kind": "user",
    "methods": {
      "deployWOMMF(string,string,address,address,uint256)": {
        "notice": "1) Will automatically revoke all deployer roles granted to            address(this).         2) Will grant DEFAULT_ADMIN & PAUSER_ROLE(S) to `guardian`            address specified in constructor.         3) Will transfer ownership of the proxyAdmin to guardian            address."
      },
      "multiexcall((address,bytes,uint256)[])": {
        "notice": "Allows for arbitrary batched calls"
      }
    },
    "notice": "This contract serves as a Factory for the upgradable wOMMF token contract.         Upon calling `deployWOMMF` the `guardian` address (set in constructor) will         deploy the following:         1) wOMMF - The implementation contract, ERC20 contract with the initializer disabled         2) ProxyAdmin - OZ ProxyAdmin contract, used to upgrade the proxy instance.Owner is set to `guardian` address.         3) TransparentUpgradeableProxy - OZ, proxy contract. Admin is set to `address(proxyAdmin)`.                                          `_logic' is set to `address(rwa)`.         Following the above mentioned deployment, the address of the RWAFactory contract will:         i) Transfer ownership of the ProxyAdmin to that of the `guardian` address.         ii) Emit an event detailing the addresses on the upgradable contract array.`guardian` address in constructor is a msig.",
    "version": 1
  },
  "storageLayout": {
    "storage": [
      {
        "astId": 18699,
        "contract": "contracts/ommf/wrappedOMMF/wOMMF_factory.sol:WOMMFFactory",
        "label": "wommfImplementation",
        "offset": 0,
        "slot": "0",
        "type": "t_contract(WOMMF)18669"
      },
      {
        "astId": 18702,
        "contract": "contracts/ommf/wrappedOMMF/wOMMF_factory.sol:WOMMFFactory",
        "label": "wommfProxyAdmin",
        "offset": 0,
        "slot": "1",
        "type": "t_contract(ProxyAdmin)11351"
      },
      {
        "astId": 18705,
        "contract": "contracts/ommf/wrappedOMMF/wOMMF_factory.sol:WOMMFFactory",
        "label": "wommfProxy",
        "offset": 0,
        "slot": "2",
        "type": "t_contract(TokenProxy)709"
      }
    ],
    "types": {
      "t_contract(ProxyAdmin)11351": {
        "encoding": "inplace",
        "label": "contract ProxyAdmin",
        "numberOfBytes": "20"
      },
      "t_contract(TokenProxy)709": {
        "encoding": "inplace",
        "label": "contract TokenProxy",
        "numberOfBytes": "20"
      },
      "t_contract(WOMMF)18669": {
        "encoding": "inplace",
        "label": "contract WOMMF",
        "numberOfBytes": "20"
      }
    }
  }
}